{
  "contractName": "ERC721Mintable",
  "abi": [
    {
      "constant": true,
      "inputs": [
        {
          "internalType": "bytes4",
          "name": "interfaceId",
          "type": "bytes4"
        }
      ],
      "name": "supportsInterface",
      "outputs": [
        {
          "internalType": "bool",
          "name": "",
          "type": "bool"
        }
      ],
      "payable": false,
      "stateMutability": "view",
      "type": "function"
    },
    {
      "constant": true,
      "inputs": [
        {
          "internalType": "uint256",
          "name": "tokenId",
          "type": "uint256"
        }
      ],
      "name": "getApproved",
      "outputs": [
        {
          "internalType": "address",
          "name": "",
          "type": "address"
        }
      ],
      "payable": false,
      "stateMutability": "view",
      "type": "function"
    },
    {
      "constant": false,
      "inputs": [
        {
          "internalType": "address",
          "name": "to",
          "type": "address"
        },
        {
          "internalType": "uint256",
          "name": "tokenId",
          "type": "uint256"
        }
      ],
      "name": "approve",
      "outputs": [],
      "payable": false,
      "stateMutability": "nonpayable",
      "type": "function"
    },
    {
      "constant": false,
      "inputs": [
        {
          "internalType": "address",
          "name": "from",
          "type": "address"
        },
        {
          "internalType": "address",
          "name": "to",
          "type": "address"
        },
        {
          "internalType": "uint256",
          "name": "tokenId",
          "type": "uint256"
        }
      ],
      "name": "transferFrom",
      "outputs": [],
      "payable": false,
      "stateMutability": "nonpayable",
      "type": "function"
    },
    {
      "constant": false,
      "inputs": [
        {
          "internalType": "address",
          "name": "from",
          "type": "address"
        },
        {
          "internalType": "address",
          "name": "to",
          "type": "address"
        },
        {
          "internalType": "uint256",
          "name": "tokenId",
          "type": "uint256"
        }
      ],
      "name": "safeTransferFrom",
      "outputs": [],
      "payable": false,
      "stateMutability": "nonpayable",
      "type": "function"
    },
    {
      "constant": true,
      "inputs": [
        {
          "internalType": "uint256",
          "name": "tokenId",
          "type": "uint256"
        }
      ],
      "name": "ownerOf",
      "outputs": [
        {
          "internalType": "address",
          "name": "",
          "type": "address"
        }
      ],
      "payable": false,
      "stateMutability": "view",
      "type": "function"
    },
    {
      "constant": true,
      "inputs": [
        {
          "internalType": "address",
          "name": "owner",
          "type": "address"
        }
      ],
      "name": "balanceOf",
      "outputs": [
        {
          "internalType": "uint256",
          "name": "",
          "type": "uint256"
        }
      ],
      "payable": false,
      "stateMutability": "view",
      "type": "function"
    },
    {
      "constant": false,
      "inputs": [
        {
          "internalType": "address",
          "name": "account",
          "type": "address"
        }
      ],
      "name": "addMinter",
      "outputs": [],
      "payable": false,
      "stateMutability": "nonpayable",
      "type": "function"
    },
    {
      "constant": false,
      "inputs": [],
      "name": "renounceMinter",
      "outputs": [],
      "payable": false,
      "stateMutability": "nonpayable",
      "type": "function"
    },
    {
      "constant": false,
      "inputs": [
        {
          "internalType": "address",
          "name": "to",
          "type": "address"
        },
        {
          "internalType": "bool",
          "name": "approved",
          "type": "bool"
        }
      ],
      "name": "setApprovalForAll",
      "outputs": [],
      "payable": false,
      "stateMutability": "nonpayable",
      "type": "function"
    },
    {
      "constant": true,
      "inputs": [
        {
          "internalType": "address",
          "name": "account",
          "type": "address"
        }
      ],
      "name": "isMinter",
      "outputs": [
        {
          "internalType": "bool",
          "name": "",
          "type": "bool"
        }
      ],
      "payable": false,
      "stateMutability": "view",
      "type": "function"
    },
    {
      "constant": false,
      "inputs": [
        {
          "internalType": "address",
          "name": "from",
          "type": "address"
        },
        {
          "internalType": "address",
          "name": "to",
          "type": "address"
        },
        {
          "internalType": "uint256",
          "name": "tokenId",
          "type": "uint256"
        },
        {
          "internalType": "bytes",
          "name": "_data",
          "type": "bytes"
        }
      ],
      "name": "safeTransferFrom",
      "outputs": [],
      "payable": false,
      "stateMutability": "nonpayable",
      "type": "function"
    },
    {
      "constant": true,
      "inputs": [
        {
          "internalType": "address",
          "name": "owner",
          "type": "address"
        },
        {
          "internalType": "address",
          "name": "operator",
          "type": "address"
        }
      ],
      "name": "isApprovedForAll",
      "outputs": [
        {
          "internalType": "bool",
          "name": "",
          "type": "bool"
        }
      ],
      "payable": false,
      "stateMutability": "view",
      "type": "function"
    },
    {
      "anonymous": false,
      "inputs": [
        {
          "indexed": true,
          "internalType": "address",
          "name": "account",
          "type": "address"
        }
      ],
      "name": "MinterAdded",
      "type": "event"
    },
    {
      "anonymous": false,
      "inputs": [
        {
          "indexed": true,
          "internalType": "address",
          "name": "account",
          "type": "address"
        }
      ],
      "name": "MinterRemoved",
      "type": "event"
    },
    {
      "anonymous": false,
      "inputs": [
        {
          "indexed": true,
          "internalType": "address",
          "name": "from",
          "type": "address"
        },
        {
          "indexed": true,
          "internalType": "address",
          "name": "to",
          "type": "address"
        },
        {
          "indexed": true,
          "internalType": "uint256",
          "name": "tokenId",
          "type": "uint256"
        }
      ],
      "name": "Transfer",
      "type": "event"
    },
    {
      "anonymous": false,
      "inputs": [
        {
          "indexed": true,
          "internalType": "address",
          "name": "owner",
          "type": "address"
        },
        {
          "indexed": true,
          "internalType": "address",
          "name": "approved",
          "type": "address"
        },
        {
          "indexed": true,
          "internalType": "uint256",
          "name": "tokenId",
          "type": "uint256"
        }
      ],
      "name": "Approval",
      "type": "event"
    },
    {
      "anonymous": false,
      "inputs": [
        {
          "indexed": true,
          "internalType": "address",
          "name": "owner",
          "type": "address"
        },
        {
          "indexed": true,
          "internalType": "address",
          "name": "operator",
          "type": "address"
        },
        {
          "indexed": false,
          "internalType": "bool",
          "name": "approved",
          "type": "bool"
        }
      ],
      "name": "ApprovalForAll",
      "type": "event"
    },
    {
      "constant": false,
      "inputs": [],
      "name": "initialize",
      "outputs": [],
      "payable": false,
      "stateMutability": "nonpayable",
      "type": "function"
    },
    {
      "constant": false,
      "inputs": [
        {
          "internalType": "address",
          "name": "sender",
          "type": "address"
        }
      ],
      "name": "initialize",
      "outputs": [],
      "payable": false,
      "stateMutability": "nonpayable",
      "type": "function"
    },
    {
      "constant": false,
      "inputs": [
        {
          "internalType": "address",
          "name": "to",
          "type": "address"
        },
        {
          "internalType": "uint256",
          "name": "tokenId",
          "type": "uint256"
        }
      ],
      "name": "mint",
      "outputs": [
        {
          "internalType": "bool",
          "name": "",
          "type": "bool"
        }
      ],
      "payable": false,
      "stateMutability": "nonpayable",
      "type": "function"
    },
    {
      "constant": false,
      "inputs": [
        {
          "internalType": "address",
          "name": "to",
          "type": "address"
        },
        {
          "internalType": "uint256",
          "name": "tokenId",
          "type": "uint256"
        },
        {
          "internalType": "bytes",
          "name": "_data",
          "type": "bytes"
        }
      ],
      "name": "safeMint",
      "outputs": [
        {
          "internalType": "bool",
          "name": "",
          "type": "bool"
        }
      ],
      "payable": false,
      "stateMutability": "nonpayable",
      "type": "function"
    },
    {
      "constant": false,
      "inputs": [
        {
          "internalType": "address",
          "name": "to",
          "type": "address"
        },
        {
          "internalType": "uint256",
          "name": "tokenId",
          "type": "uint256"
        }
      ],
      "name": "safeMint",
      "outputs": [
        {
          "internalType": "bool",
          "name": "",
          "type": "bool"
        }
      ],
      "payable": false,
      "stateMutability": "nonpayable",
      "type": "function"
    }
  ],
  "bytecode": "0x6080604052611a33806100136000396000f3fe608060405234801561001057600080fd5b50600436106101365760003560e01c80638832e6e3116100b2578063a22cb46511610081578063b88d4fde11610066578063b88d4fde1461043b578063c4d66de814610501578063e985e9c51461052757610136565b8063a22cb465146103e7578063aa271e1a1461041557610136565b80638832e6e3146102d2578063983b2d561461038d57806398650275146103b3578063a1448194146103bb57610136565b806340c10f19116101095780636352211e116100ee5780636352211e1461027557806370a08231146102925780638129fc1c146102ca57610136565b806340c10f191461021357806342842e0e1461023f57610136565b806301ffc9a71461013b578063081812fc14610176578063095ea7b3146101af57806323b872dd146101dd575b600080fd5b6101626004803603602081101561015157600080fd5b50356001600160e01b031916610555565b604080519115158252519081900360200190f35b6101936004803603602081101561018c57600080fd5b5035610574565b604080516001600160a01b039092168252519081900360200190f35b6101db600480360360408110156101c557600080fd5b506001600160a01b0381351690602001356105d6565b005b6101db600480360360608110156101f357600080fd5b506001600160a01b0381358116916020810135909116906040013561070b565b6101626004803603604081101561022957600080fd5b506001600160a01b038135169060200135610767565b6101db6004803603606081101561025557600080fd5b506001600160a01b038135811691602081013590911690604001356107c7565b6101936004803603602081101561028b57600080fd5b50356107e2565b6102b8600480360360208110156102a857600080fd5b50356001600160a01b031661083c565b60408051918252519081900360200190f35b6101db6108a4565b610162600480360360608110156102e857600080fd5b6001600160a01b038235169160208101359181019060608101604082013564010000000081111561031857600080fd5b82018360208201111561032a57600080fd5b8035906020019184600183028401116401000000008311171561034c57600080fd5b91908080601f01602080910402602001604051908101604052809392919081815260200183838082843760009201919091525092955061095e945050505050565b6101db600480360360208110156103a357600080fd5b50356001600160a01b03166109bb565b6101db610a0a565b610162600480360360408110156103d157600080fd5b506001600160a01b038135169060200135610a1c565b6101db600480360360408110156103fd57600080fd5b506001600160a01b0381351690602001351515610a6e565b6101626004803603602081101561042b57600080fd5b50356001600160a01b0316610b73565b6101db6004803603608081101561045157600080fd5b6001600160a01b0382358116926020810135909116916040820135919081019060808101606082013564010000000081111561048c57600080fd5b82018360208201111561049e57600080fd5b803590602001918460018302840111640100000000831117156104c057600080fd5b91908080601f016020809104026020016040519081016040528093929190818152602001838380828437600092019190915250929550610b86945050505050565b6101db6004803603602081101561051757600080fd5b50356001600160a01b0316610be4565b6101626004803603604081101561053d57600080fd5b506001600160a01b0381358116916020013516610ca1565b6001600160e01b03191660009081526033602052604090205460ff1690565b600061057f82610ccf565b6105ba5760405162461bcd60e51b815260040180806020018281038252602c815260200180611908602c913960400191505060405180910390fd5b506000908152606760205260409020546001600160a01b031690565b60006105e1826107e2565b9050806001600160a01b0316836001600160a01b031614156106345760405162461bcd60e51b81526004018080602001828103825260218152602001806119ad6021913960400191505060405180910390fd5b806001600160a01b0316610646610cec565b6001600160a01b03161480610667575061066781610662610cec565b610ca1565b6106a25760405162461bcd60e51b815260040180806020018281038252603881526020018061182c6038913960400191505060405180910390fd5b600082815260676020526040808220805473ffffffffffffffffffffffffffffffffffffffff19166001600160a01b0387811691821790925591518593918516917f8c5be1e5ebec7d5bd14f71427d1e84f3dd0314c0f7b2291e5b200ac8c7c3b92591a4505050565b61071c610716610cec565b82610cf0565b6107575760405162461bcd60e51b81526004018080602001828103825260318152602001806119ce6031913960400191505060405180910390fd5b610762838383610d94565b505050565b6000610779610774610cec565b610b73565b6107b45760405162461bcd60e51b81526004018080602001828103825260308152602001806118b76030913960400191505060405180910390fd5b6107be8383610ee5565b50600192915050565b61076283838360405180602001604052806000815250610b86565b6000818152606660205260408120546001600160a01b0316806108365760405162461bcd60e51b815260040180806020018281038252602981526020018061188e6029913960400191505060405180910390fd5b92915050565b60006001600160a01b0382166108835760405162461bcd60e51b815260040180806020018281038252602a815260200180611864602a913960400191505060405180910390fd5b6001600160a01b038216600090815260686020526040902061083690611023565b600054610100900460ff16806108bd57506108bd611027565b806108cb575060005460ff16155b6109065760405162461bcd60e51b815260040180806020018281038252602e815260200180611956602e913960400191505060405180910390fd5b600054610100900460ff16158015610931576000805460ff1961ff0019909116610100171660011790555b61093961102d565b6109496380ac58cd60e01b6110df565b801561095b576000805461ff00191690555b50565b600061096b610774610cec565b6109a65760405162461bcd60e51b81526004018080602001828103825260308152602001806118b76030913960400191505060405180910390fd5b6109b1848484611163565b5060019392505050565b6109c6610774610cec565b610a015760405162461bcd60e51b81526004018080602001828103825260308152602001806118b76030913960400191505060405180910390fd5b61095b816111b5565b610a1a610a15610cec565b6111fd565b565b6000610a29610774610cec565b610a645760405162461bcd60e51b81526004018080602001828103825260308152602001806118b76030913960400191505060405180910390fd5b6107be8383611245565b610a76610cec565b6001600160a01b0316826001600160a01b03161415610adc576040805162461bcd60e51b815260206004820152601960248201527f4552433732313a20617070726f766520746f2063616c6c657200000000000000604482015290519081900360640190fd5b8060696000610ae9610cec565b6001600160a01b03908116825260208083019390935260409182016000908120918716808252919093529120805460ff191692151592909217909155610b2d610cec565b60408051841515815290516001600160a01b0392909216917f17307eab39ab6107e8899845ad3d59bd9653f200f220920489ca2b5937696c319181900360200190a35050565b6000610836609c8363ffffffff61125f16565b610b97610b91610cec565b83610cf0565b610bd25760405162461bcd60e51b81526004018080602001828103825260318152602001806119ce6031913960400191505060405180910390fd5b610bde848484846112c6565b50505050565b600054610100900460ff1680610bfd5750610bfd611027565b80610c0b575060005460ff16155b610c465760405162461bcd60e51b815260040180806020018281038252602e815260200180611956602e913960400191505060405180910390fd5b600054610100900460ff16158015610c71576000805460ff1961ff0019909116610100171660011790555b610c79611318565b610c8257600080fd5b610c8b8261132f565b8015610c9d576000805461ff00191690555b5050565b6001600160a01b03918216600090815260696020908152604080832093909416825291909152205460ff1690565b6000908152606660205260409020546001600160a01b0316151590565b3390565b6000610cfb82610ccf565b610d365760405162461bcd60e51b815260040180806020018281038252602c815260200180611800602c913960400191505060405180910390fd5b6000610d41836107e2565b9050806001600160a01b0316846001600160a01b03161480610d7c5750836001600160a01b0316610d7184610574565b6001600160a01b0316145b80610d8c5750610d8c8185610ca1565b949350505050565b826001600160a01b0316610da7826107e2565b6001600160a01b031614610dec5760405162461bcd60e51b81526004018080602001828103825260298152602001806119846029913960400191505060405180910390fd5b6001600160a01b038216610e315760405162461bcd60e51b81526004018080602001828103825260248152602001806117dc6024913960400191505060405180910390fd5b610e3a816113d2565b6001600160a01b0383166000908152606860205260409020610e5b9061141a565b6001600160a01b0382166000908152606860205260409020610e7c90611431565b600081815260666020526040808220805473ffffffffffffffffffffffffffffffffffffffff19166001600160a01b0386811691821790925591518493918716917fddf252ad1be2c89b69c2b068fc378daa952ba7f163c4a11628f55a4df523b3ef91a4505050565b6001600160a01b038216610f40576040805162461bcd60e51b815260206004820181905260248201527f4552433732313a206d696e7420746f20746865207a65726f2061646472657373604482015290519081900360640190fd5b610f4981610ccf565b15610f9b576040805162461bcd60e51b815260206004820152601c60248201527f4552433732313a20746f6b656e20616c7265616479206d696e74656400000000604482015290519081900360640190fd5b6000818152606660209081526040808320805473ffffffffffffffffffffffffffffffffffffffff19166001600160a01b038716908117909155835260689091529020610fe790611431565b60405181906001600160a01b038416906000907fddf252ad1be2c89b69c2b068fc378daa952ba7f163c4a11628f55a4df523b3ef908290a45050565b5490565b303b1590565b600054610100900460ff16806110465750611046611027565b80611054575060005460ff16155b61108f5760405162461bcd60e51b815260040180806020018281038252602e815260200180611956602e913960400191505060405180910390fd5b600054610100900460ff161580156110ba576000805460ff1961ff0019909116610100171660011790555b6109497f01ffc9a7000000000000000000000000000000000000000000000000000000005b6001600160e01b0319808216141561113e576040805162461bcd60e51b815260206004820152601c60248201527f4552433136353a20696e76616c696420696e7465726661636520696400000000604482015290519081900360640190fd5b6001600160e01b0319166000908152603360205260409020805460ff19166001179055565b61116d8383610ee5565b61117a600084848461143a565b6107625760405162461bcd60e51b81526004018080602001828103825260328152602001806117aa6032913960400191505060405180910390fd5b6111c6609c8263ffffffff6115aa16565b6040516001600160a01b038216907f6ae172837ea30b801fbfcdd4108aa1d5bf8ff775444fd70256b44e6bf3dfc3f690600090a250565b61120e609c8263ffffffff61162b16565b6040516001600160a01b038216907fe94479a9f7e1952cc78f2d6baab678adc1b772d936c6583def489e524cb6669290600090a250565b610c9d828260405180602001604052806000815250611163565b60006001600160a01b0382166112a65760405162461bcd60e51b81526004018080602001828103825260228152602001806119346022913960400191505060405180910390fd5b506001600160a01b03166000908152602091909152604090205460ff1690565b6112d1848484610d94565b6112dd8484848461143a565b610bde5760405162461bcd60e51b81526004018080602001828103825260328152602001806117aa6032913960400191505060405180910390fd5b600061132a6380ac58cd60e01b610555565b905090565b600054610100900460ff16806113485750611348611027565b80611356575060005460ff16155b6113915760405162461bcd60e51b815260040180806020018281038252602e815260200180611956602e913960400191505060405180910390fd5b600054610100900460ff161580156113bc576000805460ff1961ff0019909116610100171660011790555b6113c582610b73565b610c8b57610c8b826111b5565b6000818152606760205260409020546001600160a01b03161561095b576000908152606760205260409020805473ffffffffffffffffffffffffffffffffffffffff19169055565b805461142d90600163ffffffff61169216565b9055565b80546001019055565b600061144e846001600160a01b03166116db565b61145a57506001610d8c565b6000846001600160a01b031663150b7a02611473610cec565b8887876040518563ffffffff1660e01b815260040180856001600160a01b03166001600160a01b03168152602001846001600160a01b03166001600160a01b0316815260200183815260200180602001828103825283818151815260200191508051906020019080838360005b838110156114f85781810151838201526020016114e0565b50505050905090810190601f1680156115255780820380516001836020036101000a031916815260200191505b5095505050505050602060405180830381600087803b15801561154757600080fd5b505af115801561155b573d6000803e3d6000fd5b505050506040513d602081101561157157600080fd5b50516001600160e01b0319167f150b7a020000000000000000000000000000000000000000000000000000000014915050949350505050565b6115b4828261125f565b15611606576040805162461bcd60e51b815260206004820152601f60248201527f526f6c65733a206163636f756e7420616c72656164792068617320726f6c6500604482015290519081900360640190fd5b6001600160a01b0316600090815260209190915260409020805460ff19166001179055565b611635828261125f565b6116705760405162461bcd60e51b81526004018080602001828103825260218152602001806118e76021913960400191505060405180910390fd5b6001600160a01b0316600090815260209190915260409020805460ff19169055565b60006116d483836040518060400160405280601e81526020017f536166654d6174683a207375627472616374696f6e206f766572666c6f770000815250611712565b9392505050565b6000813f7fc5d2460186f7233c927e7db2dcc703c0e500b653ca82273b7bfad8045d85a4708115801590610d8c5750141592915050565b600081848411156117a15760405162461bcd60e51b81526004018080602001828103825283818151815260200191508051906020019080838360005b8381101561176657818101518382015260200161174e565b50505050905090810190601f1680156117935780820380516001836020036101000a031916815260200191505b509250505060405180910390fd5b50505090039056fe4552433732313a207472616e7366657220746f206e6f6e20455243373231526563656976657220696d706c656d656e7465724552433732313a207472616e7366657220746f20746865207a65726f20616464726573734552433732313a206f70657261746f7220717565727920666f72206e6f6e6578697374656e7420746f6b656e4552433732313a20617070726f76652063616c6c6572206973206e6f74206f776e6572206e6f7220617070726f76656420666f7220616c6c4552433732313a2062616c616e636520717565727920666f7220746865207a65726f20616464726573734552433732313a206f776e657220717565727920666f72206e6f6e6578697374656e7420746f6b656e4d696e746572526f6c653a2063616c6c657220646f6573206e6f74206861766520746865204d696e74657220726f6c65526f6c65733a206163636f756e7420646f6573206e6f74206861766520726f6c654552433732313a20617070726f76656420717565727920666f72206e6f6e6578697374656e7420746f6b656e526f6c65733a206163636f756e7420697320746865207a65726f2061646472657373436f6e747261637420696e7374616e63652068617320616c7265616479206265656e20696e697469616c697a65644552433732313a207472616e73666572206f6620746f6b656e2074686174206973206e6f74206f776e4552433732313a20617070726f76616c20746f2063757272656e74206f776e65724552433732313a207472616e736665722063616c6c6572206973206e6f74206f776e6572206e6f7220617070726f766564a265627a7a723158206870f3de4e350c224a0b8dbf24a5847bf70cd0c8634e90b8dbf994ac0c89387364736f6c634300050b0032",
  "source": "pragma solidity ^0.5.0;\n\nimport \"@openzeppelin/upgrades/contracts/Initializable.sol\";\nimport \"./ERC721.sol\";\nimport \"../../access/roles/MinterRole.sol\";\n\n/**\n * @title ERC721Mintable\n * @dev ERC721 minting logic.\n */\ncontract ERC721Mintable is Initializable, ERC721, MinterRole {\n    function initialize(address sender) public initializer {\n        require(ERC721._hasBeenInitialized());\n        MinterRole.initialize(sender);\n    }\n\n    /**\n     * @dev Function to mint tokens.\n     * @param to The address that will receive the minted token.\n     * @param tokenId The token id to mint.\n     * @return A boolean that indicates if the operation was successful.\n     */\n    function mint(address to, uint256 tokenId) public onlyMinter returns (bool) {\n        _mint(to, tokenId);\n        return true;\n    }\n\n    /**\n     * @dev Function to safely mint tokens.\n     * @param to The address that will receive the minted token.\n     * @param tokenId The token id to mint.\n     * @return A boolean that indicates if the operation was successful.\n     */\n    function safeMint(address to, uint256 tokenId) public onlyMinter returns (bool) {\n        _safeMint(to, tokenId);\n        return true;\n    }\n\n    /**\n     * @dev Function to safely mint tokens.\n     * @param to The address that will receive the minted token.\n     * @param tokenId The token id to mint.\n     * @param _data bytes data to send along with a safe transfer check.\n     * @return A boolean that indicates if the operation was successful.\n     */\n    function safeMint(address to, uint256 tokenId, bytes memory _data) public onlyMinter returns (bool) {\n        _safeMint(to, tokenId, _data);\n        return true;\n    }\n\n    uint256[50] private ______gap;\n}\n",
  "sourcePath": "@openzeppelin/contracts-ethereum-package/contracts/token/ERC721/ERC721Mintable.sol",
  "compiler": {
    "name": "solc",
    "version": "0.5.11+commit.c082d0b4.Emscripten.clang"
  },
  "schemaVersion": "3.0.16",
  "updatedAt": "2020-01-26T15:07:41.996Z",
  "devdoc": {
    "details": "ERC721 minting logic.",
    "methods": {
      "approve(address,uint256)": {
        "details": "Approves another address to transfer the given token ID The zero address indicates there is no approved address. There can only be one approved address per token at a given time. Can only be called by the token owner or an approved operator.",
        "params": {
          "to": "address to be approved for the given token ID",
          "tokenId": "uint256 ID of the token to be approved"
        }
      },
      "balanceOf(address)": {
        "details": "Gets the balance of the specified address.",
        "params": {
          "owner": "address to query the balance of"
        },
        "return": "uint256 representing the amount owned by the passed address"
      },
      "getApproved(uint256)": {
        "details": "Gets the approved address for a token ID, or zero if no address set Reverts if the token ID does not exist.",
        "params": {
          "tokenId": "uint256 ID of the token to query the approval of"
        },
        "return": "address currently approved for the given token ID"
      },
      "isApprovedForAll(address,address)": {
        "details": "Tells whether an operator is approved by a given owner.",
        "params": {
          "operator": "operator address which you want to query the approval of",
          "owner": "owner address which you want to query the approval of"
        },
        "return": "bool whether the given operator is approved by the given owner"
      },
      "mint(address,uint256)": {
        "details": "Function to mint tokens.",
        "params": {
          "to": "The address that will receive the minted token.",
          "tokenId": "The token id to mint."
        },
        "return": "A boolean that indicates if the operation was successful."
      },
      "ownerOf(uint256)": {
        "details": "Gets the owner of the specified token ID.",
        "params": {
          "tokenId": "uint256 ID of the token to query the owner of"
        },
        "return": "address currently marked as the owner of the given token ID"
      },
      "safeMint(address,uint256)": {
        "details": "Function to safely mint tokens.",
        "params": {
          "to": "The address that will receive the minted token.",
          "tokenId": "The token id to mint."
        },
        "return": "A boolean that indicates if the operation was successful."
      },
      "safeMint(address,uint256,bytes)": {
        "details": "Function to safely mint tokens.",
        "params": {
          "_data": "bytes data to send along with a safe transfer check.",
          "to": "The address that will receive the minted token.",
          "tokenId": "The token id to mint."
        },
        "return": "A boolean that indicates if the operation was successful."
      },
      "safeTransferFrom(address,address,uint256)": {
        "details": "Safely transfers the ownership of a given token ID to another address If the target address is a contract, it must implement {IERC721Receiver-onERC721Received}, which is called upon a safe transfer, and return the magic value `bytes4(keccak256(\"onERC721Received(address,address,uint256,bytes)\"))`; otherwise, the transfer is reverted. Requires the msg.sender to be the owner, approved, or operator",
        "params": {
          "from": "current owner of the token",
          "to": "address to receive the ownership of the given token ID",
          "tokenId": "uint256 ID of the token to be transferred"
        }
      },
      "safeTransferFrom(address,address,uint256,bytes)": {
        "details": "Safely transfers the ownership of a given token ID to another address If the target address is a contract, it must implement {IERC721Receiver-onERC721Received}, which is called upon a safe transfer, and return the magic value `bytes4(keccak256(\"onERC721Received(address,address,uint256,bytes)\"))`; otherwise, the transfer is reverted. Requires the _msgSender() to be the owner, approved, or operator",
        "params": {
          "_data": "bytes data to send along with a safe transfer check",
          "from": "current owner of the token",
          "to": "address to receive the ownership of the given token ID",
          "tokenId": "uint256 ID of the token to be transferred"
        }
      },
      "setApprovalForAll(address,bool)": {
        "details": "Sets or unsets the approval of a given operator An operator is allowed to transfer all tokens of the sender on their behalf.",
        "params": {
          "approved": "representing the status of the approval to be set",
          "to": "operator address to set the approval"
        }
      },
      "supportsInterface(bytes4)": {
        "details": "See {IERC165-supportsInterface}.     * Time complexity O(1), guaranteed to always use less than 30 000 gas."
      },
      "transferFrom(address,address,uint256)": {
        "details": "Transfers the ownership of a given token ID to another address. Usage of this method is discouraged, use {safeTransferFrom} whenever possible. Requires the msg.sender to be the owner, approved, or operator.",
        "params": {
          "from": "current owner of the token",
          "to": "address to receive the ownership of the given token ID",
          "tokenId": "uint256 ID of the token to be transferred"
        }
      }
    },
    "title": "ERC721Mintable"
  },
  "userdoc": {
    "methods": {}
  }
}