{
  "contractName": "ERC721MetadataMintable",
  "abi": [
    {
      "constant": true,
      "inputs": [
        {
          "internalType": "bytes4",
          "name": "interfaceId",
          "type": "bytes4"
        }
      ],
      "name": "supportsInterface",
      "outputs": [
        {
          "internalType": "bool",
          "name": "",
          "type": "bool"
        }
      ],
      "payable": false,
      "stateMutability": "view",
      "type": "function"
    },
    {
      "constant": true,
      "inputs": [],
      "name": "name",
      "outputs": [
        {
          "internalType": "string",
          "name": "",
          "type": "string"
        }
      ],
      "payable": false,
      "stateMutability": "view",
      "type": "function"
    },
    {
      "constant": true,
      "inputs": [
        {
          "internalType": "uint256",
          "name": "tokenId",
          "type": "uint256"
        }
      ],
      "name": "getApproved",
      "outputs": [
        {
          "internalType": "address",
          "name": "",
          "type": "address"
        }
      ],
      "payable": false,
      "stateMutability": "view",
      "type": "function"
    },
    {
      "constant": false,
      "inputs": [
        {
          "internalType": "address",
          "name": "to",
          "type": "address"
        },
        {
          "internalType": "uint256",
          "name": "tokenId",
          "type": "uint256"
        }
      ],
      "name": "approve",
      "outputs": [],
      "payable": false,
      "stateMutability": "nonpayable",
      "type": "function"
    },
    {
      "constant": false,
      "inputs": [
        {
          "internalType": "address",
          "name": "from",
          "type": "address"
        },
        {
          "internalType": "address",
          "name": "to",
          "type": "address"
        },
        {
          "internalType": "uint256",
          "name": "tokenId",
          "type": "uint256"
        }
      ],
      "name": "transferFrom",
      "outputs": [],
      "payable": false,
      "stateMutability": "nonpayable",
      "type": "function"
    },
    {
      "constant": false,
      "inputs": [
        {
          "internalType": "address",
          "name": "from",
          "type": "address"
        },
        {
          "internalType": "address",
          "name": "to",
          "type": "address"
        },
        {
          "internalType": "uint256",
          "name": "tokenId",
          "type": "uint256"
        }
      ],
      "name": "safeTransferFrom",
      "outputs": [],
      "payable": false,
      "stateMutability": "nonpayable",
      "type": "function"
    },
    {
      "constant": true,
      "inputs": [
        {
          "internalType": "uint256",
          "name": "tokenId",
          "type": "uint256"
        }
      ],
      "name": "ownerOf",
      "outputs": [
        {
          "internalType": "address",
          "name": "",
          "type": "address"
        }
      ],
      "payable": false,
      "stateMutability": "view",
      "type": "function"
    },
    {
      "constant": true,
      "inputs": [
        {
          "internalType": "address",
          "name": "owner",
          "type": "address"
        }
      ],
      "name": "balanceOf",
      "outputs": [
        {
          "internalType": "uint256",
          "name": "",
          "type": "uint256"
        }
      ],
      "payable": false,
      "stateMutability": "view",
      "type": "function"
    },
    {
      "constant": true,
      "inputs": [],
      "name": "symbol",
      "outputs": [
        {
          "internalType": "string",
          "name": "",
          "type": "string"
        }
      ],
      "payable": false,
      "stateMutability": "view",
      "type": "function"
    },
    {
      "constant": false,
      "inputs": [
        {
          "internalType": "address",
          "name": "account",
          "type": "address"
        }
      ],
      "name": "addMinter",
      "outputs": [],
      "payable": false,
      "stateMutability": "nonpayable",
      "type": "function"
    },
    {
      "constant": false,
      "inputs": [],
      "name": "renounceMinter",
      "outputs": [],
      "payable": false,
      "stateMutability": "nonpayable",
      "type": "function"
    },
    {
      "constant": false,
      "inputs": [
        {
          "internalType": "address",
          "name": "to",
          "type": "address"
        },
        {
          "internalType": "bool",
          "name": "approved",
          "type": "bool"
        }
      ],
      "name": "setApprovalForAll",
      "outputs": [],
      "payable": false,
      "stateMutability": "nonpayable",
      "type": "function"
    },
    {
      "constant": true,
      "inputs": [
        {
          "internalType": "address",
          "name": "account",
          "type": "address"
        }
      ],
      "name": "isMinter",
      "outputs": [
        {
          "internalType": "bool",
          "name": "",
          "type": "bool"
        }
      ],
      "payable": false,
      "stateMutability": "view",
      "type": "function"
    },
    {
      "constant": false,
      "inputs": [
        {
          "internalType": "address",
          "name": "from",
          "type": "address"
        },
        {
          "internalType": "address",
          "name": "to",
          "type": "address"
        },
        {
          "internalType": "uint256",
          "name": "tokenId",
          "type": "uint256"
        },
        {
          "internalType": "bytes",
          "name": "_data",
          "type": "bytes"
        }
      ],
      "name": "safeTransferFrom",
      "outputs": [],
      "payable": false,
      "stateMutability": "nonpayable",
      "type": "function"
    },
    {
      "constant": true,
      "inputs": [
        {
          "internalType": "uint256",
          "name": "tokenId",
          "type": "uint256"
        }
      ],
      "name": "tokenURI",
      "outputs": [
        {
          "internalType": "string",
          "name": "",
          "type": "string"
        }
      ],
      "payable": false,
      "stateMutability": "view",
      "type": "function"
    },
    {
      "constant": true,
      "inputs": [
        {
          "internalType": "address",
          "name": "owner",
          "type": "address"
        },
        {
          "internalType": "address",
          "name": "operator",
          "type": "address"
        }
      ],
      "name": "isApprovedForAll",
      "outputs": [
        {
          "internalType": "bool",
          "name": "",
          "type": "bool"
        }
      ],
      "payable": false,
      "stateMutability": "view",
      "type": "function"
    },
    {
      "anonymous": false,
      "inputs": [
        {
          "indexed": true,
          "internalType": "address",
          "name": "account",
          "type": "address"
        }
      ],
      "name": "MinterAdded",
      "type": "event"
    },
    {
      "anonymous": false,
      "inputs": [
        {
          "indexed": true,
          "internalType": "address",
          "name": "account",
          "type": "address"
        }
      ],
      "name": "MinterRemoved",
      "type": "event"
    },
    {
      "anonymous": false,
      "inputs": [
        {
          "indexed": true,
          "internalType": "address",
          "name": "from",
          "type": "address"
        },
        {
          "indexed": true,
          "internalType": "address",
          "name": "to",
          "type": "address"
        },
        {
          "indexed": true,
          "internalType": "uint256",
          "name": "tokenId",
          "type": "uint256"
        }
      ],
      "name": "Transfer",
      "type": "event"
    },
    {
      "anonymous": false,
      "inputs": [
        {
          "indexed": true,
          "internalType": "address",
          "name": "owner",
          "type": "address"
        },
        {
          "indexed": true,
          "internalType": "address",
          "name": "approved",
          "type": "address"
        },
        {
          "indexed": true,
          "internalType": "uint256",
          "name": "tokenId",
          "type": "uint256"
        }
      ],
      "name": "Approval",
      "type": "event"
    },
    {
      "anonymous": false,
      "inputs": [
        {
          "indexed": true,
          "internalType": "address",
          "name": "owner",
          "type": "address"
        },
        {
          "indexed": true,
          "internalType": "address",
          "name": "operator",
          "type": "address"
        },
        {
          "indexed": false,
          "internalType": "bool",
          "name": "approved",
          "type": "bool"
        }
      ],
      "name": "ApprovalForAll",
      "type": "event"
    },
    {
      "constant": false,
      "inputs": [
        {
          "internalType": "string",
          "name": "name",
          "type": "string"
        },
        {
          "internalType": "string",
          "name": "symbol",
          "type": "string"
        }
      ],
      "name": "initialize",
      "outputs": [],
      "payable": false,
      "stateMutability": "nonpayable",
      "type": "function"
    },
    {
      "constant": false,
      "inputs": [],
      "name": "initialize",
      "outputs": [],
      "payable": false,
      "stateMutability": "nonpayable",
      "type": "function"
    },
    {
      "constant": false,
      "inputs": [
        {
          "internalType": "address",
          "name": "sender",
          "type": "address"
        }
      ],
      "name": "initialize",
      "outputs": [],
      "payable": false,
      "stateMutability": "nonpayable",
      "type": "function"
    },
    {
      "constant": false,
      "inputs": [
        {
          "internalType": "address",
          "name": "to",
          "type": "address"
        },
        {
          "internalType": "uint256",
          "name": "tokenId",
          "type": "uint256"
        },
        {
          "internalType": "string",
          "name": "tokenURI",
          "type": "string"
        }
      ],
      "name": "mintWithTokenURI",
      "outputs": [
        {
          "internalType": "bool",
          "name": "",
          "type": "bool"
        }
      ],
      "payable": false,
      "stateMutability": "nonpayable",
      "type": "function"
    }
  ],
  "bytecode": "0x6080604052611f16806100136000396000f3fe608060405234801561001057600080fd5b506004361061016c5760003560e01c80638129fc1c116100cd578063aa271e1a11610081578063c4d66de811610066578063c4d66de814610691578063c87b56dd146106b7578063e985e9c5146106d45761016c565b8063aa271e1a146105a5578063b88d4fde146105cb5761016c565b8063983b2d56116100b2578063983b2d5614610549578063986502751461056f578063a22cb465146105775761016c565b80638129fc1c1461053957806395d89b41146105415761016c565b806342842e0e1161012457806350bb4e7f1161010957806350bb4e7f146104295780636352211e146104e457806370a08231146105015761016c565b806342842e0e146102c65780634cd88b76146102fc5761016c565b8063081812fc11610155578063081812fc14610229578063095ea7b31461026257806323b872dd146102905761016c565b806301ffc9a71461017157806306fdde03146101ac575b600080fd5b6101986004803603602081101561018757600080fd5b50356001600160e01b031916610702565b604080519115158252519081900360200190f35b6101b4610721565b6040805160208082528351818301528351919283929083019185019080838360005b838110156101ee5781810151838201526020016101d6565b50505050905090810190601f16801561021b5780820380516001836020036101000a031916815260200191505b509250505060405180910390f35b6102466004803603602081101561023f57600080fd5b50356107b8565b604080516001600160a01b039092168252519081900360200190f35b61028e6004803603604081101561027857600080fd5b506001600160a01b03813516906020013561081a565b005b61028e600480360360608110156102a657600080fd5b506001600160a01b0381358116916020810135909116906040013561094f565b61028e600480360360608110156102dc57600080fd5b506001600160a01b038135811691602081013590911690604001356109ab565b61028e6004803603604081101561031257600080fd5b81019060208101813564010000000081111561032d57600080fd5b82018360208201111561033f57600080fd5b8035906020019184600183028401116401000000008311171561036157600080fd5b91908080601f01602080910402602001604051908101604052809392919081815260200183838082843760009201919091525092959493602081019350359150506401000000008111156103b457600080fd5b8201836020820111156103c657600080fd5b803590602001918460018302840111640100000000831117156103e857600080fd5b91908080601f0160208091040260200160405190810160405280939291908181526020018383808284376000920191909152509295506109c6945050505050565b6101986004803603606081101561043f57600080fd5b6001600160a01b038235169160208101359181019060608101604082013564010000000081111561046f57600080fd5b82018360208201111561048157600080fd5b803590602001918460018302840111640100000000831117156104a357600080fd5b91908080601f016020809104026020016040519081016040528093929190818152602001838380828437600092019190915250929550610ab2945050505050565b610246600480360360208110156104fa57600080fd5b5035610b1d565b6105276004803603602081101561051757600080fd5b50356001600160a01b0316610b77565b60408051918252519081900360200190f35b61028e610bdf565b6101b4610c99565b61028e6004803603602081101561055f57600080fd5b50356001600160a01b0316610cfa565b61028e610d49565b61028e6004803603604081101561058d57600080fd5b506001600160a01b0381351690602001351515610d5b565b610198600480360360208110156105bb57600080fd5b50356001600160a01b0316610e60565b61028e600480360360808110156105e157600080fd5b6001600160a01b0382358116926020810135909116916040820135919081019060808101606082013564010000000081111561061c57600080fd5b82018360208201111561062e57600080fd5b8035906020019184600183028401116401000000008311171561065057600080fd5b91908080601f016020809104026020016040519081016040528093929190818152602001838380828437600092019190915250929550610e73945050505050565b61028e600480360360208110156106a757600080fd5b50356001600160a01b0316610ed1565b6101b4600480360360208110156106cd57600080fd5b5035610f9f565b610198600480360360408110156106ea57600080fd5b506001600160a01b0381358116916020013516611084565b6001600160e01b03191660009081526033602052604090205460ff1690565b609c8054604080516020601f60026000196101006001881615020190951694909404938401819004810282018101909252828152606093909290918301828280156107ad5780601f10610782576101008083540402835291602001916107ad565b820191906000526020600020905b81548152906001019060200180831161079057829003601f168201915b505050505090505b90565b60006107c3826110b2565b6107fe5760405162461bcd60e51b815260040180806020018281038252602c815260200180611d90602c913960400191505060405180910390fd5b506000908152606760205260409020546001600160a01b031690565b600061082582610b1d565b9050806001600160a01b0316836001600160a01b031614156108785760405162461bcd60e51b8152600401808060200182810382526021815260200180611e906021913960400191505060405180910390fd5b806001600160a01b031661088a6110cf565b6001600160a01b031614806108ab57506108ab816108a66110cf565b611084565b6108e65760405162461bcd60e51b8152600401808060200182810382526038815260200180611cb46038913960400191505060405180910390fd5b600082815260676020526040808220805473ffffffffffffffffffffffffffffffffffffffff19166001600160a01b0387811691821790925591518593918516917f8c5be1e5ebec7d5bd14f71427d1e84f3dd0314c0f7b2291e5b200ac8c7c3b92591a4505050565b61096061095a6110cf565b826110d3565b61099b5760405162461bcd60e51b8152600401808060200182810382526031815260200180611eb16031913960400191505060405180910390fd5b6109a6838383611177565b505050565b6109a683838360405180602001604052806000815250610e73565b600054610100900460ff16806109df57506109df6112c8565b806109ed575060005460ff16155b610a285760405162461bcd60e51b815260040180806020018281038252602e815260200180611e0a602e913960400191505060405180910390fd5b600054610100900460ff16158015610a53576000805460ff1961ff0019909116610100171660011790555b610a5b6112ce565b610a6457600080fd5b8251610a7790609c906020860190611b99565b508151610a8b90609d906020850190611b99565b50610a9c635b5e139f60e01b6112e5565b80156109a6576000805461ff0019169055505050565b6000610ac4610abf6110cf565b610e60565b610aff5760405162461bcd60e51b8152600401808060200182810382526030815260200180611d3f6030913960400191505060405180910390fd5b610b098484611369565b610b1383836114a7565b5060019392505050565b6000818152606660205260408120546001600160a01b031680610b715760405162461bcd60e51b8152600401808060200182810382526029815260200180611d166029913960400191505060405180910390fd5b92915050565b60006001600160a01b038216610bbe5760405162461bcd60e51b815260040180806020018281038252602a815260200180611cec602a913960400191505060405180910390fd5b6001600160a01b0382166000908152606860205260409020610b719061150a565b600054610100900460ff1680610bf85750610bf86112c8565b80610c06575060005460ff16155b610c415760405162461bcd60e51b815260040180806020018281038252602e815260200180611e0a602e913960400191505060405180910390fd5b600054610100900460ff16158015610c6c576000805460ff1961ff0019909116610100171660011790555b610c7461150e565b610c846380ac58cd60e01b6112e5565b8015610c96576000805461ff00191690555b50565b609d8054604080516020601f60026000196101006001881615020190951694909404938401819004810282018101909252828152606093909290918301828280156107ad5780601f10610782576101008083540402835291602001916107ad565b610d05610abf6110cf565b610d405760405162461bcd60e51b8152600401808060200182810382526030815260200180611d3f6030913960400191505060405180910390fd5b610c96816115c4565b610d59610d546110cf565b61160c565b565b610d636110cf565b6001600160a01b0316826001600160a01b03161415610dc9576040805162461bcd60e51b815260206004820152601960248201527f4552433732313a20617070726f766520746f2063616c6c657200000000000000604482015290519081900360640190fd5b8060696000610dd66110cf565b6001600160a01b03908116825260208083019390935260409182016000908120918716808252919093529120805460ff191692151592909217909155610e1a6110cf565b60408051841515815290516001600160a01b0392909216917f17307eab39ab6107e8899845ad3d59bd9653f200f220920489ca2b5937696c319181900360200190a35050565b6000610b7160d18363ffffffff61165416565b610e84610e7e6110cf565b836110d3565b610ebf5760405162461bcd60e51b8152600401808060200182810382526031815260200180611eb16031913960400191505060405180910390fd5b610ecb848484846116bb565b50505050565b600054610100900460ff1680610eea5750610eea6112c8565b80610ef8575060005460ff16155b610f335760405162461bcd60e51b815260040180806020018281038252602e815260200180611e0a602e913960400191505060405180910390fd5b600054610100900460ff16158015610f5e576000805460ff1961ff0019909116610100171660011790555b610f666112ce565b610f6f57600080fd5b610f7761170d565b610f8057600080fd5b610f898261171f565b8015610f9b576000805461ff00191690555b5050565b6060610faa826110b2565b610fe55760405162461bcd60e51b815260040180806020018281038252602f815260200180611e61602f913960400191505060405180910390fd5b6000828152609e602090815260409182902080548351601f6002600019610100600186161502019093169290920491820184900484028101840190945280845290918301828280156110785780601f1061104d57610100808354040283529160200191611078565b820191906000526020600020905b81548152906001019060200180831161105b57829003601f168201915b50505050509050919050565b6001600160a01b03918216600090815260696020908152604080832093909416825291909152205460ff1690565b6000908152606660205260409020546001600160a01b0316151590565b3390565b60006110de826110b2565b6111195760405162461bcd60e51b815260040180806020018281038252602c815260200180611c88602c913960400191505060405180910390fd5b600061112483610b1d565b9050806001600160a01b0316846001600160a01b0316148061115f5750836001600160a01b0316611154846107b8565b6001600160a01b0316145b8061116f575061116f8185611084565b949350505050565b826001600160a01b031661118a82610b1d565b6001600160a01b0316146111cf5760405162461bcd60e51b8152600401808060200182810382526029815260200180611e386029913960400191505060405180910390fd5b6001600160a01b0382166112145760405162461bcd60e51b8152600401808060200182810382526024815260200180611c646024913960400191505060405180910390fd5b61121d816117c2565b6001600160a01b038316600090815260686020526040902061123e9061180a565b6001600160a01b038216600090815260686020526040902061125f90611821565b600081815260666020526040808220805473ffffffffffffffffffffffffffffffffffffffff19166001600160a01b0386811691821790925591518493918716917fddf252ad1be2c89b69c2b068fc378daa952ba7f163c4a11628f55a4df523b3ef91a4505050565b303b1590565b60006112e06380ac58cd60e01b610702565b905090565b6001600160e01b03198082161415611344576040805162461bcd60e51b815260206004820152601c60248201527f4552433136353a20696e76616c696420696e7465726661636520696400000000604482015290519081900360640190fd5b6001600160e01b0319166000908152603360205260409020805460ff19166001179055565b6001600160a01b0382166113c4576040805162461bcd60e51b815260206004820181905260248201527f4552433732313a206d696e7420746f20746865207a65726f2061646472657373604482015290519081900360640190fd5b6113cd816110b2565b1561141f576040805162461bcd60e51b815260206004820152601c60248201527f4552433732313a20746f6b656e20616c7265616479206d696e74656400000000604482015290519081900360640190fd5b6000818152606660209081526040808320805473ffffffffffffffffffffffffffffffffffffffff19166001600160a01b03871690811790915583526068909152902061146b90611821565b60405181906001600160a01b038416906000907fddf252ad1be2c89b69c2b068fc378daa952ba7f163c4a11628f55a4df523b3ef908290a45050565b6114b0826110b2565b6114eb5760405162461bcd60e51b815260040180806020018281038252602c815260200180611dbc602c913960400191505060405180910390fd5b6000828152609e6020908152604090912082516109a692840190611b99565b5490565b600054610100900460ff168061152757506115276112c8565b80611535575060005460ff16155b6115705760405162461bcd60e51b815260040180806020018281038252602e815260200180611e0a602e913960400191505060405180910390fd5b600054610100900460ff1615801561159b576000805460ff1961ff0019909116610100171660011790555b610c847f01ffc9a7000000000000000000000000000000000000000000000000000000006112e5565b6115d560d18263ffffffff61182a16565b6040516001600160a01b038216907f6ae172837ea30b801fbfcdd4108aa1d5bf8ff775444fd70256b44e6bf3dfc3f690600090a250565b61161d60d18263ffffffff6118ab16565b6040516001600160a01b038216907fe94479a9f7e1952cc78f2d6baab678adc1b772d936c6583def489e524cb6669290600090a250565b60006001600160a01b03821661169b5760405162461bcd60e51b8152600401808060200182810382526022815260200180611de86022913960400191505060405180910390fd5b506001600160a01b03166000908152602091909152604090205460ff1690565b6116c6848484611177565b6116d284848484611912565b610ecb5760405162461bcd60e51b8152600401808060200182810382526032815260200180611c326032913960400191505060405180910390fd5b60006112e0635b5e139f60e01b610702565b600054610100900460ff168061173857506117386112c8565b80611746575060005460ff16155b6117815760405162461bcd60e51b815260040180806020018281038252602e815260200180611e0a602e913960400191505060405180910390fd5b600054610100900460ff161580156117ac576000805460ff1961ff0019909116610100171660011790555b6117b582610e60565b610f8957610f89826115c4565b6000818152606760205260409020546001600160a01b031615610c96576000908152606760205260409020805473ffffffffffffffffffffffffffffffffffffffff19169055565b805461181d90600163ffffffff611a8216565b9055565b80546001019055565b6118348282611654565b15611886576040805162461bcd60e51b815260206004820152601f60248201527f526f6c65733a206163636f756e7420616c72656164792068617320726f6c6500604482015290519081900360640190fd5b6001600160a01b0316600090815260209190915260409020805460ff19166001179055565b6118b58282611654565b6118f05760405162461bcd60e51b8152600401808060200182810382526021815260200180611d6f6021913960400191505060405180910390fd5b6001600160a01b0316600090815260209190915260409020805460ff19169055565b6000611926846001600160a01b0316611acb565b6119325750600161116f565b6000846001600160a01b031663150b7a0261194b6110cf565b8887876040518563ffffffff1660e01b815260040180856001600160a01b03166001600160a01b03168152602001846001600160a01b03166001600160a01b0316815260200183815260200180602001828103825283818151815260200191508051906020019080838360005b838110156119d05781810151838201526020016119b8565b50505050905090810190601f1680156119fd5780820380516001836020036101000a031916815260200191505b5095505050505050602060405180830381600087803b158015611a1f57600080fd5b505af1158015611a33573d6000803e3d6000fd5b505050506040513d6020811015611a4957600080fd5b50516001600160e01b0319167f150b7a020000000000000000000000000000000000000000000000000000000014915050949350505050565b6000611ac483836040518060400160405280601e81526020017f536166654d6174683a207375627472616374696f6e206f766572666c6f770000815250611b02565b9392505050565b6000813f7fc5d2460186f7233c927e7db2dcc703c0e500b653ca82273b7bfad8045d85a470811580159061116f5750141592915050565b60008184841115611b915760405162461bcd60e51b81526004018080602001828103825283818151815260200191508051906020019080838360005b83811015611b56578181015183820152602001611b3e565b50505050905090810190601f168015611b835780820380516001836020036101000a031916815260200191505b509250505060405180910390fd5b505050900390565b828054600181600116156101000203166002900490600052602060002090601f016020900481019282601f10611bda57805160ff1916838001178555611c07565b82800160010185558215611c07579182015b82811115611c07578251825591602001919060010190611bec565b50611c13929150611c17565b5090565b6107b591905b80821115611c135760008155600101611c1d56fe4552433732313a207472616e7366657220746f206e6f6e20455243373231526563656976657220696d706c656d656e7465724552433732313a207472616e7366657220746f20746865207a65726f20616464726573734552433732313a206f70657261746f7220717565727920666f72206e6f6e6578697374656e7420746f6b656e4552433732313a20617070726f76652063616c6c6572206973206e6f74206f776e6572206e6f7220617070726f76656420666f7220616c6c4552433732313a2062616c616e636520717565727920666f7220746865207a65726f20616464726573734552433732313a206f776e657220717565727920666f72206e6f6e6578697374656e7420746f6b656e4d696e746572526f6c653a2063616c6c657220646f6573206e6f74206861766520746865204d696e74657220726f6c65526f6c65733a206163636f756e7420646f6573206e6f74206861766520726f6c654552433732313a20617070726f76656420717565727920666f72206e6f6e6578697374656e7420746f6b656e4552433732314d657461646174613a2055524920736574206f66206e6f6e6578697374656e7420746f6b656e526f6c65733a206163636f756e7420697320746865207a65726f2061646472657373436f6e747261637420696e7374616e63652068617320616c7265616479206265656e20696e697469616c697a65644552433732313a207472616e73666572206f6620746f6b656e2074686174206973206e6f74206f776e4552433732314d657461646174613a2055524920717565727920666f72206e6f6e6578697374656e7420746f6b656e4552433732313a20617070726f76616c20746f2063757272656e74206f776e65724552433732313a207472616e736665722063616c6c6572206973206e6f74206f776e6572206e6f7220617070726f766564a265627a7a723158201f8e9474457806d919e80acbfcb889f83ea2a3eca1bee47fc138c291fdccd37d64736f6c634300050b0032",
  "source": "pragma solidity ^0.5.0;\n\nimport \"@openzeppelin/upgrades/contracts/Initializable.sol\";\nimport \"./ERC721Metadata.sol\";\nimport \"../../access/roles/MinterRole.sol\";\n\n\n/**\n * @title ERC721MetadataMintable\n * @dev ERC721 minting logic with metadata.\n */\ncontract ERC721MetadataMintable is Initializable, ERC721, ERC721Metadata, MinterRole {\n    function initialize(address sender) public initializer {\n        require(ERC721._hasBeenInitialized());\n        require(ERC721Metadata._hasBeenInitialized());\n        MinterRole.initialize(sender);\n    }\n\n    /**\n     * @dev Function to mint tokens.\n     * @param to The address that will receive the minted tokens.\n     * @param tokenId The token id to mint.\n     * @param tokenURI The token URI of the minted token.\n     * @return A boolean that indicates if the operation was successful.\n     */\n    function mintWithTokenURI(address to, uint256 tokenId, string memory tokenURI) public onlyMinter returns (bool) {\n        _mint(to, tokenId);\n        _setTokenURI(tokenId, tokenURI);\n        return true;\n    }\n\n    uint256[50] private ______gap;\n}\n",
  "sourcePath": "@openzeppelin/contracts-ethereum-package/contracts/token/ERC721/ERC721MetadataMintable.sol",
  "compiler": {
    "name": "solc",
    "version": "0.5.11+commit.c082d0b4.Emscripten.clang"
  },
  "schemaVersion": "3.0.16",
  "updatedAt": "2020-01-28T23:38:37.222Z",
  "devdoc": {
    "details": "ERC721 minting logic with metadata.",
    "methods": {
      "approve(address,uint256)": {
        "details": "Approves another address to transfer the given token ID The zero address indicates there is no approved address. There can only be one approved address per token at a given time. Can only be called by the token owner or an approved operator.",
        "params": {
          "to": "address to be approved for the given token ID",
          "tokenId": "uint256 ID of the token to be approved"
        }
      },
      "balanceOf(address)": {
        "details": "Gets the balance of the specified address.",
        "params": {
          "owner": "address to query the balance of"
        },
        "return": "uint256 representing the amount owned by the passed address"
      },
      "getApproved(uint256)": {
        "details": "Gets the approved address for a token ID, or zero if no address set Reverts if the token ID does not exist.",
        "params": {
          "tokenId": "uint256 ID of the token to query the approval of"
        },
        "return": "address currently approved for the given token ID"
      },
      "initialize(string,string)": {
        "details": "Constructor function"
      },
      "isApprovedForAll(address,address)": {
        "details": "Tells whether an operator is approved by a given owner.",
        "params": {
          "operator": "operator address which you want to query the approval of",
          "owner": "owner address which you want to query the approval of"
        },
        "return": "bool whether the given operator is approved by the given owner"
      },
      "mintWithTokenURI(address,uint256,string)": {
        "details": "Function to mint tokens.",
        "params": {
          "to": "The address that will receive the minted tokens.",
          "tokenId": "The token id to mint.",
          "tokenURI": "The token URI of the minted token."
        },
        "return": "A boolean that indicates if the operation was successful."
      },
      "name()": {
        "details": "Gets the token name.",
        "return": "string representing the token name"
      },
      "ownerOf(uint256)": {
        "details": "Gets the owner of the specified token ID.",
        "params": {
          "tokenId": "uint256 ID of the token to query the owner of"
        },
        "return": "address currently marked as the owner of the given token ID"
      },
      "safeTransferFrom(address,address,uint256)": {
        "details": "Safely transfers the ownership of a given token ID to another address If the target address is a contract, it must implement {IERC721Receiver-onERC721Received}, which is called upon a safe transfer, and return the magic value `bytes4(keccak256(\"onERC721Received(address,address,uint256,bytes)\"))`; otherwise, the transfer is reverted. Requires the msg.sender to be the owner, approved, or operator",
        "params": {
          "from": "current owner of the token",
          "to": "address to receive the ownership of the given token ID",
          "tokenId": "uint256 ID of the token to be transferred"
        }
      },
      "safeTransferFrom(address,address,uint256,bytes)": {
        "details": "Safely transfers the ownership of a given token ID to another address If the target address is a contract, it must implement {IERC721Receiver-onERC721Received}, which is called upon a safe transfer, and return the magic value `bytes4(keccak256(\"onERC721Received(address,address,uint256,bytes)\"))`; otherwise, the transfer is reverted. Requires the _msgSender() to be the owner, approved, or operator",
        "params": {
          "_data": "bytes data to send along with a safe transfer check",
          "from": "current owner of the token",
          "to": "address to receive the ownership of the given token ID",
          "tokenId": "uint256 ID of the token to be transferred"
        }
      },
      "setApprovalForAll(address,bool)": {
        "details": "Sets or unsets the approval of a given operator An operator is allowed to transfer all tokens of the sender on their behalf.",
        "params": {
          "approved": "representing the status of the approval to be set",
          "to": "operator address to set the approval"
        }
      },
      "supportsInterface(bytes4)": {
        "details": "See {IERC165-supportsInterface}.     * Time complexity O(1), guaranteed to always use less than 30 000 gas."
      },
      "symbol()": {
        "details": "Gets the token symbol.",
        "return": "string representing the token symbol"
      },
      "tokenURI(uint256)": {
        "details": "Returns an URI for a given token ID. Throws if the token ID does not exist. May return an empty string.",
        "params": {
          "tokenId": "uint256 ID of the token to query"
        }
      },
      "transferFrom(address,address,uint256)": {
        "details": "Transfers the ownership of a given token ID to another address. Usage of this method is discouraged, use {safeTransferFrom} whenever possible. Requires the msg.sender to be the owner, approved, or operator.",
        "params": {
          "from": "current owner of the token",
          "to": "address to receive the ownership of the given token ID",
          "tokenId": "uint256 ID of the token to be transferred"
        }
      }
    },
    "title": "ERC721MetadataMintable"
  },
  "userdoc": {
    "methods": {}
  }
}