{
  "contractName": "PauserRole",
  "abi": [
    {
      "anonymous": false,
      "inputs": [
        {
          "indexed": true,
          "internalType": "address",
          "name": "account",
          "type": "address"
        }
      ],
      "name": "PauserAdded",
      "type": "event"
    },
    {
      "anonymous": false,
      "inputs": [
        {
          "indexed": true,
          "internalType": "address",
          "name": "account",
          "type": "address"
        }
      ],
      "name": "PauserRemoved",
      "type": "event"
    },
    {
      "constant": false,
      "inputs": [
        {
          "internalType": "address",
          "name": "sender",
          "type": "address"
        }
      ],
      "name": "initialize",
      "outputs": [],
      "payable": false,
      "stateMutability": "nonpayable",
      "type": "function"
    },
    {
      "constant": true,
      "inputs": [
        {
          "internalType": "address",
          "name": "account",
          "type": "address"
        }
      ],
      "name": "isPauser",
      "outputs": [
        {
          "internalType": "bool",
          "name": "",
          "type": "bool"
        }
      ],
      "payable": false,
      "stateMutability": "view",
      "type": "function"
    },
    {
      "constant": false,
      "inputs": [
        {
          "internalType": "address",
          "name": "account",
          "type": "address"
        }
      ],
      "name": "addPauser",
      "outputs": [],
      "payable": false,
      "stateMutability": "nonpayable",
      "type": "function"
    },
    {
      "constant": false,
      "inputs": [],
      "name": "renouncePauser",
      "outputs": [],
      "payable": false,
      "stateMutability": "nonpayable",
      "type": "function"
    }
  ],
  "bytecode": "0x60806040526104db806100136000396000f3fe608060405234801561001057600080fd5b506004361061004c5760003560e01c806346fbf68e146100515780636ef8d66d1461008b57806382dc1ec414610095578063c4d66de8146100bb575b600080fd5b6100776004803603602081101561006757600080fd5b50356001600160a01b03166100e1565b604080519115158252519081900360200190f35b6100936100fa565b005b610093600480360360208110156100ab57600080fd5b50356001600160a01b031661010c565b610093600480360360208110156100d157600080fd5b50356001600160a01b0316610163565b60006100f460338363ffffffff61021c16565b92915050565b61010a610105610283565b610287565b565b61011c610117610283565b6100e1565b6101575760405162461bcd60e51b81526004018080602001828103825260308152602001806104066030913960400191505060405180910390fd5b610160816102cf565b50565b600054610100900460ff168061017c575061017c610317565b8061018a575060005460ff16155b6101c55760405162461bcd60e51b815260040180806020018281038252602e815260200180610479602e913960400191505060405180910390fd5b600054610100900460ff161580156101f0576000805460ff1961ff0019909116610100171660011790555b6101f9826100e1565b61020657610206826102cf565b8015610218576000805461ff00191690555b5050565b60006001600160a01b0382166102635760405162461bcd60e51b81526004018080602001828103825260228152602001806104576022913960400191505060405180910390fd5b506001600160a01b03166000908152602091909152604090205460ff1690565b3390565b61029860338263ffffffff61031d16565b6040516001600160a01b038216907fcd265ebaf09df2871cc7bd4133404a235ba12eff2041bb89d9c714a2621c7c7e90600090a250565b6102e060338263ffffffff61038416565b6040516001600160a01b038216907f6719d08c1888103bea251a4ed56406bd0c3e69723c8a1686e017e7bbe159b6f890600090a250565b303b1590565b610327828261021c565b6103625760405162461bcd60e51b81526004018080602001828103825260218152602001806104366021913960400191505060405180910390fd5b6001600160a01b0316600090815260209190915260409020805460ff19169055565b61038e828261021c565b156103e0576040805162461bcd60e51b815260206004820152601f60248201527f526f6c65733a206163636f756e7420616c72656164792068617320726f6c6500604482015290519081900360640190fd5b6001600160a01b0316600090815260209190915260409020805460ff1916600117905556fe506175736572526f6c653a2063616c6c657220646f6573206e6f742068617665207468652050617573657220726f6c65526f6c65733a206163636f756e7420646f6573206e6f74206861766520726f6c65526f6c65733a206163636f756e7420697320746865207a65726f2061646472657373436f6e747261637420696e7374616e63652068617320616c7265616479206265656e20696e697469616c697a6564a265627a7a7231582076d61fdab0983b8ea9998214079b1483b4c6d9de40372273fe51db394fb6190664736f6c634300050b0032",
  "source": "pragma solidity ^0.5.0;\n\nimport \"@openzeppelin/upgrades/contracts/Initializable.sol\";\n\nimport \"../../GSN/Context.sol\";\nimport \"../Roles.sol\";\n\ncontract PauserRole is Initializable, Context {\n    using Roles for Roles.Role;\n\n    event PauserAdded(address indexed account);\n    event PauserRemoved(address indexed account);\n\n    Roles.Role private _pausers;\n\n    function initialize(address sender) public initializer {\n        if (!isPauser(sender)) {\n            _addPauser(sender);\n        }\n    }\n\n    modifier onlyPauser() {\n        require(isPauser(_msgSender()), \"PauserRole: caller does not have the Pauser role\");\n        _;\n    }\n\n    function isPauser(address account) public view returns (bool) {\n        return _pausers.has(account);\n    }\n\n    function addPauser(address account) public onlyPauser {\n        _addPauser(account);\n    }\n\n    function renouncePauser() public {\n        _removePauser(_msgSender());\n    }\n\n    function _addPauser(address account) internal {\n        _pausers.add(account);\n        emit PauserAdded(account);\n    }\n\n    function _removePauser(address account) internal {\n        _pausers.remove(account);\n        emit PauserRemoved(account);\n    }\n\n    uint256[50] private ______gap;\n}\n",
  "sourcePath": "@openzeppelin/contracts-ethereum-package/contracts/access/roles/PauserRole.sol",
  "compiler": {
    "name": "solc",
    "version": "0.5.11+commit.c082d0b4.Emscripten.clang"
  },
  "schemaVersion": "3.0.16",
  "updatedAt": "2020-01-26T23:26:00.857Z",
  "devdoc": {
    "methods": {}
  },
  "userdoc": {
    "methods": {}
  }
}