{
  "fileName": "ReentrancyGuard.sol",
  "contractName": "ReentrancyGuard",
  "source": "pragma solidity ^0.5.0;\n\nimport \"@openzeppelin/upgrades/contracts/Initializable.sol\";\n\n/**\n * @dev Contract module that helps prevent reentrant calls to a function.\n *\n * Inheriting from `ReentrancyGuard` will make the {nonReentrant} modifier\n * available, which can be applied to functions to make sure there are no nested\n * (reentrant) calls to them.\n *\n * Note that because there is a single `nonReentrant` guard, functions marked as\n * `nonReentrant` may not call one another. This can be worked around by making\n * those functions `private`, and then adding `external` `nonReentrant` entry\n * points to them.\n */\ncontract ReentrancyGuard is Initializable {\n    // counter to allow mutex lock with only one SSTORE operation\n    uint256 private _guardCounter;\n\n    function initialize() public initializer {\n        // The counter starts at one to prevent changing it from zero to a non-zero\n        // value, which is a more expensive operation.\n        _guardCounter = 1;\n    }\n\n    /**\n     * @dev Prevents a contract from calling itself, directly or indirectly.\n     * Calling a `nonReentrant` function from another `nonReentrant`\n     * function is not supported. It is possible to prevent this from happening\n     * by making the `nonReentrant` function external, and make it call a\n     * `private` function that does the actual work.\n     */\n    modifier nonReentrant() {\n        _guardCounter += 1;\n        uint256 localCounter = _guardCounter;\n        _;\n        require(localCounter == _guardCounter, \"ReentrancyGuard: reentrant call\");\n    }\n\n    uint256[50] private ______gap;\n}\n",
  "sourcePath": "@openzeppelin/contracts-ethereum-package/contracts/utils/ReentrancyGuard.sol",
  "abi": [
    {
      "constant": false,
      "inputs": [],
      "name": "initialize",
      "outputs": [],
      "payable": false,
      "stateMutability": "nonpayable",
      "type": "function"
    }
  ],
  "bytecode": "0x608060405234801561001057600080fd5b506101b5806100206000396000f3fe608060405234801561001057600080fd5b506004361061002b5760003560e01c80638129fc1c14610030575b600080fd5b61003861003a565b005b600060019054906101000a900460ff16806100595750610058610141565b5b8061007057506000809054906101000a900460ff16155b6100c5576040517f08c379a000000000000000000000000000000000000000000000000000000000815260040180806020018281038252602e815260200180610153602e913960400191505060405180910390fd5b60008060019054906101000a900460ff161590508015610115576001600060016101000a81548160ff02191690831515021790555060016000806101000a81548160ff0219169083151502179055505b6001603381905550801561013e5760008060016101000a81548160ff0219169083151502179055505b50565b600080303b9050600081149150509056fe436f6e747261637420696e7374616e63652068617320616c7265616479206265656e20696e697469616c697a6564a265627a7a72315820e6c90a56b1fc25ff211fe5b6d06b6611dd269cfa6a32406a064006eabaa0db5164736f6c634300050b0032",
  "compiler": {
    "name": "solc",
    "version": "0.5.11+commit.c082d0b4.Emscripten.clang",
    "optimizer": {
      "enabled": false,
      "runs": 200
    },
    "evmVersion": "constantinople"
  }
}