{
  "contractName": "Thing",
  "abi": [
    {
      "constant": true,
      "inputs": [
        {
          "internalType": "bytes4",
          "name": "interfaceId",
          "type": "bytes4"
        }
      ],
      "name": "supportsInterface",
      "outputs": [
        {
          "internalType": "bool",
          "name": "",
          "type": "bool"
        }
      ],
      "payable": false,
      "stateMutability": "view",
      "type": "function"
    },
    {
      "constant": true,
      "inputs": [],
      "name": "name",
      "outputs": [
        {
          "internalType": "string",
          "name": "",
          "type": "string"
        }
      ],
      "payable": false,
      "stateMutability": "view",
      "type": "function"
    },
    {
      "constant": true,
      "inputs": [
        {
          "internalType": "uint256",
          "name": "tokenId",
          "type": "uint256"
        }
      ],
      "name": "getApproved",
      "outputs": [
        {
          "internalType": "address",
          "name": "",
          "type": "address"
        }
      ],
      "payable": false,
      "stateMutability": "view",
      "type": "function"
    },
    {
      "constant": false,
      "inputs": [
        {
          "internalType": "address",
          "name": "to",
          "type": "address"
        },
        {
          "internalType": "uint256",
          "name": "tokenId",
          "type": "uint256"
        }
      ],
      "name": "approve",
      "outputs": [],
      "payable": false,
      "stateMutability": "nonpayable",
      "type": "function"
    },
    {
      "constant": true,
      "inputs": [],
      "name": "totalSupply",
      "outputs": [
        {
          "internalType": "uint256",
          "name": "",
          "type": "uint256"
        }
      ],
      "payable": false,
      "stateMutability": "view",
      "type": "function"
    },
    {
      "constant": false,
      "inputs": [
        {
          "internalType": "address",
          "name": "from",
          "type": "address"
        },
        {
          "internalType": "address",
          "name": "to",
          "type": "address"
        },
        {
          "internalType": "uint256",
          "name": "tokenId",
          "type": "uint256"
        }
      ],
      "name": "transferFrom",
      "outputs": [],
      "payable": false,
      "stateMutability": "nonpayable",
      "type": "function"
    },
    {
      "constant": true,
      "inputs": [
        {
          "internalType": "address",
          "name": "owner",
          "type": "address"
        },
        {
          "internalType": "uint256",
          "name": "index",
          "type": "uint256"
        }
      ],
      "name": "tokenOfOwnerByIndex",
      "outputs": [
        {
          "internalType": "uint256",
          "name": "",
          "type": "uint256"
        }
      ],
      "payable": false,
      "stateMutability": "view",
      "type": "function"
    },
    {
      "constant": false,
      "inputs": [],
      "name": "unpause",
      "outputs": [],
      "payable": false,
      "stateMutability": "nonpayable",
      "type": "function"
    },
    {
      "constant": false,
      "inputs": [
        {
          "internalType": "address",
          "name": "from",
          "type": "address"
        },
        {
          "internalType": "address",
          "name": "to",
          "type": "address"
        },
        {
          "internalType": "uint256",
          "name": "tokenId",
          "type": "uint256"
        }
      ],
      "name": "safeTransferFrom",
      "outputs": [],
      "payable": false,
      "stateMutability": "nonpayable",
      "type": "function"
    },
    {
      "constant": true,
      "inputs": [
        {
          "internalType": "address",
          "name": "account",
          "type": "address"
        }
      ],
      "name": "isPauser",
      "outputs": [
        {
          "internalType": "bool",
          "name": "",
          "type": "bool"
        }
      ],
      "payable": false,
      "stateMutability": "view",
      "type": "function"
    },
    {
      "constant": true,
      "inputs": [
        {
          "internalType": "uint256",
          "name": "index",
          "type": "uint256"
        }
      ],
      "name": "tokenByIndex",
      "outputs": [
        {
          "internalType": "uint256",
          "name": "",
          "type": "uint256"
        }
      ],
      "payable": false,
      "stateMutability": "view",
      "type": "function"
    },
    {
      "constant": false,
      "inputs": [
        {
          "internalType": "address",
          "name": "to",
          "type": "address"
        },
        {
          "internalType": "uint256",
          "name": "tokenId",
          "type": "uint256"
        },
        {
          "internalType": "string",
          "name": "tokenURI",
          "type": "string"
        }
      ],
      "name": "mintWithTokenURI",
      "outputs": [
        {
          "internalType": "bool",
          "name": "",
          "type": "bool"
        }
      ],
      "payable": false,
      "stateMutability": "nonpayable",
      "type": "function"
    },
    {
      "constant": true,
      "inputs": [],
      "name": "paused",
      "outputs": [
        {
          "internalType": "bool",
          "name": "",
          "type": "bool"
        }
      ],
      "payable": false,
      "stateMutability": "view",
      "type": "function"
    },
    {
      "constant": true,
      "inputs": [
        {
          "internalType": "uint256",
          "name": "tokenId",
          "type": "uint256"
        }
      ],
      "name": "ownerOf",
      "outputs": [
        {
          "internalType": "address",
          "name": "",
          "type": "address"
        }
      ],
      "payable": false,
      "stateMutability": "view",
      "type": "function"
    },
    {
      "constant": false,
      "inputs": [],
      "name": "renouncePauser",
      "outputs": [],
      "payable": false,
      "stateMutability": "nonpayable",
      "type": "function"
    },
    {
      "constant": true,
      "inputs": [
        {
          "internalType": "address",
          "name": "owner",
          "type": "address"
        }
      ],
      "name": "balanceOf",
      "outputs": [
        {
          "internalType": "uint256",
          "name": "",
          "type": "uint256"
        }
      ],
      "payable": false,
      "stateMutability": "view",
      "type": "function"
    },
    {
      "constant": false,
      "inputs": [],
      "name": "renounceOwnership",
      "outputs": [],
      "payable": false,
      "stateMutability": "nonpayable",
      "type": "function"
    },
    {
      "constant": false,
      "inputs": [
        {
          "internalType": "address",
          "name": "account",
          "type": "address"
        }
      ],
      "name": "addPauser",
      "outputs": [],
      "payable": false,
      "stateMutability": "nonpayable",
      "type": "function"
    },
    {
      "constant": false,
      "inputs": [],
      "name": "pause",
      "outputs": [],
      "payable": false,
      "stateMutability": "nonpayable",
      "type": "function"
    },
    {
      "constant": true,
      "inputs": [],
      "name": "owner",
      "outputs": [
        {
          "internalType": "address",
          "name": "",
          "type": "address"
        }
      ],
      "payable": false,
      "stateMutability": "view",
      "type": "function"
    },
    {
      "constant": true,
      "inputs": [],
      "name": "isOwner",
      "outputs": [
        {
          "internalType": "bool",
          "name": "",
          "type": "bool"
        }
      ],
      "payable": false,
      "stateMutability": "view",
      "type": "function"
    },
    {
      "constant": true,
      "inputs": [],
      "name": "symbol",
      "outputs": [
        {
          "internalType": "string",
          "name": "",
          "type": "string"
        }
      ],
      "payable": false,
      "stateMutability": "view",
      "type": "function"
    },
    {
      "constant": false,
      "inputs": [
        {
          "internalType": "address",
          "name": "account",
          "type": "address"
        }
      ],
      "name": "addMinter",
      "outputs": [],
      "payable": false,
      "stateMutability": "nonpayable",
      "type": "function"
    },
    {
      "constant": false,
      "inputs": [],
      "name": "renounceMinter",
      "outputs": [],
      "payable": false,
      "stateMutability": "nonpayable",
      "type": "function"
    },
    {
      "constant": false,
      "inputs": [
        {
          "internalType": "address",
          "name": "to",
          "type": "address"
        },
        {
          "internalType": "bool",
          "name": "approved",
          "type": "bool"
        }
      ],
      "name": "setApprovalForAll",
      "outputs": [],
      "payable": false,
      "stateMutability": "nonpayable",
      "type": "function"
    },
    {
      "constant": true,
      "inputs": [
        {
          "internalType": "address",
          "name": "account",
          "type": "address"
        }
      ],
      "name": "isMinter",
      "outputs": [
        {
          "internalType": "bool",
          "name": "",
          "type": "bool"
        }
      ],
      "payable": false,
      "stateMutability": "view",
      "type": "function"
    },
    {
      "constant": false,
      "inputs": [
        {
          "internalType": "address",
          "name": "from",
          "type": "address"
        },
        {
          "internalType": "address",
          "name": "to",
          "type": "address"
        },
        {
          "internalType": "uint256",
          "name": "tokenId",
          "type": "uint256"
        },
        {
          "internalType": "bytes",
          "name": "_data",
          "type": "bytes"
        }
      ],
      "name": "safeTransferFrom",
      "outputs": [],
      "payable": false,
      "stateMutability": "nonpayable",
      "type": "function"
    },
    {
      "constant": true,
      "inputs": [
        {
          "internalType": "uint256",
          "name": "tokenId",
          "type": "uint256"
        }
      ],
      "name": "tokenURI",
      "outputs": [
        {
          "internalType": "string",
          "name": "",
          "type": "string"
        }
      ],
      "payable": false,
      "stateMutability": "view",
      "type": "function"
    },
    {
      "constant": true,
      "inputs": [
        {
          "internalType": "address",
          "name": "owner",
          "type": "address"
        },
        {
          "internalType": "address",
          "name": "operator",
          "type": "address"
        }
      ],
      "name": "isApprovedForAll",
      "outputs": [
        {
          "internalType": "bool",
          "name": "",
          "type": "bool"
        }
      ],
      "payable": false,
      "stateMutability": "view",
      "type": "function"
    },
    {
      "constant": false,
      "inputs": [
        {
          "internalType": "address",
          "name": "newOwner",
          "type": "address"
        }
      ],
      "name": "transferOwnership",
      "outputs": [],
      "payable": false,
      "stateMutability": "nonpayable",
      "type": "function"
    },
    {
      "anonymous": false,
      "inputs": [
        {
          "indexed": false,
          "internalType": "address",
          "name": "account",
          "type": "address"
        }
      ],
      "name": "Paused",
      "type": "event"
    },
    {
      "anonymous": false,
      "inputs": [
        {
          "indexed": false,
          "internalType": "address",
          "name": "account",
          "type": "address"
        }
      ],
      "name": "Unpaused",
      "type": "event"
    },
    {
      "anonymous": false,
      "inputs": [
        {
          "indexed": true,
          "internalType": "address",
          "name": "account",
          "type": "address"
        }
      ],
      "name": "PauserAdded",
      "type": "event"
    },
    {
      "anonymous": false,
      "inputs": [
        {
          "indexed": true,
          "internalType": "address",
          "name": "account",
          "type": "address"
        }
      ],
      "name": "PauserRemoved",
      "type": "event"
    },
    {
      "anonymous": false,
      "inputs": [
        {
          "indexed": true,
          "internalType": "address",
          "name": "previousOwner",
          "type": "address"
        },
        {
          "indexed": true,
          "internalType": "address",
          "name": "newOwner",
          "type": "address"
        }
      ],
      "name": "OwnershipTransferred",
      "type": "event"
    },
    {
      "anonymous": false,
      "inputs": [
        {
          "indexed": true,
          "internalType": "address",
          "name": "account",
          "type": "address"
        }
      ],
      "name": "MinterAdded",
      "type": "event"
    },
    {
      "anonymous": false,
      "inputs": [
        {
          "indexed": true,
          "internalType": "address",
          "name": "account",
          "type": "address"
        }
      ],
      "name": "MinterRemoved",
      "type": "event"
    },
    {
      "anonymous": false,
      "inputs": [
        {
          "indexed": true,
          "internalType": "address",
          "name": "from",
          "type": "address"
        },
        {
          "indexed": true,
          "internalType": "address",
          "name": "to",
          "type": "address"
        },
        {
          "indexed": true,
          "internalType": "uint256",
          "name": "tokenId",
          "type": "uint256"
        }
      ],
      "name": "Transfer",
      "type": "event"
    },
    {
      "anonymous": false,
      "inputs": [
        {
          "indexed": true,
          "internalType": "address",
          "name": "owner",
          "type": "address"
        },
        {
          "indexed": true,
          "internalType": "address",
          "name": "approved",
          "type": "address"
        },
        {
          "indexed": true,
          "internalType": "uint256",
          "name": "tokenId",
          "type": "uint256"
        }
      ],
      "name": "Approval",
      "type": "event"
    },
    {
      "anonymous": false,
      "inputs": [
        {
          "indexed": true,
          "internalType": "address",
          "name": "owner",
          "type": "address"
        },
        {
          "indexed": true,
          "internalType": "address",
          "name": "operator",
          "type": "address"
        },
        {
          "indexed": false,
          "internalType": "bool",
          "name": "approved",
          "type": "bool"
        }
      ],
      "name": "ApprovalForAll",
      "type": "event"
    },
    {
      "constant": false,
      "inputs": [],
      "name": "initialize",
      "outputs": [],
      "payable": false,
      "stateMutability": "nonpayable",
      "type": "function"
    },
    {
      "constant": false,
      "inputs": [
        {
          "internalType": "address",
          "name": "sender",
          "type": "address"
        }
      ],
      "name": "initialize",
      "outputs": [],
      "payable": false,
      "stateMutability": "nonpayable",
      "type": "function"
    },
    {
      "constant": false,
      "inputs": [
        {
          "internalType": "string",
          "name": "name",
          "type": "string"
        },
        {
          "internalType": "string",
          "name": "symbol",
          "type": "string"
        }
      ],
      "name": "initialize",
      "outputs": [],
      "payable": false,
      "stateMutability": "nonpayable",
      "type": "function"
    },
    {
      "constant": false,
      "inputs": [
        {
          "internalType": "string",
          "name": "metadataIpfsHash",
          "type": "string"
        },
        {
          "internalType": "uint256",
          "name": "deposit",
          "type": "uint256"
        }
      ],
      "name": "mint",
      "outputs": [
        {
          "internalType": "uint256",
          "name": "",
          "type": "uint256"
        }
      ],
      "payable": false,
      "stateMutability": "nonpayable",
      "type": "function"
    },
    {
      "constant": true,
      "inputs": [
        {
          "internalType": "uint256",
          "name": "tokenId",
          "type": "uint256"
        }
      ],
      "name": "bearerOf",
      "outputs": [
        {
          "internalType": "address",
          "name": "",
          "type": "address"
        }
      ],
      "payable": false,
      "stateMutability": "view",
      "type": "function"
    },
    {
      "constant": false,
      "inputs": [
        {
          "internalType": "uint256",
          "name": "tokenId",
          "type": "uint256"
        }
      ],
      "name": "borrow",
      "outputs": [],
      "payable": false,
      "stateMutability": "nonpayable",
      "type": "function"
    },
    {
      "constant": false,
      "inputs": [
        {
          "internalType": "uint256",
          "name": "tokenId",
          "type": "uint256"
        }
      ],
      "name": "lockToken",
      "outputs": [],
      "payable": false,
      "stateMutability": "nonpayable",
      "type": "function"
    },
    {
      "constant": false,
      "inputs": [
        {
          "internalType": "uint256",
          "name": "tokenId",
          "type": "uint256"
        }
      ],
      "name": "unlockToken",
      "outputs": [],
      "payable": false,
      "stateMutability": "nonpayable",
      "type": "function"
    },
    {
      "constant": true,
      "inputs": [],
      "name": "getDepositBalances",
      "outputs": [
        {
          "internalType": "uint256",
          "name": "balance",
          "type": "uint256"
        },
        {
          "internalType": "uint256",
          "name": "requiredBalance",
          "type": "uint256"
        }
      ],
      "payable": false,
      "stateMutability": "view",
      "type": "function"
    },
    {
      "constant": false,
      "inputs": [],
      "name": "fundDeposit",
      "outputs": [
        {
          "internalType": "uint256",
          "name": "",
          "type": "uint256"
        }
      ],
      "payable": true,
      "stateMutability": "payable",
      "type": "function"
    },
    {
      "constant": false,
      "inputs": [],
      "name": "withdrawDeposit",
      "outputs": [
        {
          "internalType": "uint256",
          "name": "",
          "type": "uint256"
        }
      ],
      "payable": true,
      "stateMutability": "payable",
      "type": "function"
    },
    {
      "constant": true,
      "inputs": [],
      "name": "getTokensOfBearer",
      "outputs": [
        {
          "internalType": "uint256[]",
          "name": "",
          "type": "uint256[]"
        }
      ],
      "payable": false,
      "stateMutability": "view",
      "type": "function"
    },
    {
      "constant": true,
      "inputs": [],
      "name": "getTokensOfOwner",
      "outputs": [
        {
          "internalType": "uint256[]",
          "name": "",
          "type": "uint256[]"
        }
      ],
      "payable": false,
      "stateMutability": "view",
      "type": "function"
    },
    {
      "constant": true,
      "inputs": [
        {
          "internalType": "uint256",
          "name": "tokenId",
          "type": "uint256"
        }
      ],
      "name": "getTokenMetadata",
      "outputs": [
        {
          "internalType": "uint256",
          "name": "id",
          "type": "uint256"
        },
        {
          "internalType": "string",
          "name": "tokenURI",
          "type": "string"
        },
        {
          "internalType": "uint256",
          "name": "deposit",
          "type": "uint256"
        },
        {
          "internalType": "address",
          "name": "owner",
          "type": "address"
        },
        {
          "internalType": "address",
          "name": "bearer",
          "type": "address"
        },
        {
          "internalType": "bool",
          "name": "lock",
          "type": "bool"
        }
      ],
      "payable": false,
      "stateMutability": "view",
      "type": "function"
    }
  ],
  "bytecode": "0x60806040526140df806100136000396000f3fe6080604052600436106102e75760003560e01c8063715018a611610184578063a22cb465116100d6578063c5ebeaec1161008a578063e985e9c511610064578063e985e9c514610d73578063ecedbf5214610dae578063f2fde38b14610dd8576102e7565b8063c5ebeaec14610cf5578063c87b56dd14610d1f578063dd2e0ac014610d49576102e7565b8063b68ceeaf116100bb578063b68ceeaf14610bda578063b88d4fde14610bef578063c4d66de814610cc2576102e7565b8063a22cb46514610b6c578063aa271e1a14610ba7576102e7565b80638465753c1161013857806395d89b411161011257806395d89b4114610b0f578063983b2d5614610b245780639865027514610b57576102e7565b80638465753c14610ab75780638da5cb5b14610ae55780638f32d59b14610afa576102e7565b80638129fc1c116101695780638129fc1c14610a5a57806382dc1ec414610a6f5780638456cb5914610aa2576102e7565b8063715018a614610a1b57806380f2036314610a30576102e7565b806342842e0e1161023d5780635c975abb116101f15780636caa736b116101cb5780636caa736b146109cb5780636ef8d66d146109d357806370a08231146109e8576102e7565b80635c975abb146108bb57806360316801146108d05780636352211e146109a1576102e7565b80634cd88b76116102225780634cd88b761461068f5780634f6ccce7146107c957806350bb4e7f146107f3576102e7565b806342842e0e1461061957806346fbf68e1461065c576102e7565b8063117df0881161029f57806323b872dd1161027957806323b872dd146105885780632f745c59146105cb5780633f4ba83a14610604576102e7565b8063117df0881461050657806318160ddd1461050e5780631b80ad7814610523576102e7565b806306fdde03116102d057806306fdde03146103fb578063081812fc14610485578063095ea7b3146104cb576102e7565b806301ffc9a7146102ec578063056b01ce14610334575b600080fd5b3480156102f857600080fd5b506103206004803603602081101561030f57600080fd5b50356001600160e01b031916610e0b565b604080519115158252519081900360200190f35b34801561034057600080fd5b506103e96004803603604081101561035757600080fd5b81019060208101813564010000000081111561037257600080fd5b82018360208201111561038457600080fd5b803590602001918460018302840111640100000000831117156103a657600080fd5b91908080601f0160208091040260200160405190810160405280939291908181526020018383808284376000920191909152509295505091359250610e2e915050565b60408051918252519081900360200190f35b34801561040757600080fd5b50610410610f06565b6040805160208082528351818301528351919283929083019185019080838360005b8381101561044a578181015183820152602001610432565b50505050905090810190601f1680156104775780820380516001836020036101000a031916815260200191505b509250505060405180910390f35b34801561049157600080fd5b506104af600480360360208110156104a857600080fd5b5035610f9d565b604080516001600160a01b039092168252519081900360200190f35b3480156104d757600080fd5b50610504600480360360408110156104ee57600080fd5b506001600160a01b038135169060200135610fff565b005b6103e9611127565b34801561051a57600080fd5b506103e9611257565b34801561052f57600080fd5b5061053861125d565b60408051602080825283518183015283519192839290830191858101910280838360005b8381101561057457818101518382015260200161055c565b505050509050019250505060405180910390f35b34801561059457600080fd5b50610504600480360360608110156105ab57600080fd5b506001600160a01b038135811691602081013590911690604001356112be565b3480156105d757600080fd5b506103e9600480360360408110156105ee57600080fd5b506001600160a01b03813516906020013561131a565b34801561061057600080fd5b50610504611399565b34801561062557600080fd5b506105046004803603606081101561063c57600080fd5b506001600160a01b0381358116916020810135909116906040013561148d565b34801561066857600080fd5b506103206004803603602081101561067f57600080fd5b50356001600160a01b03166114a8565b34801561069b57600080fd5b50610504600480360360408110156106b257600080fd5b8101906020810181356401000000008111156106cd57600080fd5b8201836020820111156106df57600080fd5b8035906020019184600183028401116401000000008311171561070157600080fd5b91908080601f016020809104026020016040519081016040528093929190818152602001838380828437600092019190915250929594936020810193503591505064010000000081111561075457600080fd5b82018360208201111561076657600080fd5b8035906020019184600183028401116401000000008311171561078857600080fd5b91908080601f0160208091040260200160405190810160405280939291908181526020018383808284376000920191909152509295506114c2945050505050565b3480156107d557600080fd5b506103e9600480360360208110156107ec57600080fd5b50356115ae565b3480156107ff57600080fd5b506103206004803603606081101561081657600080fd5b6001600160a01b038235169160208101359181019060608101604082013564010000000081111561084657600080fd5b82018360208201111561085857600080fd5b8035906020019184600183028401116401000000008311171561087a57600080fd5b91908080601f016020809104026020016040519081016040528093929190818152602001838380828437600092019190915250929550611614945050505050565b3480156108c757600080fd5b5061032061167a565b3480156108dc57600080fd5b506108fa600480360360208110156108f357600080fd5b5035611684565b604080518781529081018590526001600160a01b0380851660608301528316608082015281151560a082015260c06020808301828152885192840192909252875160e084019189019080838360005b83811015610961578181015183820152602001610949565b50505050905090810190601f16801561098e5780820380516001836020036101000a031916815260200191505b5097505050505050505060405180910390f35b3480156109ad57600080fd5b506104af600480360360208110156109c457600080fd5b5035611813565b6103e9611867565b3480156109df57600080fd5b50610504611945565b3480156109f457600080fd5b506103e960048036036020811015610a0b57600080fd5b50356001600160a01b0316611957565b348015610a2757600080fd5b506105046119bf565b348015610a3c57600080fd5b5061050460048036036020811015610a5357600080fd5b5035611a64565b348015610a6657600080fd5b50610504611ae5565b348015610a7b57600080fd5b5061050460048036036020811015610a9257600080fd5b50356001600160a01b0316611c2e565b348015610aae57600080fd5b50610504611c7d565b348015610ac357600080fd5b50610acc611d46565b6040805192835260208301919091528051918290030190f35b348015610af157600080fd5b506104af611d68565b348015610b0657600080fd5b50610320611d78565b348015610b1b57600080fd5b50610410611d9f565b348015610b3057600080fd5b5061050460048036036020811015610b4757600080fd5b50356001600160a01b0316611e00565b348015610b6357600080fd5b50610504611e4f565b348015610b7857600080fd5b5061050460048036036040811015610b8f57600080fd5b506001600160a01b0381351690602001351515611e5f565b348015610bb357600080fd5b5061032060048036036020811015610bca57600080fd5b50356001600160a01b0316611f64565b348015610be657600080fd5b50610538611f78565b348015610bfb57600080fd5b5061050460048036036080811015610c1257600080fd5b6001600160a01b03823581169260208101359091169160408201359190810190608081016060820135640100000000811115610c4d57600080fd5b820183602082011115610c5f57600080fd5b80359060200191846001830284011164010000000083111715610c8157600080fd5b91908080601f016020809104026020016040519081016040528093929190818152602001838380828437600092019190915250929550611fd5945050505050565b348015610cce57600080fd5b5061050460048036036020811015610ce557600080fd5b50356001600160a01b0316612033565b348015610d0157600080fd5b5061050460048036036020811015610d1857600080fd5b50356120ea565b348015610d2b57600080fd5b5061041060048036036020811015610d4257600080fd5b50356120fd565b348015610d5557600080fd5b5061050460048036036020811015610d6c57600080fd5b50356121e2565b348015610d7f57600080fd5b5061032060048036036040811015610d9657600080fd5b506001600160a01b0381358116916020013516612260565b348015610dba57600080fd5b506104af60048036036020811015610dd157600080fd5b503561228e565b348015610de457600080fd5b5061050460048036036020811015610dfb57600080fd5b50356001600160a01b0316612326565b6001600160e01b0319811660009081526033602052604090205460ff165b919050565b6000610e40610e3b612388565b611f64565b610e7b5760405162461bcd60e51b8152600401808060200182810382526030815260200180613e876030913960400191505060405180910390fd5b6101d25460ff1615610ec7576040805162461bcd60e51b815260206004820152601060248201526f14185d5cd8589b194e881c185d5cd95960821b604482015290519081900360640190fd5b610ed261023a61238c565b6000610edf61023a612395565b6000818152610238602052604090208490559050610efe338286611614565b509392505050565b60d28054604080516020601f6002600019610100600188161502019095169490940493840181900481028201810190925282815260609390929091830182828015610f925780601f10610f6757610100808354040283529160200191610f92565b820191906000526020600020905b815481529060010190602001808311610f7557829003601f168201915b505050505090505b90565b6000610fa882612399565b610fe35760405162461bcd60e51b815260040180806020018281038252602c815260200180613efb602c913960400191505060405180910390fd5b506000908152606760205260409020546001600160a01b031690565b600061100a82611813565b9050806001600160a01b0316836001600160a01b0316141561105d5760405162461bcd60e51b815260040180806020018281038252602181526020018061402d6021913960400191505060405180910390fd5b806001600160a01b031661106f612388565b6001600160a01b0316148061109057506110908161108b612388565b612260565b6110cb5760405162461bcd60e51b8152600401808060200182810382526038815260200180613dfc6038913960400191505060405180910390fd5b60008281526067602052604080822080546001600160a01b0319166001600160a01b0387811691821790925591518593918516917f8c5be1e5ebec7d5bd14f71427d1e84f3dd0314c0f7b2291e5b200ac8c7c3b92591a4505050565b6101d25460009060ff1615611176576040805162461bcd60e51b815260206004820152601060248201526f14185d5cd8589b194e881c185d5cd95960821b604482015290519081900360640190fd5b61020580546001019081905533600090815261023f602090815260408083205461024090925282205490916111b1838363ffffffff6123b616565b90506111c3338263ffffffff6123ff16565b33600090815261023f60205260409020546111e4908263ffffffff6123b616565b33600090815261023f602052604090208190559450505050610205548114611253576040805162461bcd60e51b815260206004820152601f60248201527f5265656e7472616e637947756172643a207265656e7472616e742063616c6c00604482015290519081900360640190fd5b5090565b609e5490565b33600090815261023d6020908152604091829020805483518184028101840190945280845260609392830182828015610f9257602002820191906000526020600020905b8154815260200190600101908083116112a1575050505050905090565b6112cf6112c9612388565b826124e5565b61130a5760405162461bcd60e51b815260040180806020018281038252603181526020018061404e6031913960400191505060405180910390fd5b611315838383612589565b505050565b600061132583611957565b82106113625760405162461bcd60e51b815260040180806020018281038252602b815260200180613c9c602b913960400191505060405180910390fd5b6001600160a01b0383166000908152609c6020526040902080548390811061138657fe5b9060005260206000200154905092915050565b6113a96113a4612388565b6114a8565b6113e45760405162461bcd60e51b8152600401808060200182810382526030815260200180613cf96030913960400191505060405180910390fd5b6101d25460ff1661143c576040805162461bcd60e51b815260206004820152601460248201527f5061757361626c653a206e6f7420706175736564000000000000000000000000604482015290519081900360640190fd5b6101d2805460ff191690557f5db9ee0a495bf2e6ff9c91a7834c1ba4fdd244a5e8aa4e537bd38aeae4b073aa611470612388565b604080516001600160a01b039092168252519081900360200190a1565b61131583838360405180602001604052806000815250611fd5565b60006114bc61019f8363ffffffff6125a816565b92915050565b600054610100900460ff16806114db57506114db61260f565b806114e9575060005460ff16155b6115245760405162461bcd60e51b815260040180806020018281038252602e815260200180613fa7602e913960400191505060405180910390fd5b600054610100900460ff1615801561154f576000805460ff1961ff0019909116610100171660011790555b611557612615565b61156057600080fd5b82516115739060d2906020860190613bbf565b5081516115879060d3906020850190613bbf565b50611598635b5e139f60e01b61262c565b8015611315576000805461ff0019169055505050565b60006115b8611257565b82106115f55760405162461bcd60e51b815260040180806020018281038252602c81526020018061407f602c913960400191505060405180910390fd5b609e828154811061160257fe5b90600052602060002001549050919050565b6000611621610e3b612388565b61165c5760405162461bcd60e51b8152600401808060200182810382526030815260200180613e876030913960400191505060405180910390fd5b61166684846126b0565b61167083836126cd565b5060019392505050565b6101d25460ff1690565b60006060600080600080869550306001600160a01b031663c87b56dd886040518263ffffffff1660e01b81526004018082815260200191505060006040518083038186803b1580156116d557600080fd5b505afa1580156116e9573d6000803e3d6000fd5b505050506040513d6000823e601f3d908101601f19168201604052602081101561171257600080fd5b810190808051604051939291908464010000000082111561173257600080fd5b90830190602082018581111561174757600080fd5b825164010000000081118282018810171561176157600080fd5b82525081516020918201929091019080838360005b8381101561178e578181015183820152602001611776565b50505050905090810190601f1680156117bb5780820380516001836020036101000a031916815260200191505b50604052505050945061023860008881526020019081526020016000205493506117e487611813565b92506117ef8761228e565b6000978852610239602052604090972054959794969395929460ff90931692915050565b6000818152606660205260408120546001600160a01b0316806114bc5760405162461bcd60e51b8152600401808060200182810382526029815260200180613e5e6029913960400191505060405180910390fd5b6101d25460009060ff16156118b6576040805162461bcd60e51b815260206004820152601060248201526f14185d5cd8589b194e881c185d5cd95960821b604482015290519081900360640190fd5b6000341161190b576040805162461bcd60e51b815260206004820152601660248201527f5468696e673a2053656e742076616c7565203c3d203000000000000000000000604482015290519081900360640190fd5b33600090815261023f602052604081205461192c903463ffffffff61273016565b33600090815261023f6020526040902081905591505090565b611955611950612388565b61278a565b565b60006001600160a01b03821661199e5760405162461bcd60e51b815260040180806020018281038252602a815260200180613e34602a913960400191505060405180910390fd5b6001600160a01b03821660009081526068602052604090206114bc90612395565b6119c7611d78565b611a18576040805162461bcd60e51b815260206004820181905260248201527f4f776e61626c653a2063616c6c6572206973206e6f7420746865206f776e6572604482015290519081900360640190fd5b61016c546040516000916001600160a01b0316907f8be0079c531659141344cd1fd0a4f28419497f9722a3daafe3b4186f6b6457e0908390a361016c80546001600160a01b0319169055565b33611a6e82611813565b6001600160a01b031614611ac9576040805162461bcd60e51b815260206004820152601c60248201527f5468696e673a20796f7520617265206e6f7420746865206f776e657200000000604482015290519081900360640190fd5b600090815261023960205260409020805460ff19166001179055565b600054610100900460ff1680611afe5750611afe61260f565b80611b0c575060005460ff16155b611b475760405162461bcd60e51b815260040180806020018281038252602e815260200180613fa7602e913960400191505060405180910390fd5b600054610100900460ff16158015611b72576000805460ff1961ff0019909116610100171660011790555b611b7a6127d3565b611b82612878565b611bf66040518060400160405280600581526020017f5468696e670000000000000000000000000000000000000000000000000000008152506040518060400160405280600381526020017f54473100000000000000000000000000000000000000000000000000000000008152506114c2565b611bff3361293f565b611c0833612033565b611c1133612a0c565b611c19612afe565b8015611c2b576000805461ff00191690555b50565b611c396113a4612388565b611c745760405162461bcd60e51b8152600401808060200182810382526030815260200180613cf96030913960400191505060405180910390fd5b611c2b81612ba5565b611c886113a4612388565b611cc35760405162461bcd60e51b8152600401808060200182810382526030815260200180613cf96030913960400191505060405180910390fd5b6101d25460ff1615611d0f576040805162461bcd60e51b815260206004820152601060248201526f14185d5cd8589b194e881c185d5cd95960821b604482015290519081900360640190fd5b6101d2805460ff191660011790557f62e78cea01bee320cd4e420270b5ea74000d11b0c9f74754ebdbfc544b05a258611470612388565b33600090815261023f6020908152604080832054610240909252909120549091565b61016c546001600160a01b031690565b61016c546000906001600160a01b0316611d90612388565b6001600160a01b031614905090565b60d38054604080516020601f6002600019610100600188161502019095169490940493840181900481028201810190925282815260609390929091830182828015610f925780601f10610f6757610100808354040283529160200191610f92565b611e0b610e3b612388565b611e465760405162461bcd60e51b8152600401808060200182810382526030815260200180613e876030913960400191505060405180910390fd5b611c2b81612bee565b611955611e5a612388565b612c37565b611e67612388565b6001600160a01b0316826001600160a01b03161415611ecd576040805162461bcd60e51b815260206004820152601960248201527f4552433732313a20617070726f766520746f2063616c6c657200000000000000604482015290519081900360640190fd5b8060696000611eda612388565b6001600160a01b03908116825260208083019390935260409182016000908120918716808252919093529120805460ff191692151592909217909155611f1e612388565b60408051841515815290516001600160a01b0392909216917f17307eab39ab6107e8899845ad3d59bd9653f200f220920489ca2b5937696c319181900360200190a35050565b60006114bc6101078363ffffffff6125a816565b6060611f8333612c80565b805480602002602001604051908101604052809291908181526020018280548015610f9257602002820191906000526020600020908154815260200190600101908083116112a1575050505050905090565b611fe6611fe0612388565b836124e5565b6120215760405162461bcd60e51b815260040180806020018281038252603181526020018061404e6031913960400191505060405180910390fd5b61202d84848484612c9a565b50505050565b600054610100900460ff168061204c575061204c61260f565b8061205a575060005460ff16155b6120955760405162461bcd60e51b815260040180806020018281038252602e815260200180613fa7602e913960400191505060405180910390fd5b600054610100900460ff161580156120c0576000805460ff1961ff0019909116610100171660011790555b6120c982612cec565b6101d2805460ff1916905580156120e6576000805461ff00191690555b5050565b611c2b6120f68261228e565b3383612d8f565b606061210882612399565b6121435760405162461bcd60e51b815260040180806020018281038252602f815260200180613ffe602f913960400191505060405180910390fd5b600082815260d4602090815260409182902080548351601f6002600019610100600186161502019093169290920491820184900484028101840190945280845290918301828280156121d65780601f106121ab576101008083540402835291602001916121d6565b820191906000526020600020905b8154815290600101906020018083116121b957829003601f168201915b50505050509050919050565b336121ec82611813565b6001600160a01b031614612247576040805162461bcd60e51b815260206004820152601c60248201527f5468696e673a20796f7520617265206e6f7420746865206f776e657200000000604482015290519081900360640190fd5b600090815261023960205260409020805460ff19169055565b6001600160a01b03918216600090815260696020908152604080832093909416825291909152205460ff1690565b60008061229a83611813565b90506001600160a01b0381166122e15760405162461bcd60e51b8152600401808060200182810382526028815260200180613c746028913960400191505060405180910390fd5b600083815261023b60205260409020546001600160a01b03161561231f575050600081815261023b60205260409020546001600160a01b0316610e29565b9050610e29565b61232e611d78565b61237f576040805162461bcd60e51b815260206004820181905260248201527f4f776e61626c653a2063616c6c6572206973206e6f7420746865206f776e6572604482015290519081900360640190fd5b611c2b81613119565b3390565b80546001019055565b5490565b6000908152606660205260409020546001600160a01b0316151590565b60006123f883836040518060400160405280601e81526020017f536166654d6174683a207375627472616374696f6e206f766572666c6f7700008152506131bc565b9392505050565b3031811115612455576040805162461bcd60e51b815260206004820152601d60248201527f416464726573733a20696e73756666696369656e742062616c616e6365000000604482015290519081900360640190fd5b6040516000906001600160a01b0384169083908381818185875af1925050503d80600081146124a0576040519150601f19603f3d011682016040523d82523d6000602084013e6124a5565b606091505b50509050806113155760405162461bcd60e51b815260040180806020018281038252603a815260200180613d96603a913960400191505060405180910390fd5b60006124f082612399565b61252b5760405162461bcd60e51b815260040180806020018281038252602c815260200180613dd0602c913960400191505060405180910390fd5b600061253683611813565b9050806001600160a01b0316846001600160a01b031614806125715750836001600160a01b031661256684610f9d565b6001600160a01b0316145b8061258157506125818185612260565b949350505050565b612594838383613253565b61259e8382613397565b611315828261348c565b60006001600160a01b0382166125ef5760405162461bcd60e51b8152600401808060200182810382526022815260200180613f856022913960400191505060405180910390fd5b506001600160a01b03166000908152602091909152604090205460ff1690565b303b1590565b60006126276380ac58cd60e01b610e0b565b905090565b6001600160e01b0319808216141561268b576040805162461bcd60e51b815260206004820152601c60248201527f4552433136353a20696e76616c696420696e7465726661636520696400000000604482015290519081900360640190fd5b6001600160e01b0319166000908152603360205260409020805460ff19166001179055565b6126ba82826134ca565b6126c4828261348c565b6120e6816135fb565b6126d682612399565b6127115760405162461bcd60e51b815260040180806020018281038252602c815260200180613f27602c913960400191505060405180910390fd5b600082815260d460209081526040909120825161131592840190613bbf565b6000828201838110156123f8576040805162461bcd60e51b815260206004820152601b60248201527f536166654d6174683a206164646974696f6e206f766572666c6f770000000000604482015290519081900360640190fd5b61279c61019f8263ffffffff61363f16565b6040516001600160a01b038216907fcd265ebaf09df2871cc7bd4133404a235ba12eff2041bb89d9c714a2621c7c7e90600090a250565b600054610100900460ff16806127ec57506127ec61260f565b806127fa575060005460ff16155b6128355760405162461bcd60e51b815260040180806020018281038252602e815260200180613fa7602e913960400191505060405180910390fd5b600054610100900460ff16158015612860576000805460ff1961ff0019909116610100171660011790555b6128686136a6565b611c196380ac58cd60e01b61262c565b600054610100900460ff1680612891575061289161260f565b8061289f575060005460ff16155b6128da5760405162461bcd60e51b815260040180806020018281038252602e815260200180613fa7602e913960400191505060405180910390fd5b600054610100900460ff16158015612905576000805460ff1961ff0019909116610100171660011790555b61290d612615565b61291657600080fd5b611c197f780e9d630000000000000000000000000000000000000000000000000000000061262c565b600054610100900460ff1680612958575061295861260f565b80612966575060005460ff16155b6129a15760405162461bcd60e51b815260040180806020018281038252602e815260200180613fa7602e913960400191505060405180910390fd5b600054610100900460ff161580156129cc576000805460ff1961ff0019909116610100171660011790555b6129d4612615565b6129dd57600080fd5b6129e561375c565b6129ee57600080fd5b6129f78261376e565b80156120e6576000805461ff00191690555050565b600054610100900460ff1680612a255750612a2561260f565b80612a33575060005460ff16155b612a6e5760405162461bcd60e51b815260040180806020018281038252602e815260200180613fa7602e913960400191505060405180910390fd5b600054610100900460ff16158015612a99576000805460ff1961ff0019909116610100171660011790555b61016c80546001600160a01b0319166001600160a01b0384811691909117918290556040519116906000907f8be0079c531659141344cd1fd0a4f28419497f9722a3daafe3b4186f6b6457e0908290a380156120e6576000805461ff00191690555050565b600054610100900460ff1680612b175750612b1761260f565b80612b25575060005460ff16155b612b605760405162461bcd60e51b815260040180806020018281038252602e815260200180613fa7602e913960400191505060405180910390fd5b600054610100900460ff16158015612b8b576000805460ff1961ff0019909116610100171660011790555b6001610205558015611c2b576000805461ff001916905550565b612bb761019f8263ffffffff61381116565b6040516001600160a01b038216907f6719d08c1888103bea251a4ed56406bd0c3e69723c8a1686e017e7bbe159b6f890600090a250565b612c006101078263ffffffff61381116565b6040516001600160a01b038216907f6ae172837ea30b801fbfcdd4108aa1d5bf8ff775444fd70256b44e6bf3dfc3f690600090a250565b612c496101078263ffffffff61363f16565b6040516001600160a01b038216907fe94479a9f7e1952cc78f2d6baab678adc1b772d936c6583def489e524cb6669290600090a250565b6001600160a01b03166000908152609c6020526040902090565b612ca5848484612589565b612cb184848484613892565b61202d5760405162461bcd60e51b8152600401808060200182810382526032815260200180613cc76032913960400191505060405180910390fd5b600054610100900460ff1680612d055750612d0561260f565b80612d13575060005460ff16155b612d4e5760405162461bcd60e51b815260040180806020018281038252602e815260200180613fa7602e913960400191505060405180910390fd5b600054610100900460ff16158015612d79576000805460ff1961ff0019909116610100171660011790555b612d82826114a8565b6129f7576129f782612ba5565b6101d25460ff1615612ddb576040805162461bcd60e51b815260206004820152601060248201526f14185d5cd8589b194e881c185d5cd95960821b604482015290519081900360640190fd5b60008181526102396020526040902054819060ff1615612e42576040805162461bcd60e51b815260206004820152601660248201527f5468696e673a20746f6b656e206973206c6f636b656400000000000000000000604482015290519081900360640190fd5b612e4b82612399565b612e9c576040805162461bcd60e51b815260206004820152601760248201527f5468696e673a20746f6b656e20646f6e74206578697374000000000000000000604482015290519081900360640190fd5b6001600160a01b038316612ee15760405162461bcd60e51b8152600401808060200182810382526023815260200180613ed86023913960400191505060405180910390fd5b612eea8261228e565b6001600160a01b0316836001600160a01b03161415612f3a5760405162461bcd60e51b8152600401808060200182810382526023815260200180613d4f6023913960400191505060405180910390fd5b6000612f4583611813565b60008481526102386020526040902054909150801561305c576001600160a01b03808716600081815261024060205260408120549290919085161415612f8c575080612f9f565b612f9c828463ffffffff6123b616565b90505b6001600160a01b03808816600081815261023f6020908152604080832054610240909252822054909390929088161415612fda575080612fed565b612fea828763ffffffff61273016565b90505b8083101561302c5760405162461bcd60e51b8152600401808060200182810382526032815260200180613f536032913960400191505060405180910390fd5b6001600160a01b03808c166000908152610240602052604080822096909655908b16815293909320929092555050505b856001600160a01b0316826001600160a01b0316146130a15761307f8685613a02565b6001600160a01b038616600090815261023c602052604090206130a190613af6565b846001600160a01b0316826001600160a01b0316146130e6576130c48585613b0d565b6001600160a01b038516600090815261023c602052604090206130e69061238c565b505050600090815261023b6020526040902080546001600160a01b0319166001600160a01b039290921691909117905550565b6001600160a01b03811661315e5760405162461bcd60e51b8152600401808060200182810382526026815260200180613d296026913960400191505060405180910390fd5b61016c546040516001600160a01b038084169216907f8be0079c531659141344cd1fd0a4f28419497f9722a3daafe3b4186f6b6457e090600090a361016c80546001600160a01b0319166001600160a01b0392909216919091179055565b6000818484111561324b5760405162461bcd60e51b81526004018080602001828103825283818151815260200191508051906020019080838360005b838110156132105781810151838201526020016131f8565b50505050905090810190601f16801561323d5780820380516001836020036101000a031916815260200191505b509250505060405180910390fd5b505050900390565b826001600160a01b031661326682611813565b6001600160a01b0316146132ab5760405162461bcd60e51b8152600401808060200182810382526029815260200180613fd56029913960400191505060405180910390fd5b6001600160a01b0382166132f05760405162461bcd60e51b8152600401808060200182810382526024815260200180613d726024913960400191505060405180910390fd5b6132f981613b4d565b6001600160a01b038316600090815260686020526040902061331a90613af6565b6001600160a01b038216600090815260686020526040902061333b9061238c565b60008181526066602052604080822080546001600160a01b0319166001600160a01b0386811691821790925591518493918716917fddf252ad1be2c89b69c2b068fc378daa952ba7f163c4a11628f55a4df523b3ef91a4505050565b6001600160a01b0382166000908152609c60205260408120546133c190600163ffffffff6123b616565b6000838152609d602052604090205490915080821461345c576001600160a01b0384166000908152609c602052604081208054849081106133fe57fe5b9060005260206000200154905080609c6000876001600160a01b03166001600160a01b03168152602001908152602001600020838154811061343c57fe5b6000918252602080832090910192909255918252609d9052604090208190555b6001600160a01b0384166000908152609c60205260409020805490613485906000198301613c39565b5050505050565b6001600160a01b039091166000908152609c602081815260408084208054868652609d84529185208290559282526001810183559183529091200155565b6001600160a01b038216613525576040805162461bcd60e51b815260206004820181905260248201527f4552433732313a206d696e7420746f20746865207a65726f2061646472657373604482015290519081900360640190fd5b61352e81612399565b15613580576040805162461bcd60e51b815260206004820152601c60248201527f4552433732313a20746f6b656e20616c7265616479206d696e74656400000000604482015290519081900360640190fd5b600081815260666020908152604080832080546001600160a01b0319166001600160a01b0387169081179091558352606890915290206135bf9061238c565b60405181906001600160a01b038416906000907fddf252ad1be2c89b69c2b068fc378daa952ba7f163c4a11628f55a4df523b3ef908290a45050565b609e80546000838152609f60205260408120829055600182018355919091527fcfe2a20ff701a1f3e14f63bd70d6c6bc6fba8172ec6d5a505cdab3927c0a9de60155565b61364982826125a8565b6136845760405162461bcd60e51b8152600401808060200182810382526021815260200180613eb76021913960400191505060405180910390fd5b6001600160a01b0316600090815260209190915260409020805460ff19169055565b600054610100900460ff16806136bf57506136bf61260f565b806136cd575060005460ff16155b6137085760405162461bcd60e51b815260040180806020018281038252602e815260200180613fa7602e913960400191505060405180910390fd5b600054610100900460ff16158015613733576000805460ff1961ff0019909116610100171660011790555b611c197f01ffc9a70000000000000000000000000000000000000000000000000000000061262c565b6000612627635b5e139f60e01b610e0b565b600054610100900460ff1680613787575061378761260f565b80613795575060005460ff16155b6137d05760405162461bcd60e51b815260040180806020018281038252602e815260200180613fa7602e913960400191505060405180910390fd5b600054610100900460ff161580156137fb576000805460ff1961ff0019909116610100171660011790555b61380482611f64565b6129f7576129f782612bee565b61381b82826125a8565b1561386d576040805162461bcd60e51b815260206004820152601f60248201527f526f6c65733a206163636f756e7420616c72656164792068617320726f6c6500604482015290519081900360640190fd5b6001600160a01b0316600090815260209190915260409020805460ff19166001179055565b60006138a6846001600160a01b0316613b88565b6138b257506001612581565b6000846001600160a01b031663150b7a026138cb612388565b8887876040518563ffffffff1660e01b815260040180856001600160a01b03166001600160a01b03168152602001846001600160a01b03166001600160a01b0316815260200183815260200180602001828103825283818151815260200191508051906020019080838360005b83811015613950578181015183820152602001613938565b50505050905090810190601f16801561397d5780820380516001836020036101000a031916815260200191505b5095505050505050602060405180830381600087803b15801561399f57600080fd5b505af11580156139b3573d6000803e3d6000fd5b505050506040513d60208110156139c957600080fd5b50516001600160e01b0319167f150b7a020000000000000000000000000000000000000000000000000000000014915050949350505050565b6001600160a01b038216600090815261023d6020526040812054613a2d90600163ffffffff6123b616565b600083815261023e6020526040902054909150808214613acc576001600160a01b038416600090815261023d60205260408120805484908110613a6c57fe5b906000526020600020015490508061023d6000876001600160a01b03166001600160a01b031681526020019081526020016000208381548110613aab57fe5b600091825260208083209091019290925591825261023e9052604090208190555b6001600160a01b038416600090815261023d60205260409020805490613485906000198301613c39565b8054613b0990600163ffffffff6123b616565b9055565b6001600160a01b03909116600090815261023d60208181526040808420805486865261023e84529185208290559282526001810183559183529091200155565b6000818152606760205260409020546001600160a01b031615611c2b57600090815260676020526040902080546001600160a01b0319169055565b6000813f7fc5d2460186f7233c927e7db2dcc703c0e500b653ca82273b7bfad8045d85a47081158015906125815750141592915050565b828054600181600116156101000203166002900490600052602060002090601f016020900481019282601f10613c0057805160ff1916838001178555613c2d565b82800160010185558215613c2d579182015b82811115613c2d578251825591602001919060010190613c12565b50611253929150613c59565b815481835581811115611315576000838152602090206113159181019083015b610f9a91905b808211156112535760008155600101613c5f56fe5468696e673a206f776e657220717565727920666f72206e6f6e6578697374656e7420746f6b656e455243373231456e756d657261626c653a206f776e657220696e646578206f7574206f6620626f756e64734552433732313a207472616e7366657220746f206e6f6e20455243373231526563656976657220696d706c656d656e746572506175736572526f6c653a2063616c6c657220646f6573206e6f742068617665207468652050617573657220726f6c654f776e61626c653a206e6577206f776e657220697320746865207a65726f20616464726573735468696e673a20796f7520616c726561647920626561722074686174206f626a6563744552433732313a207472616e7366657220746f20746865207a65726f2061646472657373416464726573733a20756e61626c6520746f2073656e642076616c75652c20726563697069656e74206d617920686176652072657665727465644552433732313a206f70657261746f7220717565727920666f72206e6f6e6578697374656e7420746f6b656e4552433732313a20617070726f76652063616c6c6572206973206e6f74206f776e6572206e6f7220617070726f76656420666f7220616c6c4552433732313a2062616c616e636520717565727920666f7220746865207a65726f20616464726573734552433732313a206f776e657220717565727920666f72206e6f6e6578697374656e7420746f6b656e4d696e746572526f6c653a2063616c6c657220646f6573206e6f74206861766520746865204d696e74657220726f6c65526f6c65733a206163636f756e7420646f6573206e6f74206861766520726f6c655468696e673a207472616e7366657220746f20746865207a65726f20616464726573734552433732313a20617070726f76656420717565727920666f72206e6f6e6578697374656e7420746f6b656e4552433732314d657461646174613a2055524920736574206f66206e6f6e6578697374656e7420746f6b656e5468696e673a206465706f736974206973206e6f7420656e6f75676820746f20626f72726f772074686973206f626a656374526f6c65733a206163636f756e7420697320746865207a65726f2061646472657373436f6e747261637420696e7374616e63652068617320616c7265616479206265656e20696e697469616c697a65644552433732313a207472616e73666572206f6620746f6b656e2074686174206973206e6f74206f776e4552433732314d657461646174613a2055524920717565727920666f72206e6f6e6578697374656e7420746f6b656e4552433732313a20617070726f76616c20746f2063757272656e74206f776e65724552433732313a207472616e736665722063616c6c6572206973206e6f74206f776e6572206e6f7220617070726f766564455243373231456e756d657261626c653a20676c6f62616c20696e646578206f7574206f6620626f756e6473a265627a7a72315820abe8540ec90099d64146b2d657e210541a77947d0c2bdb1ee8b2a5339acc938864736f6c634300050b0032",
  "source": "pragma solidity 0.5.11; //SEC fix compiler version\n\nimport \"@openzeppelin/upgrades/contracts/Initializable.sol\";\nimport \"@openzeppelin/contracts-ethereum-package/contracts/ownership/Ownable.sol\";\nimport \"@openzeppelin/contracts-ethereum-package/contracts/lifecycle/Pausable.sol\";\nimport \"@openzeppelin/contracts-ethereum-package/contracts/math/SafeMath.sol\";\nimport \"@openzeppelin/contracts-ethereum-package/contracts/drafts/Counters.sol\";\n\nimport \"@openzeppelin/contracts-ethereum-package/contracts/utils/Address.sol\";\nimport \"@openzeppelin/contracts-ethereum-package/contracts/utils/ReentrancyGuard.sol\";\n\nimport \"@openzeppelin/contracts-ethereum-package/contracts/token/ERC721/ERC721.sol\";\nimport \"@openzeppelin/contracts-ethereum-package/contracts/token/ERC721/ERC721Enumerable.sol\";\n//import '@openzeppelin/contracts-ethereum-package/contracts/token/ERC721/ERC721Full.sol';\nimport \"@openzeppelin/contracts-ethereum-package/contracts/token/ERC721/ERC721MetadataMintable.sol\";\n//import '@openzeppelin/contracts-ethereum-package/contracts/token/ERC721/ERC721Mintable.sol';\n//import '@openzeppelin/contracts-ethereum-package/contracts/token/ERC721/ERC721Pausable.sol';\n\n/**\n * @title Thing\n * @author Fred\n * @notice Allow to share & borrow objects (Non Fungible Tokens) in a secure way\n * @dev Upgradable contract built on OpenZeppelin ERC721 implementation with extensions\n */\ncontract Thing is\n    Initializable, // required for contract upgradability\n    ERC721,\n    ERC721Enumerable,\n    ERC721MetadataMintable,\n    //, ERC721Pausable\n    Ownable,\n    Pausable,\n    ReentrancyGuard {\n    using SafeMath for uint256;\n    using Counters for Counters.Counter;\n    using Address for address payable;\n\n    // FEATURE 2 : token metadata (on-chain)\n    //struct Metadata {\n    //    uint256 deposit;\n        // FEATURE 5 : locking of token borrowing\n    //    bool lock;\n    //}\n\n    //mapping(uint256 => Metadata) private metadatas;\n    // Initial on-chain metadata, can be extended but you have to put it at the end for upgradbility\n    mapping(uint256 => uint256) private deposits;\n    mapping(uint256 => bool) private locks;\n\n    // FEATURE 3 : tokenId auto-increment\n    Counters.Counter private counterTokenIds;\n\n    // FEATURE 4 : borrowing of token\n    //Mapping from token ID to bearer\n    mapping(uint256 => address) private _tokenBearer;\n    // Mapping from bearer to number of beared token\n    mapping(address => Counters.Counter) private _borrowedTokensCount; //TODO not only bearer\n    // Mapping from bearer to list of beared token IDs\n    mapping(address => uint256[]) private _bearedTokens;\n    // Mapping from token ID to index of the bearer tokens list\n    mapping(uint256 => uint256) private _bearedTokensIndex;\n\n    // FEATURE 5 : locking of token borrowing\n    //mapping(uint256 => bool) private locked; //array would be very inefficient for this since there is no contains function\n\n    // FEATURE 6 : deposit\n    mapping(address => uint256) private balances;\n    // we create a mapping of current required min balance per user according to the currently beared things.\n    mapping(address => uint256) private requiredBalances;\n\n    // EVENTS\n\n    /**\n   * @dev Initializer used for tests\n   */\n    /*\n  function initialize(address owner, address pauser, address minter) public initializer {\n    ERC721.initialize();\n    ERC721Enumerable.initialize();\n    //ERC721Metadata.initialize(\"Thing\", \"TG1\");\n    ERC721Mintable.initialize(minter);\n    //ERC721Pausable.initialize(pauser);\n    /// do we need another/instead\n    Pausable.initialize(pauser);\n    Ownable.initialize(owner);\n    ReentrancyGuard.initialize();\n  }*/\n\n    /**\n   * @dev replace the contructor in the context of an upgradable contract, must always be called manually when creating a contract\n   */\n    function initialize() public initializer {\n        ERC721.initialize();\n        ERC721Enumerable.initialize();\n        ERC721Metadata.initialize(\"Thing\", \"TG1\");\n        ERC721MetadataMintable.initialize(msg.sender);\n        //ERC721Pausable.initialize(msg.sender);\n        /// do we need another/instead\n        Pausable.initialize(msg.sender);\n        Ownable.initialize(msg.sender); // candidate for gas saving\n        ReentrancyGuard.initialize();\n    }\n\n\n    // BIIIIGGG TODO fallback function ???\n\n    // FEATURE 1 : killable contract\n    /*\n  function kill() public onlyOwner {\n    address payable owner = address(uint160(owner()));\n    selfdestruct(owner);\n  }*/\n\n    /**\n   * @dev user function to mint a new token with off-chain metadata, automatically assign a new tokenId. You have to assigned the miner role to do so\n   * @param metadataIpfsHash string IPFS CID or hash for the tokenURI that will hold the off-chain metadata\n   * @param deposit uint256 security deposit for the object in Wei, defined as an on-chain metadata (mandatory)\n   * @return uint256 as the new tokenId\n   */\n    function mint(string memory metadataIpfsHash, uint256 deposit)\n        public\n        onlyMinter\n        whenNotPaused\n        returns (uint256)\n    {\n        counterTokenIds.increment();\n        uint256 newTokenId = counterTokenIds.current();\n\n        /// @dev on-chain metadata, can be extended (only add at the end)\n        //Metadata memory metadata = Metadata({deposit: deposit, lock: false});\n        //metadatas[newTokenId] = metadata;\n\n        // we could improve that by not setting anything if the deposit is 0\n        deposits[newTokenId] = deposit;\n\n        super.mintWithTokenURI(msg.sender, newTokenId, metadataIpfsHash);\n\n        return newTokenId;\n    }\n\n    // FEATURE 4 : borrowing of token\n    /**\n     * @dev Gets the bearer or bearer of the specified tokenId.\n     * @param tokenId uint256 tokenId of the token to query the bearer of\n     * @return address currently marked as the bearer or owner of the given tokenId\n     */\n    function bearerOf(uint256 tokenId) public view returns (address) {\n        address owner = ownerOf(tokenId);\n        require(\n            owner != address(0),\n            \"Thing: owner query for nonexistent token\"\n        );\n\n        if (_tokenBearer[tokenId] != address(0)) {\n            return _tokenBearer[tokenId];\n        } else {\n            return owner;\n        }\n    }\n\n    /**\n     * @dev Private function to add a token to this extension's bearership-tracking data structures.\n     * @param to address representing the new bearer of the given tokenId\n     * @param tokenId uint256 Id of the token to be added to the tokens list of the given address\n     */\n    function _addTokenToBearerEnumeration(address to, uint256 tokenId) private {\n        _bearedTokensIndex[tokenId] = _bearedTokens[to].length;\n        _bearedTokens[to].push(tokenId);\n    }\n\n    /**\n     * @dev Private function to remove a token data structures. Note that\n     * while the token is not assigned a new bearer, the _bearedTokensIndex mapping is _not_ updated: this allows for\n     * gas optimizations\n     * @param from address representing the previous bearer of the given token ID\n     * @param tokenId uint256 ID of the token to be removed from the tokens list of the given address\n     */\n    function _removeTokenFromBearerEnumeration(address from, uint256 tokenId)\n        private\n    {\n        uint256 lastTokenIndex = _bearedTokens[from].length.sub(1);\n        uint256 tokenIndex = _bearedTokensIndex[tokenId];\n\n        // When the token to delete is the last token, the swap operation is unnecessary\n        if (tokenIndex != lastTokenIndex) {\n            uint256 lastTokenId = _bearedTokens[from][lastTokenIndex];\n\n            _bearedTokens[from][tokenIndex] = lastTokenId; // Move the last token to the slot of the to-delete token\n            _bearedTokensIndex[lastTokenId] = tokenIndex; // Update the moved token's index\n        }\n\n        // This also deletes the contents at the last position of the array\n        _bearedTokens[from].length--;\n    }\n\n    /**\n     * @dev Transfers the bearing of a given token ID to another address. Requires the from to be the bearer.\n     * @notice the borrow functions manage the fact that if you are the owner, you balances won't be affted by the deposit\n     * @param tokenId uint256 ID of the token to be borrowed\n     */\n    function borrow(uint256 tokenId) public {\n        //TODO require process\n        //require(bearerOf(tokenId) == from, \"Things: transfer of token that is not beared\");\n        _borrowFrom(bearerOf(tokenId), msg.sender, tokenId);\n    }\n\n    /**\n     * @dev Internal function to borrow a given token ID.\n     * As opposed to the public borrow function, this imposes no restrictions on msg.sender.\n     * @param from current bearer of the token\n     * @param to receipient\n     * @param tokenId uint256 ID of the token to be transferred\n     */\n    function _borrowFrom(address from, address to, uint256 tokenId)\n        internal\n        whenNotPaused\n        onlyUnlocked(tokenId)\n    {\n        require(_exists(tokenId), \"Thing: token dont exist\");\n        require(to != address(0), \"Thing: transfer to the zero address\");\n        require(to != bearerOf(tokenId), \"Thing: you already bear that object\");\n        // FIXME require(!isLocked(tokenId), \"Thing: token is locked, cant borrow it\");\n\n        address owner = ownerOf(tokenId);\n\n        // FEATURE 6 : deposit\n        //uint256 requiredDeposit = metadatas[tokenId].deposit;\n        uint256 requiredDeposit = deposits[tokenId];\n\n        if (requiredDeposit > 0) {\n            //check user current balance\n\n            uint256 currentFromRequiredBalance = requiredBalances[from];\n            uint256 newFromRequiredBalance;\n            if (from == owner) {\n                newFromRequiredBalance = currentFromRequiredBalance;\n            } else {\n                newFromRequiredBalance = currentFromRequiredBalance.sub(\n                    requiredDeposit\n                );\n            }\n\n            uint256 currentToBalance = balances[to];\n            uint256 currentToRequiredBalance = requiredBalances[to];\n            uint256 newToRequiredBalance;\n            if (to == owner) {\n                newToRequiredBalance = currentToRequiredBalance;\n            } else {\n                newToRequiredBalance = currentToRequiredBalance.add(\n                    requiredDeposit\n                );\n            }\n\n            // we want that the cuurent balance of the receipient (to) to be enought\n            require(\n                currentToBalance >= newToRequiredBalance,\n                \"Thing: deposit is not enough to borrow this object\"\n            );\n\n            // we need to update the required balance for both from and to, taking into account that from or to can be the owner\n            requiredBalances[from] = newFromRequiredBalance;\n            requiredBalances[to] = newToRequiredBalance;\n\n        }\n        // /END FEATURE 6 : deposit\n\n        if (owner != from) {\n            _removeTokenFromBearerEnumeration(from, tokenId);\n            _borrowedTokensCount[from].decrement();\n        }\n        if (owner != to) {\n            _addTokenToBearerEnumeration(to, tokenId);\n            _borrowedTokensCount[to].increment();\n        }\n\n        _tokenBearer[tokenId] = to;\n    }\n\n    // FEATURE 5 : locking of token borrowing\n    /**\n     * @dev allow the owner of a token to lock it, so it can't be borrowed anymore\n     * @param tokenId uint256 ID of the token to be transferred\n     */\n    function lockToken(uint256 tokenId) public {\n      //require(_exists(tokenId), \"Thing: token dont exist\");\n      require(ownerOf(tokenId) == msg.sender, \"Thing: you are not the owner\");\n\n      locks[tokenId] = true;\n    }\n\n    /**\n     * @dev allow the owner of a token to unlock it, so it can be borrowed again\n     * @param tokenId uint256 ID of the token to be transferred\n     */\n    function unlockToken(uint256 tokenId) public {\n      //require(_exists(tokenId), \"Thing: token dont exist\");\n      require(ownerOf(tokenId) == msg.sender, \"Thing: you are not the owner\");\n\n      locks[tokenId] = false;\n    }\n\n    /**\n     * @dev prevent action on a locked token\n     * @param tokenId uint256 ID of the token to be transferred\n     */\n    modifier onlyUnlocked(uint256 tokenId) {\n        require(!locks[tokenId], \"Thing: token is locked\");\n        _;\n    }\n\n    // FEATURE 6 : deposit\n    /**\n     * @dev query the deposit balances (absolut & required) on the contract for the user\n     * @return the absolute deposit balance on the contract\n     * @return the balance required according to the object the user, currently bear (that can't be withdrawn)\n     */\n    function getDepositBalances()\n        public\n        view\n        returns (uint256 balance, uint256 requiredBalance)\n    {\n        balance = balances[msg.sender];\n        requiredBalance = requiredBalances[msg.sender];\n    }\n\n    /**\n     * @dev send funds to the contract to fund future security deposits, must have a value\n     * @return uint256 the new security deposit balance of the user\n     */\n    function fundDeposit() public payable whenNotPaused returns (uint256) {\n        require(msg.value > 0, \"Thing: Sent value <= 0\");\n\n        //FIXME there is probably a security problem here\n        uint256 newBalance = balances[msg.sender].add(msg.value);\n        balances[msg.sender] = newBalance;\n\n        //emit DepositMade(msg.sender, msg.value);\n\n        return balances[msg.sender];\n    }\n\n    /**\n     * @dev withdraw the max value authorized, meaning the balance minus the required balance, according to the objects currently borrowed.\n     * This is probably the most security sensitive function, it is protected by a safe send implementation & a protection against reentry\n     */\n    function withdrawDeposit()\n        public\n        payable\n        whenNotPaused\n        nonReentrant\n        returns (uint256)\n    {\n        uint256 currentBalance = balances[msg.sender];\n        uint256 requiredBalance = requiredBalances[msg.sender];\n        //require(currentBalance > requiredBalance, \"not enough\");\n        uint256 withdrawAmount = currentBalance.sub(requiredBalance);\n\n        msg.sender.sendValue(withdrawAmount);\n        balances[msg.sender] = balances[msg.sender].sub(withdrawAmount);\n\n        uint256 newBalance = balances[msg.sender];\n\n        return newBalance;\n    }\n\n    // FIXME it needs to be called getTokensOfBorrower?\n    /**\n     * @dev query all the token Ids currently borrowed by a user\n     * @return uint256[] an array of tokenId borrowed by a user\n     */\n    function getTokensOfBearer() public view returns (uint256[] memory) {\n        return _bearedTokens[msg.sender];\n    }\n\n    /**\n     * @dev query all the token Ids currently owned by a user/minter\n     * @return uint256[] an array of tokenId owned by a user\n     */\n    function getTokensOfOwner() public view returns (uint256[] memory) {\n        return _tokensOfOwner(msg.sender);\n    }\n\n    /**\n     * @dev convinence function that returns all useful information for a token\n     * @param tokenId uint256 Id of the token to be queried\n     * @return uint256 tokenId\n     * @return uint256 security deposit necessary to borrow the object\n     * @return address owner of the object\n     * @return address bearer of the object\n     * @return bool whether the object will be locked for borrowing\n     */\n    function getTokenMetadata(uint256 tokenId)\n        public\n        view\n        returns (\n            uint256 id,\n            string memory tokenURI, //just this cost 115 000 gas at deployement :-(\n            uint256 deposit,\n            address owner,\n            address bearer,\n            bool lock\n        )\n    {\n        //Metadata memory metadata = metadatas[tokenId];\n\n        id = tokenId;\n        tokenURI = this.tokenURI(tokenId);\n        //deposit = metadata.deposit;\n        deposit = deposits[tokenId];\n        owner = ownerOf(tokenId);\n        bearer = bearerOf(tokenId);\n        //lock = metadata.lock;\n        lock = locks[tokenId];\n    }\n\n}\n",
  "sourcePath": "/home/eth1/dev/git/bcproject/contracts/Thing1.sol",
  "compiler": {
    "name": "solc",
    "version": "0.5.11+commit.c082d0b4.Emscripten.clang"
  },
  "schemaVersion": "3.0.16",
  "updatedAt": "2020-01-28T23:38:37.183Z",
  "devdoc": {
    "author": "Fred",
    "details": "Upgradable contract built on OpenZeppelin ERC721 implementation with extensions",
    "methods": {
      "approve(address,uint256)": {
        "details": "Approves another address to transfer the given token ID The zero address indicates there is no approved address. There can only be one approved address per token at a given time. Can only be called by the token owner or an approved operator.",
        "params": {
          "to": "address to be approved for the given token ID",
          "tokenId": "uint256 ID of the token to be approved"
        }
      },
      "balanceOf(address)": {
        "details": "Gets the balance of the specified address.",
        "params": {
          "owner": "address to query the balance of"
        },
        "return": "uint256 representing the amount owned by the passed address"
      },
      "bearerOf(uint256)": {
        "details": "Gets the bearer or bearer of the specified tokenId.",
        "params": {
          "tokenId": "uint256 tokenId of the token to query the bearer of"
        },
        "return": "address currently marked as the bearer or owner of the given tokenId"
      },
      "borrow(uint256)": {
        "details": "Transfers the bearing of a given token ID to another address. Requires the from to be the bearer.",
        "params": {
          "tokenId": "uint256 ID of the token to be borrowed"
        }
      },
      "fundDeposit()": {
        "details": "send funds to the contract to fund future security deposits, must have a value",
        "return": "uint256 the new security deposit balance of the user"
      },
      "getApproved(uint256)": {
        "details": "Gets the approved address for a token ID, or zero if no address set Reverts if the token ID does not exist.",
        "params": {
          "tokenId": "uint256 ID of the token to query the approval of"
        },
        "return": "address currently approved for the given token ID"
      },
      "getDepositBalances()": {
        "details": "query the deposit balances (absolut & required) on the contract for the user",
        "return": "the absolute deposit balance on the contractthe balance required according to the object the user, currently bear (that can't be withdrawn)"
      },
      "getTokenMetadata(uint256)": {
        "details": "convinence function that returns all useful information for a token",
        "params": {
          "tokenId": "uint256 Id of the token to be queried"
        },
        "return": "uint256 tokenIduint256 security deposit necessary to borrow the objectaddress owner of the objectaddress bearer of the objectbool whether the object will be locked for borrowing"
      },
      "getTokensOfBearer()": {
        "details": "query all the token Ids currently borrowed by a user",
        "return": "uint256[] an array of tokenId borrowed by a user"
      },
      "getTokensOfOwner()": {
        "details": "query all the token Ids currently owned by a user/minter",
        "return": "uint256[] an array of tokenId owned by a user"
      },
      "initialize()": {
        "details": "replace the contructor in the context of an upgradable contract, must always be called manually when creating a contract"
      },
      "initialize(address)": {
        "details": "Initializes the contract in unpaused state. Assigns the Pauser role to the deployer."
      },
      "initialize(string,string)": {
        "details": "Constructor function"
      },
      "isApprovedForAll(address,address)": {
        "details": "Tells whether an operator is approved by a given owner.",
        "params": {
          "operator": "operator address which you want to query the approval of",
          "owner": "owner address which you want to query the approval of"
        },
        "return": "bool whether the given operator is approved by the given owner"
      },
      "isOwner()": {
        "details": "Returns true if the caller is the current owner."
      },
      "lockToken(uint256)": {
        "details": "allow the owner of a token to lock it, so it can't be borrowed anymore",
        "params": {
          "tokenId": "uint256 ID of the token to be transferred"
        }
      },
      "mint(string,uint256)": {
        "details": "user function to mint a new token with off-chain metadata, automatically assign a new tokenId. You have to assigned the miner role to do so",
        "params": {
          "deposit": "uint256 security deposit for the object in Wei, defined as an on-chain metadata (mandatory)",
          "metadataIpfsHash": "string IPFS CID or hash for the tokenURI that will hold the off-chain metadata"
        },
        "return": "uint256 as the new tokenId"
      },
      "mintWithTokenURI(address,uint256,string)": {
        "details": "Function to mint tokens.",
        "params": {
          "to": "The address that will receive the minted tokens.",
          "tokenId": "The token id to mint.",
          "tokenURI": "The token URI of the minted token."
        },
        "return": "A boolean that indicates if the operation was successful."
      },
      "name()": {
        "details": "Gets the token name.",
        "return": "string representing the token name"
      },
      "owner()": {
        "details": "Returns the address of the current owner."
      },
      "ownerOf(uint256)": {
        "details": "Gets the owner of the specified token ID.",
        "params": {
          "tokenId": "uint256 ID of the token to query the owner of"
        },
        "return": "address currently marked as the owner of the given token ID"
      },
      "pause()": {
        "details": "Called by a pauser to pause, triggers stopped state."
      },
      "paused()": {
        "details": "Returns true if the contract is paused, and false otherwise."
      },
      "renounceOwnership()": {
        "details": "Leaves the contract without owner. It will not be possible to call `onlyOwner` functions anymore. Can only be called by the current owner.     * > Note: Renouncing ownership will leave the contract without an owner, thereby removing any functionality that is only available to the owner."
      },
      "safeTransferFrom(address,address,uint256)": {
        "details": "Safely transfers the ownership of a given token ID to another address If the target address is a contract, it must implement {IERC721Receiver-onERC721Received}, which is called upon a safe transfer, and return the magic value `bytes4(keccak256(\"onERC721Received(address,address,uint256,bytes)\"))`; otherwise, the transfer is reverted. Requires the msg.sender to be the owner, approved, or operator",
        "params": {
          "from": "current owner of the token",
          "to": "address to receive the ownership of the given token ID",
          "tokenId": "uint256 ID of the token to be transferred"
        }
      },
      "safeTransferFrom(address,address,uint256,bytes)": {
        "details": "Safely transfers the ownership of a given token ID to another address If the target address is a contract, it must implement {IERC721Receiver-onERC721Received}, which is called upon a safe transfer, and return the magic value `bytes4(keccak256(\"onERC721Received(address,address,uint256,bytes)\"))`; otherwise, the transfer is reverted. Requires the _msgSender() to be the owner, approved, or operator",
        "params": {
          "_data": "bytes data to send along with a safe transfer check",
          "from": "current owner of the token",
          "to": "address to receive the ownership of the given token ID",
          "tokenId": "uint256 ID of the token to be transferred"
        }
      },
      "setApprovalForAll(address,bool)": {
        "details": "Sets or unsets the approval of a given operator An operator is allowed to transfer all tokens of the sender on their behalf.",
        "params": {
          "approved": "representing the status of the approval to be set",
          "to": "operator address to set the approval"
        }
      },
      "supportsInterface(bytes4)": {
        "details": "See {IERC165-supportsInterface}.     * Time complexity O(1), guaranteed to always use less than 30 000 gas."
      },
      "symbol()": {
        "details": "Gets the token symbol.",
        "return": "string representing the token symbol"
      },
      "tokenByIndex(uint256)": {
        "details": "Gets the token ID at a given index of all the tokens in this contract Reverts if the index is greater or equal to the total number of tokens.",
        "params": {
          "index": "uint256 representing the index to be accessed of the tokens list"
        },
        "return": "uint256 token ID at the given index of the tokens list"
      },
      "tokenOfOwnerByIndex(address,uint256)": {
        "details": "Gets the token ID at a given index of the tokens list of the requested owner.",
        "params": {
          "index": "uint256 representing the index to be accessed of the requested tokens list",
          "owner": "address owning the tokens list to be accessed"
        },
        "return": "uint256 token ID at the given index of the tokens list owned by the requested address"
      },
      "tokenURI(uint256)": {
        "details": "Returns an URI for a given token ID. Throws if the token ID does not exist. May return an empty string.",
        "params": {
          "tokenId": "uint256 ID of the token to query"
        }
      },
      "totalSupply()": {
        "details": "Gets the total amount of tokens stored by the contract.",
        "return": "uint256 representing the total amount of tokens"
      },
      "transferFrom(address,address,uint256)": {
        "details": "Transfers the ownership of a given token ID to another address. Usage of this method is discouraged, use {safeTransferFrom} whenever possible. Requires the msg.sender to be the owner, approved, or operator.",
        "params": {
          "from": "current owner of the token",
          "to": "address to receive the ownership of the given token ID",
          "tokenId": "uint256 ID of the token to be transferred"
        }
      },
      "transferOwnership(address)": {
        "details": "Transfers ownership of the contract to a new account (`newOwner`). Can only be called by the current owner."
      },
      "unlockToken(uint256)": {
        "details": "allow the owner of a token to unlock it, so it can be borrowed again",
        "params": {
          "tokenId": "uint256 ID of the token to be transferred"
        }
      },
      "unpause()": {
        "details": "Called by a pauser to unpause, returns to normal state."
      },
      "withdrawDeposit()": {
        "details": "withdraw the max value authorized, meaning the balance minus the required balance, according to the objects currently borrowed. This is probably the most security sensitive function, it is protected by a safe send implementation & a protection against reentry"
      }
    },
    "title": "Thing"
  },
  "userdoc": {
    "methods": {
      "borrow(uint256)": {
        "notice": "the borrow functions manage the fact that if you are the owner, you balances won't be affted by the deposit"
      }
    },
    "notice": "Allow to share & borrow objects (Non Fungible Tokens) in a secure way"
  }
}