{
  "contractName": "Thing",
  "abi": [
    {
      "constant": true,
      "inputs": [
        {
          "internalType": "bytes4",
          "name": "interfaceId",
          "type": "bytes4"
        }
      ],
      "name": "supportsInterface",
      "outputs": [
        {
          "internalType": "bool",
          "name": "",
          "type": "bool"
        }
      ],
      "payable": false,
      "stateMutability": "view",
      "type": "function"
    },
    {
      "constant": true,
      "inputs": [],
      "name": "name",
      "outputs": [
        {
          "internalType": "string",
          "name": "",
          "type": "string"
        }
      ],
      "payable": false,
      "stateMutability": "view",
      "type": "function"
    },
    {
      "constant": true,
      "inputs": [
        {
          "internalType": "uint256",
          "name": "tokenId",
          "type": "uint256"
        }
      ],
      "name": "getApproved",
      "outputs": [
        {
          "internalType": "address",
          "name": "",
          "type": "address"
        }
      ],
      "payable": false,
      "stateMutability": "view",
      "type": "function"
    },
    {
      "constant": false,
      "inputs": [
        {
          "internalType": "address",
          "name": "to",
          "type": "address"
        },
        {
          "internalType": "uint256",
          "name": "tokenId",
          "type": "uint256"
        }
      ],
      "name": "approve",
      "outputs": [],
      "payable": false,
      "stateMutability": "nonpayable",
      "type": "function"
    },
    {
      "constant": true,
      "inputs": [],
      "name": "totalSupply",
      "outputs": [
        {
          "internalType": "uint256",
          "name": "",
          "type": "uint256"
        }
      ],
      "payable": false,
      "stateMutability": "view",
      "type": "function"
    },
    {
      "constant": false,
      "inputs": [
        {
          "internalType": "address",
          "name": "from",
          "type": "address"
        },
        {
          "internalType": "address",
          "name": "to",
          "type": "address"
        },
        {
          "internalType": "uint256",
          "name": "tokenId",
          "type": "uint256"
        }
      ],
      "name": "transferFrom",
      "outputs": [],
      "payable": false,
      "stateMutability": "nonpayable",
      "type": "function"
    },
    {
      "constant": true,
      "inputs": [
        {
          "internalType": "address",
          "name": "owner",
          "type": "address"
        },
        {
          "internalType": "uint256",
          "name": "index",
          "type": "uint256"
        }
      ],
      "name": "tokenOfOwnerByIndex",
      "outputs": [
        {
          "internalType": "uint256",
          "name": "",
          "type": "uint256"
        }
      ],
      "payable": false,
      "stateMutability": "view",
      "type": "function"
    },
    {
      "constant": false,
      "inputs": [],
      "name": "unpause",
      "outputs": [],
      "payable": false,
      "stateMutability": "nonpayable",
      "type": "function"
    },
    {
      "constant": false,
      "inputs": [
        {
          "internalType": "address",
          "name": "from",
          "type": "address"
        },
        {
          "internalType": "address",
          "name": "to",
          "type": "address"
        },
        {
          "internalType": "uint256",
          "name": "tokenId",
          "type": "uint256"
        }
      ],
      "name": "safeTransferFrom",
      "outputs": [],
      "payable": false,
      "stateMutability": "nonpayable",
      "type": "function"
    },
    {
      "constant": true,
      "inputs": [
        {
          "internalType": "address",
          "name": "account",
          "type": "address"
        }
      ],
      "name": "isPauser",
      "outputs": [
        {
          "internalType": "bool",
          "name": "",
          "type": "bool"
        }
      ],
      "payable": false,
      "stateMutability": "view",
      "type": "function"
    },
    {
      "constant": true,
      "inputs": [
        {
          "internalType": "uint256",
          "name": "index",
          "type": "uint256"
        }
      ],
      "name": "tokenByIndex",
      "outputs": [
        {
          "internalType": "uint256",
          "name": "",
          "type": "uint256"
        }
      ],
      "payable": false,
      "stateMutability": "view",
      "type": "function"
    },
    {
      "constant": false,
      "inputs": [
        {
          "internalType": "address",
          "name": "to",
          "type": "address"
        },
        {
          "internalType": "uint256",
          "name": "tokenId",
          "type": "uint256"
        },
        {
          "internalType": "string",
          "name": "tokenURI",
          "type": "string"
        }
      ],
      "name": "mintWithTokenURI",
      "outputs": [
        {
          "internalType": "bool",
          "name": "",
          "type": "bool"
        }
      ],
      "payable": false,
      "stateMutability": "nonpayable",
      "type": "function"
    },
    {
      "constant": true,
      "inputs": [],
      "name": "paused",
      "outputs": [
        {
          "internalType": "bool",
          "name": "",
          "type": "bool"
        }
      ],
      "payable": false,
      "stateMutability": "view",
      "type": "function"
    },
    {
      "constant": true,
      "inputs": [
        {
          "internalType": "uint256",
          "name": "tokenId",
          "type": "uint256"
        }
      ],
      "name": "ownerOf",
      "outputs": [
        {
          "internalType": "address",
          "name": "",
          "type": "address"
        }
      ],
      "payable": false,
      "stateMutability": "view",
      "type": "function"
    },
    {
      "constant": false,
      "inputs": [],
      "name": "renouncePauser",
      "outputs": [],
      "payable": false,
      "stateMutability": "nonpayable",
      "type": "function"
    },
    {
      "constant": true,
      "inputs": [
        {
          "internalType": "address",
          "name": "owner",
          "type": "address"
        }
      ],
      "name": "balanceOf",
      "outputs": [
        {
          "internalType": "uint256",
          "name": "",
          "type": "uint256"
        }
      ],
      "payable": false,
      "stateMutability": "view",
      "type": "function"
    },
    {
      "constant": false,
      "inputs": [],
      "name": "renounceOwnership",
      "outputs": [],
      "payable": false,
      "stateMutability": "nonpayable",
      "type": "function"
    },
    {
      "constant": false,
      "inputs": [
        {
          "internalType": "address",
          "name": "account",
          "type": "address"
        }
      ],
      "name": "addPauser",
      "outputs": [],
      "payable": false,
      "stateMutability": "nonpayable",
      "type": "function"
    },
    {
      "constant": false,
      "inputs": [],
      "name": "pause",
      "outputs": [],
      "payable": false,
      "stateMutability": "nonpayable",
      "type": "function"
    },
    {
      "constant": true,
      "inputs": [],
      "name": "owner",
      "outputs": [
        {
          "internalType": "address",
          "name": "",
          "type": "address"
        }
      ],
      "payable": false,
      "stateMutability": "view",
      "type": "function"
    },
    {
      "constant": true,
      "inputs": [],
      "name": "isOwner",
      "outputs": [
        {
          "internalType": "bool",
          "name": "",
          "type": "bool"
        }
      ],
      "payable": false,
      "stateMutability": "view",
      "type": "function"
    },
    {
      "constant": true,
      "inputs": [],
      "name": "symbol",
      "outputs": [
        {
          "internalType": "string",
          "name": "",
          "type": "string"
        }
      ],
      "payable": false,
      "stateMutability": "view",
      "type": "function"
    },
    {
      "constant": false,
      "inputs": [
        {
          "internalType": "address",
          "name": "account",
          "type": "address"
        }
      ],
      "name": "addMinter",
      "outputs": [],
      "payable": false,
      "stateMutability": "nonpayable",
      "type": "function"
    },
    {
      "constant": false,
      "inputs": [],
      "name": "renounceMinter",
      "outputs": [],
      "payable": false,
      "stateMutability": "nonpayable",
      "type": "function"
    },
    {
      "constant": false,
      "inputs": [
        {
          "internalType": "address",
          "name": "to",
          "type": "address"
        },
        {
          "internalType": "bool",
          "name": "approved",
          "type": "bool"
        }
      ],
      "name": "setApprovalForAll",
      "outputs": [],
      "payable": false,
      "stateMutability": "nonpayable",
      "type": "function"
    },
    {
      "constant": true,
      "inputs": [
        {
          "internalType": "address",
          "name": "account",
          "type": "address"
        }
      ],
      "name": "isMinter",
      "outputs": [
        {
          "internalType": "bool",
          "name": "",
          "type": "bool"
        }
      ],
      "payable": false,
      "stateMutability": "view",
      "type": "function"
    },
    {
      "constant": false,
      "inputs": [
        {
          "internalType": "address",
          "name": "from",
          "type": "address"
        },
        {
          "internalType": "address",
          "name": "to",
          "type": "address"
        },
        {
          "internalType": "uint256",
          "name": "tokenId",
          "type": "uint256"
        },
        {
          "internalType": "bytes",
          "name": "_data",
          "type": "bytes"
        }
      ],
      "name": "safeTransferFrom",
      "outputs": [],
      "payable": false,
      "stateMutability": "nonpayable",
      "type": "function"
    },
    {
      "constant": true,
      "inputs": [
        {
          "internalType": "uint256",
          "name": "tokenId",
          "type": "uint256"
        }
      ],
      "name": "tokenURI",
      "outputs": [
        {
          "internalType": "string",
          "name": "",
          "type": "string"
        }
      ],
      "payable": false,
      "stateMutability": "view",
      "type": "function"
    },
    {
      "constant": true,
      "inputs": [
        {
          "internalType": "address",
          "name": "owner",
          "type": "address"
        },
        {
          "internalType": "address",
          "name": "operator",
          "type": "address"
        }
      ],
      "name": "isApprovedForAll",
      "outputs": [
        {
          "internalType": "bool",
          "name": "",
          "type": "bool"
        }
      ],
      "payable": false,
      "stateMutability": "view",
      "type": "function"
    },
    {
      "constant": false,
      "inputs": [
        {
          "internalType": "address",
          "name": "newOwner",
          "type": "address"
        }
      ],
      "name": "transferOwnership",
      "outputs": [],
      "payable": false,
      "stateMutability": "nonpayable",
      "type": "function"
    },
    {
      "anonymous": false,
      "inputs": [
        {
          "indexed": false,
          "internalType": "address",
          "name": "account",
          "type": "address"
        }
      ],
      "name": "Paused",
      "type": "event"
    },
    {
      "anonymous": false,
      "inputs": [
        {
          "indexed": false,
          "internalType": "address",
          "name": "account",
          "type": "address"
        }
      ],
      "name": "Unpaused",
      "type": "event"
    },
    {
      "anonymous": false,
      "inputs": [
        {
          "indexed": true,
          "internalType": "address",
          "name": "account",
          "type": "address"
        }
      ],
      "name": "PauserAdded",
      "type": "event"
    },
    {
      "anonymous": false,
      "inputs": [
        {
          "indexed": true,
          "internalType": "address",
          "name": "account",
          "type": "address"
        }
      ],
      "name": "PauserRemoved",
      "type": "event"
    },
    {
      "anonymous": false,
      "inputs": [
        {
          "indexed": true,
          "internalType": "address",
          "name": "previousOwner",
          "type": "address"
        },
        {
          "indexed": true,
          "internalType": "address",
          "name": "newOwner",
          "type": "address"
        }
      ],
      "name": "OwnershipTransferred",
      "type": "event"
    },
    {
      "anonymous": false,
      "inputs": [
        {
          "indexed": true,
          "internalType": "address",
          "name": "account",
          "type": "address"
        }
      ],
      "name": "MinterAdded",
      "type": "event"
    },
    {
      "anonymous": false,
      "inputs": [
        {
          "indexed": true,
          "internalType": "address",
          "name": "account",
          "type": "address"
        }
      ],
      "name": "MinterRemoved",
      "type": "event"
    },
    {
      "anonymous": false,
      "inputs": [
        {
          "indexed": true,
          "internalType": "address",
          "name": "from",
          "type": "address"
        },
        {
          "indexed": true,
          "internalType": "address",
          "name": "to",
          "type": "address"
        },
        {
          "indexed": true,
          "internalType": "uint256",
          "name": "tokenId",
          "type": "uint256"
        }
      ],
      "name": "Transfer",
      "type": "event"
    },
    {
      "anonymous": false,
      "inputs": [
        {
          "indexed": true,
          "internalType": "address",
          "name": "owner",
          "type": "address"
        },
        {
          "indexed": true,
          "internalType": "address",
          "name": "approved",
          "type": "address"
        },
        {
          "indexed": true,
          "internalType": "uint256",
          "name": "tokenId",
          "type": "uint256"
        }
      ],
      "name": "Approval",
      "type": "event"
    },
    {
      "anonymous": false,
      "inputs": [
        {
          "indexed": true,
          "internalType": "address",
          "name": "owner",
          "type": "address"
        },
        {
          "indexed": true,
          "internalType": "address",
          "name": "operator",
          "type": "address"
        },
        {
          "indexed": false,
          "internalType": "bool",
          "name": "approved",
          "type": "bool"
        }
      ],
      "name": "ApprovalForAll",
      "type": "event"
    },
    {
      "constant": false,
      "inputs": [],
      "name": "initialize",
      "outputs": [],
      "payable": false,
      "stateMutability": "nonpayable",
      "type": "function"
    },
    {
      "constant": false,
      "inputs": [
        {
          "internalType": "address",
          "name": "sender",
          "type": "address"
        }
      ],
      "name": "initialize",
      "outputs": [],
      "payable": false,
      "stateMutability": "nonpayable",
      "type": "function"
    },
    {
      "constant": false,
      "inputs": [
        {
          "internalType": "string",
          "name": "name",
          "type": "string"
        },
        {
          "internalType": "string",
          "name": "symbol",
          "type": "string"
        }
      ],
      "name": "initialize",
      "outputs": [],
      "payable": false,
      "stateMutability": "nonpayable",
      "type": "function"
    },
    {
      "constant": false,
      "inputs": [
        {
          "internalType": "string",
          "name": "metadataIpfsHash",
          "type": "string"
        },
        {
          "internalType": "uint256",
          "name": "deposit",
          "type": "uint256"
        }
      ],
      "name": "mint",
      "outputs": [
        {
          "internalType": "uint256",
          "name": "",
          "type": "uint256"
        }
      ],
      "payable": false,
      "stateMutability": "nonpayable",
      "type": "function"
    },
    {
      "constant": true,
      "inputs": [
        {
          "internalType": "uint256",
          "name": "tokenId",
          "type": "uint256"
        }
      ],
      "name": "bearerOf",
      "outputs": [
        {
          "internalType": "address",
          "name": "",
          "type": "address"
        }
      ],
      "payable": false,
      "stateMutability": "view",
      "type": "function"
    },
    {
      "constant": false,
      "inputs": [
        {
          "internalType": "uint256",
          "name": "tokenId",
          "type": "uint256"
        }
      ],
      "name": "borrow",
      "outputs": [],
      "payable": false,
      "stateMutability": "nonpayable",
      "type": "function"
    },
    {
      "constant": true,
      "inputs": [],
      "name": "getDepositBalances",
      "outputs": [
        {
          "internalType": "uint256",
          "name": "balance",
          "type": "uint256"
        },
        {
          "internalType": "uint256",
          "name": "requiredBalance",
          "type": "uint256"
        }
      ],
      "payable": false,
      "stateMutability": "view",
      "type": "function"
    },
    {
      "constant": false,
      "inputs": [],
      "name": "fundDeposit",
      "outputs": [
        {
          "internalType": "uint256",
          "name": "",
          "type": "uint256"
        }
      ],
      "payable": true,
      "stateMutability": "payable",
      "type": "function"
    },
    {
      "constant": false,
      "inputs": [],
      "name": "withdrawDeposit",
      "outputs": [
        {
          "internalType": "uint256",
          "name": "",
          "type": "uint256"
        }
      ],
      "payable": true,
      "stateMutability": "payable",
      "type": "function"
    },
    {
      "constant": true,
      "inputs": [],
      "name": "getTokensOfBearer",
      "outputs": [
        {
          "internalType": "uint256[]",
          "name": "",
          "type": "uint256[]"
        }
      ],
      "payable": false,
      "stateMutability": "view",
      "type": "function"
    },
    {
      "constant": true,
      "inputs": [],
      "name": "getTokensOfOwner",
      "outputs": [
        {
          "internalType": "uint256[]",
          "name": "",
          "type": "uint256[]"
        }
      ],
      "payable": false,
      "stateMutability": "view",
      "type": "function"
    },
    {
      "constant": true,
      "inputs": [
        {
          "internalType": "uint256",
          "name": "tokenId",
          "type": "uint256"
        }
      ],
      "name": "getTokenMetadata",
      "outputs": [
        {
          "internalType": "uint256",
          "name": "id",
          "type": "uint256"
        },
        {
          "internalType": "uint256",
          "name": "deposit",
          "type": "uint256"
        },
        {
          "internalType": "address",
          "name": "owner",
          "type": "address"
        },
        {
          "internalType": "address",
          "name": "bearer",
          "type": "address"
        },
        {
          "internalType": "bool",
          "name": "lock",
          "type": "bool"
        }
      ],
      "payable": false,
      "stateMutability": "view",
      "type": "function"
    }
  ],
  "bytecode": "0x6080604052613dcb806100136000396000f3fe6080604052600436106102d15760003560e01c806370a082311161017957806398650275116100d6578063c4d66de81161008a578063e985e9c511610064578063e985e9c514610c99578063ecedbf5214610cd4578063f2fde38b14610cfe576102d1565b8063c4d66de814610c12578063c5ebeaec14610c45578063c87b56dd14610c6f576102d1565b8063aa271e1a116100bb578063aa271e1a14610af7578063b68ceeaf14610b2a578063b88d4fde14610b3f576102d1565b80639865027514610aa7578063a22cb46514610abc576102d1565b80638465753c1161012d5780638f32d59b116101125780638f32d59b14610a4a57806395d89b4114610a5f578063983b2d5614610a74576102d1565b80638465753c14610a075780638da5cb5b14610a35576102d1565b80638129fc1c1161015e5780638129fc1c146109aa57806382dc1ec4146109bf5780638456cb59146109f2576102d1565b806370a0823114610962578063715018a614610995576102d1565b80633f4ba83a1161023257806350bb4e7f116101e65780636352211e116101c05780636352211e1461091b5780636caa736b146109455780636ef8d66d1461094d576102d1565b806350bb4e7f146107dd5780635c975abb146108a557806360316801146108ba576102d1565b806346fbf68e1161021757806346fbf68e146106465780634cd88b76146106795780634f6ccce7146107b3576102d1565b80633f4ba83a146105ee57806342842e0e14610603576102d1565b8063117df088116102895780631b80ad781161026e5780631b80ad781461050d57806323b872dd146105725780632f745c59146105b5576102d1565b8063117df088146104f057806318160ddd146104f8576102d1565b806306fdde03116102ba57806306fdde03146103e5578063081812fc1461046f578063095ea7b3146104b5576102d1565b806301ffc9a7146102d6578063056b01ce1461031e575b600080fd5b3480156102e257600080fd5b5061030a600480360360208110156102f957600080fd5b50356001600160e01b031916610d31565b604080519115158252519081900360200190f35b34801561032a57600080fd5b506103d36004803603604081101561034157600080fd5b81019060208101813564010000000081111561035c57600080fd5b82018360208201111561036e57600080fd5b8035906020019184600183028401116401000000008311171561039057600080fd5b91908080601f0160208091040260200160405190810160405280939291908181526020018383808284376000920191909152509295505091359250610d54915050565b60408051918252519081900360200190f35b3480156103f157600080fd5b506103fa610e62565b6040805160208082528351818301528351919283929083019185019080838360005b8381101561043457818101518382015260200161041c565b50505050905090810190601f1680156104615780820380516001836020036101000a031916815260200191505b509250505060405180910390f35b34801561047b57600080fd5b506104996004803603602081101561049257600080fd5b5035610ef9565b604080516001600160a01b039092168252519081900360200190f35b3480156104c157600080fd5b506104ee600480360360408110156104d857600080fd5b506001600160a01b038135169060200135610f5b565b005b6103d3611083565b34801561050457600080fd5b506103d36111b3565b34801561051957600080fd5b506105226111b9565b60408051602080825283518183015283519192839290830191858101910280838360005b8381101561055e578181015183820152602001610546565b505050509050019250505060405180910390f35b34801561057e57600080fd5b506104ee6004803603606081101561059557600080fd5b506001600160a01b0381358116916020810135909116906040013561121a565b3480156105c157600080fd5b506103d3600480360360408110156105d857600080fd5b506001600160a01b038135169060200135611276565b3480156105fa57600080fd5b506104ee6112f5565b34801561060f57600080fd5b506104ee6004803603606081101561062657600080fd5b506001600160a01b038135811691602081013590911690604001356113e9565b34801561065257600080fd5b5061030a6004803603602081101561066957600080fd5b50356001600160a01b0316611404565b34801561068557600080fd5b506104ee6004803603604081101561069c57600080fd5b8101906020810181356401000000008111156106b757600080fd5b8201836020820111156106c957600080fd5b803590602001918460018302840111640100000000831117156106eb57600080fd5b91908080601f016020809104026020016040519081016040528093929190818152602001838380828437600092019190915250929594936020810193503591505064010000000081111561073e57600080fd5b82018360208201111561075057600080fd5b8035906020019184600183028401116401000000008311171561077257600080fd5b91908080601f01602080910402602001604051908101604052809392919081815260200183838082843760009201919091525092955061141e945050505050565b3480156107bf57600080fd5b506103d3600480360360208110156107d657600080fd5b503561150a565b3480156107e957600080fd5b5061030a6004803603606081101561080057600080fd5b6001600160a01b038235169160208101359181019060608101604082013564010000000081111561083057600080fd5b82018360208201111561084257600080fd5b8035906020019184600183028401116401000000008311171561086457600080fd5b91908080601f016020809104026020016040519081016040528093929190818152602001838380828437600092019190915250929550611570945050505050565b3480156108b157600080fd5b5061030a6115d6565b3480156108c657600080fd5b506108e4600480360360208110156108dd57600080fd5b50356115e0565b6040805195865260208601949094526001600160a01b03928316858501529116606084015215156080830152519081900360a00190f35b34801561092757600080fd5b506104996004803603602081101561093e57600080fd5b503561164f565b6103d36116a3565b34801561095957600080fd5b506104ee611781565b34801561096e57600080fd5b506103d36004803603602081101561098557600080fd5b50356001600160a01b0316611793565b3480156109a157600080fd5b506104ee6117fb565b3480156109b657600080fd5b506104ee6118a0565b3480156109cb57600080fd5b506104ee600480360360208110156109e257600080fd5b50356001600160a01b03166119e9565b3480156109fe57600080fd5b506104ee611a38565b348015610a1357600080fd5b50610a1c611b01565b6040805192835260208301919091528051918290030190f35b348015610a4157600080fd5b50610499611b23565b348015610a5657600080fd5b5061030a611b33565b348015610a6b57600080fd5b506103fa611b5a565b348015610a8057600080fd5b506104ee60048036036020811015610a9757600080fd5b50356001600160a01b0316611bbb565b348015610ab357600080fd5b506104ee611c0a565b348015610ac857600080fd5b506104ee60048036036040811015610adf57600080fd5b506001600160a01b0381351690602001351515611c1a565b348015610b0357600080fd5b5061030a60048036036020811015610b1a57600080fd5b50356001600160a01b0316611d1f565b348015610b3657600080fd5b50610522611d33565b348015610b4b57600080fd5b506104ee60048036036080811015610b6257600080fd5b6001600160a01b03823581169260208101359091169160408201359190810190608081016060820135640100000000811115610b9d57600080fd5b820183602082011115610baf57600080fd5b80359060200191846001830284011164010000000083111715610bd157600080fd5b91908080601f016020809104026020016040519081016040528093929190818152602001838380828437600092019190915250929550611d90945050505050565b348015610c1e57600080fd5b506104ee60048036036020811015610c3557600080fd5b50356001600160a01b0316611dee565b348015610c5157600080fd5b506104ee60048036036020811015610c6857600080fd5b5035611ea5565b348015610c7b57600080fd5b506103fa60048036036020811015610c9257600080fd5b5035611eb8565b348015610ca557600080fd5b5061030a60048036036040811015610cbc57600080fd5b506001600160a01b0381358116916020013516611f9d565b348015610ce057600080fd5b5061049960048036036020811015610cf757600080fd5b5035611fcb565b348015610d0a57600080fd5b506104ee60048036036020811015610d2157600080fd5b50356001600160a01b0316612063565b6001600160e01b0319811660009081526033602052604090205460ff165b919050565b6000610d66610d616120c5565b611d1f565b610da15760405162461bcd60e51b8152600401808060200182810382526030815260200180613b736030913960400191505060405180910390fd5b6101d25460ff1615610ded576040805162461bcd60e51b815260206004820152601060248201526f14185d5cd8589b194e881c185d5cd95960821b604482015290519081900360640190fd5b610df86102396120c9565b6000610e056102396120d2565b9050610e0f613894565b50604080518082018252848152600060208083018281528583526102389091529290208151815591516001909201805460ff191692151592909217909155610e58338387611570565b5090949350505050565b60d28054604080516020601f6002600019610100600188161502019095169490940493840181900481028201810190925282815260609390929091830182828015610eee5780601f10610ec357610100808354040283529160200191610eee565b820191906000526020600020905b815481529060010190602001808311610ed157829003601f168201915b505050505090505b90565b6000610f04826120d6565b610f3f5760405162461bcd60e51b815260040180806020018281038252602c815260200180613be7602c913960400191505060405180910390fd5b506000908152606760205260409020546001600160a01b031690565b6000610f668261164f565b9050806001600160a01b0316836001600160a01b03161415610fb95760405162461bcd60e51b8152600401808060200182810382526021815260200180613d196021913960400191505060405180910390fd5b806001600160a01b0316610fcb6120c5565b6001600160a01b03161480610fec5750610fec81610fe76120c5565b611f9d565b6110275760405162461bcd60e51b8152600401808060200182810382526038815260200180613ae86038913960400191505060405180910390fd5b60008281526067602052604080822080546001600160a01b0319166001600160a01b0387811691821790925591518593918516917f8c5be1e5ebec7d5bd14f71427d1e84f3dd0314c0f7b2291e5b200ac8c7c3b92591a4505050565b6101d25460009060ff16156110d2576040805162461bcd60e51b815260206004820152601060248201526f14185d5cd8589b194e881c185d5cd95960821b604482015290519081900360640190fd5b61020580546001019081905533600090815261023e602090815260408083205461023f909252822054909161110d838363ffffffff6120f316565b905061111f338263ffffffff61213c16565b33600090815261023e6020526040902054611140908263ffffffff6120f316565b33600090815261023e6020526040902081905594505050506102055481146111af576040805162461bcd60e51b815260206004820152601f60248201527f5265656e7472616e637947756172643a207265656e7472616e742063616c6c00604482015290519081900360640190fd5b5090565b609e5490565b33600090815261023c6020908152604091829020805483518184028101840190945280845260609392830182828015610eee57602002820191906000526020600020905b8154815260200190600101908083116111fd575050505050905090565b61122b6112256120c5565b82612222565b6112665760405162461bcd60e51b8152600401808060200182810382526031815260200180613d3a6031913960400191505060405180910390fd5b6112718383836122c6565b505050565b600061128183611793565b82106112be5760405162461bcd60e51b815260040180806020018281038252602b815260200180613988602b913960400191505060405180910390fd5b6001600160a01b0383166000908152609c602052604090208054839081106112e257fe5b9060005260206000200154905092915050565b6113056113006120c5565b611404565b6113405760405162461bcd60e51b81526004018080602001828103825260308152602001806139e56030913960400191505060405180910390fd5b6101d25460ff16611398576040805162461bcd60e51b815260206004820152601460248201527f5061757361626c653a206e6f7420706175736564000000000000000000000000604482015290519081900360640190fd5b6101d2805460ff191690557f5db9ee0a495bf2e6ff9c91a7834c1ba4fdd244a5e8aa4e537bd38aeae4b073aa6113cc6120c5565b604080516001600160a01b039092168252519081900360200190a1565b61127183838360405180602001604052806000815250611d90565b600061141861019f8363ffffffff6122e516565b92915050565b600054610100900460ff1680611437575061143761234c565b80611445575060005460ff16155b6114805760405162461bcd60e51b815260040180806020018281038252602e815260200180613c93602e913960400191505060405180910390fd5b600054610100900460ff161580156114ab576000805460ff1961ff0019909116610100171660011790555b6114b3612352565b6114bc57600080fd5b82516114cf9060d29060208601906138ab565b5081516114e39060d39060208501906138ab565b506114f4635b5e139f60e01b612369565b8015611271576000805461ff0019169055505050565b60006115146111b3565b82106115515760405162461bcd60e51b815260040180806020018281038252602c815260200180613d6b602c913960400191505060405180910390fd5b609e828154811061155e57fe5b90600052602060002001549050919050565b600061157d610d616120c5565b6115b85760405162461bcd60e51b8152600401808060200182810382526030815260200180613b736030913960400191505060405180910390fd5b6115c284846123ed565b6115cc838361240a565b5060019392505050565b6101d25460ff1690565b60008060008060006115f0613894565b50600086815261023860209081526040918290208251808401909352805480845260019091015460ff1615159183019190915287965094506116318661164f565b935061163c87611fcb565b9250806020015191505091939590929450565b6000818152606660205260408120546001600160a01b0316806114185760405162461bcd60e51b8152600401808060200182810382526029815260200180613b4a6029913960400191505060405180910390fd5b6101d25460009060ff16156116f2576040805162461bcd60e51b815260206004820152601060248201526f14185d5cd8589b194e881c185d5cd95960821b604482015290519081900360640190fd5b60003411611747576040805162461bcd60e51b815260206004820152601660248201527f5468696e673a2053656e742076616c7565203c3d203000000000000000000000604482015290519081900360640190fd5b33600090815261023e6020526040812054611768903463ffffffff61246d16565b33600090815261023e6020526040902081905591505090565b61179161178c6120c5565b6124c7565b565b60006001600160a01b0382166117da5760405162461bcd60e51b815260040180806020018281038252602a815260200180613b20602a913960400191505060405180910390fd5b6001600160a01b0382166000908152606860205260409020611418906120d2565b611803611b33565b611854576040805162461bcd60e51b815260206004820181905260248201527f4f776e61626c653a2063616c6c6572206973206e6f7420746865206f776e6572604482015290519081900360640190fd5b61016c546040516000916001600160a01b0316907f8be0079c531659141344cd1fd0a4f28419497f9722a3daafe3b4186f6b6457e0908390a361016c80546001600160a01b0319169055565b600054610100900460ff16806118b957506118b961234c565b806118c7575060005460ff16155b6119025760405162461bcd60e51b815260040180806020018281038252602e815260200180613c93602e913960400191505060405180910390fd5b600054610100900460ff1615801561192d576000805460ff1961ff0019909116610100171660011790555b611935612510565b61193d6125b5565b6119b16040518060400160405280600581526020017f5468696e670000000000000000000000000000000000000000000000000000008152506040518060400160405280600381526020017f544731000000000000000000000000000000000000000000000000000000000081525061141e565b6119ba3361267c565b6119c333611dee565b6119cc33612749565b6119d461283b565b80156119e6576000805461ff00191690555b50565b6119f46113006120c5565b611a2f5760405162461bcd60e51b81526004018080602001828103825260308152602001806139e56030913960400191505060405180910390fd5b6119e6816128e2565b611a436113006120c5565b611a7e5760405162461bcd60e51b81526004018080602001828103825260308152602001806139e56030913960400191505060405180910390fd5b6101d25460ff1615611aca576040805162461bcd60e51b815260206004820152601060248201526f14185d5cd8589b194e881c185d5cd95960821b604482015290519081900360640190fd5b6101d2805460ff191660011790557f62e78cea01bee320cd4e420270b5ea74000d11b0c9f74754ebdbfc544b05a2586113cc6120c5565b33600090815261023e602090815260408083205461023f909252909120549091565b61016c546001600160a01b031690565b61016c546000906001600160a01b0316611b4b6120c5565b6001600160a01b031614905090565b60d38054604080516020601f6002600019610100600188161502019095169490940493840181900481028201810190925282815260609390929091830182828015610eee5780601f10610ec357610100808354040283529160200191610eee565b611bc6610d616120c5565b611c015760405162461bcd60e51b8152600401808060200182810382526030815260200180613b736030913960400191505060405180910390fd5b6119e68161292b565b611791611c156120c5565b612974565b611c226120c5565b6001600160a01b0316826001600160a01b03161415611c88576040805162461bcd60e51b815260206004820152601960248201527f4552433732313a20617070726f766520746f2063616c6c657200000000000000604482015290519081900360640190fd5b8060696000611c956120c5565b6001600160a01b03908116825260208083019390935260409182016000908120918716808252919093529120805460ff191692151592909217909155611cd96120c5565b60408051841515815290516001600160a01b0392909216917f17307eab39ab6107e8899845ad3d59bd9653f200f220920489ca2b5937696c319181900360200190a35050565b60006114186101078363ffffffff6122e516565b6060611d3e336129bd565b805480602002602001604051908101604052809291908181526020018280548015610eee57602002820191906000526020600020908154815260200190600101908083116111fd575050505050905090565b611da1611d9b6120c5565b83612222565b611ddc5760405162461bcd60e51b8152600401808060200182810382526031815260200180613d3a6031913960400191505060405180910390fd5b611de8848484846129d7565b50505050565b600054610100900460ff1680611e075750611e0761234c565b80611e15575060005460ff16155b611e505760405162461bcd60e51b815260040180806020018281038252602e815260200180613c93602e913960400191505060405180910390fd5b600054610100900460ff16158015611e7b576000805460ff1961ff0019909116610100171660011790555b611e8482612a29565b6101d2805460ff191690558015611ea1576000805461ff00191690555b5050565b6119e6611eb182611fcb565b3383612acc565b6060611ec3826120d6565b611efe5760405162461bcd60e51b815260040180806020018281038252602f815260200180613cea602f913960400191505060405180910390fd5b600082815260d4602090815260409182902080548351601f600260001961010060018616150201909316929092049182018490048402810184019094528084529091830182828015611f915780601f10611f6657610100808354040283529160200191611f91565b820191906000526020600020905b815481529060010190602001808311611f7457829003601f168201915b50505050509050919050565b6001600160a01b03918216600090815260696020908152604080832093909416825291909152205460ff1690565b600080611fd78361164f565b90506001600160a01b03811661201e5760405162461bcd60e51b81526004018080602001828103825260288152602001806139606028913960400191505060405180910390fd5b600083815261023a60205260409020546001600160a01b03161561205c575050600081815261023a60205260409020546001600160a01b0316610d4f565b9050610d4f565b61206b611b33565b6120bc576040805162461bcd60e51b815260206004820181905260248201527f4f776e61626c653a2063616c6c6572206973206e6f7420746865206f776e6572604482015290519081900360640190fd5b6119e681612dee565b3390565b80546001019055565b5490565b6000908152606660205260409020546001600160a01b0316151590565b600061213583836040518060400160405280601e81526020017f536166654d6174683a207375627472616374696f6e206f766572666c6f770000815250612e91565b9392505050565b3031811115612192576040805162461bcd60e51b815260206004820152601d60248201527f416464726573733a20696e73756666696369656e742062616c616e6365000000604482015290519081900360640190fd5b6040516000906001600160a01b0384169083908381818185875af1925050503d80600081146121dd576040519150601f19603f3d011682016040523d82523d6000602084013e6121e2565b606091505b50509050806112715760405162461bcd60e51b815260040180806020018281038252603a815260200180613a82603a913960400191505060405180910390fd5b600061222d826120d6565b6122685760405162461bcd60e51b815260040180806020018281038252602c815260200180613abc602c913960400191505060405180910390fd5b60006122738361164f565b9050806001600160a01b0316846001600160a01b031614806122ae5750836001600160a01b03166122a384610ef9565b6001600160a01b0316145b806122be57506122be8185611f9d565b949350505050565b6122d1838383612f28565b6122db838261306c565b6112718282613161565b60006001600160a01b03821661232c5760405162461bcd60e51b8152600401808060200182810382526022815260200180613c716022913960400191505060405180910390fd5b506001600160a01b03166000908152602091909152604090205460ff1690565b303b1590565b60006123646380ac58cd60e01b610d31565b905090565b6001600160e01b031980821614156123c8576040805162461bcd60e51b815260206004820152601c60248201527f4552433136353a20696e76616c696420696e7465726661636520696400000000604482015290519081900360640190fd5b6001600160e01b0319166000908152603360205260409020805460ff19166001179055565b6123f7828261319f565b6124018282613161565b611ea1816132d0565b612413826120d6565b61244e5760405162461bcd60e51b815260040180806020018281038252602c815260200180613c13602c913960400191505060405180910390fd5b600082815260d4602090815260409091208251611271928401906138ab565b600082820183811015612135576040805162461bcd60e51b815260206004820152601b60248201527f536166654d6174683a206164646974696f6e206f766572666c6f770000000000604482015290519081900360640190fd5b6124d961019f8263ffffffff61331416565b6040516001600160a01b038216907fcd265ebaf09df2871cc7bd4133404a235ba12eff2041bb89d9c714a2621c7c7e90600090a250565b600054610100900460ff1680612529575061252961234c565b80612537575060005460ff16155b6125725760405162461bcd60e51b815260040180806020018281038252602e815260200180613c93602e913960400191505060405180910390fd5b600054610100900460ff1615801561259d576000805460ff1961ff0019909116610100171660011790555b6125a561337b565b6119d46380ac58cd60e01b612369565b600054610100900460ff16806125ce57506125ce61234c565b806125dc575060005460ff16155b6126175760405162461bcd60e51b815260040180806020018281038252602e815260200180613c93602e913960400191505060405180910390fd5b600054610100900460ff16158015612642576000805460ff1961ff0019909116610100171660011790555b61264a612352565b61265357600080fd5b6119d47f780e9d6300000000000000000000000000000000000000000000000000000000612369565b600054610100900460ff1680612695575061269561234c565b806126a3575060005460ff16155b6126de5760405162461bcd60e51b815260040180806020018281038252602e815260200180613c93602e913960400191505060405180910390fd5b600054610100900460ff16158015612709576000805460ff1961ff0019909116610100171660011790555b612711612352565b61271a57600080fd5b612722613431565b61272b57600080fd5b61273482613443565b8015611ea1576000805461ff00191690555050565b600054610100900460ff1680612762575061276261234c565b80612770575060005460ff16155b6127ab5760405162461bcd60e51b815260040180806020018281038252602e815260200180613c93602e913960400191505060405180910390fd5b600054610100900460ff161580156127d6576000805460ff1961ff0019909116610100171660011790555b61016c80546001600160a01b0319166001600160a01b0384811691909117918290556040519116906000907f8be0079c531659141344cd1fd0a4f28419497f9722a3daafe3b4186f6b6457e0908290a38015611ea1576000805461ff00191690555050565b600054610100900460ff1680612854575061285461234c565b80612862575060005460ff16155b61289d5760405162461bcd60e51b815260040180806020018281038252602e815260200180613c93602e913960400191505060405180910390fd5b600054610100900460ff161580156128c8576000805460ff1961ff0019909116610100171660011790555b60016102055580156119e6576000805461ff001916905550565b6128f461019f8263ffffffff6134e616565b6040516001600160a01b038216907f6719d08c1888103bea251a4ed56406bd0c3e69723c8a1686e017e7bbe159b6f890600090a250565b61293d6101078263ffffffff6134e616565b6040516001600160a01b038216907f6ae172837ea30b801fbfcdd4108aa1d5bf8ff775444fd70256b44e6bf3dfc3f690600090a250565b6129866101078263ffffffff61331416565b6040516001600160a01b038216907fe94479a9f7e1952cc78f2d6baab678adc1b772d936c6583def489e524cb6669290600090a250565b6001600160a01b03166000908152609c6020526040902090565b6129e28484846122c6565b6129ee84848484613567565b611de85760405162461bcd60e51b81526004018080602001828103825260328152602001806139b36032913960400191505060405180910390fd5b600054610100900460ff1680612a425750612a4261234c565b80612a50575060005460ff16155b612a8b5760405162461bcd60e51b815260040180806020018281038252602e815260200180613c93602e913960400191505060405180910390fd5b600054610100900460ff16158015612ab6576000805460ff1961ff0019909116610100171660011790555b612abf82611404565b61273457612734826128e2565b6101d25460ff1615612b18576040805162461bcd60e51b815260206004820152601060248201526f14185d5cd8589b194e881c185d5cd95960821b604482015290519081900360640190fd5b612b21816120d6565b612b72576040805162461bcd60e51b815260206004820152601760248201527f5468696e673a20746f6b656e20646f6e74206578697374000000000000000000604482015290519081900360640190fd5b6001600160a01b038216612bb75760405162461bcd60e51b8152600401808060200182810382526023815260200180613bc46023913960400191505060405180910390fd5b612bc081611fcb565b6001600160a01b0316826001600160a01b03161415612c105760405162461bcd60e51b8152600401808060200182810382526023815260200180613a3b6023913960400191505060405180910390fd5b6000612c1b8261164f565b600083815261023860205260409020549091508015612d32576001600160a01b03808616600081815261023f60205260408120549290919085161415612c62575080612c75565b612c72828463ffffffff6120f316565b90505b6001600160a01b03808716600081815261023e602090815260408083205461023f909252822054909390929088161415612cb0575080612cc3565b612cc0828763ffffffff61246d16565b90505b80831015612d025760405162461bcd60e51b8152600401808060200182810382526032815260200180613c3f6032913960400191505060405180910390fd5b6001600160a01b03808b16600090815261023f602052604080822096909655908a16815293909320929092555050505b846001600160a01b0316826001600160a01b031614612d7757612d5585846136d7565b6001600160a01b038516600090815261023b60205260409020612d77906137cb565b836001600160a01b0316826001600160a01b031614612dbc57612d9a84846137e2565b6001600160a01b038416600090815261023b60205260409020612dbc906120c9565b5050600090815261023a6020526040902080546001600160a01b0319166001600160a01b039290921691909117905550565b6001600160a01b038116612e335760405162461bcd60e51b8152600401808060200182810382526026815260200180613a156026913960400191505060405180910390fd5b61016c546040516001600160a01b038084169216907f8be0079c531659141344cd1fd0a4f28419497f9722a3daafe3b4186f6b6457e090600090a361016c80546001600160a01b0319166001600160a01b0392909216919091179055565b60008184841115612f205760405162461bcd60e51b81526004018080602001828103825283818151815260200191508051906020019080838360005b83811015612ee5578181015183820152602001612ecd565b50505050905090810190601f168015612f125780820380516001836020036101000a031916815260200191505b509250505060405180910390fd5b505050900390565b826001600160a01b0316612f3b8261164f565b6001600160a01b031614612f805760405162461bcd60e51b8152600401808060200182810382526029815260200180613cc16029913960400191505060405180910390fd5b6001600160a01b038216612fc55760405162461bcd60e51b8152600401808060200182810382526024815260200180613a5e6024913960400191505060405180910390fd5b612fce81613822565b6001600160a01b0383166000908152606860205260409020612fef906137cb565b6001600160a01b0382166000908152606860205260409020613010906120c9565b60008181526066602052604080822080546001600160a01b0319166001600160a01b0386811691821790925591518493918716917fddf252ad1be2c89b69c2b068fc378daa952ba7f163c4a11628f55a4df523b3ef91a4505050565b6001600160a01b0382166000908152609c602052604081205461309690600163ffffffff6120f316565b6000838152609d6020526040902054909150808214613131576001600160a01b0384166000908152609c602052604081208054849081106130d357fe5b9060005260206000200154905080609c6000876001600160a01b03166001600160a01b03168152602001908152602001600020838154811061311157fe5b6000918252602080832090910192909255918252609d9052604090208190555b6001600160a01b0384166000908152609c6020526040902080549061315a906000198301613925565b5050505050565b6001600160a01b039091166000908152609c602081815260408084208054868652609d84529185208290559282526001810183559183529091200155565b6001600160a01b0382166131fa576040805162461bcd60e51b815260206004820181905260248201527f4552433732313a206d696e7420746f20746865207a65726f2061646472657373604482015290519081900360640190fd5b613203816120d6565b15613255576040805162461bcd60e51b815260206004820152601c60248201527f4552433732313a20746f6b656e20616c7265616479206d696e74656400000000604482015290519081900360640190fd5b600081815260666020908152604080832080546001600160a01b0319166001600160a01b038716908117909155835260689091529020613294906120c9565b60405181906001600160a01b038416906000907fddf252ad1be2c89b69c2b068fc378daa952ba7f163c4a11628f55a4df523b3ef908290a45050565b609e80546000838152609f60205260408120829055600182018355919091527fcfe2a20ff701a1f3e14f63bd70d6c6bc6fba8172ec6d5a505cdab3927c0a9de60155565b61331e82826122e5565b6133595760405162461bcd60e51b8152600401808060200182810382526021815260200180613ba36021913960400191505060405180910390fd5b6001600160a01b0316600090815260209190915260409020805460ff19169055565b600054610100900460ff1680613394575061339461234c565b806133a2575060005460ff16155b6133dd5760405162461bcd60e51b815260040180806020018281038252602e815260200180613c93602e913960400191505060405180910390fd5b600054610100900460ff16158015613408576000805460ff1961ff0019909116610100171660011790555b6119d47f01ffc9a700000000000000000000000000000000000000000000000000000000612369565b6000612364635b5e139f60e01b610d31565b600054610100900460ff168061345c575061345c61234c565b8061346a575060005460ff16155b6134a55760405162461bcd60e51b815260040180806020018281038252602e815260200180613c93602e913960400191505060405180910390fd5b600054610100900460ff161580156134d0576000805460ff1961ff0019909116610100171660011790555b6134d982611d1f565b612734576127348261292b565b6134f082826122e5565b15613542576040805162461bcd60e51b815260206004820152601f60248201527f526f6c65733a206163636f756e7420616c72656164792068617320726f6c6500604482015290519081900360640190fd5b6001600160a01b0316600090815260209190915260409020805460ff19166001179055565b600061357b846001600160a01b031661385d565b613587575060016122be565b6000846001600160a01b031663150b7a026135a06120c5565b8887876040518563ffffffff1660e01b815260040180856001600160a01b03166001600160a01b03168152602001846001600160a01b03166001600160a01b0316815260200183815260200180602001828103825283818151815260200191508051906020019080838360005b8381101561362557818101518382015260200161360d565b50505050905090810190601f1680156136525780820380516001836020036101000a031916815260200191505b5095505050505050602060405180830381600087803b15801561367457600080fd5b505af1158015613688573d6000803e3d6000fd5b505050506040513d602081101561369e57600080fd5b50516001600160e01b0319167f150b7a020000000000000000000000000000000000000000000000000000000014915050949350505050565b6001600160a01b038216600090815261023c602052604081205461370290600163ffffffff6120f316565b600083815261023d60205260409020549091508082146137a1576001600160a01b038416600090815261023c6020526040812080548490811061374157fe5b906000526020600020015490508061023c6000876001600160a01b03166001600160a01b03168152602001908152602001600020838154811061378057fe5b600091825260208083209091019290925591825261023d9052604090208190555b6001600160a01b038416600090815261023c6020526040902080549061315a906000198301613925565b80546137de90600163ffffffff6120f316565b9055565b6001600160a01b03909116600090815261023c60208181526040808420805486865261023d84529185208290559282526001810183559183529091200155565b6000818152606760205260409020546001600160a01b0316156119e657600090815260676020526040902080546001600160a01b0319169055565b6000813f7fc5d2460186f7233c927e7db2dcc703c0e500b653ca82273b7bfad8045d85a47081158015906122be5750141592915050565b604080518082019091526000808252602082015290565b828054600181600116156101000203166002900490600052602060002090601f016020900481019282601f106138ec57805160ff1916838001178555613919565b82800160010185558215613919579182015b828111156139195782518255916020019190600101906138fe565b506111af929150613945565b815481835581811115611271576000838152602090206112719181019083015b610ef691905b808211156111af576000815560010161394b56fe5468696e673a206f776e657220717565727920666f72206e6f6e6578697374656e7420746f6b656e455243373231456e756d657261626c653a206f776e657220696e646578206f7574206f6620626f756e64734552433732313a207472616e7366657220746f206e6f6e20455243373231526563656976657220696d706c656d656e746572506175736572526f6c653a2063616c6c657220646f6573206e6f742068617665207468652050617573657220726f6c654f776e61626c653a206e6577206f776e657220697320746865207a65726f20616464726573735468696e673a20796f7520616c726561647920626561722074686174206f626a6563744552433732313a207472616e7366657220746f20746865207a65726f2061646472657373416464726573733a20756e61626c6520746f2073656e642076616c75652c20726563697069656e74206d617920686176652072657665727465644552433732313a206f70657261746f7220717565727920666f72206e6f6e6578697374656e7420746f6b656e4552433732313a20617070726f76652063616c6c6572206973206e6f74206f776e6572206e6f7220617070726f76656420666f7220616c6c4552433732313a2062616c616e636520717565727920666f7220746865207a65726f20616464726573734552433732313a206f776e657220717565727920666f72206e6f6e6578697374656e7420746f6b656e4d696e746572526f6c653a2063616c6c657220646f6573206e6f74206861766520746865204d696e74657220726f6c65526f6c65733a206163636f756e7420646f6573206e6f74206861766520726f6c655468696e673a207472616e7366657220746f20746865207a65726f20616464726573734552433732313a20617070726f76656420717565727920666f72206e6f6e6578697374656e7420746f6b656e4552433732314d657461646174613a2055524920736574206f66206e6f6e6578697374656e7420746f6b656e5468696e673a206465706f736974206973206e6f7420656e6f75676820746f20626f72726f772074686973206f626a656374526f6c65733a206163636f756e7420697320746865207a65726f2061646472657373436f6e747261637420696e7374616e63652068617320616c7265616479206265656e20696e697469616c697a65644552433732313a207472616e73666572206f6620746f6b656e2074686174206973206e6f74206f776e4552433732314d657461646174613a2055524920717565727920666f72206e6f6e6578697374656e7420746f6b656e4552433732313a20617070726f76616c20746f2063757272656e74206f776e65724552433732313a207472616e736665722063616c6c6572206973206e6f74206f776e6572206e6f7220617070726f766564455243373231456e756d657261626c653a20676c6f62616c20696e646578206f7574206f6620626f756e6473a265627a7a723158207f5a4610f6cbb6b97162d388de4c560e50228fe292d309c61a42c38357f0444364736f6c634300050b0032",
  "source": "pragma solidity 0.5.11; //SEC fix compiler version\n\nimport \"@openzeppelin/upgrades/contracts/Initializable.sol\";\nimport \"@openzeppelin/contracts-ethereum-package/contracts/ownership/Ownable.sol\";\nimport \"@openzeppelin/contracts-ethereum-package/contracts/lifecycle/Pausable.sol\";\nimport \"@openzeppelin/contracts-ethereum-package/contracts/math/SafeMath.sol\";\nimport \"@openzeppelin/contracts-ethereum-package/contracts/drafts/Counters.sol\";\n\nimport \"@openzeppelin/contracts-ethereum-package/contracts/utils/Address.sol\";\nimport \"@openzeppelin/contracts-ethereum-package/contracts/utils/ReentrancyGuard.sol\";\n\nimport \"@openzeppelin/contracts-ethereum-package/contracts/token/ERC721/ERC721.sol\";\nimport \"@openzeppelin/contracts-ethereum-package/contracts/token/ERC721/ERC721Enumerable.sol\";\n//import '@openzeppelin/contracts-ethereum-package/contracts/token/ERC721/ERC721Full.sol';\nimport \"@openzeppelin/contracts-ethereum-package/contracts/token/ERC721/ERC721MetadataMintable.sol\";\n//import '@openzeppelin/contracts-ethereum-package/contracts/token/ERC721/ERC721Mintable.sol';\n//import '@openzeppelin/contracts-ethereum-package/contracts/token/ERC721/ERC721Pausable.sol';\n\n/**\n * @title Thing\n * @author Fred\n * @notice Allow to share & borrow objects (Non Fungible Tokens) in a secure way\n * @dev Upgradable contract built on OpenZeppelin ERC721 implementation with extensions\n */\ncontract Thing is\n    Initializable, // required for contract upgradability\n    ERC721,\n    ERC721Enumerable,\n    ERC721MetadataMintable,\n    //, ERC721Pausable\n    Ownable,\n    Pausable,\n    ReentrancyGuard {\n    using SafeMath for uint256;\n    using Counters for Counters.Counter;\n    using Address for address payable;\n\n    // FEATURE 2 : token metadata (on-chain)\n    struct Metadata {\n        uint256 deposit;\n        // FEATURE 5 : locking of token borrowing\n        bool lock;\n    }\n\n    mapping(uint256 => Metadata) private metadatas;\n\n    // FEATURE 3 : tokenId auto-increment\n    Counters.Counter private counterTokenIds;\n\n    // FEATURE 4 : borrowing of token\n    //Mapping from token ID to bearer\n    mapping(uint256 => address) private _tokenBearer;\n    // Mapping from bearer to number of beared token\n    mapping(address => Counters.Counter) private _borrowedTokensCount; //TODO not only bearer\n    // Mapping from bearer to list of beared token IDs\n    mapping(address => uint256[]) private _bearedTokens;\n    // Mapping from token ID to index of the bearer tokens list\n    mapping(uint256 => uint256) private _bearedTokensIndex;\n\n    // FEATURE 5 : locking of token borrowing\n    //mapping(uint256 => bool) private locked; //array would be very inefficient for this since there is no contains function\n\n    // FEATURE 6 : deposit\n    mapping(address => uint256) private balances;\n    // we create a mapping of current required min balance per user according to the currently beared things.\n    mapping(address => uint256) private requiredBalances;\n\n    // EVENTS\n\n    /**\n   * @dev Initializer used for tests\n   */\n    /*\n  function initialize(address owner, address pauser, address minter) public initializer {\n    ERC721.initialize();\n    ERC721Enumerable.initialize();\n    //ERC721Metadata.initialize(\"Thing\", \"TG1\");\n    ERC721Mintable.initialize(minter);\n    //ERC721Pausable.initialize(pauser);\n    /// do we need another/instead\n    Pausable.initialize(pauser);\n    Ownable.initialize(owner);\n    ReentrancyGuard.initialize();\n  }*/\n\n    /**\n   * @dev replace the contructor in the context of an upgradable contract, must always be called manually when creating a contract\n   */\n    function initialize() public initializer {\n        ERC721.initialize();\n        ERC721Enumerable.initialize();\n        ERC721Metadata.initialize(\"Thing\", \"TG1\");\n        ERC721MetadataMintable.initialize(msg.sender);\n        //ERC721Pausable.initialize(msg.sender);\n        /// do we need another/instead\n        Pausable.initialize(msg.sender);\n        Ownable.initialize(msg.sender); // candidate for gas saving\n        ReentrancyGuard.initialize();\n    }\n\n\n    // BIIIIGGG TODO fallback function ???\n\n    // FEATURE 1 : killable contract\n    /*\n  function kill() public onlyOwner {\n    address payable owner = address(uint160(owner()));\n    selfdestruct(owner);\n  }*/\n\n    /**\n   * @dev user function to mint a new token with off-chain metadata, automatically assign a new tokenId. You have to assigned the miner role to do so\n   * @param metadataIpfsHash string IPFS CID or hash for the tokenURI that will hold the off-chain metadata\n   * @param deposit uint256 security deposit for the object in Wei, defined as an on-chain metadata (mandatory)\n   * @return uint256 as the new tokenId\n   */\n    function mint(string memory metadataIpfsHash, uint256 deposit)\n        public\n        onlyMinter\n        whenNotPaused\n        returns (uint256)\n    {\n        counterTokenIds.increment();\n        uint256 newTokenId = counterTokenIds.current();\n\n        /// @dev on-chain metadata, can be extended (only add at the end)\n        Metadata memory metadata = Metadata({deposit: deposit, lock: false});\n\n        metadatas[newTokenId] = metadata;\n\n        super.mintWithTokenURI(msg.sender, newTokenId, metadataIpfsHash);\n\n        return newTokenId;\n    }\n\n    // FEATURE 4 : borrowing of token\n    /**\n     * @dev Gets the bearer or bearer of the specified tokenId.\n     * @param tokenId uint256 tokenId of the token to query the bearer of\n     * @return address currently marked as the bearer or owner of the given tokenId\n     */\n    function bearerOf(uint256 tokenId) public view returns (address) {\n        address owner = ownerOf(tokenId);\n        require(\n            owner != address(0),\n            \"Thing: owner query for nonexistent token\"\n        );\n\n        if (_tokenBearer[tokenId] != address(0)) {\n            return _tokenBearer[tokenId];\n        } else {\n            return owner;\n        }\n    }\n\n    /**\n     * @dev Private function to add a token to this extension's bearership-tracking data structures.\n     * @param to address representing the new bearer of the given tokenId\n     * @param tokenId uint256 Id of the token to be added to the tokens list of the given address\n     */\n    function _addTokenToBearerEnumeration(address to, uint256 tokenId) private {\n        _bearedTokensIndex[tokenId] = _bearedTokens[to].length;\n        _bearedTokens[to].push(tokenId);\n    }\n\n    /**\n     * @dev Private function to remove a token data structures. Note that\n     * while the token is not assigned a new bearer, the _bearedTokensIndex mapping is _not_ updated: this allows for\n     * gas optimizations\n     * @param from address representing the previous bearer of the given token ID\n     * @param tokenId uint256 ID of the token to be removed from the tokens list of the given address\n     */\n    function _removeTokenFromBearerEnumeration(address from, uint256 tokenId)\n        private\n    {\n        uint256 lastTokenIndex = _bearedTokens[from].length.sub(1);\n        uint256 tokenIndex = _bearedTokensIndex[tokenId];\n\n        // When the token to delete is the last token, the swap operation is unnecessary\n        if (tokenIndex != lastTokenIndex) {\n            uint256 lastTokenId = _bearedTokens[from][lastTokenIndex];\n\n            _bearedTokens[from][tokenIndex] = lastTokenId; // Move the last token to the slot of the to-delete token\n            _bearedTokensIndex[lastTokenId] = tokenIndex; // Update the moved token's index\n        }\n\n        // This also deletes the contents at the last position of the array\n        _bearedTokens[from].length--;\n    }\n\n    /**\n     * @dev Transfers the bearing of a given token ID to another address. Requires the from to be the bearer.\n     * @notice the borrow functions manage the fact that if you are the owner, you balances won't be affted by the deposit\n     * @param tokenId uint256 ID of the token to be borrowed\n     */\n    function borrow(uint256 tokenId) public {\n        //TODO require process\n        //require(bearerOf(tokenId) == from, \"Things: transfer of token that is not beared\");\n        _borrowFrom(bearerOf(tokenId), msg.sender, tokenId);\n    }\n\n    /**\n     * @dev Internal function to borrow a given token ID.\n     * As opposed to the public borrow function, this imposes no restrictions on msg.sender.\n     * @param from current bearer of the token\n     * @param to receipient\n     * @param tokenId uint256 ID of the token to be transferred\n     */\n    function _borrowFrom(address from, address to, uint256 tokenId)\n        internal\n        whenNotPaused\n    {\n        require(_exists(tokenId), \"Thing: token dont exist\");\n        require(to != address(0), \"Thing: transfer to the zero address\");\n        require(to != bearerOf(tokenId), \"Thing: you already bear that object\");\n        // FIXME require(!isLocked(tokenId), \"Thing: token is locked, cant borrow it\");\n\n        address owner = ownerOf(tokenId);\n\n        // FEATURE 6 : deposit\n        uint256 requiredDeposit = metadatas[tokenId].deposit;\n\n        if (requiredDeposit > 0) {\n            //check user current balance\n\n            uint256 currentFromRequiredBalance = requiredBalances[from];\n            uint256 newFromRequiredBalance;\n            if (from == owner) {\n                newFromRequiredBalance = currentFromRequiredBalance;\n            } else {\n                newFromRequiredBalance = currentFromRequiredBalance.sub(\n                    requiredDeposit\n                );\n            }\n\n            uint256 currentToBalance = balances[to];\n            uint256 currentToRequiredBalance = requiredBalances[to];\n            uint256 newToRequiredBalance;\n            if (to == owner) {\n                newToRequiredBalance = currentToRequiredBalance;\n            } else {\n                newToRequiredBalance = currentToRequiredBalance.add(\n                    requiredDeposit\n                );\n            }\n\n            // we want that the cuurent balance of the receipient (to) to be enought\n            require(\n                currentToBalance >= newToRequiredBalance,\n                \"Thing: deposit is not enough to borrow this object\"\n            );\n\n            // we need to update the required balance for both from and to, taking into account that from or to can be the owner\n            requiredBalances[from] = newFromRequiredBalance;\n            requiredBalances[to] = newToRequiredBalance;\n\n        }\n        // /END FEATURE 6 : deposit\n\n        if (owner != from) {\n            _removeTokenFromBearerEnumeration(from, tokenId);\n            _borrowedTokensCount[from].decrement();\n        }\n        if (owner != to) {\n            _addTokenToBearerEnumeration(to, tokenId);\n            _borrowedTokensCount[to].increment();\n        }\n\n        _tokenBearer[tokenId] = to;\n    }\n\n    // FEATURE 5 : locking of token borrowing\n    /*\n    function lockToken(uint256 tokenId) public {\n      require(_exists(tokenId), \"Thing: token dont exist\");\n      require(ownerOf(tokenId) == msg.sender, \"Thing: only the owner of a token can lock it\");\n\n      locked[tokenId] = true;\n    }*/\n\n    /*function isLocked(uint256 tokenId) public view returns (bool) {\n        return locked[tokenId];\n    }*/\n\n    /*modifier onlyUnlocked(uint256 tokenId) {\n        require(isLocked(tokenId), \"Thing: the token is locked\");\n        _;\n    }*/\n\n    // FEATURE 6 : deposit\n    /**\n     * @dev query the deposit balances (absolut & required) on the contract for the user\n     * @return the absolute deposit balance on the contract\n     * @return the balance required according to the object the user, currently bear (that can't be withdrawn)\n     */\n    function getDepositBalances()\n        public\n        view\n        returns (uint256 balance, uint256 requiredBalance)\n    {\n        balance = balances[msg.sender];\n        requiredBalance = requiredBalances[msg.sender];\n    }\n\n    /**\n     * @dev send funds to the contract to fund future security deposits, must have a value\n     * @return uint256 the new security deposit balance of the user\n     */\n    function fundDeposit() public payable whenNotPaused returns (uint256) {\n        require(msg.value > 0, \"Thing: Sent value <= 0\");\n\n        //FIXME there is probably a security problem here\n        uint256 newBalance = balances[msg.sender].add(msg.value);\n        balances[msg.sender] = newBalance;\n\n        //emit DepositMade(msg.sender, msg.value);\n\n        return balances[msg.sender];\n    }\n\n    /**\n     * @dev withdraw the max value authorized, meaning the balance minus the required balance, according to the objects currently borrowed.\n     * This is probably the most security sensitive function, it is protected by a safe send implementation & a protection against reentry\n     */\n    function withdrawDeposit()\n        public\n        payable\n        whenNotPaused\n        nonReentrant\n        returns (uint256)\n    {\n        uint256 currentBalance = balances[msg.sender];\n        uint256 requiredBalance = requiredBalances[msg.sender];\n        //require(currentBalance > requiredBalance, \"not enough\");\n        uint256 withdrawAmount = currentBalance.sub(requiredBalance);\n\n        msg.sender.sendValue(withdrawAmount);\n        balances[msg.sender] = balances[msg.sender].sub(withdrawAmount);\n\n        uint256 newBalance = balances[msg.sender];\n\n        return newBalance;\n    }\n\n    // FIXME it needs to be called getTokensOfBorrower?\n    /**\n     * @dev query all the token Ids currently borrowed by a user\n     * @return uint256[] an array of tokenId borrowed by a user\n     */\n    function getTokensOfBearer() public view returns (uint256[] memory) {\n        return _bearedTokens[msg.sender];\n    }\n\n    /**\n     * @dev query all the token Ids currently owned by a user/minter\n     * @return uint256[] an array of tokenId owned by a user\n     */\n    function getTokensOfOwner() public view returns (uint256[] memory) {\n        return _tokensOfOwner(msg.sender);\n    }\n\n    // TODO add tokenURI???\n    /**\n     * @dev convinence function that returns all useful information for a token\n     * @param tokenId uint256 Id of the token to be queried\n     * @return uint256 tokenId\n     * @return uint256 security deposit necessary to borrow the object\n     * @return address owner of the object\n     * @return address bearer of the object\n     * @return bool whether the object will be locked for borrowing\n     */\n    function getTokenMetadata(uint256 tokenId)\n        public\n        view\n        returns (\n            uint256 id,\n            uint256 deposit,\n            address owner,\n            address bearer,\n            bool lock\n        )\n    {\n        Metadata memory metadata = metadatas[tokenId];\n\n        id = tokenId;\n        deposit = metadata.deposit;\n        owner = ownerOf(tokenId);\n        bearer = bearerOf(tokenId);\n        lock = metadata.lock;\n    }\n\n}\n",
  "sourcePath": "/home/eth1/dev/git/bcproject/contracts/Thing1.sol",
  "compiler": {
    "name": "solc",
    "version": "0.5.11+commit.c082d0b4.Emscripten.clang"
  },
  "schemaVersion": "3.0.16",
  "updatedAt": "2020-01-28T10:58:39.598Z",
  "devdoc": {
    "author": "Fred",
    "details": "Upgradable contract built on OpenZeppelin ERC721 implementation with extensions",
    "methods": {
      "approve(address,uint256)": {
        "details": "Approves another address to transfer the given token ID The zero address indicates there is no approved address. There can only be one approved address per token at a given time. Can only be called by the token owner or an approved operator.",
        "params": {
          "to": "address to be approved for the given token ID",
          "tokenId": "uint256 ID of the token to be approved"
        }
      },
      "balanceOf(address)": {
        "details": "Gets the balance of the specified address.",
        "params": {
          "owner": "address to query the balance of"
        },
        "return": "uint256 representing the amount owned by the passed address"
      },
      "bearerOf(uint256)": {
        "details": "Gets the bearer or bearer of the specified tokenId.",
        "params": {
          "tokenId": "uint256 tokenId of the token to query the bearer of"
        },
        "return": "address currently marked as the bearer or owner of the given tokenId"
      },
      "borrow(uint256)": {
        "details": "Transfers the bearing of a given token ID to another address. Requires the from to be the bearer.",
        "params": {
          "tokenId": "uint256 ID of the token to be borrowed"
        }
      },
      "fundDeposit()": {
        "details": "send funds to the contract to fund future security deposits, must have a value",
        "return": "uint256 the new security deposit balance of the user"
      },
      "getApproved(uint256)": {
        "details": "Gets the approved address for a token ID, or zero if no address set Reverts if the token ID does not exist.",
        "params": {
          "tokenId": "uint256 ID of the token to query the approval of"
        },
        "return": "address currently approved for the given token ID"
      },
      "getDepositBalances()": {
        "details": "query the deposit balances (absolut & required) on the contract for the user",
        "return": "the absolute deposit balance on the contractthe balance required according to the object the user, currently bear (that can't be withdrawn)"
      },
      "getTokenMetadata(uint256)": {
        "details": "convinence function that returns all useful information for a token",
        "params": {
          "tokenId": "uint256 Id of the token to be queried"
        },
        "return": "uint256 tokenIduint256 security deposit necessary to borrow the objectaddress owner of the objectaddress bearer of the objectbool whether the object will be locked for borrowing"
      },
      "getTokensOfBearer()": {
        "details": "query all the token Ids currently borrowed by a user",
        "return": "uint256[] an array of tokenId borrowed by a user"
      },
      "getTokensOfOwner()": {
        "details": "query all the token Ids currently owned by a user/minter",
        "return": "uint256[] an array of tokenId owned by a user"
      },
      "initialize()": {
        "details": "replace the contructor in the context of an upgradable contract, must always be called manually when creating a contract"
      },
      "initialize(address)": {
        "details": "Initializes the contract in unpaused state. Assigns the Pauser role to the deployer."
      },
      "initialize(string,string)": {
        "details": "Constructor function"
      },
      "isApprovedForAll(address,address)": {
        "details": "Tells whether an operator is approved by a given owner.",
        "params": {
          "operator": "operator address which you want to query the approval of",
          "owner": "owner address which you want to query the approval of"
        },
        "return": "bool whether the given operator is approved by the given owner"
      },
      "isOwner()": {
        "details": "Returns true if the caller is the current owner."
      },
      "mint(string,uint256)": {
        "details": "user function to mint a new token with off-chain metadata, automatically assign a new tokenId. You have to assigned the miner role to do so",
        "params": {
          "deposit": "uint256 security deposit for the object in Wei, defined as an on-chain metadata (mandatory)",
          "metadataIpfsHash": "string IPFS CID or hash for the tokenURI that will hold the off-chain metadata"
        },
        "return": "uint256 as the new tokenId"
      },
      "mintWithTokenURI(address,uint256,string)": {
        "details": "Function to mint tokens.",
        "params": {
          "to": "The address that will receive the minted tokens.",
          "tokenId": "The token id to mint.",
          "tokenURI": "The token URI of the minted token."
        },
        "return": "A boolean that indicates if the operation was successful."
      },
      "name()": {
        "details": "Gets the token name.",
        "return": "string representing the token name"
      },
      "owner()": {
        "details": "Returns the address of the current owner."
      },
      "ownerOf(uint256)": {
        "details": "Gets the owner of the specified token ID.",
        "params": {
          "tokenId": "uint256 ID of the token to query the owner of"
        },
        "return": "address currently marked as the owner of the given token ID"
      },
      "pause()": {
        "details": "Called by a pauser to pause, triggers stopped state."
      },
      "paused()": {
        "details": "Returns true if the contract is paused, and false otherwise."
      },
      "renounceOwnership()": {
        "details": "Leaves the contract without owner. It will not be possible to call `onlyOwner` functions anymore. Can only be called by the current owner.     * > Note: Renouncing ownership will leave the contract without an owner, thereby removing any functionality that is only available to the owner."
      },
      "safeTransferFrom(address,address,uint256)": {
        "details": "Safely transfers the ownership of a given token ID to another address If the target address is a contract, it must implement {IERC721Receiver-onERC721Received}, which is called upon a safe transfer, and return the magic value `bytes4(keccak256(\"onERC721Received(address,address,uint256,bytes)\"))`; otherwise, the transfer is reverted. Requires the msg.sender to be the owner, approved, or operator",
        "params": {
          "from": "current owner of the token",
          "to": "address to receive the ownership of the given token ID",
          "tokenId": "uint256 ID of the token to be transferred"
        }
      },
      "safeTransferFrom(address,address,uint256,bytes)": {
        "details": "Safely transfers the ownership of a given token ID to another address If the target address is a contract, it must implement {IERC721Receiver-onERC721Received}, which is called upon a safe transfer, and return the magic value `bytes4(keccak256(\"onERC721Received(address,address,uint256,bytes)\"))`; otherwise, the transfer is reverted. Requires the _msgSender() to be the owner, approved, or operator",
        "params": {
          "_data": "bytes data to send along with a safe transfer check",
          "from": "current owner of the token",
          "to": "address to receive the ownership of the given token ID",
          "tokenId": "uint256 ID of the token to be transferred"
        }
      },
      "setApprovalForAll(address,bool)": {
        "details": "Sets or unsets the approval of a given operator An operator is allowed to transfer all tokens of the sender on their behalf.",
        "params": {
          "approved": "representing the status of the approval to be set",
          "to": "operator address to set the approval"
        }
      },
      "supportsInterface(bytes4)": {
        "details": "See {IERC165-supportsInterface}.     * Time complexity O(1), guaranteed to always use less than 30 000 gas."
      },
      "symbol()": {
        "details": "Gets the token symbol.",
        "return": "string representing the token symbol"
      },
      "tokenByIndex(uint256)": {
        "details": "Gets the token ID at a given index of all the tokens in this contract Reverts if the index is greater or equal to the total number of tokens.",
        "params": {
          "index": "uint256 representing the index to be accessed of the tokens list"
        },
        "return": "uint256 token ID at the given index of the tokens list"
      },
      "tokenOfOwnerByIndex(address,uint256)": {
        "details": "Gets the token ID at a given index of the tokens list of the requested owner.",
        "params": {
          "index": "uint256 representing the index to be accessed of the requested tokens list",
          "owner": "address owning the tokens list to be accessed"
        },
        "return": "uint256 token ID at the given index of the tokens list owned by the requested address"
      },
      "tokenURI(uint256)": {
        "details": "Returns an URI for a given token ID. Throws if the token ID does not exist. May return an empty string.",
        "params": {
          "tokenId": "uint256 ID of the token to query"
        }
      },
      "totalSupply()": {
        "details": "Gets the total amount of tokens stored by the contract.",
        "return": "uint256 representing the total amount of tokens"
      },
      "transferFrom(address,address,uint256)": {
        "details": "Transfers the ownership of a given token ID to another address. Usage of this method is discouraged, use {safeTransferFrom} whenever possible. Requires the msg.sender to be the owner, approved, or operator.",
        "params": {
          "from": "current owner of the token",
          "to": "address to receive the ownership of the given token ID",
          "tokenId": "uint256 ID of the token to be transferred"
        }
      },
      "transferOwnership(address)": {
        "details": "Transfers ownership of the contract to a new account (`newOwner`). Can only be called by the current owner."
      },
      "unpause()": {
        "details": "Called by a pauser to unpause, returns to normal state."
      },
      "withdrawDeposit()": {
        "details": "withdraw the max value authorized, meaning the balance minus the required balance, according to the objects currently borrowed. This is probably the most security sensitive function, it is protected by a safe send implementation & a protection against reentry"
      }
    },
    "title": "Thing"
  },
  "userdoc": {
    "methods": {
      "borrow(uint256)": {
        "notice": "the borrow functions manage the fact that if you are the owner, you balances won't be affted by the deposit"
      }
    },
    "notice": "Allow to share & borrow objects (Non Fungible Tokens) in a secure way"
  }
}