{
  "contractName": "Thing",
  "abi": [
    {
      "constant": true,
      "inputs": [
        {
          "internalType": "bytes4",
          "name": "interfaceId",
          "type": "bytes4"
        }
      ],
      "name": "supportsInterface",
      "outputs": [
        {
          "internalType": "bool",
          "name": "",
          "type": "bool"
        }
      ],
      "payable": false,
      "stateMutability": "view",
      "type": "function"
    },
    {
      "constant": true,
      "inputs": [],
      "name": "name",
      "outputs": [
        {
          "internalType": "string",
          "name": "",
          "type": "string"
        }
      ],
      "payable": false,
      "stateMutability": "view",
      "type": "function"
    },
    {
      "constant": true,
      "inputs": [
        {
          "internalType": "uint256",
          "name": "tokenId",
          "type": "uint256"
        }
      ],
      "name": "getApproved",
      "outputs": [
        {
          "internalType": "address",
          "name": "",
          "type": "address"
        }
      ],
      "payable": false,
      "stateMutability": "view",
      "type": "function"
    },
    {
      "constant": false,
      "inputs": [
        {
          "internalType": "address",
          "name": "to",
          "type": "address"
        },
        {
          "internalType": "uint256",
          "name": "tokenId",
          "type": "uint256"
        }
      ],
      "name": "approve",
      "outputs": [],
      "payable": false,
      "stateMutability": "nonpayable",
      "type": "function"
    },
    {
      "constant": true,
      "inputs": [],
      "name": "totalSupply",
      "outputs": [
        {
          "internalType": "uint256",
          "name": "",
          "type": "uint256"
        }
      ],
      "payable": false,
      "stateMutability": "view",
      "type": "function"
    },
    {
      "constant": false,
      "inputs": [
        {
          "internalType": "address",
          "name": "from",
          "type": "address"
        },
        {
          "internalType": "address",
          "name": "to",
          "type": "address"
        },
        {
          "internalType": "uint256",
          "name": "tokenId",
          "type": "uint256"
        }
      ],
      "name": "transferFrom",
      "outputs": [],
      "payable": false,
      "stateMutability": "nonpayable",
      "type": "function"
    },
    {
      "constant": true,
      "inputs": [
        {
          "internalType": "address",
          "name": "owner",
          "type": "address"
        },
        {
          "internalType": "uint256",
          "name": "index",
          "type": "uint256"
        }
      ],
      "name": "tokenOfOwnerByIndex",
      "outputs": [
        {
          "internalType": "uint256",
          "name": "",
          "type": "uint256"
        }
      ],
      "payable": false,
      "stateMutability": "view",
      "type": "function"
    },
    {
      "constant": false,
      "inputs": [],
      "name": "unpause",
      "outputs": [],
      "payable": false,
      "stateMutability": "nonpayable",
      "type": "function"
    },
    {
      "constant": false,
      "inputs": [
        {
          "internalType": "address",
          "name": "from",
          "type": "address"
        },
        {
          "internalType": "address",
          "name": "to",
          "type": "address"
        },
        {
          "internalType": "uint256",
          "name": "tokenId",
          "type": "uint256"
        }
      ],
      "name": "safeTransferFrom",
      "outputs": [],
      "payable": false,
      "stateMutability": "nonpayable",
      "type": "function"
    },
    {
      "constant": true,
      "inputs": [
        {
          "internalType": "address",
          "name": "account",
          "type": "address"
        }
      ],
      "name": "isPauser",
      "outputs": [
        {
          "internalType": "bool",
          "name": "",
          "type": "bool"
        }
      ],
      "payable": false,
      "stateMutability": "view",
      "type": "function"
    },
    {
      "constant": true,
      "inputs": [
        {
          "internalType": "uint256",
          "name": "index",
          "type": "uint256"
        }
      ],
      "name": "tokenByIndex",
      "outputs": [
        {
          "internalType": "uint256",
          "name": "",
          "type": "uint256"
        }
      ],
      "payable": false,
      "stateMutability": "view",
      "type": "function"
    },
    {
      "constant": false,
      "inputs": [
        {
          "internalType": "address",
          "name": "to",
          "type": "address"
        },
        {
          "internalType": "uint256",
          "name": "tokenId",
          "type": "uint256"
        },
        {
          "internalType": "string",
          "name": "tokenURI",
          "type": "string"
        }
      ],
      "name": "mintWithTokenURI",
      "outputs": [
        {
          "internalType": "bool",
          "name": "",
          "type": "bool"
        }
      ],
      "payable": false,
      "stateMutability": "nonpayable",
      "type": "function"
    },
    {
      "constant": true,
      "inputs": [],
      "name": "paused",
      "outputs": [
        {
          "internalType": "bool",
          "name": "",
          "type": "bool"
        }
      ],
      "payable": false,
      "stateMutability": "view",
      "type": "function"
    },
    {
      "constant": true,
      "inputs": [
        {
          "internalType": "uint256",
          "name": "tokenId",
          "type": "uint256"
        }
      ],
      "name": "ownerOf",
      "outputs": [
        {
          "internalType": "address",
          "name": "",
          "type": "address"
        }
      ],
      "payable": false,
      "stateMutability": "view",
      "type": "function"
    },
    {
      "constant": false,
      "inputs": [],
      "name": "renouncePauser",
      "outputs": [],
      "payable": false,
      "stateMutability": "nonpayable",
      "type": "function"
    },
    {
      "constant": true,
      "inputs": [
        {
          "internalType": "address",
          "name": "owner",
          "type": "address"
        }
      ],
      "name": "balanceOf",
      "outputs": [
        {
          "internalType": "uint256",
          "name": "",
          "type": "uint256"
        }
      ],
      "payable": false,
      "stateMutability": "view",
      "type": "function"
    },
    {
      "constant": false,
      "inputs": [],
      "name": "renounceOwnership",
      "outputs": [],
      "payable": false,
      "stateMutability": "nonpayable",
      "type": "function"
    },
    {
      "constant": false,
      "inputs": [
        {
          "internalType": "address",
          "name": "account",
          "type": "address"
        }
      ],
      "name": "addPauser",
      "outputs": [],
      "payable": false,
      "stateMutability": "nonpayable",
      "type": "function"
    },
    {
      "constant": false,
      "inputs": [],
      "name": "pause",
      "outputs": [],
      "payable": false,
      "stateMutability": "nonpayable",
      "type": "function"
    },
    {
      "constant": true,
      "inputs": [],
      "name": "owner",
      "outputs": [
        {
          "internalType": "address",
          "name": "",
          "type": "address"
        }
      ],
      "payable": false,
      "stateMutability": "view",
      "type": "function"
    },
    {
      "constant": true,
      "inputs": [],
      "name": "isOwner",
      "outputs": [
        {
          "internalType": "bool",
          "name": "",
          "type": "bool"
        }
      ],
      "payable": false,
      "stateMutability": "view",
      "type": "function"
    },
    {
      "constant": true,
      "inputs": [],
      "name": "symbol",
      "outputs": [
        {
          "internalType": "string",
          "name": "",
          "type": "string"
        }
      ],
      "payable": false,
      "stateMutability": "view",
      "type": "function"
    },
    {
      "constant": false,
      "inputs": [
        {
          "internalType": "address",
          "name": "account",
          "type": "address"
        }
      ],
      "name": "addMinter",
      "outputs": [],
      "payable": false,
      "stateMutability": "nonpayable",
      "type": "function"
    },
    {
      "constant": false,
      "inputs": [],
      "name": "renounceMinter",
      "outputs": [],
      "payable": false,
      "stateMutability": "nonpayable",
      "type": "function"
    },
    {
      "constant": false,
      "inputs": [
        {
          "internalType": "address",
          "name": "to",
          "type": "address"
        },
        {
          "internalType": "bool",
          "name": "approved",
          "type": "bool"
        }
      ],
      "name": "setApprovalForAll",
      "outputs": [],
      "payable": false,
      "stateMutability": "nonpayable",
      "type": "function"
    },
    {
      "constant": true,
      "inputs": [
        {
          "internalType": "address",
          "name": "account",
          "type": "address"
        }
      ],
      "name": "isMinter",
      "outputs": [
        {
          "internalType": "bool",
          "name": "",
          "type": "bool"
        }
      ],
      "payable": false,
      "stateMutability": "view",
      "type": "function"
    },
    {
      "constant": false,
      "inputs": [
        {
          "internalType": "address",
          "name": "from",
          "type": "address"
        },
        {
          "internalType": "address",
          "name": "to",
          "type": "address"
        },
        {
          "internalType": "uint256",
          "name": "tokenId",
          "type": "uint256"
        },
        {
          "internalType": "bytes",
          "name": "_data",
          "type": "bytes"
        }
      ],
      "name": "safeTransferFrom",
      "outputs": [],
      "payable": false,
      "stateMutability": "nonpayable",
      "type": "function"
    },
    {
      "constant": true,
      "inputs": [
        {
          "internalType": "uint256",
          "name": "tokenId",
          "type": "uint256"
        }
      ],
      "name": "tokenURI",
      "outputs": [
        {
          "internalType": "string",
          "name": "",
          "type": "string"
        }
      ],
      "payable": false,
      "stateMutability": "view",
      "type": "function"
    },
    {
      "constant": true,
      "inputs": [
        {
          "internalType": "address",
          "name": "owner",
          "type": "address"
        },
        {
          "internalType": "address",
          "name": "operator",
          "type": "address"
        }
      ],
      "name": "isApprovedForAll",
      "outputs": [
        {
          "internalType": "bool",
          "name": "",
          "type": "bool"
        }
      ],
      "payable": false,
      "stateMutability": "view",
      "type": "function"
    },
    {
      "constant": false,
      "inputs": [
        {
          "internalType": "address",
          "name": "newOwner",
          "type": "address"
        }
      ],
      "name": "transferOwnership",
      "outputs": [],
      "payable": false,
      "stateMutability": "nonpayable",
      "type": "function"
    },
    {
      "anonymous": false,
      "inputs": [
        {
          "indexed": false,
          "internalType": "uint256",
          "name": "requiredDeposit",
          "type": "uint256"
        },
        {
          "indexed": false,
          "internalType": "uint256",
          "name": "currentBalance",
          "type": "uint256"
        },
        {
          "indexed": false,
          "internalType": "uint256",
          "name": "currentRequiredBalance",
          "type": "uint256"
        },
        {
          "indexed": false,
          "internalType": "uint256",
          "name": "newRequiredBalance",
          "type": "uint256"
        }
      ],
      "name": "Debug",
      "type": "event"
    },
    {
      "anonymous": false,
      "inputs": [
        {
          "indexed": false,
          "internalType": "address",
          "name": "account",
          "type": "address"
        }
      ],
      "name": "Paused",
      "type": "event"
    },
    {
      "anonymous": false,
      "inputs": [
        {
          "indexed": false,
          "internalType": "address",
          "name": "account",
          "type": "address"
        }
      ],
      "name": "Unpaused",
      "type": "event"
    },
    {
      "anonymous": false,
      "inputs": [
        {
          "indexed": true,
          "internalType": "address",
          "name": "account",
          "type": "address"
        }
      ],
      "name": "PauserAdded",
      "type": "event"
    },
    {
      "anonymous": false,
      "inputs": [
        {
          "indexed": true,
          "internalType": "address",
          "name": "account",
          "type": "address"
        }
      ],
      "name": "PauserRemoved",
      "type": "event"
    },
    {
      "anonymous": false,
      "inputs": [
        {
          "indexed": true,
          "internalType": "address",
          "name": "previousOwner",
          "type": "address"
        },
        {
          "indexed": true,
          "internalType": "address",
          "name": "newOwner",
          "type": "address"
        }
      ],
      "name": "OwnershipTransferred",
      "type": "event"
    },
    {
      "anonymous": false,
      "inputs": [
        {
          "indexed": true,
          "internalType": "address",
          "name": "account",
          "type": "address"
        }
      ],
      "name": "MinterAdded",
      "type": "event"
    },
    {
      "anonymous": false,
      "inputs": [
        {
          "indexed": true,
          "internalType": "address",
          "name": "account",
          "type": "address"
        }
      ],
      "name": "MinterRemoved",
      "type": "event"
    },
    {
      "anonymous": false,
      "inputs": [
        {
          "indexed": true,
          "internalType": "address",
          "name": "from",
          "type": "address"
        },
        {
          "indexed": true,
          "internalType": "address",
          "name": "to",
          "type": "address"
        },
        {
          "indexed": true,
          "internalType": "uint256",
          "name": "tokenId",
          "type": "uint256"
        }
      ],
      "name": "Transfer",
      "type": "event"
    },
    {
      "anonymous": false,
      "inputs": [
        {
          "indexed": true,
          "internalType": "address",
          "name": "owner",
          "type": "address"
        },
        {
          "indexed": true,
          "internalType": "address",
          "name": "approved",
          "type": "address"
        },
        {
          "indexed": true,
          "internalType": "uint256",
          "name": "tokenId",
          "type": "uint256"
        }
      ],
      "name": "Approval",
      "type": "event"
    },
    {
      "anonymous": false,
      "inputs": [
        {
          "indexed": true,
          "internalType": "address",
          "name": "owner",
          "type": "address"
        },
        {
          "indexed": true,
          "internalType": "address",
          "name": "operator",
          "type": "address"
        },
        {
          "indexed": false,
          "internalType": "bool",
          "name": "approved",
          "type": "bool"
        }
      ],
      "name": "ApprovalForAll",
      "type": "event"
    },
    {
      "constant": false,
      "inputs": [],
      "name": "initialize",
      "outputs": [],
      "payable": false,
      "stateMutability": "nonpayable",
      "type": "function"
    },
    {
      "constant": false,
      "inputs": [
        {
          "internalType": "address",
          "name": "sender",
          "type": "address"
        }
      ],
      "name": "initialize",
      "outputs": [],
      "payable": false,
      "stateMutability": "nonpayable",
      "type": "function"
    },
    {
      "constant": false,
      "inputs": [
        {
          "internalType": "string",
          "name": "name",
          "type": "string"
        },
        {
          "internalType": "string",
          "name": "symbol",
          "type": "string"
        }
      ],
      "name": "initialize",
      "outputs": [],
      "payable": false,
      "stateMutability": "nonpayable",
      "type": "function"
    },
    {
      "constant": false,
      "inputs": [
        {
          "internalType": "string",
          "name": "metadataIpfsHash",
          "type": "string"
        },
        {
          "internalType": "uint256",
          "name": "deposit",
          "type": "uint256"
        }
      ],
      "name": "mint",
      "outputs": [
        {
          "internalType": "uint256",
          "name": "",
          "type": "uint256"
        }
      ],
      "payable": false,
      "stateMutability": "nonpayable",
      "type": "function"
    },
    {
      "constant": true,
      "inputs": [
        {
          "internalType": "uint256",
          "name": "tokenId",
          "type": "uint256"
        }
      ],
      "name": "bearerOf",
      "outputs": [
        {
          "internalType": "address",
          "name": "",
          "type": "address"
        }
      ],
      "payable": false,
      "stateMutability": "view",
      "type": "function"
    },
    {
      "constant": false,
      "inputs": [
        {
          "internalType": "uint256",
          "name": "tokenId",
          "type": "uint256"
        }
      ],
      "name": "borrow",
      "outputs": [],
      "payable": false,
      "stateMutability": "nonpayable",
      "type": "function"
    },
    {
      "constant": false,
      "inputs": [
        {
          "internalType": "uint256",
          "name": "tokenId",
          "type": "uint256"
        }
      ],
      "name": "lockToken",
      "outputs": [],
      "payable": false,
      "stateMutability": "nonpayable",
      "type": "function"
    },
    {
      "constant": true,
      "inputs": [
        {
          "internalType": "uint256",
          "name": "tokenId",
          "type": "uint256"
        }
      ],
      "name": "isLocked",
      "outputs": [
        {
          "internalType": "bool",
          "name": "",
          "type": "bool"
        }
      ],
      "payable": false,
      "stateMutability": "view",
      "type": "function"
    },
    {
      "constant": true,
      "inputs": [],
      "name": "getDepositBalances",
      "outputs": [
        {
          "internalType": "uint256",
          "name": "balance",
          "type": "uint256"
        },
        {
          "internalType": "uint256",
          "name": "requiredBalance",
          "type": "uint256"
        }
      ],
      "payable": false,
      "stateMutability": "view",
      "type": "function"
    },
    {
      "constant": false,
      "inputs": [],
      "name": "fundDeposit",
      "outputs": [
        {
          "internalType": "uint256",
          "name": "",
          "type": "uint256"
        }
      ],
      "payable": true,
      "stateMutability": "payable",
      "type": "function"
    },
    {
      "constant": false,
      "inputs": [],
      "name": "withdrawDeposit",
      "outputs": [
        {
          "internalType": "uint256",
          "name": "",
          "type": "uint256"
        }
      ],
      "payable": true,
      "stateMutability": "payable",
      "type": "function"
    },
    {
      "constant": true,
      "inputs": [],
      "name": "getTokensOfBearer",
      "outputs": [
        {
          "internalType": "uint256[]",
          "name": "",
          "type": "uint256[]"
        }
      ],
      "payable": false,
      "stateMutability": "view",
      "type": "function"
    },
    {
      "constant": true,
      "inputs": [],
      "name": "getTokensOfOwner",
      "outputs": [
        {
          "internalType": "uint256[]",
          "name": "",
          "type": "uint256[]"
        }
      ],
      "payable": false,
      "stateMutability": "view",
      "type": "function"
    },
    {
      "constant": true,
      "inputs": [
        {
          "internalType": "uint256",
          "name": "tokenId",
          "type": "uint256"
        }
      ],
      "name": "getTokenMetadata",
      "outputs": [
        {
          "internalType": "uint256",
          "name": "id",
          "type": "uint256"
        },
        {
          "internalType": "string",
          "name": "name",
          "type": "string"
        },
        {
          "internalType": "string",
          "name": "picture",
          "type": "string"
        },
        {
          "internalType": "uint256",
          "name": "deposit",
          "type": "uint256"
        },
        {
          "internalType": "address",
          "name": "owner",
          "type": "address"
        },
        {
          "internalType": "address",
          "name": "bearer",
          "type": "address"
        },
        {
          "internalType": "bool",
          "name": "lock",
          "type": "bool"
        }
      ],
      "payable": false,
      "stateMutability": "view",
      "type": "function"
    }
  ],
  "bytecode": "0x60806040526140aa806100136000396000f3fe6080604052600436106102e75760003560e01c8063715018a611610184578063a22cb465116100d6578063c5ebeaec1161008a578063ecedbf5211610064578063ecedbf5214610e06578063f2fde38b14610e30578063f6aacfb114610e63576102e7565b8063c5ebeaec14610d77578063c87b56dd14610da1578063e985e9c514610dcb576102e7565b8063b68ceeaf116100bb578063b68ceeaf14610c5c578063b88d4fde14610c71578063c4d66de814610d44576102e7565b8063a22cb46514610bee578063aa271e1a14610c29576102e7565b80638465753c1161013857806395d89b411161011257806395d89b4114610b91578063983b2d5614610ba65780639865027514610bd9576102e7565b80638465753c14610b395780638da5cb5b14610b675780638f32d59b14610b7c576102e7565b80638129fc1c116101695780638129fc1c14610adc57806382dc1ec414610af15780638456cb5914610b24576102e7565b8063715018a614610a9d57806380f2036314610ab2576102e7565b806342842e0e1161023d5780635c975abb116101f15780636caa736b116101cb5780636caa736b14610a4d5780636ef8d66d14610a5557806370a0823114610a6a576102e7565b80635c975abb146108bb57806360316801146108d05780636352211e14610a23576102e7565b80634cd88b76116102225780634cd88b761461068f5780634f6ccce7146107c957806350bb4e7f146107f3576102e7565b806342842e0e1461061957806346fbf68e1461065c576102e7565b8063117df0881161029f57806323b872dd1161027957806323b872dd146105885780632f745c59146105cb5780633f4ba83a14610604576102e7565b8063117df0881461050657806318160ddd1461050e5780631b80ad7814610523576102e7565b806306fdde03116102d057806306fdde03146103fb578063081812fc14610485578063095ea7b3146104cb576102e7565b806301ffc9a7146102ec578063056b01ce14610334575b600080fd5b3480156102f857600080fd5b506103206004803603602081101561030f57600080fd5b50356001600160e01b031916610e8d565b604080519115158252519081900360200190f35b34801561034057600080fd5b506103e96004803603604081101561035757600080fd5b81019060208101813564010000000081111561037257600080fd5b82018360208201111561038457600080fd5b803590602001918460018302840111640100000000831117156103a657600080fd5b91908080601f0160208091040260200160405190810160405280939291908181526020018383808284376000920191909152509295505091359250610eb0915050565b60408051918252519081900360200190f35b34801561040757600080fd5b50610410610fec565b6040805160208082528351818301528351919283929083019185019080838360005b8381101561044a578181015183820152602001610432565b50505050905090810190601f1680156104775780820380516001836020036101000a031916815260200191505b509250505060405180910390f35b34801561049157600080fd5b506104af600480360360208110156104a857600080fd5b5035611083565b604080516001600160a01b039092168252519081900360200190f35b3480156104d757600080fd5b50610504600480360360408110156104ee57600080fd5b506001600160a01b0381351690602001356110e5565b005b6103e961120d565b34801561051a57600080fd5b506103e96112f0565b34801561052f57600080fd5b506105386112f6565b60408051602080825283518183015283519192839290830191858101910280838360005b8381101561057457818101518382015260200161055c565b505050509050019250505060405180910390f35b34801561059457600080fd5b50610504600480360360608110156105ab57600080fd5b506001600160a01b03813581169160208101359091169060400135611357565b3480156105d757600080fd5b506103e9600480360360408110156105ee57600080fd5b506001600160a01b0381351690602001356113b3565b34801561061057600080fd5b50610504611432565b34801561062557600080fd5b506105046004803603606081101561063c57600080fd5b506001600160a01b03813581169160208101359091169060400135611526565b34801561066857600080fd5b506103206004803603602081101561067f57600080fd5b50356001600160a01b0316611541565b34801561069b57600080fd5b50610504600480360360408110156106b257600080fd5b8101906020810181356401000000008111156106cd57600080fd5b8201836020820111156106df57600080fd5b8035906020019184600183028401116401000000008311171561070157600080fd5b91908080601f016020809104026020016040519081016040528093929190818152602001838380828437600092019190915250929594936020810193503591505064010000000081111561075457600080fd5b82018360208201111561076657600080fd5b8035906020019184600183028401116401000000008311171561078857600080fd5b91908080601f01602080910402602001604051908101604052809392919081815260200183838082843760009201919091525092955061155b945050505050565b3480156107d557600080fd5b506103e9600480360360208110156107ec57600080fd5b5035611647565b3480156107ff57600080fd5b506103206004803603606081101561081657600080fd5b6001600160a01b038235169160208101359181019060608101604082013564010000000081111561084657600080fd5b82018360208201111561085857600080fd5b8035906020019184600183028401116401000000008311171561087a57600080fd5b91908080601f0160208091040260200160405190810160405280939291908181526020018383808284376000920191909152509295506116ad945050505050565b3480156108c757600080fd5b50610320611713565b3480156108dc57600080fd5b506108fa600480360360208110156108f357600080fd5b503561171d565b604051808881526020018060200180602001878152602001866001600160a01b03166001600160a01b03168152602001856001600160a01b03166001600160a01b0316815260200184151515158152602001838103835289818151815260200191508051906020019080838360005b83811015610981578181015183820152602001610969565b50505050905090810190601f1680156109ae5780820380516001836020036101000a031916815260200191505b5083810382528851815288516020918201918a019080838360005b838110156109e15781810151838201526020016109c9565b50505050905090810190601f168015610a0e5780820380516001836020036101000a031916815260200191505b50995050505050505050505060405180910390f35b348015610a2f57600080fd5b506104af60048036036020811015610a4657600080fd5b50356118cb565b6103e961191f565b348015610a6157600080fd5b506105046119af565b348015610a7657600080fd5b506103e960048036036020811015610a8d57600080fd5b50356001600160a01b03166119c1565b348015610aa957600080fd5b50610504611a29565b348015610abe57600080fd5b5061050460048036036020811015610ad557600080fd5b5035611ace565b348015610ae857600080fd5b50610504611b93565b348015610afd57600080fd5b5061050460048036036020811015610b1457600080fd5b50356001600160a01b0316611cca565b348015610b3057600080fd5b50610504611d19565b348015610b4557600080fd5b50610b4e611def565b6040805192835260208301919091528051918290030190f35b348015610b7357600080fd5b506104af611e11565b348015610b8857600080fd5b50610320611e21565b348015610b9d57600080fd5b50610410611e48565b348015610bb257600080fd5b5061050460048036036020811015610bc957600080fd5b50356001600160a01b0316611ea9565b348015610be557600080fd5b50610504611ef8565b348015610bfa57600080fd5b5061050460048036036040811015610c1157600080fd5b506001600160a01b0381351690602001351515611f08565b348015610c3557600080fd5b5061032060048036036020811015610c4c57600080fd5b50356001600160a01b031661200d565b348015610c6857600080fd5b50610538612021565b348015610c7d57600080fd5b5061050460048036036080811015610c9457600080fd5b6001600160a01b03823581169260208101359091169160408201359190810190608081016060820135640100000000811115610ccf57600080fd5b820183602082011115610ce157600080fd5b80359060200191846001830284011164010000000083111715610d0357600080fd5b91908080601f01602080910402602001604051908101604052809392919081815260200183838082843760009201919091525092955061207e945050505050565b348015610d5057600080fd5b5061050460048036036020811015610d6757600080fd5b50356001600160a01b03166120dc565b348015610d8357600080fd5b5061050460048036036020811015610d9a57600080fd5b5035612193565b348015610dad57600080fd5b5061041060048036036020811015610dc457600080fd5b50356121a6565b348015610dd757600080fd5b5061032060048036036040811015610dee57600080fd5b506001600160a01b038135811691602001351661228b565b348015610e1257600080fd5b506104af60048036036020811015610e2957600080fd5b50356122b9565b348015610e3c57600080fd5b5061050460048036036020811015610e5357600080fd5b50356001600160a01b0316612351565b348015610e6f57600080fd5b5061032060048036036020811015610e8657600080fd5b50356123b3565b6001600160e01b0319811660009081526033602052604090205460ff165b919050565b6000610ec2610ebd6123c9565b61200d565b610efd5760405162461bcd60e51b8152600401808060200182810382526030815260200180613e246030913960400191505060405180910390fd5b610f086102396123cd565b6000610f156102396123d6565b9050610f1f613ae9565b60405180606001604052806040518060400160405280600381526020017f6f6c64000000000000000000000000000000000000000000000000000000000081525081526020016040518060600160405280602e8152602001614048602e91398152602090810186905260008481526102388252604090208251805193945084939192610fb092849290910190613b0a565b506020828101518051610fc99260018501920190613b0a565b5060408201518160020155905050610fe23383876116ad565b5090949350505050565b60d28054604080516020601f60026000196101006001881615020190951694909404938401819004810282018101909252828152606093909290918301828280156110785780601f1061104d57610100808354040283529160200191611078565b820191906000526020600020905b81548152906001019060200180831161105b57829003601f168201915b505050505090505b90565b600061108e826123da565b6110c95760405162461bcd60e51b815260040180806020018281038252602c815260200180613e98602c913960400191505060405180910390fd5b506000908152606760205260409020546001600160a01b031690565b60006110f0826118cb565b9050806001600160a01b0316836001600160a01b031614156111435760405162461bcd60e51b8152600401808060200182810382526021815260200180613fca6021913960400191505060405180910390fd5b806001600160a01b03166111556123c9565b6001600160a01b031614806111765750611176816111716123c9565b61228b565b6111b15760405162461bcd60e51b8152600401808060200182810382526038815260200180613d996038913960400191505060405180910390fd5b60008281526067602052604080822080546001600160a01b0319166001600160a01b0387811691821790925591518593918516917f8c5be1e5ebec7d5bd14f71427d1e84f3dd0314c0f7b2291e5b200ac8c7c3b92591a4505050565b61020580546001019081905533600090815261023f60209081526040808320546102409092528220549192918361124a838363ffffffff6123f716565b905061125c338263ffffffff61244016565b33600090815261023f602052604090205461127d908263ffffffff6123f716565b33600090815261023f6020526040902081905594505050506102055481146112ec576040805162461bcd60e51b815260206004820152601f60248201527f5265656e7472616e637947756172643a207265656e7472616e742063616c6c00604482015290519081900360640190fd5b5090565b609e5490565b33600090815261023c602090815260409182902080548351818402810184019094528084526060939283018282801561107857602002820191906000526020600020905b81548152602001906001019080831161133a575050505050905090565b6113686113626123c9565b82612526565b6113a35760405162461bcd60e51b8152600401808060200182810382526031815260200180613feb6031913960400191505060405180910390fd5b6113ae8383836125ca565b505050565b60006113be836119c1565b82106113fb5760405162461bcd60e51b815260040180806020018281038252602b815260200180613c0d602b913960400191505060405180910390fd5b6001600160a01b0383166000908152609c6020526040902080548390811061141f57fe5b9060005260206000200154905092915050565b61144261143d6123c9565b611541565b61147d5760405162461bcd60e51b8152600401808060200182810382526030815260200180613c6a6030913960400191505060405180910390fd5b6101d25460ff166114d5576040805162461bcd60e51b815260206004820152601460248201527f5061757361626c653a206e6f7420706175736564000000000000000000000000604482015290519081900360640190fd5b6101d2805460ff191690557f5db9ee0a495bf2e6ff9c91a7834c1ba4fdd244a5e8aa4e537bd38aeae4b073aa6115096123c9565b604080516001600160a01b039092168252519081900360200190a1565b6113ae8383836040518060200160405280600081525061207e565b600061155561019f8363ffffffff6125e916565b92915050565b600054610100900460ff16806115745750611574612650565b80611582575060005460ff16155b6115bd5760405162461bcd60e51b815260040180806020018281038252602e815260200180613f44602e913960400191505060405180910390fd5b600054610100900460ff161580156115e8576000805460ff1961ff0019909116610100171660011790555b6115f0612656565b6115f957600080fd5b825161160c9060d2906020860190613b0a565b5081516116209060d3906020850190613b0a565b50611631635b5e139f60e01b61266d565b80156113ae576000805461ff0019169055505050565b60006116516112f0565b821061168e5760405162461bcd60e51b815260040180806020018281038252602c81526020018061401c602c913960400191505060405180910390fd5b609e828154811061169b57fe5b90600052602060002001549050919050565b60006116ba610ebd6123c9565b6116f55760405162461bcd60e51b8152600401808060200182810382526030815260200180613e246030913960400191505060405180910390fd5b6116ff84846126f1565b611709838361270e565b5060019392505050565b6101d25460ff1690565b6000606080600080600080611730613ae9565b600089815261023860209081526040918290208251815460026001821615610100026000190190911604601f810184900490930281016080908101909452606081018381529093919284928491908401828280156117cf5780601f106117a4576101008083540402835291602001916117cf565b820191906000526020600020905b8154815290600101906020018083116117b257829003601f168201915b50505050508152602001600182018054600181600116156101000203166002900480601f0160208091040260200160405190810160405280929190818152602001828054600181600116156101000203166002900480156118715780601f1061184657610100808354040283529160200191611871565b820191906000526020600020905b81548152906001019060200180831161185457829003601f168201915b5050505050815260200160028201548152505090508897508060000151965080602001519550806040015194506118a7896118cb565b93506118b2896122b9565b92506118bd896123b3565b915050919395979092949650565b6000818152606660205260408120546001600160a01b0316806115555760405162461bcd60e51b8152600401808060200182810382526029815260200180613dfb6029913960400191505060405180910390fd5b6000803411611975576040805162461bcd60e51b815260206004820152601660248201527f5468696e673a2053656e742076616c7565203c3d203000000000000000000000604482015290519081900360640190fd5b33600090815261023f6020526040812054611996903463ffffffff61277116565b33600090815261023f6020526040902081905591505090565b6119bf6119ba6123c9565b6127cb565b565b60006001600160a01b038216611a085760405162461bcd60e51b815260040180806020018281038252602a815260200180613dd1602a913960400191505060405180910390fd5b6001600160a01b0382166000908152606860205260409020611555906123d6565b611a31611e21565b611a82576040805162461bcd60e51b815260206004820181905260248201527f4f776e61626c653a2063616c6c6572206973206e6f7420746865206f776e6572604482015290519081900360640190fd5b61016c546040516000916001600160a01b0316907f8be0079c531659141344cd1fd0a4f28419497f9722a3daafe3b4186f6b6457e0908390a361016c80546001600160a01b0319169055565b611ad7816123da565b611b28576040805162461bcd60e51b815260206004820152601760248201527f5468696e673a20746f6b656e20646f6e74206578697374000000000000000000604482015290519081900360640190fd5b33611b32826118cb565b6001600160a01b031614611b775760405162461bcd60e51b815260040180806020018281038252602c815260200180613cc0602c913960400191505060405180910390fd5b600090815261023e60205260409020805460ff19166001179055565b600054610100900460ff1680611bac5750611bac612650565b80611bba575060005460ff16155b611bf55760405162461bcd60e51b815260040180806020018281038252602e815260200180613f44602e913960400191505060405180910390fd5b600054610100900460ff16158015611c20576000805460ff1961ff0019909116610100171660011790555b611c28612814565b611c306128b9565b611ca46040518060400160405280600581526020017f5468696e670000000000000000000000000000000000000000000000000000008152506040518060400160405280600381526020017f544731000000000000000000000000000000000000000000000000000000000081525061155b565b611cad33612980565b611cb5612a4d565b8015611cc7576000805461ff00191690555b50565b611cd561143d6123c9565b611d105760405162461bcd60e51b8152600401808060200182810382526030815260200180613c6a6030913960400191505060405180910390fd5b611cc781612af4565b611d2461143d6123c9565b611d5f5760405162461bcd60e51b8152600401808060200182810382526030815260200180613c6a6030913960400191505060405180910390fd5b6101d25460ff1615611db8576040805162461bcd60e51b815260206004820152601060248201527f5061757361626c653a2070617573656400000000000000000000000000000000604482015290519081900360640190fd5b6101d2805460ff191660011790557f62e78cea01bee320cd4e420270b5ea74000d11b0c9f74754ebdbfc544b05a2586115096123c9565b33600090815261023f6020908152604080832054610240909252909120549091565b61016c546001600160a01b031690565b61016c546000906001600160a01b0316611e396123c9565b6001600160a01b031614905090565b60d38054604080516020601f60026000196101006001881615020190951694909404938401819004810282018101909252828152606093909290918301828280156110785780601f1061104d57610100808354040283529160200191611078565b611eb4610ebd6123c9565b611eef5760405162461bcd60e51b8152600401808060200182810382526030815260200180613e246030913960400191505060405180910390fd5b611cc781612b3d565b6119bf611f036123c9565b612b86565b611f106123c9565b6001600160a01b0316826001600160a01b03161415611f76576040805162461bcd60e51b815260206004820152601960248201527f4552433732313a20617070726f766520746f2063616c6c657200000000000000604482015290519081900360640190fd5b8060696000611f836123c9565b6001600160a01b03908116825260208083019390935260409182016000908120918716808252919093529120805460ff191692151592909217909155611fc76123c9565b60408051841515815290516001600160a01b0392909216917f17307eab39ab6107e8899845ad3d59bd9653f200f220920489ca2b5937696c319181900360200190a35050565b60006115556101078363ffffffff6125e916565b606061202c33612bcf565b805480602002602001604051908101604052809291908181526020018280548015611078576020028201919060005260206000209081548152602001906001019080831161133a575050505050905090565b61208f6120896123c9565b83612526565b6120ca5760405162461bcd60e51b8152600401808060200182810382526031815260200180613feb6031913960400191505060405180910390fd5b6120d684848484612be9565b50505050565b600054610100900460ff16806120f557506120f5612650565b80612103575060005460ff16155b61213e5760405162461bcd60e51b815260040180806020018281038252602e815260200180613f44602e913960400191505060405180910390fd5b600054610100900460ff16158015612169576000805460ff1961ff0019909116610100171660011790555b61217282612c3b565b6101d2805460ff19169055801561218f576000805461ff00191690555b5050565b611cc761219f826122b9565b3383612cde565b60606121b1826123da565b6121ec5760405162461bcd60e51b815260040180806020018281038252602f815260200180613f9b602f913960400191505060405180910390fd5b600082815260d4602090815260409182902080548351601f60026000196101006001861615020190931692909204918201849004840281018401909452808452909183018282801561227f5780601f106122545761010080835404028352916020019161227f565b820191906000526020600020905b81548152906001019060200180831161226257829003601f168201915b50505050509050919050565b6001600160a01b03918216600090815260696020908152604080832093909416825291909152205460ff1690565b6000806122c5836118cb565b90506001600160a01b03811661230c5760405162461bcd60e51b8152600401808060200182810382526028815260200180613bbf6028913960400191505060405180910390fd5b600083815261023a60205260409020546001600160a01b03161561234a575050600081815261023a60205260409020546001600160a01b0316610eab565b9050610eab565b612359611e21565b6123aa576040805162461bcd60e51b815260206004820181905260248201527f4f776e61626c653a2063616c6c6572206973206e6f7420746865206f776e6572604482015290519081900360640190fd5b611cc781613043565b600090815261023e602052604090205460ff1690565b3390565b80546001019055565b5490565b6000908152606660205260409020546001600160a01b0316151590565b600061243983836040518060400160405280601e81526020017f536166654d6174683a207375627472616374696f6e206f766572666c6f7700008152506130e6565b9392505050565b3031811115612496576040805162461bcd60e51b815260206004820152601d60248201527f416464726573733a20696e73756666696369656e742062616c616e6365000000604482015290519081900360640190fd5b6040516000906001600160a01b0384169083908381818185875af1925050503d80600081146124e1576040519150601f19603f3d011682016040523d82523d6000602084013e6124e6565b606091505b50509050806113ae5760405162461bcd60e51b815260040180806020018281038252603a815260200180613d33603a913960400191505060405180910390fd5b6000612531826123da565b61256c5760405162461bcd60e51b815260040180806020018281038252602c815260200180613d6d602c913960400191505060405180910390fd5b6000612577836118cb565b9050806001600160a01b0316846001600160a01b031614806125b25750836001600160a01b03166125a784611083565b6001600160a01b0316145b806125c257506125c2818561228b565b949350505050565b6125d583838361317d565b6125df83826132c1565b6113ae82826133b6565b60006001600160a01b0382166126305760405162461bcd60e51b8152600401808060200182810382526022815260200180613f226022913960400191505060405180910390fd5b506001600160a01b03166000908152602091909152604090205460ff1690565b303b1590565b60006126686380ac58cd60e01b610e8d565b905090565b6001600160e01b031980821614156126cc576040805162461bcd60e51b815260206004820152601c60248201527f4552433136353a20696e76616c696420696e7465726661636520696400000000604482015290519081900360640190fd5b6001600160e01b0319166000908152603360205260409020805460ff19166001179055565b6126fb82826133f4565b61270582826133b6565b61218f81613525565b612717826123da565b6127525760405162461bcd60e51b815260040180806020018281038252602c815260200180613ec4602c913960400191505060405180910390fd5b600082815260d46020908152604090912082516113ae92840190613b0a565b600082820183811015612439576040805162461bcd60e51b815260206004820152601b60248201527f536166654d6174683a206164646974696f6e206f766572666c6f770000000000604482015290519081900360640190fd5b6127dd61019f8263ffffffff61356916565b6040516001600160a01b038216907fcd265ebaf09df2871cc7bd4133404a235ba12eff2041bb89d9c714a2621c7c7e90600090a250565b600054610100900460ff168061282d575061282d612650565b8061283b575060005460ff16155b6128765760405162461bcd60e51b815260040180806020018281038252602e815260200180613f44602e913960400191505060405180910390fd5b600054610100900460ff161580156128a1576000805460ff1961ff0019909116610100171660011790555b6128a96135d0565b611cb56380ac58cd60e01b61266d565b600054610100900460ff16806128d257506128d2612650565b806128e0575060005460ff16155b61291b5760405162461bcd60e51b815260040180806020018281038252602e815260200180613f44602e913960400191505060405180910390fd5b600054610100900460ff16158015612946576000805460ff1961ff0019909116610100171660011790555b61294e612656565b61295757600080fd5b611cb57f780e9d630000000000000000000000000000000000000000000000000000000061266d565b600054610100900460ff16806129995750612999612650565b806129a7575060005460ff16155b6129e25760405162461bcd60e51b815260040180806020018281038252602e815260200180613f44602e913960400191505060405180910390fd5b600054610100900460ff16158015612a0d576000805460ff1961ff0019909116610100171660011790555b612a15612656565b612a1e57600080fd5b612a26613686565b612a2f57600080fd5b612a3882613698565b801561218f576000805461ff00191690555050565b600054610100900460ff1680612a665750612a66612650565b80612a74575060005460ff16155b612aaf5760405162461bcd60e51b815260040180806020018281038252602e815260200180613f44602e913960400191505060405180910390fd5b600054610100900460ff16158015612ada576000805460ff1961ff0019909116610100171660011790555b6001610205558015611cc7576000805461ff001916905550565b612b0661019f8263ffffffff61373b16565b6040516001600160a01b038216907f6719d08c1888103bea251a4ed56406bd0c3e69723c8a1686e017e7bbe159b6f890600090a250565b612b4f6101078263ffffffff61373b16565b6040516001600160a01b038216907f6ae172837ea30b801fbfcdd4108aa1d5bf8ff775444fd70256b44e6bf3dfc3f690600090a250565b612b986101078263ffffffff61356916565b6040516001600160a01b038216907fe94479a9f7e1952cc78f2d6baab678adc1b772d936c6583def489e524cb6669290600090a250565b6001600160a01b03166000908152609c6020526040902090565b612bf48484846125ca565b612c00848484846137bc565b6120d65760405162461bcd60e51b8152600401808060200182810382526032815260200180613c386032913960400191505060405180910390fd5b600054610100900460ff1680612c545750612c54612650565b80612c62575060005460ff16155b612c9d5760405162461bcd60e51b815260040180806020018281038252602e815260200180613f44602e913960400191505060405180910390fd5b600054610100900460ff16158015612cc8576000805460ff1961ff0019909116610100171660011790555b612cd182611541565b612a3857612a3882612af4565b612ce7816123da565b612d38576040805162461bcd60e51b815260206004820152601760248201527f5468696e673a20746f6b656e20646f6e74206578697374000000000000000000604482015290519081900360640190fd5b6001600160a01b038216612d7d5760405162461bcd60e51b8152600401808060200182810382526023815260200180613e756023913960400191505060405180910390fd5b612d86816122b9565b6001600160a01b0316826001600160a01b03161415612dd65760405162461bcd60e51b8152600401808060200182810382526023815260200180613cec6023913960400191505060405180910390fd5b612ddf816123b3565b15612e1b5760405162461bcd60e51b8152600401808060200182810382526026815260200180613be76026913960400191505060405180910390fd5b6000612e26826118cb565b600083815261023860205260409020600201549091508015612f87576001600160a01b03808616600081815261024060205260408120549290919085161415612e70575080612e83565b612e80828463ffffffff6123f716565b90505b6001600160a01b03808716600081815261023f6020908152604080832054610240909252822054909390929088161415612ebe575080612ed1565b612ece828763ffffffff61277116565b90505b60408051878152602081018590528082018490526060810183905290517ff3ee2bbb0b9b66cf7c48e59107dadde90e37dd99b20f2fcc50b1a8929b6599109181900360800190a180831015612f575760405162461bcd60e51b8152600401808060200182810382526032815260200180613ef06032913960400191505060405180910390fd5b6001600160a01b03808b166000908152610240602052604080822096909655908a16815293909320929092555050505b846001600160a01b0316826001600160a01b031614612fcc57612faa858461392c565b6001600160a01b038516600090815261023b60205260409020612fcc90613a20565b836001600160a01b0316826001600160a01b03161461301157612fef8484613a37565b6001600160a01b038416600090815261023b60205260409020613011906123cd565b5050600090815261023a6020526040902080546001600160a01b0319166001600160a01b039290921691909117905550565b6001600160a01b0381166130885760405162461bcd60e51b8152600401808060200182810382526026815260200180613c9a6026913960400191505060405180910390fd5b61016c546040516001600160a01b038084169216907f8be0079c531659141344cd1fd0a4f28419497f9722a3daafe3b4186f6b6457e090600090a361016c80546001600160a01b0319166001600160a01b0392909216919091179055565b600081848411156131755760405162461bcd60e51b81526004018080602001828103825283818151815260200191508051906020019080838360005b8381101561313a578181015183820152602001613122565b50505050905090810190601f1680156131675780820380516001836020036101000a031916815260200191505b509250505060405180910390fd5b505050900390565b826001600160a01b0316613190826118cb565b6001600160a01b0316146131d55760405162461bcd60e51b8152600401808060200182810382526029815260200180613f726029913960400191505060405180910390fd5b6001600160a01b03821661321a5760405162461bcd60e51b8152600401808060200182810382526024815260200180613d0f6024913960400191505060405180910390fd5b61322381613a77565b6001600160a01b038316600090815260686020526040902061324490613a20565b6001600160a01b0382166000908152606860205260409020613265906123cd565b60008181526066602052604080822080546001600160a01b0319166001600160a01b0386811691821790925591518493918716917fddf252ad1be2c89b69c2b068fc378daa952ba7f163c4a11628f55a4df523b3ef91a4505050565b6001600160a01b0382166000908152609c60205260408120546132eb90600163ffffffff6123f716565b6000838152609d6020526040902054909150808214613386576001600160a01b0384166000908152609c6020526040812080548490811061332857fe5b9060005260206000200154905080609c6000876001600160a01b03166001600160a01b03168152602001908152602001600020838154811061336657fe5b6000918252602080832090910192909255918252609d9052604090208190555b6001600160a01b0384166000908152609c602052604090208054906133af906000198301613b84565b5050505050565b6001600160a01b039091166000908152609c602081815260408084208054868652609d84529185208290559282526001810183559183529091200155565b6001600160a01b03821661344f576040805162461bcd60e51b815260206004820181905260248201527f4552433732313a206d696e7420746f20746865207a65726f2061646472657373604482015290519081900360640190fd5b613458816123da565b156134aa576040805162461bcd60e51b815260206004820152601c60248201527f4552433732313a20746f6b656e20616c7265616479206d696e74656400000000604482015290519081900360640190fd5b600081815260666020908152604080832080546001600160a01b0319166001600160a01b0387169081179091558352606890915290206134e9906123cd565b60405181906001600160a01b038416906000907fddf252ad1be2c89b69c2b068fc378daa952ba7f163c4a11628f55a4df523b3ef908290a45050565b609e80546000838152609f60205260408120829055600182018355919091527fcfe2a20ff701a1f3e14f63bd70d6c6bc6fba8172ec6d5a505cdab3927c0a9de60155565b61357382826125e9565b6135ae5760405162461bcd60e51b8152600401808060200182810382526021815260200180613e546021913960400191505060405180910390fd5b6001600160a01b0316600090815260209190915260409020805460ff19169055565b600054610100900460ff16806135e957506135e9612650565b806135f7575060005460ff16155b6136325760405162461bcd60e51b815260040180806020018281038252602e815260200180613f44602e913960400191505060405180910390fd5b600054610100900460ff1615801561365d576000805460ff1961ff0019909116610100171660011790555b611cb57f01ffc9a70000000000000000000000000000000000000000000000000000000061266d565b6000612668635b5e139f60e01b610e8d565b600054610100900460ff16806136b157506136b1612650565b806136bf575060005460ff16155b6136fa5760405162461bcd60e51b815260040180806020018281038252602e815260200180613f44602e913960400191505060405180910390fd5b600054610100900460ff16158015613725576000805460ff1961ff0019909116610100171660011790555b61372e8261200d565b612a3857612a3882612b3d565b61374582826125e9565b15613797576040805162461bcd60e51b815260206004820152601f60248201527f526f6c65733a206163636f756e7420616c72656164792068617320726f6c6500604482015290519081900360640190fd5b6001600160a01b0316600090815260209190915260409020805460ff19166001179055565b60006137d0846001600160a01b0316613ab2565b6137dc575060016125c2565b6000846001600160a01b031663150b7a026137f56123c9565b8887876040518563ffffffff1660e01b815260040180856001600160a01b03166001600160a01b03168152602001846001600160a01b03166001600160a01b0316815260200183815260200180602001828103825283818151815260200191508051906020019080838360005b8381101561387a578181015183820152602001613862565b50505050905090810190601f1680156138a75780820380516001836020036101000a031916815260200191505b5095505050505050602060405180830381600087803b1580156138c957600080fd5b505af11580156138dd573d6000803e3d6000fd5b505050506040513d60208110156138f357600080fd5b50516001600160e01b0319167f150b7a020000000000000000000000000000000000000000000000000000000014915050949350505050565b6001600160a01b038216600090815261023c602052604081205461395790600163ffffffff6123f716565b600083815261023d60205260409020549091508082146139f6576001600160a01b038416600090815261023c6020526040812080548490811061399657fe5b906000526020600020015490508061023c6000876001600160a01b03166001600160a01b0316815260200190815260200160002083815481106139d557fe5b600091825260208083209091019290925591825261023d9052604090208190555b6001600160a01b038416600090815261023c602052604090208054906133af906000198301613b84565b8054613a3390600163ffffffff6123f716565b9055565b6001600160a01b03909116600090815261023c60208181526040808420805486865261023d84529185208290559282526001810183559183529091200155565b6000818152606760205260409020546001600160a01b031615611cc757600090815260676020526040902080546001600160a01b0319169055565b6000813f7fc5d2460186f7233c927e7db2dcc703c0e500b653ca82273b7bfad8045d85a47081158015906125c25750141592915050565b60405180606001604052806060815260200160608152602001600081525090565b828054600181600116156101000203166002900490600052602060002090601f016020900481019282601f10613b4b57805160ff1916838001178555613b78565b82800160010185558215613b78579182015b82811115613b78578251825591602001919060010190613b5d565b506112ec929150613ba4565b8154818355818111156113ae576000838152602090206113ae9181019083015b61108091905b808211156112ec5760008155600101613baa56fe5468696e673a206f776e657220717565727920666f72206e6f6e6578697374656e7420746f6b656e5468696e673a20746f6b656e206973206c6f636b65642c2063616e7420626f72726f77206974455243373231456e756d657261626c653a206f776e657220696e646578206f7574206f6620626f756e64734552433732313a207472616e7366657220746f206e6f6e20455243373231526563656976657220696d706c656d656e746572506175736572526f6c653a2063616c6c657220646f6573206e6f742068617665207468652050617573657220726f6c654f776e61626c653a206e6577206f776e657220697320746865207a65726f20616464726573735468696e673a206f6e6c7920746865206f776e6572206f66206120746f6b656e2063616e206c6f636b2069745468696e673a20796f7520616c726561647920626561722074686174206f626a6563744552433732313a207472616e7366657220746f20746865207a65726f2061646472657373416464726573733a20756e61626c6520746f2073656e642076616c75652c20726563697069656e74206d617920686176652072657665727465644552433732313a206f70657261746f7220717565727920666f72206e6f6e6578697374656e7420746f6b656e4552433732313a20617070726f76652063616c6c6572206973206e6f74206f776e6572206e6f7220617070726f76656420666f7220616c6c4552433732313a2062616c616e636520717565727920666f7220746865207a65726f20616464726573734552433732313a206f776e657220717565727920666f72206e6f6e6578697374656e7420746f6b656e4d696e746572526f6c653a2063616c6c657220646f6573206e6f74206861766520746865204d696e74657220726f6c65526f6c65733a206163636f756e7420646f6573206e6f74206861766520726f6c655468696e673a207472616e7366657220746f20746865207a65726f20616464726573734552433732313a20617070726f76656420717565727920666f72206e6f6e6578697374656e7420746f6b656e4552433732314d657461646174613a2055524920736574206f66206e6f6e6578697374656e7420746f6b656e5468696e673a206465706f736974206973206e6f7420656e6f75676820746f20626f72726f772074686973206f626a656374526f6c65733a206163636f756e7420697320746865207a65726f2061646472657373436f6e747261637420696e7374616e63652068617320616c7265616479206265656e20696e697469616c697a65644552433732313a207472616e73666572206f6620746f6b656e2074686174206973206e6f74206f776e4552433732314d657461646174613a2055524920717565727920666f72206e6f6e6578697374656e7420746f6b656e4552433732313a20617070726f76616c20746f2063757272656e74206f776e65724552433732313a207472616e736665722063616c6c6572206973206e6f74206f776e6572206e6f7220617070726f766564455243373231456e756d657261626c653a20676c6f62616c20696e646578206f7574206f6620626f756e6473516d577a71334b6a786f337a536553334b5278543673757071396b375a42526356474778416b4a6d7059744d4e43a265627a7a72315820eed5fce2a95ab8a5962efca42e32ce33ddee6228ac74d3fa2479497dcb98710164736f6c634300050b0032",
  "source": "pragma solidity 0.5.11; //SEC fix compiler version\n\nimport '@openzeppelin/upgrades/contracts/Initializable.sol';\nimport '@openzeppelin/contracts-ethereum-package/contracts/ownership/Ownable.sol';\nimport '@openzeppelin/contracts-ethereum-package/contracts/lifecycle/Pausable.sol';\nimport '@openzeppelin/contracts-ethereum-package/contracts/math/SafeMath.sol';\nimport '@openzeppelin/contracts-ethereum-package/contracts/drafts/Counters.sol';\n\nimport '@openzeppelin/contracts-ethereum-package/contracts/utils/Address.sol';\nimport '@openzeppelin/contracts-ethereum-package/contracts/utils/ReentrancyGuard.sol';\n\nimport '@openzeppelin/contracts-ethereum-package/contracts/token/ERC721/ERC721.sol';\nimport '@openzeppelin/contracts-ethereum-package/contracts/token/ERC721/ERC721Enumerable.sol';\n//import '@openzeppelin/contracts-ethereum-package/contracts/token/ERC721/ERC721Full.sol';\nimport '@openzeppelin/contracts-ethereum-package/contracts/token/ERC721/ERC721MetadataMintable.sol';\n//import '@openzeppelin/contracts-ethereum-package/contracts/token/ERC721/ERC721Mintable.sol';\n//import '@openzeppelin/contracts-ethereum-package/contracts/token/ERC721/ERC721Pausable.sol';\n\n/**\n * @title Thing\n * @author Fred\n * @notice Allow to share & borrow things (Non Fungible Tokens) in a secure way\n * @dev Upgradable contract built on OpenZeppelin ERC721 implementation with extensions\n */\ncontract Thing is\n            Initializable  /// required for contract upgradability\n            //ERC721Full,     /// Initializable/ERC721/ERC721Enumerable/ERC721Metadata\n            , ERC721\n            , ERC721Enumerable\n            , ERC721MetadataMintable /// Initializable/ERC721/MinterRole\n            //, ERC721Pausable\n            , Ownable\n            , Pausable\n            , ReentrancyGuard\n        {\n  using SafeMath for uint256;\n  using Counters for Counters.Counter;\n  using Address for address payable;\n\n\n  // FEATURE 2 : token metadata (on-chain)\n  struct Metadata {\n    string name;\n    string picture; //IPFS hash\n    uint256 deposit;\n  }\n\n  mapping(uint256 => Metadata) private metadatas;\n\n  // FEATURE 3 : tokenId auto-increment\n  Counters.Counter private counterTokenIds;\n\n  // FEATURE 4 : borrowing of token\n  //Mapping from token ID to bearer\n  mapping(uint256 => address) private _tokenBearer;\n  // Mapping from bearer to number of beared token\n  mapping (address => Counters.Counter) private _borrowedTokensCount; //TODO not only bearer\n  // Mapping from bearer to list of beared token IDs\n  mapping(address => uint256[]) private _bearedTokens;\n  // Mapping from token ID to index of the bearer tokens list\n  mapping(uint256 => uint256) private _bearedTokensIndex;\n\n  // FEATURE 5 : locking of token borrowing\n  mapping(uint256 => bool) private locked; //array would be very inefficient for this since there is no contains function\n\n  // FEATURE 6 : deposit\n  mapping(address => uint256) private balances;\n  // we create a mapping of current required min balance per user according to the currently beared things.\n  mapping(address => uint256) private requiredBalances;\n\n\n  // EVENTS\n\n\n  /**\n   * @dev Initializer used for tests\n   */\n  /*\n  function initialize(address owner, address pauser, address minter) public initializer {\n    ERC721.initialize();\n    ERC721Enumerable.initialize();\n    //ERC721Metadata.initialize(\"Thing\", \"TG1\");\n    ERC721Mintable.initialize(minter);\n    //ERC721Pausable.initialize(pauser);\n    /// do we need another/instead\n    Pausable.initialize(pauser);\n    Ownable.initialize(owner);\n    ReentrancyGuard.initialize();\n  }*/\n\n\n  function initialize() public initializer {\n    ERC721.initialize();\n    ERC721Enumerable.initialize();\n    ERC721Metadata.initialize(\"Thing\", \"TG1\");\n    ERC721MetadataMintable.initialize(msg.sender);\n    //ERC721Pausable.initialize(msg.sender);\n    /// do we need another/instead\n    //Pausable.initialize(msg.sender); FIXME\n    //Ownable.initialize(msg.sender); FIXME\n    ReentrancyGuard.initialize();\n  }\n\n  // FEATURE 1 : killable contract\n  /*\n  function kill() public onlyOwner {\n    address payable owner = address(uint160(owner()));\n    selfdestruct(owner);\n  }*/\n\n/*\n  function mint() public returns (uint256) {\n    return mint(\"Test\", \"QmWzq3Kjxo3zSeS3KRxT6supq9k7ZBRcVGGxAkJmpYtMNC\", 1);\n  }*/\n\n/*\n  function mint(string memory name) public returns (uint256) {\n    return mint(name, \"QmWzq3Kjxo3zSeS3KRxT6supq9k7ZBRcVGGxAkJmpYtMNC\", 0);\n  }\n\n  function mint(string memory name, uint256 deposit) public returns (uint256) {\n    return mint(name, \"QmWzq3Kjxo3zSeS3KRxT6supq9k7ZBRcVGGxAkJmpYtMNC\", deposit);\n  }*/\n\n  function mint(string memory metadataIpfsHash, uint256 deposit) public onlyMinter returns (uint256) {\n\n    // Make sure we have a new tokenId with the help of Counter\n    counterTokenIds.increment();\n    uint256 newTokenId = counterTokenIds.current();\n\n    Metadata memory metadata = Metadata({\n      name: \"old\",\n      picture: \"QmWzq3Kjxo3zSeS3KRxT6supq9k7ZBRcVGGxAkJmpYtMNC\",\n      deposit: deposit\n    });\n\n    //uint256 tokenId = metadatas.push(metadata) - 1;\n    metadatas[newTokenId] = metadata;\n\n    //super._mint(msg.sender, newTokenId);\n    super.mintWithTokenURI(msg.sender, newTokenId, metadataIpfsHash);\n    //mintWithTokenURI(address to, uint256 tokenId, string memory tokenURI)\n    return newTokenId;\n  }\n\n\n\n  // FEATURE 4 : borrowing of token\n    /**\n     * @dev Gets the bearer or bearer of the specified token ID.\n     * @param tokenId uint256 ID of the token to query the bearer of\n     * @return address currently marked as the bearer or owner of the given token ID\n     */\n    function bearerOf(uint256 tokenId) public view returns (address) {\n        address owner = ownerOf(tokenId);\n        require(owner != address(0), \"Thing: owner query for nonexistent token\");\n\n        if(_tokenBearer[tokenId] != address(0)) {\n            return _tokenBearer[tokenId];\n        } else {\n            return owner;\n        }\n    }\n\n\n    /**\n     * @dev Private function to add a token to this extension's bearership-tracking data structures.\n     * @param to address representing the new bearer of the given token ID\n     * @param tokenId uint256 ID of the token to be added to the tokens list of the given address\n     */\n    function _addTokenToBearerEnumeration(address to, uint256 tokenId) private {\n        _bearedTokensIndex[tokenId] = _bearedTokens[to].length;\n        _bearedTokens[to].push(tokenId);\n    }\n\n    /**\n     * @dev Private function to remove a token from this extension's ownership-tracking data structures. Note that\n     * while the token is not assigned a new bearer, the _ownedTokensIndex mapping is _not_ updated: this allows for\n     * gas optimizations e.g. when performing a transfer operation (avoiding double writes).\n     * This has O(1) time complexity, but alters the order of the _ownedTokens array.\n     * @param from address representing the previous bearer of the given token ID\n     * @param tokenId uint256 ID of the token to be removed from the tokens list of the given address\n     */\n    function _removeTokenFromBearerEnumeration(address from, uint256 tokenId) private {\n        // To prevent a gap in from's tokens array, we store the last token in the index of the token to delete, and\n        // then delete the last slot (swap and pop).\n\n        uint256 lastTokenIndex = _bearedTokens[from].length.sub(1);\n        uint256 tokenIndex = _bearedTokensIndex[tokenId];\n\n        // When the token to delete is the last token, the swap operation is unnecessary\n        if (tokenIndex != lastTokenIndex) {\n            uint256 lastTokenId = _bearedTokens[from][lastTokenIndex];\n\n            _bearedTokens[from][tokenIndex] = lastTokenId; // Move the last token to the slot of the to-delete token\n            _bearedTokensIndex[lastTokenId] = tokenIndex; // Update the moved token's index\n        }\n\n        // This also deletes the contents at the last position of the array\n        _bearedTokens[from].length--;\n    }\n\n\n    /**\n     * @dev Transfers the bearing of a given token ID to another address.\n     * Requires the from to be the bearer\n     * @param tokenId uint256 ID of the token to be borrowed\n     */\n    function borrow(uint256 tokenId) public {\n        //TODO require process\n        //require(bearerOf(tokenId) == from, \"Things: transfer of token that is not beared\");\n        _borrowFrom(bearerOf(tokenId), msg.sender, tokenId);\n    }\n\n    event Debug(uint256 requiredDeposit, uint256 currentBalance, uint256 currentRequiredBalance, uint256 newRequiredBalance);\n\n    /**\n     * @dev Internal function to borrow a given token ID.\n     * As opposed to borrowFrom, this imposes no restrictions on msg.sender.\n     * @param from current bearer of the token\n     * @param to receipient\n     * @param tokenId uint256 ID of the token to be transferred\n     */\n    function _borrowFrom(address from, address to, uint256 tokenId) internal {\n        require(_exists(tokenId), \"Thing: token dont exist\");\n        require(to != address(0), \"Thing: transfer to the zero address\");\n        require(to != bearerOf(tokenId), \"Thing: you already bear that object\");\n        require(!isLocked(tokenId), \"Thing: token is locked, cant borrow it\");\n        //require(!paused());//, \"Paused\");\n\n        address owner = ownerOf(tokenId);\n\n        // FEATURE 6 : deposit\n        uint256 requiredDeposit = metadatas[tokenId].deposit;\n\n        // TODO We have to manage the fact that the owner do not need a deposit\n        if(requiredDeposit > 0) {\n          //check user current balance\n\n          //uint256 currentFromBalance = balances[from];\n          uint256 currentFromRequiredBalance = requiredBalances[from];\n          uint256 newFromRequiredBalance;\n          if(from == owner) {\n            newFromRequiredBalance = currentFromRequiredBalance;\n          } else {\n            newFromRequiredBalance = currentFromRequiredBalance.sub(requiredDeposit);\n          }\n\n          uint256 currentToBalance = balances[to];\n          uint256 currentToRequiredBalance = requiredBalances[to];\n          uint256 newToRequiredBalance;\n          if(to == owner) {\n            newToRequiredBalance = currentToRequiredBalance;\n          } else {\n            newToRequiredBalance = currentToRequiredBalance.add(requiredDeposit);\n          }\n\n          emit Debug(requiredDeposit, currentToBalance, currentToRequiredBalance, newToRequiredBalance);\n\n          // we want that the cuurent balance of the receipient (to) to be enought\n          require(currentToBalance >= newToRequiredBalance, \"Thing: deposit is not enough to borrow this object\");\n\n          // we need to update the required balance for both from and to, taking into account that from or to can be the owner\n          requiredBalances[from] = newFromRequiredBalance;\n          requiredBalances[to] = newToRequiredBalance;\n\n\n        }\n        // /END FEATURE 6 : deposit\n\n\n        if(owner != from) {\n            _removeTokenFromBearerEnumeration(from, tokenId);\n            _borrowedTokensCount[from].decrement();\n        }\n        if(owner != to)   {\n            _addTokenToBearerEnumeration(to, tokenId);\n            _borrowedTokensCount[to].increment();\n        }\n\n        _tokenBearer[tokenId] = to;\n\n    }\n\n\n\n\n    // FEATURE 5 : locking of token borrowing\n    function lockToken(uint256 tokenId) public {\n      require(_exists(tokenId), \"Thing: token dont exist\");\n      require(ownerOf(tokenId) == msg.sender, \"Thing: only the owner of a token can lock it\");\n\n      locked[tokenId] = true;\n    }\n\n    function isLocked(uint256 tokenId) public view returns (bool) {\n        return locked[tokenId];\n    }\n\n    /*modifier onlyUnlocked(uint256 tokenId) {\n        require(isLocked(tokenId), \"Thing: the token is locked\");\n        _;\n    }*/\n\n    // FEATURE 6 : deposit\n    function getDepositBalances() public view returns (uint256 balance, uint256 requiredBalance) {\n      balance = balances[msg.sender];\n      requiredBalance = requiredBalances[msg.sender];\n    }\n\n\n    function fundDeposit() public payable returns (uint256) {\n      require(msg.value > 0, \"Thing: Sent value <= 0\");\n\n      //FIXME there is probably a security problem here\n      uint256 newBalance = balances[msg.sender].add(msg.value);\n      balances[msg.sender] = newBalance;\n\n      //emit DepositMade(msg.sender, msg.value);\n\n      return balances[msg.sender];\n    }\n\n    /**\n     * @dev withdraw the max fund authorized, meaning requiredBalance\n     */\n    function withdrawDeposit() public payable nonReentrant() returns (uint256) {\n      uint256 currentBalance = balances[msg.sender];\n      uint256 requiredBalance = requiredBalances[msg.sender];\n      //require(currentBalance > requiredBalance, \"not enough\");\n      uint256 withdrawAmount = currentBalance.sub(requiredBalance);\n\n      // FIXME security, starts from https://forum.openzeppelin.com/t/openzeppelin-contracts-v2-4/1665\n      msg.sender.sendValue(withdrawAmount);\n      balances[msg.sender] = balances[msg.sender].sub(withdrawAmount);\n\n      uint256 newBalance = balances[msg.sender];\n\n      //emit LogWithdrawal(msg.sender, withdrawAmount, newBalance);\n\n      return newBalance;\n    }\n\n\n\n    //////////////////////////\n    // Client / UI functions\n    //////////////////////////\n\n    function getTokensOfBearer() public view returns (uint256[] memory) {\n        return _bearedTokens[msg.sender];\n    }\n\n    function getTokensOfOwner() public view returns (uint256[] memory) {\n      return _tokensOfOwner(msg.sender);\n    }\n\n  function getTokenMetadata(uint256 tokenId) public view\n    returns (uint256 id,\n             string memory name,\n             string memory picture,\n             uint256 deposit,\n             address owner,\n             address bearer,\n             bool lock\n             ) {\n\n            Metadata memory metadata = metadatas[tokenId];\n\n            id = tokenId;\n            //name = metadata[tokenId];\n            //description = _description[tokenId];\n            //picture = _picture[tokenId];\n            name = metadata.name;\n            picture = metadata.picture;\n            deposit = metadata.deposit;\n            owner = ownerOf(tokenId);\n            bearer = bearerOf(tokenId);\n            lock = isLocked(tokenId);\n    }\n\n}",
  "sourcePath": "/home/eth1/dev/git/bcproject/contracts/Thing1.sol",
  "compiler": {
    "name": "solc",
    "version": "0.5.11+commit.c082d0b4.Emscripten.clang"
  },
  "schemaVersion": "3.0.16",
  "updatedAt": "2020-01-26T21:38:14.234Z",
  "devdoc": {
    "author": "Fred",
    "details": "Upgradable contract built on OpenZeppelin ERC721 implementation with extensions",
    "methods": {
      "approve(address,uint256)": {
        "details": "Approves another address to transfer the given token ID The zero address indicates there is no approved address. There can only be one approved address per token at a given time. Can only be called by the token owner or an approved operator.",
        "params": {
          "to": "address to be approved for the given token ID",
          "tokenId": "uint256 ID of the token to be approved"
        }
      },
      "balanceOf(address)": {
        "details": "Gets the balance of the specified address.",
        "params": {
          "owner": "address to query the balance of"
        },
        "return": "uint256 representing the amount owned by the passed address"
      },
      "bearerOf(uint256)": {
        "details": "Gets the bearer or bearer of the specified token ID.",
        "params": {
          "tokenId": "uint256 ID of the token to query the bearer of"
        },
        "return": "address currently marked as the bearer or owner of the given token ID"
      },
      "borrow(uint256)": {
        "details": "Transfers the bearing of a given token ID to another address. Requires the from to be the bearer",
        "params": {
          "tokenId": "uint256 ID of the token to be borrowed"
        }
      },
      "getApproved(uint256)": {
        "details": "Gets the approved address for a token ID, or zero if no address set Reverts if the token ID does not exist.",
        "params": {
          "tokenId": "uint256 ID of the token to query the approval of"
        },
        "return": "address currently approved for the given token ID"
      },
      "initialize()": {
        "details": "Initializer used for tests"
      },
      "initialize(address)": {
        "details": "Initializes the contract in unpaused state. Assigns the Pauser role to the deployer."
      },
      "initialize(string,string)": {
        "details": "Constructor function"
      },
      "isApprovedForAll(address,address)": {
        "details": "Tells whether an operator is approved by a given owner.",
        "params": {
          "operator": "operator address which you want to query the approval of",
          "owner": "owner address which you want to query the approval of"
        },
        "return": "bool whether the given operator is approved by the given owner"
      },
      "isOwner()": {
        "details": "Returns true if the caller is the current owner."
      },
      "mintWithTokenURI(address,uint256,string)": {
        "details": "Function to mint tokens.",
        "params": {
          "to": "The address that will receive the minted tokens.",
          "tokenId": "The token id to mint.",
          "tokenURI": "The token URI of the minted token."
        },
        "return": "A boolean that indicates if the operation was successful."
      },
      "name()": {
        "details": "Gets the token name.",
        "return": "string representing the token name"
      },
      "owner()": {
        "details": "Returns the address of the current owner."
      },
      "ownerOf(uint256)": {
        "details": "Gets the owner of the specified token ID.",
        "params": {
          "tokenId": "uint256 ID of the token to query the owner of"
        },
        "return": "address currently marked as the owner of the given token ID"
      },
      "pause()": {
        "details": "Called by a pauser to pause, triggers stopped state."
      },
      "paused()": {
        "details": "Returns true if the contract is paused, and false otherwise."
      },
      "renounceOwnership()": {
        "details": "Leaves the contract without owner. It will not be possible to call `onlyOwner` functions anymore. Can only be called by the current owner.     * > Note: Renouncing ownership will leave the contract without an owner, thereby removing any functionality that is only available to the owner."
      },
      "safeTransferFrom(address,address,uint256)": {
        "details": "Safely transfers the ownership of a given token ID to another address If the target address is a contract, it must implement {IERC721Receiver-onERC721Received}, which is called upon a safe transfer, and return the magic value `bytes4(keccak256(\"onERC721Received(address,address,uint256,bytes)\"))`; otherwise, the transfer is reverted. Requires the msg.sender to be the owner, approved, or operator",
        "params": {
          "from": "current owner of the token",
          "to": "address to receive the ownership of the given token ID",
          "tokenId": "uint256 ID of the token to be transferred"
        }
      },
      "safeTransferFrom(address,address,uint256,bytes)": {
        "details": "Safely transfers the ownership of a given token ID to another address If the target address is a contract, it must implement {IERC721Receiver-onERC721Received}, which is called upon a safe transfer, and return the magic value `bytes4(keccak256(\"onERC721Received(address,address,uint256,bytes)\"))`; otherwise, the transfer is reverted. Requires the _msgSender() to be the owner, approved, or operator",
        "params": {
          "_data": "bytes data to send along with a safe transfer check",
          "from": "current owner of the token",
          "to": "address to receive the ownership of the given token ID",
          "tokenId": "uint256 ID of the token to be transferred"
        }
      },
      "setApprovalForAll(address,bool)": {
        "details": "Sets or unsets the approval of a given operator An operator is allowed to transfer all tokens of the sender on their behalf.",
        "params": {
          "approved": "representing the status of the approval to be set",
          "to": "operator address to set the approval"
        }
      },
      "supportsInterface(bytes4)": {
        "details": "See {IERC165-supportsInterface}.     * Time complexity O(1), guaranteed to always use less than 30 000 gas."
      },
      "symbol()": {
        "details": "Gets the token symbol.",
        "return": "string representing the token symbol"
      },
      "tokenByIndex(uint256)": {
        "details": "Gets the token ID at a given index of all the tokens in this contract Reverts if the index is greater or equal to the total number of tokens.",
        "params": {
          "index": "uint256 representing the index to be accessed of the tokens list"
        },
        "return": "uint256 token ID at the given index of the tokens list"
      },
      "tokenOfOwnerByIndex(address,uint256)": {
        "details": "Gets the token ID at a given index of the tokens list of the requested owner.",
        "params": {
          "index": "uint256 representing the index to be accessed of the requested tokens list",
          "owner": "address owning the tokens list to be accessed"
        },
        "return": "uint256 token ID at the given index of the tokens list owned by the requested address"
      },
      "tokenURI(uint256)": {
        "details": "Returns an URI for a given token ID. Throws if the token ID does not exist. May return an empty string.",
        "params": {
          "tokenId": "uint256 ID of the token to query"
        }
      },
      "totalSupply()": {
        "details": "Gets the total amount of tokens stored by the contract.",
        "return": "uint256 representing the total amount of tokens"
      },
      "transferFrom(address,address,uint256)": {
        "details": "Transfers the ownership of a given token ID to another address. Usage of this method is discouraged, use {safeTransferFrom} whenever possible. Requires the msg.sender to be the owner, approved, or operator.",
        "params": {
          "from": "current owner of the token",
          "to": "address to receive the ownership of the given token ID",
          "tokenId": "uint256 ID of the token to be transferred"
        }
      },
      "transferOwnership(address)": {
        "details": "Transfers ownership of the contract to a new account (`newOwner`). Can only be called by the current owner."
      },
      "unpause()": {
        "details": "Called by a pauser to unpause, returns to normal state."
      },
      "withdrawDeposit()": {
        "details": "withdraw the max fund authorized, meaning requiredBalance"
      }
    },
    "title": "Thing"
  },
  "userdoc": {
    "methods": {
      "getTokensOfBearer()": {
        "notice": "///////////////////////"
      }
    },
    "notice": "Allow to share & borrow things (Non Fungible Tokens) in a secure way"
  }
}