{
  "contractName": "Thing",
  "abi": [
    {
      "constant": true,
      "inputs": [
        {
          "internalType": "bytes4",
          "name": "interfaceId",
          "type": "bytes4"
        }
      ],
      "name": "supportsInterface",
      "outputs": [
        {
          "internalType": "bool",
          "name": "",
          "type": "bool"
        }
      ],
      "payable": false,
      "stateMutability": "view",
      "type": "function"
    },
    {
      "constant": true,
      "inputs": [],
      "name": "name",
      "outputs": [
        {
          "internalType": "string",
          "name": "",
          "type": "string"
        }
      ],
      "payable": false,
      "stateMutability": "view",
      "type": "function"
    },
    {
      "constant": true,
      "inputs": [
        {
          "internalType": "uint256",
          "name": "tokenId",
          "type": "uint256"
        }
      ],
      "name": "getApproved",
      "outputs": [
        {
          "internalType": "address",
          "name": "",
          "type": "address"
        }
      ],
      "payable": false,
      "stateMutability": "view",
      "type": "function"
    },
    {
      "constant": false,
      "inputs": [
        {
          "internalType": "address",
          "name": "to",
          "type": "address"
        },
        {
          "internalType": "uint256",
          "name": "tokenId",
          "type": "uint256"
        }
      ],
      "name": "approve",
      "outputs": [],
      "payable": false,
      "stateMutability": "nonpayable",
      "type": "function"
    },
    {
      "constant": true,
      "inputs": [],
      "name": "totalSupply",
      "outputs": [
        {
          "internalType": "uint256",
          "name": "",
          "type": "uint256"
        }
      ],
      "payable": false,
      "stateMutability": "view",
      "type": "function"
    },
    {
      "constant": false,
      "inputs": [
        {
          "internalType": "address",
          "name": "from",
          "type": "address"
        },
        {
          "internalType": "address",
          "name": "to",
          "type": "address"
        },
        {
          "internalType": "uint256",
          "name": "tokenId",
          "type": "uint256"
        }
      ],
      "name": "transferFrom",
      "outputs": [],
      "payable": false,
      "stateMutability": "nonpayable",
      "type": "function"
    },
    {
      "constant": true,
      "inputs": [
        {
          "internalType": "address",
          "name": "owner",
          "type": "address"
        },
        {
          "internalType": "uint256",
          "name": "index",
          "type": "uint256"
        }
      ],
      "name": "tokenOfOwnerByIndex",
      "outputs": [
        {
          "internalType": "uint256",
          "name": "",
          "type": "uint256"
        }
      ],
      "payable": false,
      "stateMutability": "view",
      "type": "function"
    },
    {
      "constant": false,
      "inputs": [],
      "name": "unpause",
      "outputs": [],
      "payable": false,
      "stateMutability": "nonpayable",
      "type": "function"
    },
    {
      "constant": false,
      "inputs": [
        {
          "internalType": "address",
          "name": "from",
          "type": "address"
        },
        {
          "internalType": "address",
          "name": "to",
          "type": "address"
        },
        {
          "internalType": "uint256",
          "name": "tokenId",
          "type": "uint256"
        }
      ],
      "name": "safeTransferFrom",
      "outputs": [],
      "payable": false,
      "stateMutability": "nonpayable",
      "type": "function"
    },
    {
      "constant": true,
      "inputs": [
        {
          "internalType": "address",
          "name": "account",
          "type": "address"
        }
      ],
      "name": "isPauser",
      "outputs": [
        {
          "internalType": "bool",
          "name": "",
          "type": "bool"
        }
      ],
      "payable": false,
      "stateMutability": "view",
      "type": "function"
    },
    {
      "constant": false,
      "inputs": [
        {
          "internalType": "string",
          "name": "name",
          "type": "string"
        },
        {
          "internalType": "string",
          "name": "symbol",
          "type": "string"
        }
      ],
      "name": "initialize",
      "outputs": [],
      "payable": false,
      "stateMutability": "nonpayable",
      "type": "function"
    },
    {
      "constant": true,
      "inputs": [
        {
          "internalType": "uint256",
          "name": "index",
          "type": "uint256"
        }
      ],
      "name": "tokenByIndex",
      "outputs": [
        {
          "internalType": "uint256",
          "name": "",
          "type": "uint256"
        }
      ],
      "payable": false,
      "stateMutability": "view",
      "type": "function"
    },
    {
      "constant": false,
      "inputs": [
        {
          "internalType": "address",
          "name": "to",
          "type": "address"
        },
        {
          "internalType": "uint256",
          "name": "tokenId",
          "type": "uint256"
        },
        {
          "internalType": "string",
          "name": "tokenURI",
          "type": "string"
        }
      ],
      "name": "mintWithTokenURI",
      "outputs": [
        {
          "internalType": "bool",
          "name": "",
          "type": "bool"
        }
      ],
      "payable": false,
      "stateMutability": "nonpayable",
      "type": "function"
    },
    {
      "constant": true,
      "inputs": [],
      "name": "paused",
      "outputs": [
        {
          "internalType": "bool",
          "name": "",
          "type": "bool"
        }
      ],
      "payable": false,
      "stateMutability": "view",
      "type": "function"
    },
    {
      "constant": true,
      "inputs": [
        {
          "internalType": "uint256",
          "name": "tokenId",
          "type": "uint256"
        }
      ],
      "name": "ownerOf",
      "outputs": [
        {
          "internalType": "address",
          "name": "",
          "type": "address"
        }
      ],
      "payable": false,
      "stateMutability": "view",
      "type": "function"
    },
    {
      "constant": false,
      "inputs": [],
      "name": "renouncePauser",
      "outputs": [],
      "payable": false,
      "stateMutability": "nonpayable",
      "type": "function"
    },
    {
      "constant": true,
      "inputs": [
        {
          "internalType": "address",
          "name": "owner",
          "type": "address"
        }
      ],
      "name": "balanceOf",
      "outputs": [
        {
          "internalType": "uint256",
          "name": "",
          "type": "uint256"
        }
      ],
      "payable": false,
      "stateMutability": "view",
      "type": "function"
    },
    {
      "constant": false,
      "inputs": [],
      "name": "renounceOwnership",
      "outputs": [],
      "payable": false,
      "stateMutability": "nonpayable",
      "type": "function"
    },
    {
      "constant": false,
      "inputs": [],
      "name": "initialize",
      "outputs": [],
      "payable": false,
      "stateMutability": "nonpayable",
      "type": "function"
    },
    {
      "constant": false,
      "inputs": [
        {
          "internalType": "address",
          "name": "account",
          "type": "address"
        }
      ],
      "name": "addPauser",
      "outputs": [],
      "payable": false,
      "stateMutability": "nonpayable",
      "type": "function"
    },
    {
      "constant": false,
      "inputs": [],
      "name": "pause",
      "outputs": [],
      "payable": false,
      "stateMutability": "nonpayable",
      "type": "function"
    },
    {
      "constant": true,
      "inputs": [],
      "name": "owner",
      "outputs": [
        {
          "internalType": "address",
          "name": "",
          "type": "address"
        }
      ],
      "payable": false,
      "stateMutability": "view",
      "type": "function"
    },
    {
      "constant": true,
      "inputs": [],
      "name": "isOwner",
      "outputs": [
        {
          "internalType": "bool",
          "name": "",
          "type": "bool"
        }
      ],
      "payable": false,
      "stateMutability": "view",
      "type": "function"
    },
    {
      "constant": true,
      "inputs": [],
      "name": "symbol",
      "outputs": [
        {
          "internalType": "string",
          "name": "",
          "type": "string"
        }
      ],
      "payable": false,
      "stateMutability": "view",
      "type": "function"
    },
    {
      "constant": false,
      "inputs": [
        {
          "internalType": "address",
          "name": "account",
          "type": "address"
        }
      ],
      "name": "addMinter",
      "outputs": [],
      "payable": false,
      "stateMutability": "nonpayable",
      "type": "function"
    },
    {
      "constant": false,
      "inputs": [],
      "name": "renounceMinter",
      "outputs": [],
      "payable": false,
      "stateMutability": "nonpayable",
      "type": "function"
    },
    {
      "constant": false,
      "inputs": [
        {
          "internalType": "address",
          "name": "to",
          "type": "address"
        },
        {
          "internalType": "bool",
          "name": "approved",
          "type": "bool"
        }
      ],
      "name": "setApprovalForAll",
      "outputs": [],
      "payable": false,
      "stateMutability": "nonpayable",
      "type": "function"
    },
    {
      "constant": true,
      "inputs": [
        {
          "internalType": "address",
          "name": "account",
          "type": "address"
        }
      ],
      "name": "isMinter",
      "outputs": [
        {
          "internalType": "bool",
          "name": "",
          "type": "bool"
        }
      ],
      "payable": false,
      "stateMutability": "view",
      "type": "function"
    },
    {
      "constant": false,
      "inputs": [
        {
          "internalType": "address",
          "name": "from",
          "type": "address"
        },
        {
          "internalType": "address",
          "name": "to",
          "type": "address"
        },
        {
          "internalType": "uint256",
          "name": "tokenId",
          "type": "uint256"
        },
        {
          "internalType": "bytes",
          "name": "_data",
          "type": "bytes"
        }
      ],
      "name": "safeTransferFrom",
      "outputs": [],
      "payable": false,
      "stateMutability": "nonpayable",
      "type": "function"
    },
    {
      "constant": false,
      "inputs": [
        {
          "internalType": "address",
          "name": "sender",
          "type": "address"
        }
      ],
      "name": "initialize",
      "outputs": [],
      "payable": false,
      "stateMutability": "nonpayable",
      "type": "function"
    },
    {
      "constant": true,
      "inputs": [
        {
          "internalType": "uint256",
          "name": "tokenId",
          "type": "uint256"
        }
      ],
      "name": "tokenURI",
      "outputs": [
        {
          "internalType": "string",
          "name": "",
          "type": "string"
        }
      ],
      "payable": false,
      "stateMutability": "view",
      "type": "function"
    },
    {
      "constant": true,
      "inputs": [
        {
          "internalType": "address",
          "name": "owner",
          "type": "address"
        },
        {
          "internalType": "address",
          "name": "operator",
          "type": "address"
        }
      ],
      "name": "isApprovedForAll",
      "outputs": [
        {
          "internalType": "bool",
          "name": "",
          "type": "bool"
        }
      ],
      "payable": false,
      "stateMutability": "view",
      "type": "function"
    },
    {
      "constant": false,
      "inputs": [
        {
          "internalType": "address",
          "name": "newOwner",
          "type": "address"
        }
      ],
      "name": "transferOwnership",
      "outputs": [],
      "payable": false,
      "stateMutability": "nonpayable",
      "type": "function"
    },
    {
      "anonymous": false,
      "inputs": [
        {
          "indexed": false,
          "internalType": "address",
          "name": "account",
          "type": "address"
        }
      ],
      "name": "Paused",
      "type": "event"
    },
    {
      "anonymous": false,
      "inputs": [
        {
          "indexed": false,
          "internalType": "address",
          "name": "account",
          "type": "address"
        }
      ],
      "name": "Unpaused",
      "type": "event"
    },
    {
      "anonymous": false,
      "inputs": [
        {
          "indexed": true,
          "internalType": "address",
          "name": "account",
          "type": "address"
        }
      ],
      "name": "PauserAdded",
      "type": "event"
    },
    {
      "anonymous": false,
      "inputs": [
        {
          "indexed": true,
          "internalType": "address",
          "name": "account",
          "type": "address"
        }
      ],
      "name": "PauserRemoved",
      "type": "event"
    },
    {
      "anonymous": false,
      "inputs": [
        {
          "indexed": true,
          "internalType": "address",
          "name": "previousOwner",
          "type": "address"
        },
        {
          "indexed": true,
          "internalType": "address",
          "name": "newOwner",
          "type": "address"
        }
      ],
      "name": "OwnershipTransferred",
      "type": "event"
    },
    {
      "anonymous": false,
      "inputs": [
        {
          "indexed": true,
          "internalType": "address",
          "name": "account",
          "type": "address"
        }
      ],
      "name": "MinterAdded",
      "type": "event"
    },
    {
      "anonymous": false,
      "inputs": [
        {
          "indexed": true,
          "internalType": "address",
          "name": "account",
          "type": "address"
        }
      ],
      "name": "MinterRemoved",
      "type": "event"
    },
    {
      "anonymous": false,
      "inputs": [
        {
          "indexed": true,
          "internalType": "address",
          "name": "from",
          "type": "address"
        },
        {
          "indexed": true,
          "internalType": "address",
          "name": "to",
          "type": "address"
        },
        {
          "indexed": true,
          "internalType": "uint256",
          "name": "tokenId",
          "type": "uint256"
        }
      ],
      "name": "Transfer",
      "type": "event"
    },
    {
      "anonymous": false,
      "inputs": [
        {
          "indexed": true,
          "internalType": "address",
          "name": "owner",
          "type": "address"
        },
        {
          "indexed": true,
          "internalType": "address",
          "name": "approved",
          "type": "address"
        },
        {
          "indexed": true,
          "internalType": "uint256",
          "name": "tokenId",
          "type": "uint256"
        }
      ],
      "name": "Approval",
      "type": "event"
    },
    {
      "anonymous": false,
      "inputs": [
        {
          "indexed": true,
          "internalType": "address",
          "name": "owner",
          "type": "address"
        },
        {
          "indexed": true,
          "internalType": "address",
          "name": "operator",
          "type": "address"
        },
        {
          "indexed": false,
          "internalType": "bool",
          "name": "approved",
          "type": "bool"
        }
      ],
      "name": "ApprovalForAll",
      "type": "event"
    },
    {
      "constant": false,
      "inputs": [],
      "name": "initialize2",
      "outputs": [],
      "payable": false,
      "stateMutability": "nonpayable",
      "type": "function"
    },
    {
      "constant": false,
      "inputs": [
        {
          "internalType": "string",
          "name": "metadataIpfsHash",
          "type": "string"
        },
        {
          "internalType": "uint256",
          "name": "deposit",
          "type": "uint256"
        }
      ],
      "name": "mint",
      "outputs": [
        {
          "internalType": "uint256",
          "name": "",
          "type": "uint256"
        }
      ],
      "payable": false,
      "stateMutability": "nonpayable",
      "type": "function"
    },
    {
      "constant": true,
      "inputs": [
        {
          "internalType": "uint256",
          "name": "tokenId",
          "type": "uint256"
        }
      ],
      "name": "bearerOf",
      "outputs": [
        {
          "internalType": "address",
          "name": "",
          "type": "address"
        }
      ],
      "payable": false,
      "stateMutability": "view",
      "type": "function"
    },
    {
      "constant": false,
      "inputs": [
        {
          "internalType": "uint256",
          "name": "tokenId",
          "type": "uint256"
        }
      ],
      "name": "borrow",
      "outputs": [],
      "payable": false,
      "stateMutability": "nonpayable",
      "type": "function"
    },
    {
      "constant": false,
      "inputs": [
        {
          "internalType": "uint256",
          "name": "tokenId",
          "type": "uint256"
        }
      ],
      "name": "lockToken",
      "outputs": [],
      "payable": false,
      "stateMutability": "nonpayable",
      "type": "function"
    },
    {
      "constant": false,
      "inputs": [
        {
          "internalType": "uint256",
          "name": "tokenId",
          "type": "uint256"
        }
      ],
      "name": "unlockToken",
      "outputs": [],
      "payable": false,
      "stateMutability": "nonpayable",
      "type": "function"
    },
    {
      "constant": true,
      "inputs": [],
      "name": "getDepositBalances",
      "outputs": [
        {
          "internalType": "uint256",
          "name": "balance",
          "type": "uint256"
        },
        {
          "internalType": "uint256",
          "name": "requiredBalance",
          "type": "uint256"
        }
      ],
      "payable": false,
      "stateMutability": "view",
      "type": "function"
    },
    {
      "constant": false,
      "inputs": [],
      "name": "fundDeposit",
      "outputs": [
        {
          "internalType": "uint256",
          "name": "",
          "type": "uint256"
        }
      ],
      "payable": true,
      "stateMutability": "payable",
      "type": "function"
    },
    {
      "constant": false,
      "inputs": [],
      "name": "withdrawDeposit",
      "outputs": [
        {
          "internalType": "uint256",
          "name": "",
          "type": "uint256"
        }
      ],
      "payable": true,
      "stateMutability": "payable",
      "type": "function"
    },
    {
      "constant": true,
      "inputs": [],
      "name": "getTokensOfBearer",
      "outputs": [
        {
          "internalType": "uint256[]",
          "name": "",
          "type": "uint256[]"
        }
      ],
      "payable": false,
      "stateMutability": "view",
      "type": "function"
    },
    {
      "constant": true,
      "inputs": [],
      "name": "getTokensOfOwner",
      "outputs": [
        {
          "internalType": "uint256[]",
          "name": "",
          "type": "uint256[]"
        }
      ],
      "payable": false,
      "stateMutability": "view",
      "type": "function"
    },
    {
      "constant": true,
      "inputs": [
        {
          "internalType": "uint256",
          "name": "tokenId",
          "type": "uint256"
        }
      ],
      "name": "getTokenMetadata",
      "outputs": [
        {
          "internalType": "uint256",
          "name": "id",
          "type": "uint256"
        },
        {
          "internalType": "string",
          "name": "tokenURI",
          "type": "string"
        },
        {
          "internalType": "uint256",
          "name": "deposit",
          "type": "uint256"
        },
        {
          "internalType": "address",
          "name": "owner",
          "type": "address"
        },
        {
          "internalType": "address",
          "name": "bearer",
          "type": "address"
        },
        {
          "internalType": "bool",
          "name": "lock",
          "type": "bool"
        }
      ],
      "payable": false,
      "stateMutability": "view",
      "type": "function"
    }
  ],
  "bytecode": "0x60806040526140ff806100136000396000f3fe6080604052600436106102f25760003560e01c806370a082311161018f57806398650275116100e1578063c5ebeaec1161008a578063e985e9c511610064578063e985e9c514610d93578063ecedbf5214610dce578063f2fde38b14610df8576102f2565b8063c5ebeaec14610d15578063c87b56dd14610d3f578063dd2e0ac014610d69576102f2565b8063b68ceeaf116100bb578063b68ceeaf14610bfa578063b88d4fde14610c0f578063c4d66de814610ce2576102f2565b80639865027514610b77578063a22cb46514610b8c578063aa271e1a14610bc7576102f2565b80638456cb59116101435780638f32d59b1161011d5780638f32d59b14610b1a57806395d89b4114610b2f578063983b2d5614610b44576102f2565b80638456cb5914610ac25780638465753c14610ad75780638da5cb5b14610b05576102f2565b806380f203631161017457806380f2036314610a505780638129fc1c14610a7a57806382dc1ec414610a8f576102f2565b806370a0823114610a08578063715018a614610a3b576102f2565b806342842e0e1161024857806350bb4e7f116101fc5780636352211e116101d65780636352211e146109c15780636caa736b146109eb5780636ef8d66d146109f3576102f2565b806350bb4e7f146108135780635c975abb146108db57806360316801146108f0576102f2565b8063472abf681161022d578063472abf681461069a5780634cd88b76146106af5780634f6ccce7146107e9576102f2565b806342842e0e1461062457806346fbf68e14610667576102f2565b8063117df088116102aa57806323b872dd1161028457806323b872dd146105935780632f745c59146105d65780633f4ba83a1461060f576102f2565b8063117df0881461051157806318160ddd146105195780631b80ad781461052e576102f2565b806306fdde03116102db57806306fdde0314610406578063081812fc14610490578063095ea7b3146104d6576102f2565b806301ffc9a7146102f7578063056b01ce1461033f575b600080fd5b34801561030357600080fd5b5061032b6004803603602081101561031a57600080fd5b50356001600160e01b031916610e2b565b604080519115158252519081900360200190f35b34801561034b57600080fd5b506103f46004803603604081101561036257600080fd5b81019060208101813564010000000081111561037d57600080fd5b82018360208201111561038f57600080fd5b803590602001918460018302840111640100000000831117156103b157600080fd5b91908080601f0160208091040260200160405190810160405280939291908181526020018383808284376000920191909152509295505091359250610e4e915050565b60408051918252519081900360200190f35b34801561041257600080fd5b5061041b610f26565b6040805160208082528351818301528351919283929083019185019080838360005b8381101561045557818101518382015260200161043d565b50505050905090810190601f1680156104825780820380516001836020036101000a031916815260200191505b509250505060405180910390f35b34801561049c57600080fd5b506104ba600480360360208110156104b357600080fd5b5035610fbd565b604080516001600160a01b039092168252519081900360200190f35b3480156104e257600080fd5b5061050f600480360360408110156104f957600080fd5b506001600160a01b03813516906020013561101f565b005b6103f4611147565b34801561052557600080fd5b506103f4611277565b34801561053a57600080fd5b5061054361127d565b60408051602080825283518183015283519192839290830191858101910280838360005b8381101561057f578181015183820152602001610567565b505050509050019250505060405180910390f35b34801561059f57600080fd5b5061050f600480360360608110156105b657600080fd5b506001600160a01b038135811691602081013590911690604001356112de565b3480156105e257600080fd5b506103f4600480360360408110156105f957600080fd5b506001600160a01b03813516906020013561133a565b34801561061b57600080fd5b5061050f6113b9565b34801561063057600080fd5b5061050f6004803603606081101561064757600080fd5b506001600160a01b038135811691602081013590911690604001356114ad565b34801561067357600080fd5b5061032b6004803603602081101561068a57600080fd5b50356001600160a01b03166114c8565b3480156106a657600080fd5b5061050f6114e2565b3480156106bb57600080fd5b5061050f600480360360408110156106d257600080fd5b8101906020810181356401000000008111156106ed57600080fd5b8201836020820111156106ff57600080fd5b8035906020019184600183028401116401000000008311171561072157600080fd5b91908080601f016020809104026020016040519081016040528093929190818152602001838380828437600092019190915250929594936020810193503591505064010000000081111561077457600080fd5b82018360208201111561078657600080fd5b803590602001918460018302840111640100000000831117156107a857600080fd5b91908080601f01602080910402602001604051908101604052809392919081815260200183838082843760009201919091525092955061162b945050505050565b3480156107f557600080fd5b506103f46004803603602081101561080c57600080fd5b5035611717565b34801561081f57600080fd5b5061032b6004803603606081101561083657600080fd5b6001600160a01b038235169160208101359181019060608101604082013564010000000081111561086657600080fd5b82018360208201111561087857600080fd5b8035906020019184600183028401116401000000008311171561089a57600080fd5b91908080601f01602080910402602001604051908101604052809392919081815260200183838082843760009201919091525092955061177d945050505050565b3480156108e757600080fd5b5061032b6117e3565b3480156108fc57600080fd5b5061091a6004803603602081101561091357600080fd5b50356117ed565b604080518781529081018590526001600160a01b0380851660608301528316608082015281151560a082015260c06020808301828152885192840192909252875160e084019189019080838360005b83811015610981578181015183820152602001610969565b50505050905090810190601f1680156109ae5780820380516001836020036101000a031916815260200191505b5097505050505050505060405180910390f35b3480156109cd57600080fd5b506104ba600480360360208110156109e457600080fd5b503561197c565b6103f46119d0565b3480156109ff57600080fd5b5061050f611aae565b348015610a1457600080fd5b506103f460048036036020811015610a2b57600080fd5b50356001600160a01b0316611ac0565b348015610a4757600080fd5b5061050f611b28565b348015610a5c57600080fd5b5061050f60048036036020811015610a7357600080fd5b5035611bcd565b348015610a8657600080fd5b5061050f611c4e565b348015610a9b57600080fd5b5061050f60048036036020811015610ab257600080fd5b50356001600160a01b0316611cf5565b348015610ace57600080fd5b5061050f611d44565b348015610ae357600080fd5b50610aec611e0d565b6040805192835260208301919091528051918290030190f35b348015610b1157600080fd5b506104ba611e2f565b348015610b2657600080fd5b5061032b611e3f565b348015610b3b57600080fd5b5061041b611e66565b348015610b5057600080fd5b5061050f60048036036020811015610b6757600080fd5b50356001600160a01b0316611ec7565b348015610b8357600080fd5b5061050f611f16565b348015610b9857600080fd5b5061050f60048036036040811015610baf57600080fd5b506001600160a01b0381351690602001351515611f26565b348015610bd357600080fd5b5061032b60048036036020811015610bea57600080fd5b50356001600160a01b031661202b565b348015610c0657600080fd5b5061054361203f565b348015610c1b57600080fd5b5061050f60048036036080811015610c3257600080fd5b6001600160a01b03823581169260208101359091169160408201359190810190608081016060820135640100000000811115610c6d57600080fd5b820183602082011115610c7f57600080fd5b80359060200191846001830284011164010000000083111715610ca157600080fd5b91908080601f01602080910402602001604051908101604052809392919081815260200183838082843760009201919091525092955061209c945050505050565b348015610cee57600080fd5b5061050f60048036036020811015610d0557600080fd5b50356001600160a01b03166120fa565b348015610d2157600080fd5b5061050f60048036036020811015610d3857600080fd5b50356121b1565b348015610d4b57600080fd5b5061041b60048036036020811015610d6257600080fd5b50356121c4565b348015610d7557600080fd5b5061050f60048036036020811015610d8c57600080fd5b50356122a9565b348015610d9f57600080fd5b5061032b60048036036040811015610db657600080fd5b506001600160a01b0381358116916020013516612327565b348015610dda57600080fd5b506104ba60048036036020811015610df157600080fd5b5035612355565b348015610e0457600080fd5b5061050f60048036036020811015610e1b57600080fd5b50356001600160a01b03166123ed565b6001600160e01b0319811660009081526033602052604090205460ff165b919050565b6000610e60610e5b61244f565b61202b565b610e9b5760405162461bcd60e51b8152600401808060200182810382526030815260200180613ea76030913960400191505060405180910390fd5b6101d25460ff1615610ee7576040805162461bcd60e51b815260206004820152601060248201526f14185d5cd8589b194e881c185d5cd95960821b604482015290519081900360640190fd5b610ef261023a612453565b6000610eff61023a61245c565b6000818152610238602052604090208490559050610f1e33828661177d565b509392505050565b60d28054604080516020601f6002600019610100600188161502019095169490940493840181900481028201810190925282815260609390929091830182828015610fb25780601f10610f8757610100808354040283529160200191610fb2565b820191906000526020600020905b815481529060010190602001808311610f9557829003601f168201915b505050505090505b90565b6000610fc882612460565b6110035760405162461bcd60e51b815260040180806020018281038252602c815260200180613f1b602c913960400191505060405180910390fd5b506000908152606760205260409020546001600160a01b031690565b600061102a8261197c565b9050806001600160a01b0316836001600160a01b0316141561107d5760405162461bcd60e51b815260040180806020018281038252602181526020018061404d6021913960400191505060405180910390fd5b806001600160a01b031661108f61244f565b6001600160a01b031614806110b057506110b0816110ab61244f565b612327565b6110eb5760405162461bcd60e51b8152600401808060200182810382526038815260200180613e1c6038913960400191505060405180910390fd5b60008281526067602052604080822080546001600160a01b0319166001600160a01b0387811691821790925591518593918516917f8c5be1e5ebec7d5bd14f71427d1e84f3dd0314c0f7b2291e5b200ac8c7c3b92591a4505050565b6101d25460009060ff1615611196576040805162461bcd60e51b815260206004820152601060248201526f14185d5cd8589b194e881c185d5cd95960821b604482015290519081900360640190fd5b61020580546001019081905533600090815261023f602090815260408083205461024090925282205490916111d1838363ffffffff61247d16565b90506111e3338263ffffffff6124c616565b33600090815261023f6020526040902054611204908263ffffffff61247d16565b33600090815261023f602052604090208190559450505050610205548114611273576040805162461bcd60e51b815260206004820152601f60248201527f5265656e7472616e637947756172643a207265656e7472616e742063616c6c00604482015290519081900360640190fd5b5090565b609e5490565b33600090815261023d6020908152604091829020805483518184028101840190945280845260609392830182828015610fb257602002820191906000526020600020905b8154815260200190600101908083116112c1575050505050905090565b6112ef6112e961244f565b826125ac565b61132a5760405162461bcd60e51b815260040180806020018281038252603181526020018061406e6031913960400191505060405180910390fd5b611335838383612650565b505050565b600061134583611ac0565b82106113825760405162461bcd60e51b815260040180806020018281038252602b815260200180613cbc602b913960400191505060405180910390fd5b6001600160a01b0383166000908152609c602052604090208054839081106113a657fe5b9060005260206000200154905092915050565b6113c96113c461244f565b6114c8565b6114045760405162461bcd60e51b8152600401808060200182810382526030815260200180613d196030913960400191505060405180910390fd5b6101d25460ff1661145c576040805162461bcd60e51b815260206004820152601460248201527f5061757361626c653a206e6f7420706175736564000000000000000000000000604482015290519081900360640190fd5b6101d2805460ff191690557f5db9ee0a495bf2e6ff9c91a7834c1ba4fdd244a5e8aa4e537bd38aeae4b073aa61149061244f565b604080516001600160a01b039092168252519081900360200190a1565b6113358383836040518060200160405280600081525061209c565b60006114dc61019f8363ffffffff61266f16565b92915050565b600054610100900460ff16806114fb57506114fb6126d6565b80611509575060005460ff16155b6115445760405162461bcd60e51b815260040180806020018281038252602e815260200180613fc7602e913960400191505060405180910390fd5b600054610100900460ff1615801561156f576000805460ff1961ff0019909116610100171660011790555b6115776126dc565b61157f612781565b6115f36040518060400160405280600581526020017f5468696e670000000000000000000000000000000000000000000000000000008152506040518060400160405280600381526020017f544731000000000000000000000000000000000000000000000000000000000081525061162b565b6115fc33612848565b611605336120fa565b61160e33612915565b611616611c4e565b8015611628576000805461ff00191690555b50565b600054610100900460ff168061164457506116446126d6565b80611652575060005460ff16155b61168d5760405162461bcd60e51b815260040180806020018281038252602e815260200180613fc7602e913960400191505060405180910390fd5b600054610100900460ff161580156116b8576000805460ff1961ff0019909116610100171660011790555b6116c0612a07565b6116c957600080fd5b82516116dc9060d2906020860190613bdf565b5081516116f09060d3906020850190613bdf565b50611701635b5e139f60e01b612a1e565b8015611335576000805461ff0019169055505050565b6000611721611277565b821061175e5760405162461bcd60e51b815260040180806020018281038252602c81526020018061409f602c913960400191505060405180910390fd5b609e828154811061176b57fe5b90600052602060002001549050919050565b600061178a610e5b61244f565b6117c55760405162461bcd60e51b8152600401808060200182810382526030815260200180613ea76030913960400191505060405180910390fd5b6117cf8484612aa2565b6117d98383612abf565b5060019392505050565b6101d25460ff1690565b60006060600080600080869550306001600160a01b031663c87b56dd886040518263ffffffff1660e01b81526004018082815260200191505060006040518083038186803b15801561183e57600080fd5b505afa158015611852573d6000803e3d6000fd5b505050506040513d6000823e601f3d908101601f19168201604052602081101561187b57600080fd5b810190808051604051939291908464010000000082111561189b57600080fd5b9083019060208201858111156118b057600080fd5b82516401000000008111828201881017156118ca57600080fd5b82525081516020918201929091019080838360005b838110156118f75781810151838201526020016118df565b50505050905090810190601f1680156119245780820380516001836020036101000a031916815260200191505b506040525050509450610238600088815260200190815260200160002054935061194d8761197c565b925061195887612355565b6000978852610239602052604090972054959794969395929460ff90931692915050565b6000818152606660205260408120546001600160a01b0316806114dc5760405162461bcd60e51b8152600401808060200182810382526029815260200180613e7e6029913960400191505060405180910390fd5b6101d25460009060ff1615611a1f576040805162461bcd60e51b815260206004820152601060248201526f14185d5cd8589b194e881c185d5cd95960821b604482015290519081900360640190fd5b60003411611a74576040805162461bcd60e51b815260206004820152601660248201527f5468696e673a2053656e742076616c7565203c3d203000000000000000000000604482015290519081900360640190fd5b33600090815261023f6020526040812054611a95903463ffffffff612b2216565b33600090815261023f6020526040902081905591505090565b611abe611ab961244f565b612b7c565b565b60006001600160a01b038216611b075760405162461bcd60e51b815260040180806020018281038252602a815260200180613e54602a913960400191505060405180910390fd5b6001600160a01b03821660009081526068602052604090206114dc9061245c565b611b30611e3f565b611b81576040805162461bcd60e51b815260206004820181905260248201527f4f776e61626c653a2063616c6c6572206973206e6f7420746865206f776e6572604482015290519081900360640190fd5b61016c546040516000916001600160a01b0316907f8be0079c531659141344cd1fd0a4f28419497f9722a3daafe3b4186f6b6457e0908390a361016c80546001600160a01b0319169055565b33611bd78261197c565b6001600160a01b031614611c32576040805162461bcd60e51b815260206004820152601c60248201527f5468696e673a20796f7520617265206e6f7420746865206f776e657200000000604482015290519081900360640190fd5b600090815261023960205260409020805460ff19166001179055565b600054610100900460ff1680611c675750611c676126d6565b80611c75575060005460ff16155b611cb05760405162461bcd60e51b815260040180806020018281038252602e815260200180613fc7602e913960400191505060405180910390fd5b600054610100900460ff16158015611cdb576000805460ff1961ff0019909116610100171660011790555b6001610205558015611628576000805461ff001916905550565b611d006113c461244f565b611d3b5760405162461bcd60e51b8152600401808060200182810382526030815260200180613d196030913960400191505060405180910390fd5b61162881612bc5565b611d4f6113c461244f565b611d8a5760405162461bcd60e51b8152600401808060200182810382526030815260200180613d196030913960400191505060405180910390fd5b6101d25460ff1615611dd6576040805162461bcd60e51b815260206004820152601060248201526f14185d5cd8589b194e881c185d5cd95960821b604482015290519081900360640190fd5b6101d2805460ff191660011790557f62e78cea01bee320cd4e420270b5ea74000d11b0c9f74754ebdbfc544b05a25861149061244f565b33600090815261023f6020908152604080832054610240909252909120549091565b61016c546001600160a01b031690565b61016c546000906001600160a01b0316611e5761244f565b6001600160a01b031614905090565b60d38054604080516020601f6002600019610100600188161502019095169490940493840181900481028201810190925282815260609390929091830182828015610fb25780601f10610f8757610100808354040283529160200191610fb2565b611ed2610e5b61244f565b611f0d5760405162461bcd60e51b8152600401808060200182810382526030815260200180613ea76030913960400191505060405180910390fd5b61162881612c0e565b611abe611f2161244f565b612c57565b611f2e61244f565b6001600160a01b0316826001600160a01b03161415611f94576040805162461bcd60e51b815260206004820152601960248201527f4552433732313a20617070726f766520746f2063616c6c657200000000000000604482015290519081900360640190fd5b8060696000611fa161244f565b6001600160a01b03908116825260208083019390935260409182016000908120918716808252919093529120805460ff191692151592909217909155611fe561244f565b60408051841515815290516001600160a01b0392909216917f17307eab39ab6107e8899845ad3d59bd9653f200f220920489ca2b5937696c319181900360200190a35050565b60006114dc6101078363ffffffff61266f16565b606061204a33612ca0565b805480602002602001604051908101604052809291908181526020018280548015610fb257602002820191906000526020600020908154815260200190600101908083116112c1575050505050905090565b6120ad6120a761244f565b836125ac565b6120e85760405162461bcd60e51b815260040180806020018281038252603181526020018061406e6031913960400191505060405180910390fd5b6120f484848484612cba565b50505050565b600054610100900460ff168061211357506121136126d6565b80612121575060005460ff16155b61215c5760405162461bcd60e51b815260040180806020018281038252602e815260200180613fc7602e913960400191505060405180910390fd5b600054610100900460ff16158015612187576000805460ff1961ff0019909116610100171660011790555b61219082612d0c565b6101d2805460ff1916905580156121ad576000805461ff00191690555b5050565b6116286121bd82612355565b3383612daf565b60606121cf82612460565b61220a5760405162461bcd60e51b815260040180806020018281038252602f81526020018061401e602f913960400191505060405180910390fd5b600082815260d4602090815260409182902080548351601f60026000196101006001861615020190931692909204918201849004840281018401909452808452909183018282801561229d5780601f106122725761010080835404028352916020019161229d565b820191906000526020600020905b81548152906001019060200180831161228057829003601f168201915b50505050509050919050565b336122b38261197c565b6001600160a01b03161461230e576040805162461bcd60e51b815260206004820152601c60248201527f5468696e673a20796f7520617265206e6f7420746865206f776e657200000000604482015290519081900360640190fd5b600090815261023960205260409020805460ff19169055565b6001600160a01b03918216600090815260696020908152604080832093909416825291909152205460ff1690565b6000806123618361197c565b90506001600160a01b0381166123a85760405162461bcd60e51b8152600401808060200182810382526028815260200180613c946028913960400191505060405180910390fd5b600083815261023b60205260409020546001600160a01b0316156123e6575050600081815261023b60205260409020546001600160a01b0316610e49565b9050610e49565b6123f5611e3f565b612446576040805162461bcd60e51b815260206004820181905260248201527f4f776e61626c653a2063616c6c6572206973206e6f7420746865206f776e6572604482015290519081900360640190fd5b61162881613139565b3390565b80546001019055565b5490565b6000908152606660205260409020546001600160a01b0316151590565b60006124bf83836040518060400160405280601e81526020017f536166654d6174683a207375627472616374696f6e206f766572666c6f7700008152506131dc565b9392505050565b303181111561251c576040805162461bcd60e51b815260206004820152601d60248201527f416464726573733a20696e73756666696369656e742062616c616e6365000000604482015290519081900360640190fd5b6040516000906001600160a01b0384169083908381818185875af1925050503d8060008114612567576040519150601f19603f3d011682016040523d82523d6000602084013e61256c565b606091505b50509050806113355760405162461bcd60e51b815260040180806020018281038252603a815260200180613db6603a913960400191505060405180910390fd5b60006125b782612460565b6125f25760405162461bcd60e51b815260040180806020018281038252602c815260200180613df0602c913960400191505060405180910390fd5b60006125fd8361197c565b9050806001600160a01b0316846001600160a01b031614806126385750836001600160a01b031661262d84610fbd565b6001600160a01b0316145b8061264857506126488185612327565b949350505050565b61265b838383613273565b61266583826133b7565b61133582826134ac565b60006001600160a01b0382166126b65760405162461bcd60e51b8152600401808060200182810382526022815260200180613fa56022913960400191505060405180910390fd5b506001600160a01b03166000908152602091909152604090205460ff1690565b303b1590565b600054610100900460ff16806126f557506126f56126d6565b80612703575060005460ff16155b61273e5760405162461bcd60e51b815260040180806020018281038252602e815260200180613fc7602e913960400191505060405180910390fd5b600054610100900460ff16158015612769576000805460ff1961ff0019909116610100171660011790555b6127716134ea565b6116166380ac58cd60e01b612a1e565b600054610100900460ff168061279a575061279a6126d6565b806127a8575060005460ff16155b6127e35760405162461bcd60e51b815260040180806020018281038252602e815260200180613fc7602e913960400191505060405180910390fd5b600054610100900460ff1615801561280e576000805460ff1961ff0019909116610100171660011790555b612816612a07565b61281f57600080fd5b6116167f780e9d6300000000000000000000000000000000000000000000000000000000612a1e565b600054610100900460ff168061286157506128616126d6565b8061286f575060005460ff16155b6128aa5760405162461bcd60e51b815260040180806020018281038252602e815260200180613fc7602e913960400191505060405180910390fd5b600054610100900460ff161580156128d5576000805460ff1961ff0019909116610100171660011790555b6128dd612a07565b6128e657600080fd5b6128ee6135a0565b6128f757600080fd5b612900826135b2565b80156121ad576000805461ff00191690555050565b600054610100900460ff168061292e575061292e6126d6565b8061293c575060005460ff16155b6129775760405162461bcd60e51b815260040180806020018281038252602e815260200180613fc7602e913960400191505060405180910390fd5b600054610100900460ff161580156129a2576000805460ff1961ff0019909116610100171660011790555b61016c80546001600160a01b0319166001600160a01b0384811691909117918290556040519116906000907f8be0079c531659141344cd1fd0a4f28419497f9722a3daafe3b4186f6b6457e0908290a380156121ad576000805461ff00191690555050565b6000612a196380ac58cd60e01b610e2b565b905090565b6001600160e01b03198082161415612a7d576040805162461bcd60e51b815260206004820152601c60248201527f4552433136353a20696e76616c696420696e7465726661636520696400000000604482015290519081900360640190fd5b6001600160e01b0319166000908152603360205260409020805460ff19166001179055565b612aac8282613655565b612ab682826134ac565b6121ad81613786565b612ac882612460565b612b035760405162461bcd60e51b815260040180806020018281038252602c815260200180613f47602c913960400191505060405180910390fd5b600082815260d460209081526040909120825161133592840190613bdf565b6000828201838110156124bf576040805162461bcd60e51b815260206004820152601b60248201527f536166654d6174683a206164646974696f6e206f766572666c6f770000000000604482015290519081900360640190fd5b612b8e61019f8263ffffffff6137ca16565b6040516001600160a01b038216907fcd265ebaf09df2871cc7bd4133404a235ba12eff2041bb89d9c714a2621c7c7e90600090a250565b612bd761019f8263ffffffff61383116565b6040516001600160a01b038216907f6719d08c1888103bea251a4ed56406bd0c3e69723c8a1686e017e7bbe159b6f890600090a250565b612c206101078263ffffffff61383116565b6040516001600160a01b038216907f6ae172837ea30b801fbfcdd4108aa1d5bf8ff775444fd70256b44e6bf3dfc3f690600090a250565b612c696101078263ffffffff6137ca16565b6040516001600160a01b038216907fe94479a9f7e1952cc78f2d6baab678adc1b772d936c6583def489e524cb6669290600090a250565b6001600160a01b03166000908152609c6020526040902090565b612cc5848484612650565b612cd1848484846138b2565b6120f45760405162461bcd60e51b8152600401808060200182810382526032815260200180613ce76032913960400191505060405180910390fd5b600054610100900460ff1680612d255750612d256126d6565b80612d33575060005460ff16155b612d6e5760405162461bcd60e51b815260040180806020018281038252602e815260200180613fc7602e913960400191505060405180910390fd5b600054610100900460ff16158015612d99576000805460ff1961ff0019909116610100171660011790555b612da2826114c8565b6129005761290082612bc5565b6101d25460ff1615612dfb576040805162461bcd60e51b815260206004820152601060248201526f14185d5cd8589b194e881c185d5cd95960821b604482015290519081900360640190fd5b60008181526102396020526040902054819060ff1615612e62576040805162461bcd60e51b815260206004820152601660248201527f5468696e673a20746f6b656e206973206c6f636b656400000000000000000000604482015290519081900360640190fd5b612e6b82612460565b612ebc576040805162461bcd60e51b815260206004820152601760248201527f5468696e673a20746f6b656e20646f6e74206578697374000000000000000000604482015290519081900360640190fd5b6001600160a01b038316612f015760405162461bcd60e51b8152600401808060200182810382526023815260200180613ef86023913960400191505060405180910390fd5b612f0a82612355565b6001600160a01b0316836001600160a01b03161415612f5a5760405162461bcd60e51b8152600401808060200182810382526023815260200180613d6f6023913960400191505060405180910390fd5b6000612f658361197c565b60008481526102386020526040902054909150801561307c576001600160a01b03808716600081815261024060205260408120549290919085161415612fac575080612fbf565b612fbc828463ffffffff61247d16565b90505b6001600160a01b03808816600081815261023f6020908152604080832054610240909252822054909390929088161415612ffa57508061300d565b61300a828763ffffffff612b2216565b90505b8083101561304c5760405162461bcd60e51b8152600401808060200182810382526032815260200180613f736032913960400191505060405180910390fd5b6001600160a01b03808c166000908152610240602052604080822096909655908b16815293909320929092555050505b856001600160a01b0316826001600160a01b0316146130c15761309f8685613a22565b6001600160a01b038616600090815261023c602052604090206130c190613b16565b846001600160a01b0316826001600160a01b031614613106576130e48585613b2d565b6001600160a01b038516600090815261023c6020526040902061310690612453565b505050600090815261023b6020526040902080546001600160a01b0319166001600160a01b039290921691909117905550565b6001600160a01b03811661317e5760405162461bcd60e51b8152600401808060200182810382526026815260200180613d496026913960400191505060405180910390fd5b61016c546040516001600160a01b038084169216907f8be0079c531659141344cd1fd0a4f28419497f9722a3daafe3b4186f6b6457e090600090a361016c80546001600160a01b0319166001600160a01b0392909216919091179055565b6000818484111561326b5760405162461bcd60e51b81526004018080602001828103825283818151815260200191508051906020019080838360005b83811015613230578181015183820152602001613218565b50505050905090810190601f16801561325d5780820380516001836020036101000a031916815260200191505b509250505060405180910390fd5b505050900390565b826001600160a01b03166132868261197c565b6001600160a01b0316146132cb5760405162461bcd60e51b8152600401808060200182810382526029815260200180613ff56029913960400191505060405180910390fd5b6001600160a01b0382166133105760405162461bcd60e51b8152600401808060200182810382526024815260200180613d926024913960400191505060405180910390fd5b61331981613b6d565b6001600160a01b038316600090815260686020526040902061333a90613b16565b6001600160a01b038216600090815260686020526040902061335b90612453565b60008181526066602052604080822080546001600160a01b0319166001600160a01b0386811691821790925591518493918716917fddf252ad1be2c89b69c2b068fc378daa952ba7f163c4a11628f55a4df523b3ef91a4505050565b6001600160a01b0382166000908152609c60205260408120546133e190600163ffffffff61247d16565b6000838152609d602052604090205490915080821461347c576001600160a01b0384166000908152609c6020526040812080548490811061341e57fe5b9060005260206000200154905080609c6000876001600160a01b03166001600160a01b03168152602001908152602001600020838154811061345c57fe5b6000918252602080832090910192909255918252609d9052604090208190555b6001600160a01b0384166000908152609c602052604090208054906134a5906000198301613c59565b5050505050565b6001600160a01b039091166000908152609c602081815260408084208054868652609d84529185208290559282526001810183559183529091200155565b600054610100900460ff168061350357506135036126d6565b80613511575060005460ff16155b61354c5760405162461bcd60e51b815260040180806020018281038252602e815260200180613fc7602e913960400191505060405180910390fd5b600054610100900460ff16158015613577576000805460ff1961ff0019909116610100171660011790555b6116167f01ffc9a700000000000000000000000000000000000000000000000000000000612a1e565b6000612a19635b5e139f60e01b610e2b565b600054610100900460ff16806135cb57506135cb6126d6565b806135d9575060005460ff16155b6136145760405162461bcd60e51b815260040180806020018281038252602e815260200180613fc7602e913960400191505060405180910390fd5b600054610100900460ff1615801561363f576000805460ff1961ff0019909116610100171660011790555b6136488261202b565b6129005761290082612c0e565b6001600160a01b0382166136b0576040805162461bcd60e51b815260206004820181905260248201527f4552433732313a206d696e7420746f20746865207a65726f2061646472657373604482015290519081900360640190fd5b6136b981612460565b1561370b576040805162461bcd60e51b815260206004820152601c60248201527f4552433732313a20746f6b656e20616c7265616479206d696e74656400000000604482015290519081900360640190fd5b600081815260666020908152604080832080546001600160a01b0319166001600160a01b03871690811790915583526068909152902061374a90612453565b60405181906001600160a01b038416906000907fddf252ad1be2c89b69c2b068fc378daa952ba7f163c4a11628f55a4df523b3ef908290a45050565b609e80546000838152609f60205260408120829055600182018355919091527fcfe2a20ff701a1f3e14f63bd70d6c6bc6fba8172ec6d5a505cdab3927c0a9de60155565b6137d4828261266f565b61380f5760405162461bcd60e51b8152600401808060200182810382526021815260200180613ed76021913960400191505060405180910390fd5b6001600160a01b0316600090815260209190915260409020805460ff19169055565b61383b828261266f565b1561388d576040805162461bcd60e51b815260206004820152601f60248201527f526f6c65733a206163636f756e7420616c72656164792068617320726f6c6500604482015290519081900360640190fd5b6001600160a01b0316600090815260209190915260409020805460ff19166001179055565b60006138c6846001600160a01b0316613ba8565b6138d257506001612648565b6000846001600160a01b031663150b7a026138eb61244f565b8887876040518563ffffffff1660e01b815260040180856001600160a01b03166001600160a01b03168152602001846001600160a01b03166001600160a01b0316815260200183815260200180602001828103825283818151815260200191508051906020019080838360005b83811015613970578181015183820152602001613958565b50505050905090810190601f16801561399d5780820380516001836020036101000a031916815260200191505b5095505050505050602060405180830381600087803b1580156139bf57600080fd5b505af11580156139d3573d6000803e3d6000fd5b505050506040513d60208110156139e957600080fd5b50516001600160e01b0319167f150b7a020000000000000000000000000000000000000000000000000000000014915050949350505050565b6001600160a01b038216600090815261023d6020526040812054613a4d90600163ffffffff61247d16565b600083815261023e6020526040902054909150808214613aec576001600160a01b038416600090815261023d60205260408120805484908110613a8c57fe5b906000526020600020015490508061023d6000876001600160a01b03166001600160a01b031681526020019081526020016000208381548110613acb57fe5b600091825260208083209091019290925591825261023e9052604090208190555b6001600160a01b038416600090815261023d602052604090208054906134a5906000198301613c59565b8054613b2990600163ffffffff61247d16565b9055565b6001600160a01b03909116600090815261023d60208181526040808420805486865261023e84529185208290559282526001810183559183529091200155565b6000818152606760205260409020546001600160a01b03161561162857600090815260676020526040902080546001600160a01b0319169055565b6000813f7fc5d2460186f7233c927e7db2dcc703c0e500b653ca82273b7bfad8045d85a47081158015906126485750141592915050565b828054600181600116156101000203166002900490600052602060002090601f016020900481019282601f10613c2057805160ff1916838001178555613c4d565b82800160010185558215613c4d579182015b82811115613c4d578251825591602001919060010190613c32565b50611273929150613c79565b815481835581811115611335576000838152602090206113359181019083015b610fba91905b808211156112735760008155600101613c7f56fe5468696e673a206f776e657220717565727920666f72206e6f6e6578697374656e7420746f6b656e455243373231456e756d657261626c653a206f776e657220696e646578206f7574206f6620626f756e64734552433732313a207472616e7366657220746f206e6f6e20455243373231526563656976657220696d706c656d656e746572506175736572526f6c653a2063616c6c657220646f6573206e6f742068617665207468652050617573657220726f6c654f776e61626c653a206e6577206f776e657220697320746865207a65726f20616464726573735468696e673a20796f7520616c726561647920626561722074686174206f626a6563744552433732313a207472616e7366657220746f20746865207a65726f2061646472657373416464726573733a20756e61626c6520746f2073656e642076616c75652c20726563697069656e74206d617920686176652072657665727465644552433732313a206f70657261746f7220717565727920666f72206e6f6e6578697374656e7420746f6b656e4552433732313a20617070726f76652063616c6c6572206973206e6f74206f776e6572206e6f7220617070726f76656420666f7220616c6c4552433732313a2062616c616e636520717565727920666f7220746865207a65726f20616464726573734552433732313a206f776e657220717565727920666f72206e6f6e6578697374656e7420746f6b656e4d696e746572526f6c653a2063616c6c657220646f6573206e6f74206861766520746865204d696e74657220726f6c65526f6c65733a206163636f756e7420646f6573206e6f74206861766520726f6c655468696e673a207472616e7366657220746f20746865207a65726f20616464726573734552433732313a20617070726f76656420717565727920666f72206e6f6e6578697374656e7420746f6b656e4552433732314d657461646174613a2055524920736574206f66206e6f6e6578697374656e7420746f6b656e5468696e673a206465706f736974206973206e6f7420656e6f75676820746f20626f72726f772074686973206f626a656374526f6c65733a206163636f756e7420697320746865207a65726f2061646472657373436f6e747261637420696e7374616e63652068617320616c7265616479206265656e20696e697469616c697a65644552433732313a207472616e73666572206f6620746f6b656e2074686174206973206e6f74206f776e4552433732314d657461646174613a2055524920717565727920666f72206e6f6e6578697374656e7420746f6b656e4552433732313a20617070726f76616c20746f2063757272656e74206f776e65724552433732313a207472616e736665722063616c6c6572206973206e6f74206f776e6572206e6f7220617070726f766564455243373231456e756d657261626c653a20676c6f62616c20696e646578206f7574206f6620626f756e6473a265627a7a723158203a62505433f24f02080dbd66445bdc644f45ba39ac34d741cfd8ad16bf501ba964736f6c634300050b0032",
  "source": "pragma solidity 0.5.11; //SEC fix compiler version\n\nimport \"@openzeppelin/upgrades/contracts/Initializable.sol\";\nimport \"@openzeppelin/contracts-ethereum-package/contracts/ownership/Ownable.sol\";\nimport \"@openzeppelin/contracts-ethereum-package/contracts/lifecycle/Pausable.sol\";\nimport \"@openzeppelin/contracts-ethereum-package/contracts/math/SafeMath.sol\";\nimport \"@openzeppelin/contracts-ethereum-package/contracts/drafts/Counters.sol\";\n\nimport \"@openzeppelin/contracts-ethereum-package/contracts/utils/Address.sol\";\nimport \"@openzeppelin/contracts-ethereum-package/contracts/utils/ReentrancyGuard.sol\";\n\nimport \"@openzeppelin/contracts-ethereum-package/contracts/token/ERC721/ERC721.sol\";\nimport \"@openzeppelin/contracts-ethereum-package/contracts/token/ERC721/ERC721Enumerable.sol\";\n//import '@openzeppelin/contracts-ethereum-package/contracts/token/ERC721/ERC721Full.sol';\nimport \"@openzeppelin/contracts-ethereum-package/contracts/token/ERC721/ERC721MetadataMintable.sol\";\n//import '@openzeppelin/contracts-ethereum-package/contracts/token/ERC721/ERC721Mintable.sol';\n//import '@openzeppelin/contracts-ethereum-package/contracts/token/ERC721/ERC721Pausable.sol';\n\n/**\n * @title Thing\n * @author Fred\n * @notice Allow to share & borrow objects (Non Fungible Tokens) in a secure way\n * @dev Upgradable contract built on OpenZeppelin ERC721 implementation with extensions\n */\ncontract Thing is\n    Initializable, // required for contract upgradability\n    ERC721,\n    ERC721Enumerable,\n    ERC721MetadataMintable,\n    //, ERC721Pausable\n    Ownable,\n    Pausable,\n    ReentrancyGuard {\n    using SafeMath for uint256;\n    using Counters for Counters.Counter;\n    using Address for address payable;\n\n    // FEATURE 2 : token metadata (on-chain)\n    //struct Metadata {\n    //    uint256 deposit;\n        // FEATURE 5 : locking of token borrowing\n    //    bool lock;\n    //}\n\n    //mapping(uint256 => Metadata) private metadatas;\n    // Initial on-chain metadata, can be extended but you have to put it at the end for upgradbility\n    mapping(uint256 => uint256) private deposits;\n    mapping(uint256 => bool) private locks;\n\n    // FEATURE 3 : tokenId auto-increment\n    Counters.Counter private counterTokenIds;\n\n    // FEATURE 4 : borrowing of token\n    //Mapping from token ID to bearer\n    mapping(uint256 => address) private _tokenBearer;\n    // Mapping from bearer to number of beared token\n    mapping(address => Counters.Counter) private _borrowedTokensCount; //TODO not only bearer\n    // Mapping from bearer to list of beared token IDs\n    mapping(address => uint256[]) private _bearedTokens;\n    // Mapping from token ID to index of the bearer tokens list\n    mapping(uint256 => uint256) private _bearedTokensIndex;\n\n    // FEATURE 5 : locking of token borrowing\n    //mapping(uint256 => bool) private locked; //array would be very inefficient for this since there is no contains function\n\n    // FEATURE 6 : deposit\n    mapping(address => uint256) private balances;\n    // we create a mapping of current required min balance per user according to the currently beared things.\n    mapping(address => uint256) private requiredBalances;\n\n    // EVENTS\n\n    /**\n   * @dev Initializer used for tests\n   */\n    /*\n  function initialize(address owner, address pauser, address minter) public initializer {\n    ERC721.initialize();\n    ERC721Enumerable.initialize();\n    //ERC721Metadata.initialize(\"Thing\", \"TG1\");\n    ERC721Mintable.initialize(minter);\n    //ERC721Pausable.initialize(pauser);\n    /// do we need another/instead\n    Pausable.initialize(pauser);\n    Ownable.initialize(owner);\n    ReentrancyGuard.initialize();\n  }*/\n\n    /**\n   * @dev replace the contructor in the context of an upgradable contract, must always be called manually when creating a contract\n   */\n    function initialize2() public initializer {\n        ERC721.initialize();\n        ERC721Enumerable.initialize();\n        ERC721Metadata.initialize(\"Thing\", \"TG1\");\n        ERC721MetadataMintable.initialize(msg.sender);\n        //ERC721Pausable.initialize(msg.sender);\n        /// do we need another/instead\n        Pausable.initialize(msg.sender);\n        Ownable.initialize(msg.sender); // candidate for gas saving\n        ReentrancyGuard.initialize();\n    }\n\n\n    // BIIIIGGG TODO fallback function ???\n\n    // FEATURE 1 : killable contract\n    /*\n  function kill() public onlyOwner {\n    address payable owner = address(uint160(owner()));\n    selfdestruct(owner);\n  }*/\n\n    /**\n   * @dev user function to mint a new token with off-chain metadata, automatically assign a new tokenId. You have to assigned the miner role to do so\n   * @param metadataIpfsHash string IPFS CID or hash for the tokenURI that will hold the off-chain metadata\n   * @param deposit uint256 security deposit for the object in Wei, defined as an on-chain metadata (mandatory)\n   * @return uint256 as the new tokenId\n   */\n    function mint(string memory metadataIpfsHash, uint256 deposit)\n        public\n        onlyMinter\n        whenNotPaused\n        returns (uint256)\n    {\n        counterTokenIds.increment();\n        uint256 newTokenId = counterTokenIds.current();\n\n        /// @dev on-chain metadata, can be extended (only add at the end)\n        //Metadata memory metadata = Metadata({deposit: deposit, lock: false});\n        //metadatas[newTokenId] = metadata;\n\n        // we could improve that by not setting anything if the deposit is 0\n        deposits[newTokenId] = deposit;\n\n        super.mintWithTokenURI(msg.sender, newTokenId, metadataIpfsHash);\n\n        return newTokenId;\n    }\n\n    // FEATURE 4 : borrowing of token\n    /**\n     * @dev Gets the bearer or bearer of the specified tokenId.\n     * @param tokenId uint256 tokenId of the token to query the bearer of\n     * @return address currently marked as the bearer or owner of the given tokenId\n     */\n    function bearerOf(uint256 tokenId) public view returns (address) {\n        address owner = ownerOf(tokenId);\n        require(\n            owner != address(0),\n            \"Thing: owner query for nonexistent token\"\n        );\n\n        if (_tokenBearer[tokenId] != address(0)) {\n            return _tokenBearer[tokenId];\n        } else {\n            return owner;\n        }\n    }\n\n    /**\n     * @dev Private function to add a token to this extension's bearership-tracking data structures.\n     * @param to address representing the new bearer of the given tokenId\n     * @param tokenId uint256 Id of the token to be added to the tokens list of the given address\n     */\n    function _addTokenToBearerEnumeration(address to, uint256 tokenId) private {\n        _bearedTokensIndex[tokenId] = _bearedTokens[to].length;\n        _bearedTokens[to].push(tokenId);\n    }\n\n    /**\n     * @dev Private function to remove a token data structures. Note that\n     * while the token is not assigned a new bearer, the _bearedTokensIndex mapping is _not_ updated: this allows for\n     * gas optimizations\n     * @param from address representing the previous bearer of the given token ID\n     * @param tokenId uint256 ID of the token to be removed from the tokens list of the given address\n     */\n    function _removeTokenFromBearerEnumeration(address from, uint256 tokenId)\n        private\n    {\n        uint256 lastTokenIndex = _bearedTokens[from].length.sub(1);\n        uint256 tokenIndex = _bearedTokensIndex[tokenId];\n\n        // When the token to delete is the last token, the swap operation is unnecessary\n        if (tokenIndex != lastTokenIndex) {\n            uint256 lastTokenId = _bearedTokens[from][lastTokenIndex];\n\n            _bearedTokens[from][tokenIndex] = lastTokenId; // Move the last token to the slot of the to-delete token\n            _bearedTokensIndex[lastTokenId] = tokenIndex; // Update the moved token's index\n        }\n\n        // This also deletes the contents at the last position of the array\n        _bearedTokens[from].length--;\n    }\n\n    /**\n     * @dev Transfers the bearing of a given token ID to another address. Requires the from to be the bearer.\n     * @notice the borrow functions manage the fact that if you are the owner, you balances won't be affted by the deposit\n     * @param tokenId uint256 ID of the token to be borrowed\n     */\n    function borrow(uint256 tokenId) public {\n        //TODO require process\n        //require(bearerOf(tokenId) == from, \"Things: transfer of token that is not beared\");\n        _borrowFrom(bearerOf(tokenId), msg.sender, tokenId);\n    }\n\n    /**\n     * @dev Internal function to borrow a given token ID.\n     * As opposed to the public borrow function, this imposes no restrictions on msg.sender.\n     * @param from current bearer of the token\n     * @param to receipient\n     * @param tokenId uint256 ID of the token to be transferred\n     */\n    function _borrowFrom(address from, address to, uint256 tokenId)\n        internal\n        whenNotPaused\n        onlyUnlocked(tokenId)\n    {\n        require(_exists(tokenId), \"Thing: token dont exist\");\n        require(to != address(0), \"Thing: transfer to the zero address\");\n        require(to != bearerOf(tokenId), \"Thing: you already bear that object\");\n        // FIXME require(!isLocked(tokenId), \"Thing: token is locked, cant borrow it\");\n\n        address owner = ownerOf(tokenId);\n\n        // FEATURE 6 : deposit\n        //uint256 requiredDeposit = metadatas[tokenId].deposit;\n        uint256 requiredDeposit = deposits[tokenId];\n\n        if (requiredDeposit > 0) {\n            //check user current balance\n\n            uint256 currentFromRequiredBalance = requiredBalances[from];\n            uint256 newFromRequiredBalance;\n            if (from == owner) {\n                newFromRequiredBalance = currentFromRequiredBalance;\n            } else {\n                newFromRequiredBalance = currentFromRequiredBalance.sub(\n                    requiredDeposit\n                );\n            }\n\n            uint256 currentToBalance = balances[to];\n            uint256 currentToRequiredBalance = requiredBalances[to];\n            uint256 newToRequiredBalance;\n            if (to == owner) {\n                newToRequiredBalance = currentToRequiredBalance;\n            } else {\n                newToRequiredBalance = currentToRequiredBalance.add(\n                    requiredDeposit\n                );\n            }\n\n            // we want that the cuurent balance of the receipient (to) to be enought\n            require(\n                currentToBalance >= newToRequiredBalance,\n                \"Thing: deposit is not enough to borrow this object\"\n            );\n\n            // we need to update the required balance for both from and to, taking into account that from or to can be the owner\n            requiredBalances[from] = newFromRequiredBalance;\n            requiredBalances[to] = newToRequiredBalance;\n\n        }\n        // /END FEATURE 6 : deposit\n\n        if (owner != from) {\n            _removeTokenFromBearerEnumeration(from, tokenId);\n            _borrowedTokensCount[from].decrement();\n        }\n        if (owner != to) {\n            _addTokenToBearerEnumeration(to, tokenId);\n            _borrowedTokensCount[to].increment();\n        }\n\n        _tokenBearer[tokenId] = to;\n    }\n\n    // FEATURE 5 : locking of token borrowing\n    /**\n     * @dev allow the owner of a token to lock it, so it can't be borrowed anymore\n     * @param tokenId uint256 ID of the token to be transferred\n     */\n    function lockToken(uint256 tokenId) public {\n      //require(_exists(tokenId), \"Thing: token dont exist\");\n      require(ownerOf(tokenId) == msg.sender, \"Thing: you are not the owner\");\n\n      locks[tokenId] = true;\n    }\n\n    /**\n     * @dev allow the owner of a token to unlock it, so it can be borrowed again\n     * @param tokenId uint256 ID of the token to be transferred\n     */\n    function unlockToken(uint256 tokenId) public {\n      //require(_exists(tokenId), \"Thing: token dont exist\");\n      require(ownerOf(tokenId) == msg.sender, \"Thing: you are not the owner\");\n\n      locks[tokenId] = false;\n    }\n\n    /**\n     * @dev prevent action on a locked token\n     * @param tokenId uint256 ID of the token to be transferred\n     */\n    modifier onlyUnlocked(uint256 tokenId) {\n        require(!locks[tokenId], \"Thing: token is locked\");\n        _;\n    }\n\n    // FEATURE 6 : deposit\n    /**\n     * @dev query the deposit balances (absolut & required) on the contract for the user\n     * @return the absolute deposit balance on the contract\n     * @return the balance required according to the object the user, currently bear (that can't be withdrawn)\n     */\n    function getDepositBalances()\n        public\n        view\n        returns (uint256 balance, uint256 requiredBalance)\n    {\n        balance = balances[msg.sender];\n        requiredBalance = requiredBalances[msg.sender];\n    }\n\n    /**\n     * @dev send funds to the contract to fund future security deposits, must have a value\n     * @return uint256 the new security deposit balance of the user\n     */\n    function fundDeposit() public payable whenNotPaused returns (uint256) {\n        require(msg.value > 0, \"Thing: Sent value <= 0\");\n\n        //FIXME there is probably a security problem here\n        uint256 newBalance = balances[msg.sender].add(msg.value);\n        balances[msg.sender] = newBalance;\n\n        //emit DepositMade(msg.sender, msg.value);\n\n        return balances[msg.sender];\n    }\n\n    /**\n     * @dev withdraw the max value authorized, meaning the balance minus the required balance, according to the objects currently borrowed.\n     * This is probably the most security sensitive function, it is protected by a safe send implementation & a protection against reentry\n     */\n    function withdrawDeposit()\n        public\n        payable\n        whenNotPaused\n        nonReentrant\n        returns (uint256)\n    {\n        uint256 currentBalance = balances[msg.sender];\n        uint256 requiredBalance = requiredBalances[msg.sender];\n        //require(currentBalance > requiredBalance, \"not enough\");\n        uint256 withdrawAmount = currentBalance.sub(requiredBalance);\n\n        msg.sender.sendValue(withdrawAmount);\n        balances[msg.sender] = balances[msg.sender].sub(withdrawAmount);\n\n        uint256 newBalance = balances[msg.sender];\n\n        return newBalance;\n    }\n\n    // FIXME it needs to be called getTokensOfBorrower?\n    /**\n     * @dev query all the token Ids currently borrowed by a user\n     * @return uint256[] an array of tokenId borrowed by a user\n     */\n    function getTokensOfBearer() public view returns (uint256[] memory) {\n        return _bearedTokens[msg.sender];\n    }\n\n    /**\n     * @dev query all the token Ids currently owned by a user/minter\n     * @return uint256[] an array of tokenId owned by a user\n     */\n    function getTokensOfOwner() public view returns (uint256[] memory) {\n        return _tokensOfOwner(msg.sender);\n    }\n\n    /**\n     * @dev convinence function that returns all useful information for a token\n     * @param tokenId uint256 Id of the token to be queried\n     * @return uint256 tokenId\n     * @return uint256 security deposit necessary to borrow the object\n     * @return address owner of the object\n     * @return address bearer of the object\n     * @return bool whether the object will be locked for borrowing\n     */\n    function getTokenMetadata(uint256 tokenId)\n        public\n        view\n        returns (\n            uint256 id,\n            string memory tokenURI, //just this cost 115 000 gas at deployement :-(\n            uint256 deposit,\n            address owner,\n            address bearer,\n            bool lock\n        )\n    {\n        //Metadata memory metadata = metadatas[tokenId];\n\n        id = tokenId;\n        tokenURI = this.tokenURI(tokenId);\n        //deposit = metadata.deposit;\n        deposit = deposits[tokenId];\n        owner = ownerOf(tokenId);\n        bearer = bearerOf(tokenId);\n        //lock = metadata.lock;\n        lock = locks[tokenId];\n    }\n\n}\n",
  "sourcePath": "/home/eth1/dev/git/bcproject/contracts/Thing1.sol",
  "compiler": {
    "name": "solc",
    "version": "0.5.11+commit.c082d0b4.Emscripten.clang"
  },
  "schemaVersion": "3.0.16",
  "updatedAt": "2020-01-30T20:21:43.026Z",
  "devdoc": {
    "author": "Fred",
    "details": "Upgradable contract built on OpenZeppelin ERC721 implementation with extensions",
    "methods": {
      "approve(address,uint256)": {
        "details": "Approves another address to transfer the given token ID The zero address indicates there is no approved address. There can only be one approved address per token at a given time. Can only be called by the token owner or an approved operator.",
        "params": {
          "to": "address to be approved for the given token ID",
          "tokenId": "uint256 ID of the token to be approved"
        }
      },
      "balanceOf(address)": {
        "details": "Gets the balance of the specified address.",
        "params": {
          "owner": "address to query the balance of"
        },
        "return": "uint256 representing the amount owned by the passed address"
      },
      "bearerOf(uint256)": {
        "details": "Gets the bearer or bearer of the specified tokenId.",
        "params": {
          "tokenId": "uint256 tokenId of the token to query the bearer of"
        },
        "return": "address currently marked as the bearer or owner of the given tokenId"
      },
      "borrow(uint256)": {
        "details": "Transfers the bearing of a given token ID to another address. Requires the from to be the bearer.",
        "params": {
          "tokenId": "uint256 ID of the token to be borrowed"
        }
      },
      "fundDeposit()": {
        "details": "send funds to the contract to fund future security deposits, must have a value",
        "return": "uint256 the new security deposit balance of the user"
      },
      "getApproved(uint256)": {
        "details": "Gets the approved address for a token ID, or zero if no address set Reverts if the token ID does not exist.",
        "params": {
          "tokenId": "uint256 ID of the token to query the approval of"
        },
        "return": "address currently approved for the given token ID"
      },
      "getDepositBalances()": {
        "details": "query the deposit balances (absolut & required) on the contract for the user",
        "return": "the absolute deposit balance on the contractthe balance required according to the object the user, currently bear (that can't be withdrawn)"
      },
      "getTokenMetadata(uint256)": {
        "details": "convinence function that returns all useful information for a token",
        "params": {
          "tokenId": "uint256 Id of the token to be queried"
        },
        "return": "uint256 tokenIduint256 security deposit necessary to borrow the objectaddress owner of the objectaddress bearer of the objectbool whether the object will be locked for borrowing"
      },
      "getTokensOfBearer()": {
        "details": "query all the token Ids currently borrowed by a user",
        "return": "uint256[] an array of tokenId borrowed by a user"
      },
      "getTokensOfOwner()": {
        "details": "query all the token Ids currently owned by a user/minter",
        "return": "uint256[] an array of tokenId owned by a user"
      },
      "initialize(address)": {
        "details": "Initializes the contract in unpaused state. Assigns the Pauser role to the deployer."
      },
      "initialize(string,string)": {
        "details": "Constructor function"
      },
      "initialize2()": {
        "details": "replace the contructor in the context of an upgradable contract, must always be called manually when creating a contract"
      },
      "isApprovedForAll(address,address)": {
        "details": "Tells whether an operator is approved by a given owner.",
        "params": {
          "operator": "operator address which you want to query the approval of",
          "owner": "owner address which you want to query the approval of"
        },
        "return": "bool whether the given operator is approved by the given owner"
      },
      "isOwner()": {
        "details": "Returns true if the caller is the current owner."
      },
      "lockToken(uint256)": {
        "details": "allow the owner of a token to lock it, so it can't be borrowed anymore",
        "params": {
          "tokenId": "uint256 ID of the token to be transferred"
        }
      },
      "mint(string,uint256)": {
        "details": "user function to mint a new token with off-chain metadata, automatically assign a new tokenId. You have to assigned the miner role to do so",
        "params": {
          "deposit": "uint256 security deposit for the object in Wei, defined as an on-chain metadata (mandatory)",
          "metadataIpfsHash": "string IPFS CID or hash for the tokenURI that will hold the off-chain metadata"
        },
        "return": "uint256 as the new tokenId"
      },
      "mintWithTokenURI(address,uint256,string)": {
        "details": "Function to mint tokens.",
        "params": {
          "to": "The address that will receive the minted tokens.",
          "tokenId": "The token id to mint.",
          "tokenURI": "The token URI of the minted token."
        },
        "return": "A boolean that indicates if the operation was successful."
      },
      "name()": {
        "details": "Gets the token name.",
        "return": "string representing the token name"
      },
      "owner()": {
        "details": "Returns the address of the current owner."
      },
      "ownerOf(uint256)": {
        "details": "Gets the owner of the specified token ID.",
        "params": {
          "tokenId": "uint256 ID of the token to query the owner of"
        },
        "return": "address currently marked as the owner of the given token ID"
      },
      "pause()": {
        "details": "Called by a pauser to pause, triggers stopped state."
      },
      "paused()": {
        "details": "Returns true if the contract is paused, and false otherwise."
      },
      "renounceOwnership()": {
        "details": "Leaves the contract without owner. It will not be possible to call `onlyOwner` functions anymore. Can only be called by the current owner.     * > Note: Renouncing ownership will leave the contract without an owner, thereby removing any functionality that is only available to the owner."
      },
      "safeTransferFrom(address,address,uint256)": {
        "details": "Safely transfers the ownership of a given token ID to another address If the target address is a contract, it must implement {IERC721Receiver-onERC721Received}, which is called upon a safe transfer, and return the magic value `bytes4(keccak256(\"onERC721Received(address,address,uint256,bytes)\"))`; otherwise, the transfer is reverted. Requires the msg.sender to be the owner, approved, or operator",
        "params": {
          "from": "current owner of the token",
          "to": "address to receive the ownership of the given token ID",
          "tokenId": "uint256 ID of the token to be transferred"
        }
      },
      "safeTransferFrom(address,address,uint256,bytes)": {
        "details": "Safely transfers the ownership of a given token ID to another address If the target address is a contract, it must implement {IERC721Receiver-onERC721Received}, which is called upon a safe transfer, and return the magic value `bytes4(keccak256(\"onERC721Received(address,address,uint256,bytes)\"))`; otherwise, the transfer is reverted. Requires the _msgSender() to be the owner, approved, or operator",
        "params": {
          "_data": "bytes data to send along with a safe transfer check",
          "from": "current owner of the token",
          "to": "address to receive the ownership of the given token ID",
          "tokenId": "uint256 ID of the token to be transferred"
        }
      },
      "setApprovalForAll(address,bool)": {
        "details": "Sets or unsets the approval of a given operator An operator is allowed to transfer all tokens of the sender on their behalf.",
        "params": {
          "approved": "representing the status of the approval to be set",
          "to": "operator address to set the approval"
        }
      },
      "supportsInterface(bytes4)": {
        "details": "See {IERC165-supportsInterface}.     * Time complexity O(1), guaranteed to always use less than 30 000 gas."
      },
      "symbol()": {
        "details": "Gets the token symbol.",
        "return": "string representing the token symbol"
      },
      "tokenByIndex(uint256)": {
        "details": "Gets the token ID at a given index of all the tokens in this contract Reverts if the index is greater or equal to the total number of tokens.",
        "params": {
          "index": "uint256 representing the index to be accessed of the tokens list"
        },
        "return": "uint256 token ID at the given index of the tokens list"
      },
      "tokenOfOwnerByIndex(address,uint256)": {
        "details": "Gets the token ID at a given index of the tokens list of the requested owner.",
        "params": {
          "index": "uint256 representing the index to be accessed of the requested tokens list",
          "owner": "address owning the tokens list to be accessed"
        },
        "return": "uint256 token ID at the given index of the tokens list owned by the requested address"
      },
      "tokenURI(uint256)": {
        "details": "Returns an URI for a given token ID. Throws if the token ID does not exist. May return an empty string.",
        "params": {
          "tokenId": "uint256 ID of the token to query"
        }
      },
      "totalSupply()": {
        "details": "Gets the total amount of tokens stored by the contract.",
        "return": "uint256 representing the total amount of tokens"
      },
      "transferFrom(address,address,uint256)": {
        "details": "Transfers the ownership of a given token ID to another address. Usage of this method is discouraged, use {safeTransferFrom} whenever possible. Requires the msg.sender to be the owner, approved, or operator.",
        "params": {
          "from": "current owner of the token",
          "to": "address to receive the ownership of the given token ID",
          "tokenId": "uint256 ID of the token to be transferred"
        }
      },
      "transferOwnership(address)": {
        "details": "Transfers ownership of the contract to a new account (`newOwner`). Can only be called by the current owner."
      },
      "unlockToken(uint256)": {
        "details": "allow the owner of a token to unlock it, so it can be borrowed again",
        "params": {
          "tokenId": "uint256 ID of the token to be transferred"
        }
      },
      "unpause()": {
        "details": "Called by a pauser to unpause, returns to normal state."
      },
      "withdrawDeposit()": {
        "details": "withdraw the max value authorized, meaning the balance minus the required balance, according to the objects currently borrowed. This is probably the most security sensitive function, it is protected by a safe send implementation & a protection against reentry"
      }
    },
    "title": "Thing"
  },
  "userdoc": {
    "methods": {
      "borrow(uint256)": {
        "notice": "the borrow functions manage the fact that if you are the owner, you balances won't be affted by the deposit"
      }
    },
    "notice": "Allow to share & borrow objects (Non Fungible Tokens) in a secure way"
  }
}