{
  "contractName": "Thing",
  "abi": [
    {
      "constant": true,
      "inputs": [
        {
          "internalType": "bytes4",
          "name": "interfaceId",
          "type": "bytes4"
        }
      ],
      "name": "supportsInterface",
      "outputs": [
        {
          "internalType": "bool",
          "name": "",
          "type": "bool"
        }
      ],
      "payable": false,
      "stateMutability": "view",
      "type": "function"
    },
    {
      "constant": true,
      "inputs": [
        {
          "internalType": "uint256",
          "name": "tokenId",
          "type": "uint256"
        }
      ],
      "name": "getApproved",
      "outputs": [
        {
          "internalType": "address",
          "name": "",
          "type": "address"
        }
      ],
      "payable": false,
      "stateMutability": "view",
      "type": "function"
    },
    {
      "constant": false,
      "inputs": [
        {
          "internalType": "address",
          "name": "to",
          "type": "address"
        },
        {
          "internalType": "uint256",
          "name": "tokenId",
          "type": "uint256"
        }
      ],
      "name": "approve",
      "outputs": [],
      "payable": false,
      "stateMutability": "nonpayable",
      "type": "function"
    },
    {
      "constant": true,
      "inputs": [],
      "name": "totalSupply",
      "outputs": [
        {
          "internalType": "uint256",
          "name": "",
          "type": "uint256"
        }
      ],
      "payable": false,
      "stateMutability": "view",
      "type": "function"
    },
    {
      "constant": false,
      "inputs": [
        {
          "internalType": "address",
          "name": "from",
          "type": "address"
        },
        {
          "internalType": "address",
          "name": "to",
          "type": "address"
        },
        {
          "internalType": "uint256",
          "name": "tokenId",
          "type": "uint256"
        }
      ],
      "name": "transferFrom",
      "outputs": [],
      "payable": false,
      "stateMutability": "nonpayable",
      "type": "function"
    },
    {
      "constant": true,
      "inputs": [
        {
          "internalType": "address",
          "name": "owner",
          "type": "address"
        },
        {
          "internalType": "uint256",
          "name": "index",
          "type": "uint256"
        }
      ],
      "name": "tokenOfOwnerByIndex",
      "outputs": [
        {
          "internalType": "uint256",
          "name": "",
          "type": "uint256"
        }
      ],
      "payable": false,
      "stateMutability": "view",
      "type": "function"
    },
    {
      "constant": false,
      "inputs": [],
      "name": "unpause",
      "outputs": [],
      "payable": false,
      "stateMutability": "nonpayable",
      "type": "function"
    },
    {
      "constant": false,
      "inputs": [
        {
          "internalType": "address",
          "name": "from",
          "type": "address"
        },
        {
          "internalType": "address",
          "name": "to",
          "type": "address"
        },
        {
          "internalType": "uint256",
          "name": "tokenId",
          "type": "uint256"
        }
      ],
      "name": "safeTransferFrom",
      "outputs": [],
      "payable": false,
      "stateMutability": "nonpayable",
      "type": "function"
    },
    {
      "constant": true,
      "inputs": [
        {
          "internalType": "address",
          "name": "account",
          "type": "address"
        }
      ],
      "name": "isPauser",
      "outputs": [
        {
          "internalType": "bool",
          "name": "",
          "type": "bool"
        }
      ],
      "payable": false,
      "stateMutability": "view",
      "type": "function"
    },
    {
      "constant": true,
      "inputs": [
        {
          "internalType": "uint256",
          "name": "index",
          "type": "uint256"
        }
      ],
      "name": "tokenByIndex",
      "outputs": [
        {
          "internalType": "uint256",
          "name": "",
          "type": "uint256"
        }
      ],
      "payable": false,
      "stateMutability": "view",
      "type": "function"
    },
    {
      "constant": true,
      "inputs": [],
      "name": "paused",
      "outputs": [
        {
          "internalType": "bool",
          "name": "",
          "type": "bool"
        }
      ],
      "payable": false,
      "stateMutability": "view",
      "type": "function"
    },
    {
      "constant": true,
      "inputs": [
        {
          "internalType": "uint256",
          "name": "tokenId",
          "type": "uint256"
        }
      ],
      "name": "ownerOf",
      "outputs": [
        {
          "internalType": "address",
          "name": "",
          "type": "address"
        }
      ],
      "payable": false,
      "stateMutability": "view",
      "type": "function"
    },
    {
      "constant": false,
      "inputs": [],
      "name": "renouncePauser",
      "outputs": [],
      "payable": false,
      "stateMutability": "nonpayable",
      "type": "function"
    },
    {
      "constant": true,
      "inputs": [
        {
          "internalType": "address",
          "name": "owner",
          "type": "address"
        }
      ],
      "name": "balanceOf",
      "outputs": [
        {
          "internalType": "uint256",
          "name": "",
          "type": "uint256"
        }
      ],
      "payable": false,
      "stateMutability": "view",
      "type": "function"
    },
    {
      "constant": false,
      "inputs": [],
      "name": "renounceOwnership",
      "outputs": [],
      "payable": false,
      "stateMutability": "nonpayable",
      "type": "function"
    },
    {
      "constant": false,
      "inputs": [
        {
          "internalType": "address",
          "name": "account",
          "type": "address"
        }
      ],
      "name": "addPauser",
      "outputs": [],
      "payable": false,
      "stateMutability": "nonpayable",
      "type": "function"
    },
    {
      "constant": false,
      "inputs": [],
      "name": "pause",
      "outputs": [],
      "payable": false,
      "stateMutability": "nonpayable",
      "type": "function"
    },
    {
      "constant": false,
      "inputs": [
        {
          "internalType": "address",
          "name": "to",
          "type": "address"
        },
        {
          "internalType": "uint256",
          "name": "tokenId",
          "type": "uint256"
        },
        {
          "internalType": "bytes",
          "name": "_data",
          "type": "bytes"
        }
      ],
      "name": "safeMint",
      "outputs": [
        {
          "internalType": "bool",
          "name": "",
          "type": "bool"
        }
      ],
      "payable": false,
      "stateMutability": "nonpayable",
      "type": "function"
    },
    {
      "constant": true,
      "inputs": [],
      "name": "owner",
      "outputs": [
        {
          "internalType": "address",
          "name": "",
          "type": "address"
        }
      ],
      "payable": false,
      "stateMutability": "view",
      "type": "function"
    },
    {
      "constant": true,
      "inputs": [],
      "name": "isOwner",
      "outputs": [
        {
          "internalType": "bool",
          "name": "",
          "type": "bool"
        }
      ],
      "payable": false,
      "stateMutability": "view",
      "type": "function"
    },
    {
      "constant": false,
      "inputs": [
        {
          "internalType": "address",
          "name": "account",
          "type": "address"
        }
      ],
      "name": "addMinter",
      "outputs": [],
      "payable": false,
      "stateMutability": "nonpayable",
      "type": "function"
    },
    {
      "constant": false,
      "inputs": [],
      "name": "renounceMinter",
      "outputs": [],
      "payable": false,
      "stateMutability": "nonpayable",
      "type": "function"
    },
    {
      "constant": false,
      "inputs": [
        {
          "internalType": "address",
          "name": "to",
          "type": "address"
        },
        {
          "internalType": "uint256",
          "name": "tokenId",
          "type": "uint256"
        }
      ],
      "name": "safeMint",
      "outputs": [
        {
          "internalType": "bool",
          "name": "",
          "type": "bool"
        }
      ],
      "payable": false,
      "stateMutability": "nonpayable",
      "type": "function"
    },
    {
      "constant": false,
      "inputs": [
        {
          "internalType": "address",
          "name": "to",
          "type": "address"
        },
        {
          "internalType": "bool",
          "name": "approved",
          "type": "bool"
        }
      ],
      "name": "setApprovalForAll",
      "outputs": [],
      "payable": false,
      "stateMutability": "nonpayable",
      "type": "function"
    },
    {
      "constant": true,
      "inputs": [
        {
          "internalType": "address",
          "name": "account",
          "type": "address"
        }
      ],
      "name": "isMinter",
      "outputs": [
        {
          "internalType": "bool",
          "name": "",
          "type": "bool"
        }
      ],
      "payable": false,
      "stateMutability": "view",
      "type": "function"
    },
    {
      "constant": false,
      "inputs": [
        {
          "internalType": "address",
          "name": "from",
          "type": "address"
        },
        {
          "internalType": "address",
          "name": "to",
          "type": "address"
        },
        {
          "internalType": "uint256",
          "name": "tokenId",
          "type": "uint256"
        },
        {
          "internalType": "bytes",
          "name": "_data",
          "type": "bytes"
        }
      ],
      "name": "safeTransferFrom",
      "outputs": [],
      "payable": false,
      "stateMutability": "nonpayable",
      "type": "function"
    },
    {
      "constant": true,
      "inputs": [
        {
          "internalType": "address",
          "name": "owner",
          "type": "address"
        },
        {
          "internalType": "address",
          "name": "operator",
          "type": "address"
        }
      ],
      "name": "isApprovedForAll",
      "outputs": [
        {
          "internalType": "bool",
          "name": "",
          "type": "bool"
        }
      ],
      "payable": false,
      "stateMutability": "view",
      "type": "function"
    },
    {
      "constant": false,
      "inputs": [
        {
          "internalType": "address",
          "name": "newOwner",
          "type": "address"
        }
      ],
      "name": "transferOwnership",
      "outputs": [],
      "payable": false,
      "stateMutability": "nonpayable",
      "type": "function"
    },
    {
      "anonymous": false,
      "inputs": [
        {
          "indexed": false,
          "internalType": "uint256",
          "name": "requiredDeposit",
          "type": "uint256"
        },
        {
          "indexed": false,
          "internalType": "uint256",
          "name": "currentBalance",
          "type": "uint256"
        },
        {
          "indexed": false,
          "internalType": "uint256",
          "name": "currentRequiredBalance",
          "type": "uint256"
        },
        {
          "indexed": false,
          "internalType": "uint256",
          "name": "newRequiredBalance",
          "type": "uint256"
        }
      ],
      "name": "Debug",
      "type": "event"
    },
    {
      "anonymous": false,
      "inputs": [
        {
          "indexed": false,
          "internalType": "address",
          "name": "account",
          "type": "address"
        }
      ],
      "name": "Paused",
      "type": "event"
    },
    {
      "anonymous": false,
      "inputs": [
        {
          "indexed": false,
          "internalType": "address",
          "name": "account",
          "type": "address"
        }
      ],
      "name": "Unpaused",
      "type": "event"
    },
    {
      "anonymous": false,
      "inputs": [
        {
          "indexed": true,
          "internalType": "address",
          "name": "account",
          "type": "address"
        }
      ],
      "name": "PauserAdded",
      "type": "event"
    },
    {
      "anonymous": false,
      "inputs": [
        {
          "indexed": true,
          "internalType": "address",
          "name": "account",
          "type": "address"
        }
      ],
      "name": "PauserRemoved",
      "type": "event"
    },
    {
      "anonymous": false,
      "inputs": [
        {
          "indexed": true,
          "internalType": "address",
          "name": "previousOwner",
          "type": "address"
        },
        {
          "indexed": true,
          "internalType": "address",
          "name": "newOwner",
          "type": "address"
        }
      ],
      "name": "OwnershipTransferred",
      "type": "event"
    },
    {
      "anonymous": false,
      "inputs": [
        {
          "indexed": true,
          "internalType": "address",
          "name": "account",
          "type": "address"
        }
      ],
      "name": "MinterAdded",
      "type": "event"
    },
    {
      "anonymous": false,
      "inputs": [
        {
          "indexed": true,
          "internalType": "address",
          "name": "account",
          "type": "address"
        }
      ],
      "name": "MinterRemoved",
      "type": "event"
    },
    {
      "anonymous": false,
      "inputs": [
        {
          "indexed": true,
          "internalType": "address",
          "name": "from",
          "type": "address"
        },
        {
          "indexed": true,
          "internalType": "address",
          "name": "to",
          "type": "address"
        },
        {
          "indexed": true,
          "internalType": "uint256",
          "name": "tokenId",
          "type": "uint256"
        }
      ],
      "name": "Transfer",
      "type": "event"
    },
    {
      "anonymous": false,
      "inputs": [
        {
          "indexed": true,
          "internalType": "address",
          "name": "owner",
          "type": "address"
        },
        {
          "indexed": true,
          "internalType": "address",
          "name": "approved",
          "type": "address"
        },
        {
          "indexed": true,
          "internalType": "uint256",
          "name": "tokenId",
          "type": "uint256"
        }
      ],
      "name": "Approval",
      "type": "event"
    },
    {
      "anonymous": false,
      "inputs": [
        {
          "indexed": true,
          "internalType": "address",
          "name": "owner",
          "type": "address"
        },
        {
          "indexed": true,
          "internalType": "address",
          "name": "operator",
          "type": "address"
        },
        {
          "indexed": false,
          "internalType": "bool",
          "name": "approved",
          "type": "bool"
        }
      ],
      "name": "ApprovalForAll",
      "type": "event"
    },
    {
      "constant": false,
      "inputs": [
        {
          "internalType": "address",
          "name": "sender",
          "type": "address"
        }
      ],
      "name": "initialize",
      "outputs": [],
      "payable": false,
      "stateMutability": "nonpayable",
      "type": "function"
    },
    {
      "constant": false,
      "inputs": [],
      "name": "initialize",
      "outputs": [],
      "payable": false,
      "stateMutability": "nonpayable",
      "type": "function"
    },
    {
      "constant": false,
      "inputs": [],
      "name": "mint",
      "outputs": [
        {
          "internalType": "uint256",
          "name": "",
          "type": "uint256"
        }
      ],
      "payable": false,
      "stateMutability": "nonpayable",
      "type": "function"
    },
    {
      "constant": false,
      "inputs": [
        {
          "internalType": "address",
          "name": "to",
          "type": "address"
        },
        {
          "internalType": "uint256",
          "name": "tokenId",
          "type": "uint256"
        }
      ],
      "name": "mint",
      "outputs": [
        {
          "internalType": "bool",
          "name": "",
          "type": "bool"
        }
      ],
      "payable": false,
      "stateMutability": "nonpayable",
      "type": "function"
    },
    {
      "constant": false,
      "inputs": [
        {
          "internalType": "string",
          "name": "name",
          "type": "string"
        },
        {
          "internalType": "string",
          "name": "picture",
          "type": "string"
        },
        {
          "internalType": "uint256",
          "name": "deposit",
          "type": "uint256"
        }
      ],
      "name": "mint",
      "outputs": [
        {
          "internalType": "uint256",
          "name": "",
          "type": "uint256"
        }
      ],
      "payable": false,
      "stateMutability": "nonpayable",
      "type": "function"
    },
    {
      "constant": true,
      "inputs": [
        {
          "internalType": "uint256",
          "name": "tokenId",
          "type": "uint256"
        }
      ],
      "name": "bearerOf",
      "outputs": [
        {
          "internalType": "address",
          "name": "",
          "type": "address"
        }
      ],
      "payable": false,
      "stateMutability": "view",
      "type": "function"
    },
    {
      "constant": false,
      "inputs": [
        {
          "internalType": "uint256",
          "name": "tokenId",
          "type": "uint256"
        }
      ],
      "name": "borrow",
      "outputs": [],
      "payable": false,
      "stateMutability": "nonpayable",
      "type": "function"
    },
    {
      "constant": false,
      "inputs": [
        {
          "internalType": "uint256",
          "name": "tokenId",
          "type": "uint256"
        }
      ],
      "name": "lockToken",
      "outputs": [],
      "payable": false,
      "stateMutability": "nonpayable",
      "type": "function"
    },
    {
      "constant": true,
      "inputs": [
        {
          "internalType": "uint256",
          "name": "tokenId",
          "type": "uint256"
        }
      ],
      "name": "isLocked",
      "outputs": [
        {
          "internalType": "bool",
          "name": "",
          "type": "bool"
        }
      ],
      "payable": false,
      "stateMutability": "view",
      "type": "function"
    },
    {
      "constant": true,
      "inputs": [],
      "name": "getDepositBalance",
      "outputs": [
        {
          "internalType": "uint256",
          "name": "",
          "type": "uint256"
        }
      ],
      "payable": false,
      "stateMutability": "view",
      "type": "function"
    },
    {
      "constant": false,
      "inputs": [],
      "name": "fundDeposit",
      "outputs": [
        {
          "internalType": "uint256",
          "name": "",
          "type": "uint256"
        }
      ],
      "payable": true,
      "stateMutability": "payable",
      "type": "function"
    },
    {
      "constant": false,
      "inputs": [],
      "name": "withdrawDeposit",
      "outputs": [
        {
          "internalType": "uint256",
          "name": "",
          "type": "uint256"
        }
      ],
      "payable": true,
      "stateMutability": "payable",
      "type": "function"
    },
    {
      "constant": true,
      "inputs": [],
      "name": "getTokensOfBearer",
      "outputs": [
        {
          "internalType": "uint256[]",
          "name": "",
          "type": "uint256[]"
        }
      ],
      "payable": false,
      "stateMutability": "view",
      "type": "function"
    },
    {
      "constant": true,
      "inputs": [],
      "name": "getTokensOfOwner",
      "outputs": [
        {
          "internalType": "uint256[]",
          "name": "",
          "type": "uint256[]"
        }
      ],
      "payable": false,
      "stateMutability": "view",
      "type": "function"
    },
    {
      "constant": true,
      "inputs": [
        {
          "internalType": "uint256",
          "name": "tokenId",
          "type": "uint256"
        }
      ],
      "name": "getTokenMetadata",
      "outputs": [
        {
          "internalType": "uint256",
          "name": "id",
          "type": "uint256"
        },
        {
          "internalType": "string",
          "name": "name",
          "type": "string"
        },
        {
          "internalType": "string",
          "name": "picture",
          "type": "string"
        },
        {
          "internalType": "uint256",
          "name": "deposit",
          "type": "uint256"
        },
        {
          "internalType": "address",
          "name": "owner",
          "type": "address"
        },
        {
          "internalType": "address",
          "name": "bearer",
          "type": "address"
        },
        {
          "internalType": "bool",
          "name": "lock",
          "type": "bool"
        }
      ],
      "payable": false,
      "stateMutability": "view",
      "type": "function"
    }
  ],
  "bytecode": "0x6080604052613c77806100136000396000f3fe6080604052600436106102dc5760003560e01c8063715018a611610184578063a22cb465116100d6578063c5ebeaec1161008a578063ecedbf5211610064578063ecedbf5214610ced578063f2fde38b14610d17578063f6aacfb114610d4a576102dc565b8063c5ebeaec14610b4c578063d41d9a2714610b76578063e985e9c514610cb2576102dc565b8063b68ceeaf116100bb578063b68ceeaf14610a31578063b88d4fde14610a46578063c4d66de814610b19576102dc565b8063a22cb465146109c3578063aa271e1a146109fe576102dc565b80638832e6e311610138578063983b2d5611610112578063983b2d56146109425780639865027514610975578063a14481941461098a576102dc565b80638832e6e3146108505780638da5cb5b146109185780638f32d59b1461092d576102dc565b80638129fc1c116101695780638129fc1c146107f357806382dc1ec4146108085780638456cb591461083b576102dc565b8063715018a6146107b457806380f20363146107c9576102dc565b80633f4ba83a1161023d5780635c975abb116101f15780636caa736b116101cb5780636caa736b146107645780636ef8d66d1461076c57806370a0823114610781576102dc565b80635c975abb146105d257806360316801146105e75780636352211e1461073a576102dc565b806342842e0e1161022257806342842e0e1461053257806346fbf68e146105755780634f6ccce7146105a8576102dc565b80633f4ba83a146104e457806340c10f19146104f9576102dc565b80631249c58b116102945780631b80ad78116102795780631b80ad781461040357806323b872dd146104685780632f745c59146104ab576102dc565b80631249c58b146103d957806318160ddd146103ee576102dc565b8063081812fc116102c5578063081812fc14610350578063095ea7b314610396578063117df088146103d1576102dc565b806301ffc9a7146102e15780630497de4a14610329575b600080fd5b3480156102ed57600080fd5b506103156004803603602081101561030457600080fd5b50356001600160e01b031916610d74565b604080519115158252519081900360200190f35b34801561033557600080fd5b5061033e610d97565b60408051918252519081900360200190f35b34801561035c57600080fd5b5061037a6004803603602081101561037357600080fd5b5035610dac565b604080516001600160a01b039092168252519081900360200190f35b3480156103a257600080fd5b506103cf600480360360408110156103b957600080fd5b506001600160a01b038135169060200135610e0e565b005b61033e610f36565b3480156103e557600080fd5b5061033e611019565b3480156103fa57600080fd5b5061033e611079565b34801561040f57600080fd5b5061041861107f565b60408051602080825283518183015283519192839290830191858101910280838360005b8381101561045457818101518382015260200161043c565b505050509050019250505060405180910390f35b34801561047457600080fd5b506103cf6004803603606081101561048b57600080fd5b506001600160a01b038135811691602081013590911690604001356110e1565b3480156104b757600080fd5b5061033e600480360360408110156104ce57600080fd5b506001600160a01b03813516906020013561113d565b3480156104f057600080fd5b506103cf6111bc565b34801561050557600080fd5b506103156004803603604081101561051c57600080fd5b506001600160a01b0381351690602001356112b0565b34801561053e57600080fd5b506103cf6004803603606081101561055557600080fd5b506001600160a01b03813581169160208101359091169060400135611310565b34801561058157600080fd5b506103156004803603602081101561059857600080fd5b50356001600160a01b031661132b565b3480156105b457600080fd5b5061033e600480360360208110156105cb57600080fd5b5035611345565b3480156105de57600080fd5b506103156113ab565b3480156105f357600080fd5b506106116004803603602081101561060a57600080fd5b50356113b5565b604051808881526020018060200180602001878152602001866001600160a01b03166001600160a01b03168152602001856001600160a01b03166001600160a01b0316815260200184151515158152602001838103835289818151815260200191508051906020019080838360005b83811015610698578181015183820152602001610680565b50505050905090810190601f1680156106c55780820380516001836020036101000a031916815260200191505b5083810382528851815288516020918201918a019080838360005b838110156106f85781810151838201526020016106e0565b50505050905090810190601f1680156107255780820380516001836020036101000a031916815260200191505b50995050505050505050505060405180910390f35b34801561074657600080fd5b5061037a6004803603602081101561075d57600080fd5b5035611563565b61033e6115b7565b34801561077857600080fd5b506103cf611647565b34801561078d57600080fd5b5061033e600480360360208110156107a457600080fd5b50356001600160a01b0316611659565b3480156107c057600080fd5b506103cf6116c1565b3480156107d557600080fd5b506103cf600480360360208110156107ec57600080fd5b5035611766565b3480156107ff57600080fd5b506103cf61182b565b34801561081457600080fd5b506103cf6004803603602081101561082b57600080fd5b50356001600160a01b03166118ee565b34801561084757600080fd5b506103cf61193d565b34801561085c57600080fd5b506103156004803603606081101561087357600080fd5b6001600160a01b03823516916020810135918101906060810160408201356401000000008111156108a357600080fd5b8201836020820111156108b557600080fd5b803590602001918460018302840111640100000000831117156108d757600080fd5b91908080601f016020809104026020016040519081016040528093929190818152602001838380828437600092019190915250929550611a13945050505050565b34801561092457600080fd5b5061037a611a70565b34801561093957600080fd5b50610315611a80565b34801561094e57600080fd5b506103cf6004803603602081101561096557600080fd5b50356001600160a01b0316611aa7565b34801561098157600080fd5b506103cf611af6565b34801561099657600080fd5b50610315600480360360408110156109ad57600080fd5b506001600160a01b038135169060200135611b06565b3480156109cf57600080fd5b506103cf600480360360408110156109e657600080fd5b506001600160a01b0381351690602001351515611b58565b348015610a0a57600080fd5b5061031560048036036020811015610a2157600080fd5b50356001600160a01b0316611c5d565b348015610a3d57600080fd5b50610418611c70565b348015610a5257600080fd5b506103cf60048036036080811015610a6957600080fd5b6001600160a01b03823581169260208101359091169160408201359190810190608081016060820135640100000000811115610aa457600080fd5b820183602082011115610ab657600080fd5b80359060200191846001830284011164010000000083111715610ad857600080fd5b91908080601f016020809104026020016040519081016040528093929190818152602001838380828437600092019190915250929550611ccd945050505050565b348015610b2557600080fd5b506103cf60048036036020811015610b3c57600080fd5b50356001600160a01b0316611d2b565b348015610b5857600080fd5b506103cf60048036036020811015610b6f57600080fd5b5035611de2565b348015610b8257600080fd5b5061033e60048036036060811015610b9957600080fd5b810190602081018135640100000000811115610bb457600080fd5b820183602082011115610bc657600080fd5b80359060200191846001830284011164010000000083111715610be857600080fd5b91908080601f0160208091040260200160405190810160405280939291908181526020018383808284376000920191909152509295949360208101935035915050640100000000811115610c3b57600080fd5b820183602082011115610c4d57600080fd5b80359060200191846001830284011164010000000083111715610c6f57600080fd5b91908080601f0160208091040260200160405190810160405280939291908181526020018383808284376000920191909152509295505091359250611df5915050565b348015610cbe57600080fd5b5061031560048036036040811015610cd557600080fd5b506001600160a01b0381358116916020013516611ed8565b348015610cf957600080fd5b5061037a60048036036020811015610d1057600080fd5b5035611f06565b348015610d2357600080fd5b506103cf60048036036020811015610d3a57600080fd5b50356001600160a01b0316611f9e565b348015610d5657600080fd5b5061031560048036036020811015610d6d57600080fd5b5035612000565b6001600160e01b0319811660009081526033602052604090205460ff165b919050565b33600090815261020a60205260409020545b90565b6000610db782612016565b610df25760405162461bcd60e51b815260040180806020018281038252602c815260200180613ac0602c913960400191505060405180910390fd5b506000908152606760205260409020546001600160a01b031690565b6000610e1982611563565b9050806001600160a01b0316836001600160a01b03161415610e6c5760405162461bcd60e51b8152600401808060200182810382526021815260200180613b976021913960400191505060405180910390fd5b806001600160a01b0316610e7e612033565b6001600160a01b03161480610e9f5750610e9f81610e9a612033565b611ed8565b610eda5760405162461bcd60e51b81526004018080602001828103825260388152602001806139c16038913960400191505060405180910390fd5b60008281526067602052604080822080546001600160a01b0319166001600160a01b0387811691821790925591518593918516917f8c5be1e5ebec7d5bd14f71427d1e84f3dd0314c0f7b2291e5b200ac8c7c3b92591a4505050565b6101d080546001019081905533600090815261020a602090815260408083205461020b90925282205491929183610f73838363ffffffff61203716565b9050610f85338263ffffffff61208016565b33600090815261020a6020526040902054610fa6908263ffffffff61203716565b33600090815261020a6020526040902081905594505050506101d0548114611015576040805162461bcd60e51b815260206004820152601f60248201527f5265656e7472616e637947756172643a207265656e7472616e742063616c6c00604482015290519081900360640190fd5b5090565b60006110746040518060400160405280600481526020017f54657374000000000000000000000000000000000000000000000000000000008152506040518060600160405280602e8152602001613c15602e91396001611df5565b905090565b609e5490565b33600090815261020760209081526040918290208054835181840281018401909452808452606093928301828280156110d757602002820191906000526020600020905b8154815260200190600101908083116110c3575b5050505050905090565b6110f26110ec612033565b82612166565b61112d5760405162461bcd60e51b8152600401808060200182810382526031815260200180613bb86031913960400191505060405180910390fd5b61113883838361220a565b505050565b600061114883611659565b82106111855760405162461bcd60e51b815260040180806020018281038252602b815260200180613835602b913960400191505060405180910390fd5b6001600160a01b0383166000908152609c602052604090208054839081106111a957fe5b9060005260206000200154905092915050565b6111cc6111c7612033565b61132b565b6112075760405162461bcd60e51b81526004018080602001828103825260308152602001806138926030913960400191505060405180910390fd5b61019d5460ff1661125f576040805162461bcd60e51b815260206004820152601460248201527f5061757361626c653a206e6f7420706175736564000000000000000000000000604482015290519081900360640190fd5b61019d805460ff191690557f5db9ee0a495bf2e6ff9c91a7834c1ba4fdd244a5e8aa4e537bd38aeae4b073aa611293612033565b604080516001600160a01b039092168252519081900360200190a1565b60006112c26112bd612033565b611c5d565b6112fd5760405162461bcd60e51b8152600401808060200182810382526030815260200180613a4c6030913960400191505060405180910390fd5b6113078383612229565b50600192915050565b61113883838360405180602001604052806000815250611ccd565b600061133f61016a8363ffffffff61224616565b92915050565b600061134f611079565b821061138c5760405162461bcd60e51b815260040180806020018281038252602c815260200180613be9602c913960400191505060405180910390fd5b609e828154811061139957fe5b90600052602060002001549050919050565b61019d5460ff1690565b60006060806000806000806113c8613711565b600089815261020360209081526040918290208251815460026001821615610100026000190190911604601f810184900490930281016080908101909452606081018381529093919284928491908401828280156114675780601f1061143c57610100808354040283529160200191611467565b820191906000526020600020905b81548152906001019060200180831161144a57829003601f168201915b50505050508152602001600182018054600181600116156101000203166002900480601f0160208091040260200160405190810160405280929190818152602001828054600181600116156101000203166002900480156115095780601f106114de57610100808354040283529160200191611509565b820191906000526020600020905b8154815290600101906020018083116114ec57829003601f168201915b50505050508152602001600282015481525050905088975080600001519650806020015195508060400151945061153f89611563565b935061154a89611f06565b925061155589612000565b915050919395979092949650565b6000818152606660205260408120546001600160a01b03168061133f5760405162461bcd60e51b8152600401808060200182810382526029815260200180613a236029913960400191505060405180910390fd5b600080341161160d576040805162461bcd60e51b815260206004820152601660248201527f5468696e673a2053656e742076616c7565203c3d203000000000000000000000604482015290519081900360640190fd5b33600090815261020a602052604081205461162e903463ffffffff6122ad16565b33600090815261020a6020526040902081905591505090565b611657611652612033565b612307565b565b60006001600160a01b0382166116a05760405162461bcd60e51b815260040180806020018281038252602a8152602001806139f9602a913960400191505060405180910390fd5b6001600160a01b038216600090815260686020526040902061133f90612350565b6116c9611a80565b61171a576040805162461bcd60e51b815260206004820181905260248201527f4f776e61626c653a2063616c6c6572206973206e6f7420746865206f776e6572604482015290519081900360640190fd5b610137546040516000916001600160a01b0316907f8be0079c531659141344cd1fd0a4f28419497f9722a3daafe3b4186f6b6457e0908390a361013780546001600160a01b0319169055565b61176f81612016565b6117c0576040805162461bcd60e51b815260206004820152601760248201527f5468696e673a20746f6b656e20646f6e74206578697374000000000000000000604482015290519081900360640190fd5b336117ca82611563565b6001600160a01b03161461180f5760405162461bcd60e51b815260040180806020018281038252602c8152602001806138e8602c913960400191505060405180910390fd5b600090815261020960205260409020805460ff19166001179055565b600054610100900460ff16806118445750611844612354565b80611852575060005460ff16155b61188d5760405162461bcd60e51b815260040180806020018281038252602e815260200180613b40602e913960400191505060405180910390fd5b600054610100900460ff161580156118b8576000805460ff1961ff0019909116610100171660011790555b6118c061235a565b6118c86123ff565b6118d1336124c6565b6118d9612582565b80156118eb576000805461ff00191690555b50565b6118f96111c7612033565b6119345760405162461bcd60e51b81526004018080602001828103825260308152602001806138926030913960400191505060405180910390fd5b6118eb81612629565b6119486111c7612033565b6119835760405162461bcd60e51b81526004018080602001828103825260308152602001806138926030913960400191505060405180910390fd5b61019d5460ff16156119dc576040805162461bcd60e51b815260206004820152601060248201527f5061757361626c653a2070617573656400000000000000000000000000000000604482015290519081900360640190fd5b61019d805460ff191660011790557f62e78cea01bee320cd4e420270b5ea74000d11b0c9f74754ebdbfc544b05a258611293612033565b6000611a206112bd612033565b611a5b5760405162461bcd60e51b8152600401808060200182810382526030815260200180613a4c6030913960400191505060405180910390fd5b611a66848484612672565b5060019392505050565b610137546001600160a01b031690565b610137546000906001600160a01b0316611a98612033565b6001600160a01b031614905090565b611ab26112bd612033565b611aed5760405162461bcd60e51b8152600401808060200182810382526030815260200180613a4c6030913960400191505060405180910390fd5b6118eb816126c4565b611657611b01612033565b61270c565b6000611b136112bd612033565b611b4e5760405162461bcd60e51b8152600401808060200182810382526030815260200180613a4c6030913960400191505060405180910390fd5b6113078383612754565b611b60612033565b6001600160a01b0316826001600160a01b03161415611bc6576040805162461bcd60e51b815260206004820152601960248201527f4552433732313a20617070726f766520746f2063616c6c657200000000000000604482015290519081900360640190fd5b8060696000611bd3612033565b6001600160a01b03908116825260208083019390935260409182016000908120918716808252919093529120805460ff191692151592909217909155611c17612033565b60408051841515815290516001600160a01b0392909216917f17307eab39ab6107e8899845ad3d59bd9653f200f220920489ca2b5937696c319181900360200190a35050565b600061133f60d28363ffffffff61224616565b6060611c7b3361276e565b8054806020026020016040519081016040528092919081815260200182805480156110d757602002820191906000526020600020908154815260200190600101908083116110c3575050505050905090565b611cde611cd8612033565b83612166565b611d195760405162461bcd60e51b8152600401808060200182810382526031815260200180613bb86031913960400191505060405180910390fd5b611d2584848484612788565b50505050565b600054610100900460ff1680611d445750611d44612354565b80611d52575060005460ff16155b611d8d5760405162461bcd60e51b815260040180806020018281038252602e815260200180613b40602e913960400191505060405180910390fd5b600054610100900460ff16158015611db8576000805460ff1961ff0019909116610100171660011790555b611dc1826127da565b61019d805460ff191690558015611dde576000805461ff00191690555b5050565b6118eb611dee82611f06565b338361287d565b6000611e026112bd612033565b611e3d5760405162461bcd60e51b8152600401808060200182810382526030815260200180613a4c6030913960400191505060405180910390fd5b611e48610204612be2565b6000611e55610204612350565b9050611e5f613711565b5060408051606081018252868152602080820187905281830186905260008481526102038252929092208151805192938493611e9e9284920190613732565b506020828101518051611eb79260018501920190613732565b5060408201518160020155905050611ecf3383612229565b50949350505050565b6001600160a01b03918216600090815260696020908152604080832093909416825291909152205460ff1690565b600080611f1283611563565b90506001600160a01b038116611f595760405162461bcd60e51b81526004018080602001828103825260288152602001806137e76028913960400191505060405180910390fd5b600083815261020560205260409020546001600160a01b031615611f97575050600081815261020560205260409020546001600160a01b0316610d92565b9050610d92565b611fa6611a80565b611ff7576040805162461bcd60e51b815260206004820181905260248201527f4f776e61626c653a2063616c6c6572206973206e6f7420746865206f776e6572604482015290519081900360640190fd5b6118eb81612beb565b6000908152610209602052604090205460ff1690565b6000908152606660205260409020546001600160a01b0316151590565b3390565b600061207983836040518060400160405280601e81526020017f536166654d6174683a207375627472616374696f6e206f766572666c6f770000815250612c8e565b9392505050565b30318111156120d6576040805162461bcd60e51b815260206004820152601d60248201527f416464726573733a20696e73756666696369656e742062616c616e6365000000604482015290519081900360640190fd5b6040516000906001600160a01b0384169083908381818185875af1925050503d8060008114612121576040519150601f19603f3d011682016040523d82523d6000602084013e612126565b606091505b50509050806111385760405162461bcd60e51b815260040180806020018281038252603a81526020018061395b603a913960400191505060405180910390fd5b600061217182612016565b6121ac5760405162461bcd60e51b815260040180806020018281038252602c815260200180613995602c913960400191505060405180910390fd5b60006121b783611563565b9050806001600160a01b0316846001600160a01b031614806121f25750836001600160a01b03166121e784610dac565b6001600160a01b0316145b8061220257506122028185611ed8565b949350505050565b612215838383612d25565b61221f8382612e69565b6111388282612f5e565b6122338282612f9c565b61223d8282612f5e565b611dde816130cd565b60006001600160a01b03821661228d5760405162461bcd60e51b8152600401808060200182810382526022815260200180613b1e6022913960400191505060405180910390fd5b506001600160a01b03166000908152602091909152604090205460ff1690565b600082820183811015612079576040805162461bcd60e51b815260206004820152601b60248201527f536166654d6174683a206164646974696f6e206f766572666c6f770000000000604482015290519081900360640190fd5b61231961016a8263ffffffff61311116565b6040516001600160a01b038216907fcd265ebaf09df2871cc7bd4133404a235ba12eff2041bb89d9c714a2621c7c7e90600090a250565b5490565b303b1590565b600054610100900460ff16806123735750612373612354565b80612381575060005460ff16155b6123bc5760405162461bcd60e51b815260040180806020018281038252602e815260200180613b40602e913960400191505060405180910390fd5b600054610100900460ff161580156123e7576000805460ff1961ff0019909116610100171660011790555b6123ef613178565b6118d96380ac58cd60e01b61322a565b600054610100900460ff16806124185750612418612354565b80612426575060005460ff16155b6124615760405162461bcd60e51b815260040180806020018281038252602e815260200180613b40602e913960400191505060405180910390fd5b600054610100900460ff1615801561248c576000805460ff1961ff0019909116610100171660011790555b6124946132ae565b61249d57600080fd5b6118d97f780e9d630000000000000000000000000000000000000000000000000000000061322a565b600054610100900460ff16806124df57506124df612354565b806124ed575060005460ff16155b6125285760405162461bcd60e51b815260040180806020018281038252602e815260200180613b40602e913960400191505060405180910390fd5b600054610100900460ff16158015612553576000805460ff1961ff0019909116610100171660011790555b61255b6132ae565b61256457600080fd5b61256d826132c0565b8015611dde576000805461ff00191690555050565b600054610100900460ff168061259b575061259b612354565b806125a9575060005460ff16155b6125e45760405162461bcd60e51b815260040180806020018281038252602e815260200180613b40602e913960400191505060405180910390fd5b600054610100900460ff1615801561260f576000805460ff1961ff0019909116610100171660011790555b60016101d05580156118eb576000805461ff001916905550565b61263b61016a8263ffffffff61336316565b6040516001600160a01b038216907f6719d08c1888103bea251a4ed56406bd0c3e69723c8a1686e017e7bbe159b6f890600090a250565b61267c8383612229565b61268960008484846133e4565b6111385760405162461bcd60e51b81526004018080602001828103825260328152602001806138606032913960400191505060405180910390fd5b6126d560d28263ffffffff61336316565b6040516001600160a01b038216907f6ae172837ea30b801fbfcdd4108aa1d5bf8ff775444fd70256b44e6bf3dfc3f690600090a250565b61271d60d28263ffffffff61311116565b6040516001600160a01b038216907fe94479a9f7e1952cc78f2d6baab678adc1b772d936c6583def489e524cb6669290600090a250565b611dde828260405180602001604052806000815250612672565b6001600160a01b03166000908152609c6020526040902090565b61279384848461220a565b61279f848484846133e4565b611d255760405162461bcd60e51b81526004018080602001828103825260328152602001806138606032913960400191505060405180910390fd5b600054610100900460ff16806127f357506127f3612354565b80612801575060005460ff16155b61283c5760405162461bcd60e51b815260040180806020018281038252602e815260200180613b40602e913960400191505060405180910390fd5b600054610100900460ff16158015612867576000805460ff1961ff0019909116610100171660011790555b6128708261132b565b61256d5761256d82612629565b61288681612016565b6128d7576040805162461bcd60e51b815260206004820152601760248201527f5468696e673a20746f6b656e20646f6e74206578697374000000000000000000604482015290519081900360640190fd5b6001600160a01b03821661291c5760405162461bcd60e51b8152600401808060200182810382526023815260200180613a9d6023913960400191505060405180910390fd5b61292581611f06565b6001600160a01b0316826001600160a01b031614156129755760405162461bcd60e51b81526004018080602001828103825260238152602001806139146023913960400191505060405180910390fd5b61297e81612000565b156129ba5760405162461bcd60e51b815260040180806020018281038252602681526020018061380f6026913960400191505060405180910390fd5b60006129c582611563565b600083815261020360205260409020600201549091508015612b26576001600160a01b03808616600081815261020b60205260408120549290919085161415612a0f575080612a22565b612a1f828463ffffffff61203716565b90505b6001600160a01b03808716600081815261020a602090815260408083205461020b909252822054909390929088161415612a5d575080612a70565b612a6d828763ffffffff6122ad16565b90505b60408051878152602081018590528082018490526060810183905290517ff3ee2bbb0b9b66cf7c48e59107dadde90e37dd99b20f2fcc50b1a8929b6599109181900360800190a180831015612af65760405162461bcd60e51b8152600401808060200182810382526032815260200180613aec6032913960400191505060405180910390fd5b6001600160a01b03808b16600090815261020b602052604080822096909655908a16815293909320929092555050505b846001600160a01b0316826001600160a01b031614612b6b57612b498584613554565b6001600160a01b038516600090815261020660205260409020612b6b90613648565b836001600160a01b0316826001600160a01b031614612bb057612b8e848461365f565b6001600160a01b038416600090815261020660205260409020612bb090612be2565b505060009081526102056020526040902080546001600160a01b0319166001600160a01b039290921691909117905550565b80546001019055565b6001600160a01b038116612c305760405162461bcd60e51b81526004018080602001828103825260268152602001806138c26026913960400191505060405180910390fd5b610137546040516001600160a01b038084169216907f8be0079c531659141344cd1fd0a4f28419497f9722a3daafe3b4186f6b6457e090600090a361013780546001600160a01b0319166001600160a01b0392909216919091179055565b60008184841115612d1d5760405162461bcd60e51b81526004018080602001828103825283818151815260200191508051906020019080838360005b83811015612ce2578181015183820152602001612cca565b50505050905090810190601f168015612d0f5780820380516001836020036101000a031916815260200191505b509250505060405180910390fd5b505050900390565b826001600160a01b0316612d3882611563565b6001600160a01b031614612d7d5760405162461bcd60e51b8152600401808060200182810382526029815260200180613b6e6029913960400191505060405180910390fd5b6001600160a01b038216612dc25760405162461bcd60e51b81526004018080602001828103825260248152602001806139376024913960400191505060405180910390fd5b612dcb8161369f565b6001600160a01b0383166000908152606860205260409020612dec90613648565b6001600160a01b0382166000908152606860205260409020612e0d90612be2565b60008181526066602052604080822080546001600160a01b0319166001600160a01b0386811691821790925591518493918716917fddf252ad1be2c89b69c2b068fc378daa952ba7f163c4a11628f55a4df523b3ef91a4505050565b6001600160a01b0382166000908152609c6020526040812054612e9390600163ffffffff61203716565b6000838152609d6020526040902054909150808214612f2e576001600160a01b0384166000908152609c60205260408120805484908110612ed057fe5b9060005260206000200154905080609c6000876001600160a01b03166001600160a01b031681526020019081526020016000208381548110612f0e57fe5b6000918252602080832090910192909255918252609d9052604090208190555b6001600160a01b0384166000908152609c60205260409020805490612f579060001983016137ac565b5050505050565b6001600160a01b039091166000908152609c602081815260408084208054868652609d84529185208290559282526001810183559183529091200155565b6001600160a01b038216612ff7576040805162461bcd60e51b815260206004820181905260248201527f4552433732313a206d696e7420746f20746865207a65726f2061646472657373604482015290519081900360640190fd5b61300081612016565b15613052576040805162461bcd60e51b815260206004820152601c60248201527f4552433732313a20746f6b656e20616c7265616479206d696e74656400000000604482015290519081900360640190fd5b600081815260666020908152604080832080546001600160a01b0319166001600160a01b03871690811790915583526068909152902061309190612be2565b60405181906001600160a01b038416906000907fddf252ad1be2c89b69c2b068fc378daa952ba7f163c4a11628f55a4df523b3ef908290a45050565b609e80546000838152609f60205260408120829055600182018355919091527fcfe2a20ff701a1f3e14f63bd70d6c6bc6fba8172ec6d5a505cdab3927c0a9de60155565b61311b8282612246565b6131565760405162461bcd60e51b8152600401808060200182810382526021815260200180613a7c6021913960400191505060405180910390fd5b6001600160a01b0316600090815260209190915260409020805460ff19169055565b600054610100900460ff16806131915750613191612354565b8061319f575060005460ff16155b6131da5760405162461bcd60e51b815260040180806020018281038252602e815260200180613b40602e913960400191505060405180910390fd5b600054610100900460ff16158015613205576000805460ff1961ff0019909116610100171660011790555b6118d97f01ffc9a7000000000000000000000000000000000000000000000000000000005b6001600160e01b03198082161415613289576040805162461bcd60e51b815260206004820152601c60248201527f4552433136353a20696e76616c696420696e7465726661636520696400000000604482015290519081900360640190fd5b6001600160e01b0319166000908152603360205260409020805460ff19166001179055565b60006110746380ac58cd60e01b610d74565b600054610100900460ff16806132d957506132d9612354565b806132e7575060005460ff16155b6133225760405162461bcd60e51b815260040180806020018281038252602e815260200180613b40602e913960400191505060405180910390fd5b600054610100900460ff1615801561334d576000805460ff1961ff0019909116610100171660011790555b61335682611c5d565b61256d5761256d826126c4565b61336d8282612246565b156133bf576040805162461bcd60e51b815260206004820152601f60248201527f526f6c65733a206163636f756e7420616c72656164792068617320726f6c6500604482015290519081900360640190fd5b6001600160a01b0316600090815260209190915260409020805460ff19166001179055565b60006133f8846001600160a01b03166136da565b61340457506001612202565b6000846001600160a01b031663150b7a0261341d612033565b8887876040518563ffffffff1660e01b815260040180856001600160a01b03166001600160a01b03168152602001846001600160a01b03166001600160a01b0316815260200183815260200180602001828103825283818151815260200191508051906020019080838360005b838110156134a257818101518382015260200161348a565b50505050905090810190601f1680156134cf5780820380516001836020036101000a031916815260200191505b5095505050505050602060405180830381600087803b1580156134f157600080fd5b505af1158015613505573d6000803e3d6000fd5b505050506040513d602081101561351b57600080fd5b50516001600160e01b0319167f150b7a020000000000000000000000000000000000000000000000000000000014915050949350505050565b6001600160a01b0382166000908152610207602052604081205461357f90600163ffffffff61203716565b6000838152610208602052604090205490915080821461361e576001600160a01b0384166000908152610207602052604081208054849081106135be57fe5b90600052602060002001549050806102076000876001600160a01b03166001600160a01b0316815260200190815260200160002083815481106135fd57fe5b60009182526020808320909101929092559182526102089052604090208190555b6001600160a01b038416600090815261020760205260409020805490612f579060001983016137ac565b805461365b90600163ffffffff61203716565b9055565b6001600160a01b03909116600090815261020760208181526040808420805486865261020884529185208290559282526001810183559183529091200155565b6000818152606760205260409020546001600160a01b0316156118eb57600090815260676020526040902080546001600160a01b0319169055565b6000813f7fc5d2460186f7233c927e7db2dcc703c0e500b653ca82273b7bfad8045d85a47081158015906122025750141592915050565b60405180606001604052806060815260200160608152602001600081525090565b828054600181600116156101000203166002900490600052602060002090601f016020900481019282601f1061377357805160ff19168380011785556137a0565b828001600101855582156137a0579182015b828111156137a0578251825591602001919060010190613785565b506110159291506137cc565b815481835581811115611138576000838152602090206111389181019083015b610da991905b8082111561101557600081556001016137d256fe5468696e673a206f776e657220717565727920666f72206e6f6e6578697374656e7420746f6b656e5468696e673a20746f6b656e206973206c6f636b65642c2063616e7420626f72726f77206974455243373231456e756d657261626c653a206f776e657220696e646578206f7574206f6620626f756e64734552433732313a207472616e7366657220746f206e6f6e20455243373231526563656976657220696d706c656d656e746572506175736572526f6c653a2063616c6c657220646f6573206e6f742068617665207468652050617573657220726f6c654f776e61626c653a206e6577206f776e657220697320746865207a65726f20616464726573735468696e673a206f6e6c7920746865206f776e6572206f66206120746f6b656e2063616e206c6f636b2069745468696e673a20796f7520616c726561647920626561722074686174206f626a6563744552433732313a207472616e7366657220746f20746865207a65726f2061646472657373416464726573733a20756e61626c6520746f2073656e642076616c75652c20726563697069656e74206d617920686176652072657665727465644552433732313a206f70657261746f7220717565727920666f72206e6f6e6578697374656e7420746f6b656e4552433732313a20617070726f76652063616c6c6572206973206e6f74206f776e6572206e6f7220617070726f76656420666f7220616c6c4552433732313a2062616c616e636520717565727920666f7220746865207a65726f20616464726573734552433732313a206f776e657220717565727920666f72206e6f6e6578697374656e7420746f6b656e4d696e746572526f6c653a2063616c6c657220646f6573206e6f74206861766520746865204d696e74657220726f6c65526f6c65733a206163636f756e7420646f6573206e6f74206861766520726f6c655468696e673a207472616e7366657220746f20746865207a65726f20616464726573734552433732313a20617070726f76656420717565727920666f72206e6f6e6578697374656e7420746f6b656e5468696e673a206465706f736974206973206e6f7420656e6f75676820746f20626f72726f772074686973206f626a656374526f6c65733a206163636f756e7420697320746865207a65726f2061646472657373436f6e747261637420696e7374616e63652068617320616c7265616479206265656e20696e697469616c697a65644552433732313a207472616e73666572206f6620746f6b656e2074686174206973206e6f74206f776e4552433732313a20617070726f76616c20746f2063757272656e74206f776e65724552433732313a207472616e736665722063616c6c6572206973206e6f74206f776e6572206e6f7220617070726f766564455243373231456e756d657261626c653a20676c6f62616c20696e646578206f7574206f6620626f756e6473516d577a71334b6a786f337a536553334b5278543673757071396b375a42526356474778416b4a6d7059744d4e43a265627a7a723158206d75457952dc79aa845528c271d7a2795f53ebc3d418250cd27b6b420ed54d7864736f6c634300050b0032",
  "source": "pragma solidity 0.5.11; //SEC fix compiler version\n\nimport '@openzeppelin/upgrades/contracts/Initializable.sol';\nimport '@openzeppelin/contracts-ethereum-package/contracts/ownership/Ownable.sol';\nimport '@openzeppelin/contracts-ethereum-package/contracts/lifecycle/Pausable.sol';\nimport '@openzeppelin/contracts-ethereum-package/contracts/math/SafeMath.sol';\nimport '@openzeppelin/contracts-ethereum-package/contracts/drafts/Counters.sol';\n\nimport '@openzeppelin/contracts-ethereum-package/contracts/utils/Address.sol';\nimport '@openzeppelin/contracts-ethereum-package/contracts/utils/ReentrancyGuard.sol';\n\nimport '@openzeppelin/contracts-ethereum-package/contracts/token/ERC721/ERC721.sol';\nimport '@openzeppelin/contracts-ethereum-package/contracts/token/ERC721/ERC721Enumerable.sol';\n//import '@openzeppelin/contracts-ethereum-package/contracts/token/ERC721/ERC721Full.sol';\nimport '@openzeppelin/contracts-ethereum-package/contracts/token/ERC721/ERC721Mintable.sol';\n//import '@openzeppelin/contracts-ethereum-package/contracts/token/ERC721/ERC721Mintable.sol';\n//import '@openzeppelin/contracts-ethereum-package/contracts/token/ERC721/ERC721Pausable.sol';\n\n/**\n * @title Thing\n * @author Fred\n * @notice Allow to share & borrow things (Non Fungible Tokens) in a secure way\n * @dev Upgradable contract built on OpenZeppelin ERC721 implementation with extensions\n */\ncontract Thing is\n            Initializable  /// required for contract upgradability\n            //ERC721Full,     /// Initializable/ERC721/ERC721Enumerable/ERC721Metadata\n            , ERC721\n            , ERC721Enumerable\n            , ERC721Mintable /// Initializable/ERC721/MinterRole\n            //, ERC721Pausable\n            , Ownable\n            , Pausable\n            , ReentrancyGuard\n        {\n  using SafeMath for uint256;\n  using Counters for Counters.Counter;\n  using Address for address payable;\n\n\n  // FEATURE 2 : token metadata (on-chain)\n  struct Metadata {\n    string name;\n    string picture; //IPFS hash\n    uint256 deposit;\n  }\n\n  mapping(uint256 => Metadata) private metadatas;\n\n  // FEATURE 3 : tokenId auto-increment\n  Counters.Counter private counterTokenIds;\n\n  // FEATURE 4 : borrowing of token\n  //Mapping from token ID to bearer\n  mapping(uint256 => address) private _tokenBearer;\n  // Mapping from bearer to number of beared token\n  mapping (address => Counters.Counter) private _borrowedTokensCount; //TODO not only bearer\n  // Mapping from bearer to list of beared token IDs\n  mapping(address => uint256[]) private _bearedTokens;\n  // Mapping from token ID to index of the bearer tokens list\n  mapping(uint256 => uint256) private _bearedTokensIndex;\n\n  // FEATURE 5 : locking of token borrowing\n  mapping(uint256 => bool) private locked; //array would be very inefficient for this since there is no contains function\n\n  // FEATURE 6 : deposit\n  mapping(address => uint256) private balances;\n  // we create a mapping of current required min balance per user according to the currently beared things.\n  mapping(address => uint256) private requiredBalances;\n\n\n  // EVENTS\n\n\n  /**\n   * @dev Initializer used for tests\n   */\n  /*\n  function initialize(address owner, address pauser, address minter) public initializer {\n    ERC721.initialize();\n    ERC721Enumerable.initialize();\n    //ERC721Metadata.initialize(\"Thing\", \"TG1\");\n    ERC721Mintable.initialize(minter);\n    //ERC721Pausable.initialize(pauser);\n    /// do we need another/instead\n    Pausable.initialize(pauser);\n    Ownable.initialize(owner);\n    ReentrancyGuard.initialize();\n  }*/\n\n\n  function initialize() public initializer {\n    ERC721.initialize();\n    ERC721Enumerable.initialize();\n    //ERC721Metadata.initialize(\"Thing\", \"TG1\");\n    ERC721Mintable.initialize(msg.sender);\n    //ERC721Pausable.initialize(msg.sender);\n    /// do we need another/instead\n    //Pausable.initialize(msg.sender); FIXME\n    //Ownable.initialize(msg.sender); FIXME\n    ReentrancyGuard.initialize();\n  }\n\n  // FEATURE 1 : killable contract\n  /*\n  function kill() public onlyOwner {\n    address payable owner = address(uint160(owner()));\n    selfdestruct(owner);\n  }*/\n\n\n  function mint() public returns (uint256) {\n    return mint(\"Test\", \"QmWzq3Kjxo3zSeS3KRxT6supq9k7ZBRcVGGxAkJmpYtMNC\", 1);\n  }\n\n/*\n  function mint(string memory name) public returns (uint256) {\n    return mint(name, \"QmWzq3Kjxo3zSeS3KRxT6supq9k7ZBRcVGGxAkJmpYtMNC\", 0);\n  }\n\n  function mint(string memory name, uint256 deposit) public returns (uint256) {\n    return mint(name, \"QmWzq3Kjxo3zSeS3KRxT6supq9k7ZBRcVGGxAkJmpYtMNC\", deposit);\n  }*/\n\n  function mint(string memory name, string memory picture, uint256 deposit) public onlyMinter returns (uint256) {\n\n    // Make sure we have a new tokenId with the help of Counter\n    counterTokenIds.increment();\n    uint256 newTokenId = counterTokenIds.current();\n\n    Metadata memory metadata = Metadata({\n      name: name,\n      picture: picture,\n      deposit: deposit\n    });\n\n    //uint256 tokenId = metadatas.push(metadata) - 1;\n    metadatas[newTokenId] = metadata;\n\n    super._mint(msg.sender, newTokenId);\n\n    return newTokenId;\n  }\n\n\n\n  // FEATURE 4 : borrowing of token\n    /**\n     * @dev Gets the bearer or bearer of the specified token ID.\n     * @param tokenId uint256 ID of the token to query the bearer of\n     * @return address currently marked as the bearer or owner of the given token ID\n     */\n    function bearerOf(uint256 tokenId) public view returns (address) {\n        address owner = ownerOf(tokenId);\n        require(owner != address(0), \"Thing: owner query for nonexistent token\");\n\n        if(_tokenBearer[tokenId] != address(0)) {\n            return _tokenBearer[tokenId];\n        } else {\n            return owner;\n        }\n    }\n\n\n    /**\n     * @dev Private function to add a token to this extension's bearership-tracking data structures.\n     * @param to address representing the new bearer of the given token ID\n     * @param tokenId uint256 ID of the token to be added to the tokens list of the given address\n     */\n    function _addTokenToBearerEnumeration(address to, uint256 tokenId) private {\n        _bearedTokensIndex[tokenId] = _bearedTokens[to].length;\n        _bearedTokens[to].push(tokenId);\n    }\n\n    /**\n     * @dev Private function to remove a token from this extension's ownership-tracking data structures. Note that\n     * while the token is not assigned a new bearer, the _ownedTokensIndex mapping is _not_ updated: this allows for\n     * gas optimizations e.g. when performing a transfer operation (avoiding double writes).\n     * This has O(1) time complexity, but alters the order of the _ownedTokens array.\n     * @param from address representing the previous bearer of the given token ID\n     * @param tokenId uint256 ID of the token to be removed from the tokens list of the given address\n     */\n    function _removeTokenFromBearerEnumeration(address from, uint256 tokenId) private {\n        // To prevent a gap in from's tokens array, we store the last token in the index of the token to delete, and\n        // then delete the last slot (swap and pop).\n\n        uint256 lastTokenIndex = _bearedTokens[from].length.sub(1);\n        uint256 tokenIndex = _bearedTokensIndex[tokenId];\n\n        // When the token to delete is the last token, the swap operation is unnecessary\n        if (tokenIndex != lastTokenIndex) {\n            uint256 lastTokenId = _bearedTokens[from][lastTokenIndex];\n\n            _bearedTokens[from][tokenIndex] = lastTokenId; // Move the last token to the slot of the to-delete token\n            _bearedTokensIndex[lastTokenId] = tokenIndex; // Update the moved token's index\n        }\n\n        // This also deletes the contents at the last position of the array\n        _bearedTokens[from].length--;\n    }\n\n\n    /**\n     * @dev Transfers the bearing of a given token ID to another address.\n     * Requires the from to be the bearer\n     * @param tokenId uint256 ID of the token to be borrowed\n     */\n    function borrow(uint256 tokenId) public {\n        //TODO require process\n        //require(bearerOf(tokenId) == from, \"Things: transfer of token that is not beared\");\n        _borrowFrom(bearerOf(tokenId), msg.sender, tokenId);\n    }\n\n    event Debug(uint256 requiredDeposit, uint256 currentBalance, uint256 currentRequiredBalance, uint256 newRequiredBalance);\n\n    /**\n     * @dev Internal function to borrow a given token ID.\n     * As opposed to borrowFrom, this imposes no restrictions on msg.sender.\n     * @param from current bearer of the token\n     * @param to receipient\n     * @param tokenId uint256 ID of the token to be transferred\n     */\n    function _borrowFrom(address from, address to, uint256 tokenId) internal {\n        require(_exists(tokenId), \"Thing: token dont exist\");\n        require(to != address(0), \"Thing: transfer to the zero address\");\n        require(to != bearerOf(tokenId), \"Thing: you already bear that object\");\n        require(!isLocked(tokenId), \"Thing: token is locked, cant borrow it\");\n        //require(!paused());//, \"Paused\");\n\n        address owner = ownerOf(tokenId);\n\n        // FEATURE 6 : deposit\n        uint256 requiredDeposit = metadatas[tokenId].deposit;\n\n        // TODO We have to manage the fact that the owner do not need a deposit\n        if(requiredDeposit > 0) {\n          //check user current balance\n\n          //uint256 currentFromBalance = balances[from];\n          uint256 currentFromRequiredBalance = requiredBalances[from];\n          uint256 newFromRequiredBalance;\n          if(from == owner) {\n            newFromRequiredBalance = currentFromRequiredBalance;\n          } else {\n            newFromRequiredBalance = currentFromRequiredBalance.sub(requiredDeposit);\n          }\n\n          uint256 currentToBalance = balances[to];\n          uint256 currentToRequiredBalance = requiredBalances[to];\n          uint256 newToRequiredBalance;\n          if(to == owner) {\n            newToRequiredBalance = currentToRequiredBalance;\n          } else {\n            newToRequiredBalance = currentToRequiredBalance.add(requiredDeposit);\n          }\n\n          emit Debug(requiredDeposit, currentToBalance, currentToRequiredBalance, newToRequiredBalance);\n\n          // we want that the cuurent balance of the receipient (to) to be enought\n          require(currentToBalance >= newToRequiredBalance, \"Thing: deposit is not enough to borrow this object\");\n\n          // we need to update the required balance for both from and to, taking into account that from or to can be the owner\n          requiredBalances[from] = newFromRequiredBalance;\n          requiredBalances[to] = newToRequiredBalance;\n\n\n        }\n        // /END FEATURE 6 : deposit\n\n\n        if(owner != from) {\n            _removeTokenFromBearerEnumeration(from, tokenId);\n            _borrowedTokensCount[from].decrement();\n        }\n        if(owner != to)   {\n            _addTokenToBearerEnumeration(to, tokenId);\n            _borrowedTokensCount[to].increment();\n        }\n\n        _tokenBearer[tokenId] = to;\n\n    }\n\n\n\n\n    // FEATURE 5 : locking of token borrowing\n    function lockToken(uint256 tokenId) public {\n      require(_exists(tokenId), \"Thing: token dont exist\");\n      require(ownerOf(tokenId) == msg.sender, \"Thing: only the owner of a token can lock it\");\n\n      locked[tokenId] = true;\n    }\n\n    function isLocked(uint256 tokenId) public view returns (bool) {\n        return locked[tokenId];\n    }\n\n    /*modifier onlyUnlocked(uint256 tokenId) {\n        require(isLocked(tokenId), \"Thing: the token is locked\");\n        _;\n    }*/\n\n    // FEATURE 6 : deposit\n    function getDepositBalance() public view returns (uint) {\n      return balances[msg.sender];\n    }\n\n    function fundDeposit() public payable returns (uint256) {\n      require(msg.value > 0, \"Thing: Sent value <= 0\");\n\n      //FIXME there is probably a security problem here\n      uint256 newBalance = balances[msg.sender].add(msg.value);\n      balances[msg.sender] = newBalance;\n\n      //emit DepositMade(msg.sender, msg.value);\n\n      return balances[msg.sender];\n    }\n\n    /**\n     * @dev withdraw the max fund authorized, meaning requiredBalance\n     */\n    function withdrawDeposit() public payable nonReentrant() returns (uint256) {\n      uint256 currentBalance = balances[msg.sender];\n      uint256 requiredBalance = requiredBalances[msg.sender];\n      //require(currentBalance > requiredBalance, \"not enough\");\n      uint256 withdrawAmount = currentBalance.sub(requiredBalance);\n\n      // FIXME security, starts from https://forum.openzeppelin.com/t/openzeppelin-contracts-v2-4/1665\n      msg.sender.sendValue(withdrawAmount);\n      balances[msg.sender] = balances[msg.sender].sub(withdrawAmount);\n\n      uint256 newBalance = balances[msg.sender];\n\n      //emit LogWithdrawal(msg.sender, withdrawAmount, newBalance);\n\n      return newBalance;\n    }\n\n\n\n    //////////////////////////\n    // Client / UI functions\n    //////////////////////////\n\n    function getTokensOfBearer() public view returns (uint256[] memory) {\n        return _bearedTokens[msg.sender];\n    }\n\n    function getTokensOfOwner() public view returns (uint256[] memory) {\n      return _tokensOfOwner(msg.sender);\n    }\n\n  function getTokenMetadata(uint256 tokenId) public view\n    returns (uint256 id,\n             string memory name,\n             string memory picture,\n             uint256 deposit,\n             address owner,\n             address bearer,\n             bool lock\n             ) {\n\n            Metadata memory metadata = metadatas[tokenId];\n\n            id = tokenId;\n            //name = metadata[tokenId];\n            //description = _description[tokenId];\n            //picture = _picture[tokenId];\n            name = metadata.name;\n            picture = metadata.picture;\n            deposit = metadata.deposit;\n            owner = ownerOf(tokenId);\n            bearer = bearerOf(tokenId);\n            lock = isLocked(tokenId);\n    }\n\n}",
  "sourcePath": "/home/eth1/dev/git/bcproject/contracts/Thing1.sol",
  "compiler": {
    "name": "solc",
    "version": "0.5.11+commit.c082d0b4.Emscripten.clang"
  },
  "schemaVersion": "3.0.16",
  "updatedAt": "2020-01-26T13:21:00.693Z",
  "devdoc": {
    "author": "Fred",
    "details": "Upgradable contract built on OpenZeppelin ERC721 implementation with extensions",
    "methods": {
      "approve(address,uint256)": {
        "details": "Approves another address to transfer the given token ID The zero address indicates there is no approved address. There can only be one approved address per token at a given time. Can only be called by the token owner or an approved operator.",
        "params": {
          "to": "address to be approved for the given token ID",
          "tokenId": "uint256 ID of the token to be approved"
        }
      },
      "balanceOf(address)": {
        "details": "Gets the balance of the specified address.",
        "params": {
          "owner": "address to query the balance of"
        },
        "return": "uint256 representing the amount owned by the passed address"
      },
      "bearerOf(uint256)": {
        "details": "Gets the bearer or bearer of the specified token ID.",
        "params": {
          "tokenId": "uint256 ID of the token to query the bearer of"
        },
        "return": "address currently marked as the bearer or owner of the given token ID"
      },
      "borrow(uint256)": {
        "details": "Transfers the bearing of a given token ID to another address. Requires the from to be the bearer",
        "params": {
          "tokenId": "uint256 ID of the token to be borrowed"
        }
      },
      "getApproved(uint256)": {
        "details": "Gets the approved address for a token ID, or zero if no address set Reverts if the token ID does not exist.",
        "params": {
          "tokenId": "uint256 ID of the token to query the approval of"
        },
        "return": "address currently approved for the given token ID"
      },
      "initialize()": {
        "details": "Initializer used for tests"
      },
      "initialize(address)": {
        "details": "Initializes the contract in unpaused state. Assigns the Pauser role to the deployer."
      },
      "isApprovedForAll(address,address)": {
        "details": "Tells whether an operator is approved by a given owner.",
        "params": {
          "operator": "operator address which you want to query the approval of",
          "owner": "owner address which you want to query the approval of"
        },
        "return": "bool whether the given operator is approved by the given owner"
      },
      "isOwner()": {
        "details": "Returns true if the caller is the current owner."
      },
      "mint(address,uint256)": {
        "details": "Function to mint tokens.",
        "params": {
          "to": "The address that will receive the minted token.",
          "tokenId": "The token id to mint."
        },
        "return": "A boolean that indicates if the operation was successful."
      },
      "owner()": {
        "details": "Returns the address of the current owner."
      },
      "ownerOf(uint256)": {
        "details": "Gets the owner of the specified token ID.",
        "params": {
          "tokenId": "uint256 ID of the token to query the owner of"
        },
        "return": "address currently marked as the owner of the given token ID"
      },
      "pause()": {
        "details": "Called by a pauser to pause, triggers stopped state."
      },
      "paused()": {
        "details": "Returns true if the contract is paused, and false otherwise."
      },
      "renounceOwnership()": {
        "details": "Leaves the contract without owner. It will not be possible to call `onlyOwner` functions anymore. Can only be called by the current owner.     * > Note: Renouncing ownership will leave the contract without an owner, thereby removing any functionality that is only available to the owner."
      },
      "safeMint(address,uint256)": {
        "details": "Function to safely mint tokens.",
        "params": {
          "to": "The address that will receive the minted token.",
          "tokenId": "The token id to mint."
        },
        "return": "A boolean that indicates if the operation was successful."
      },
      "safeMint(address,uint256,bytes)": {
        "details": "Function to safely mint tokens.",
        "params": {
          "_data": "bytes data to send along with a safe transfer check.",
          "to": "The address that will receive the minted token.",
          "tokenId": "The token id to mint."
        },
        "return": "A boolean that indicates if the operation was successful."
      },
      "safeTransferFrom(address,address,uint256)": {
        "details": "Safely transfers the ownership of a given token ID to another address If the target address is a contract, it must implement {IERC721Receiver-onERC721Received}, which is called upon a safe transfer, and return the magic value `bytes4(keccak256(\"onERC721Received(address,address,uint256,bytes)\"))`; otherwise, the transfer is reverted. Requires the msg.sender to be the owner, approved, or operator",
        "params": {
          "from": "current owner of the token",
          "to": "address to receive the ownership of the given token ID",
          "tokenId": "uint256 ID of the token to be transferred"
        }
      },
      "safeTransferFrom(address,address,uint256,bytes)": {
        "details": "Safely transfers the ownership of a given token ID to another address If the target address is a contract, it must implement {IERC721Receiver-onERC721Received}, which is called upon a safe transfer, and return the magic value `bytes4(keccak256(\"onERC721Received(address,address,uint256,bytes)\"))`; otherwise, the transfer is reverted. Requires the _msgSender() to be the owner, approved, or operator",
        "params": {
          "_data": "bytes data to send along with a safe transfer check",
          "from": "current owner of the token",
          "to": "address to receive the ownership of the given token ID",
          "tokenId": "uint256 ID of the token to be transferred"
        }
      },
      "setApprovalForAll(address,bool)": {
        "details": "Sets or unsets the approval of a given operator An operator is allowed to transfer all tokens of the sender on their behalf.",
        "params": {
          "approved": "representing the status of the approval to be set",
          "to": "operator address to set the approval"
        }
      },
      "supportsInterface(bytes4)": {
        "details": "See {IERC165-supportsInterface}.     * Time complexity O(1), guaranteed to always use less than 30 000 gas."
      },
      "tokenByIndex(uint256)": {
        "details": "Gets the token ID at a given index of all the tokens in this contract Reverts if the index is greater or equal to the total number of tokens.",
        "params": {
          "index": "uint256 representing the index to be accessed of the tokens list"
        },
        "return": "uint256 token ID at the given index of the tokens list"
      },
      "tokenOfOwnerByIndex(address,uint256)": {
        "details": "Gets the token ID at a given index of the tokens list of the requested owner.",
        "params": {
          "index": "uint256 representing the index to be accessed of the requested tokens list",
          "owner": "address owning the tokens list to be accessed"
        },
        "return": "uint256 token ID at the given index of the tokens list owned by the requested address"
      },
      "totalSupply()": {
        "details": "Gets the total amount of tokens stored by the contract.",
        "return": "uint256 representing the total amount of tokens"
      },
      "transferFrom(address,address,uint256)": {
        "details": "Transfers the ownership of a given token ID to another address. Usage of this method is discouraged, use {safeTransferFrom} whenever possible. Requires the msg.sender to be the owner, approved, or operator.",
        "params": {
          "from": "current owner of the token",
          "to": "address to receive the ownership of the given token ID",
          "tokenId": "uint256 ID of the token to be transferred"
        }
      },
      "transferOwnership(address)": {
        "details": "Transfers ownership of the contract to a new account (`newOwner`). Can only be called by the current owner."
      },
      "unpause()": {
        "details": "Called by a pauser to unpause, returns to normal state."
      },
      "withdrawDeposit()": {
        "details": "withdraw the max fund authorized, meaning requiredBalance"
      }
    },
    "title": "Thing"
  },
  "userdoc": {
    "methods": {
      "getTokensOfBearer()": {
        "notice": "///////////////////////"
      }
    },
    "notice": "Allow to share & borrow things (Non Fungible Tokens) in a secure way"
  }
}