{
  "fileName": "Thing1.sol",
  "contractName": "Thing",
  "source": "pragma solidity 0.5.11; //SEC fix compiler version\n\nimport '@openzeppelin/upgrades/contracts/Initializable.sol';\nimport '@openzeppelin/contracts-ethereum-package/contracts/ownership/Ownable.sol';\nimport '@openzeppelin/contracts-ethereum-package/contracts/lifecycle/Pausable.sol';\nimport '@openzeppelin/contracts-ethereum-package/contracts/math/SafeMath.sol';\nimport '@openzeppelin/contracts-ethereum-package/contracts/drafts/Counters.sol';\n\nimport '@openzeppelin/contracts-ethereum-package/contracts/utils/Address.sol';\nimport '@openzeppelin/contracts-ethereum-package/contracts/utils/ReentrancyGuard.sol';\n\nimport '@openzeppelin/contracts-ethereum-package/contracts/token/ERC721/ERC721.sol';\nimport '@openzeppelin/contracts-ethereum-package/contracts/token/ERC721/ERC721Enumerable.sol';\n//import '@openzeppelin/contracts-ethereum-package/contracts/token/ERC721/ERC721Full.sol';\nimport '@openzeppelin/contracts-ethereum-package/contracts/token/ERC721/ERC721Mintable.sol';\n//import '@openzeppelin/contracts-ethereum-package/contracts/token/ERC721/ERC721Mintable.sol';\n//import '@openzeppelin/contracts-ethereum-package/contracts/token/ERC721/ERC721Pausable.sol';\n\n/**\n * @title Thing\n * @author Fred\n * @notice Allow to share & borrow things (Non Fungible Tokens) in a secure way\n * @dev Upgradable contract built on OpenZeppelin ERC721 implementation with extensions\n */\ncontract Thing is\n            Initializable  /// required for contract upgradability\n            //ERC721Full,     /// Initializable/ERC721/ERC721Enumerable/ERC721Metadata\n            , ERC721\n            , ERC721Enumerable\n            , ERC721Mintable /// Initializable/ERC721/MinterRole\n            //, ERC721Pausable\n            , Ownable\n            , Pausable\n            , ReentrancyGuard\n        {\n  using SafeMath for uint256;\n  using Counters for Counters.Counter;\n  using Address for address payable;\n\n\n  // FEATURE 2 : token metadata (on-chain)\n  struct Metadata {\n    string name;\n    string picture; //IPFS hash\n    uint256 deposit;\n  }\n\n  mapping(uint256 => Metadata) private metadatas;\n\n  // FEATURE 3 : tokenId auto-increment\n  Counters.Counter private counterTokenIds;\n\n  // FEATURE 4 : borrowing of token\n  //Mapping from token ID to bearer\n  mapping(uint256 => address) private _tokenBearer;\n  // Mapping from bearer to number of beared token\n  mapping (address => Counters.Counter) private _borrowedTokensCount; //TODO not only bearer\n  // Mapping from bearer to list of beared token IDs\n  mapping(address => uint256[]) private _bearedTokens;\n  // Mapping from token ID to index of the bearer tokens list\n  mapping(uint256 => uint256) private _bearedTokensIndex;\n\n  // FEATURE 5 : locking of token borrowing\n  mapping(uint256 => bool) private locked; //array would be very inefficient for this since there is no contains function\n\n  // FEATURE 6 : deposit\n  mapping(address => uint256) private balances;\n  // we create a mapping of current required min balance per user according to the currently beared things.\n  mapping(address => uint256) private requiredBalances;\n\n\n  // EVENTS\n\n\n  /**\n   * @dev Initializer used for tests\n   */\n  /*\n  function initialize(address owner, address pauser, address minter) public initializer {\n    ERC721.initialize();\n    ERC721Enumerable.initialize();\n    //ERC721Metadata.initialize(\"Thing\", \"TG1\");\n    ERC721Mintable.initialize(minter);\n    //ERC721Pausable.initialize(pauser);\n    /// do we need another/instead\n    Pausable.initialize(pauser);\n    Ownable.initialize(owner);\n    ReentrancyGuard.initialize();\n  }*/\n\n\n  function initialize() public initializer {\n    ERC721.initialize();\n    ERC721Enumerable.initialize();\n    //ERC721Metadata.initialize(\"Thing\", \"TG1\");\n    ERC721Mintable.initialize(msg.sender);\n    //ERC721Pausable.initialize(msg.sender);\n    /// do we need another/instead\n    //Pausable.initialize(msg.sender); FIXME\n    //Ownable.initialize(msg.sender); FIXME\n    ReentrancyGuard.initialize();\n  }\n\n  // FEATURE 1 : killable contract\n  /*\n  function kill() public onlyOwner {\n    address payable owner = address(uint160(owner()));\n    selfdestruct(owner);\n  }*/\n\n\n  function mint() public returns (uint256) {\n    return mint(\"Test\", \"QmWzq3Kjxo3zSeS3KRxT6supq9k7ZBRcVGGxAkJmpYtMNC\", 1);\n  }\n\n/*\n  function mint(string memory name) public returns (uint256) {\n    return mint(name, \"QmWzq3Kjxo3zSeS3KRxT6supq9k7ZBRcVGGxAkJmpYtMNC\", 0);\n  }\n\n  function mint(string memory name, uint256 deposit) public returns (uint256) {\n    return mint(name, \"QmWzq3Kjxo3zSeS3KRxT6supq9k7ZBRcVGGxAkJmpYtMNC\", deposit);\n  }*/\n\n  function mint(string memory name, string memory picture, uint256 deposit) public onlyMinter returns (uint256) {\n\n    // Make sure we have a new tokenId with the help of Counter\n    counterTokenIds.increment();\n    uint256 newTokenId = counterTokenIds.current();\n\n    Metadata memory metadata = Metadata({\n      name: name,\n      picture: picture,\n      deposit: deposit\n    });\n\n    //uint256 tokenId = metadatas.push(metadata) - 1;\n    metadatas[newTokenId] = metadata;\n\n    super._mint(msg.sender, newTokenId);\n\n    return newTokenId;\n  }\n\n\n\n  // FEATURE 4 : borrowing of token\n    /**\n     * @dev Gets the bearer or bearer of the specified token ID.\n     * @param tokenId uint256 ID of the token to query the bearer of\n     * @return address currently marked as the bearer or owner of the given token ID\n     */\n    function bearerOf(uint256 tokenId) public view returns (address) {\n        address owner = ownerOf(tokenId);\n        require(owner != address(0), \"Thing: owner query for nonexistent token\");\n\n        if(_tokenBearer[tokenId] != address(0)) {\n            return _tokenBearer[tokenId];\n        } else {\n            return owner;\n        }\n    }\n\n\n    /**\n     * @dev Private function to add a token to this extension's bearership-tracking data structures.\n     * @param to address representing the new bearer of the given token ID\n     * @param tokenId uint256 ID of the token to be added to the tokens list of the given address\n     */\n    function _addTokenToBearerEnumeration(address to, uint256 tokenId) private {\n        _bearedTokensIndex[tokenId] = _bearedTokens[to].length;\n        _bearedTokens[to].push(tokenId);\n    }\n\n    /**\n     * @dev Private function to remove a token from this extension's ownership-tracking data structures. Note that\n     * while the token is not assigned a new bearer, the _ownedTokensIndex mapping is _not_ updated: this allows for\n     * gas optimizations e.g. when performing a transfer operation (avoiding double writes).\n     * This has O(1) time complexity, but alters the order of the _ownedTokens array.\n     * @param from address representing the previous bearer of the given token ID\n     * @param tokenId uint256 ID of the token to be removed from the tokens list of the given address\n     */\n    function _removeTokenFromBearerEnumeration(address from, uint256 tokenId) private {\n        // To prevent a gap in from's tokens array, we store the last token in the index of the token to delete, and\n        // then delete the last slot (swap and pop).\n\n        uint256 lastTokenIndex = _bearedTokens[from].length.sub(1);\n        uint256 tokenIndex = _bearedTokensIndex[tokenId];\n\n        // When the token to delete is the last token, the swap operation is unnecessary\n        if (tokenIndex != lastTokenIndex) {\n            uint256 lastTokenId = _bearedTokens[from][lastTokenIndex];\n\n            _bearedTokens[from][tokenIndex] = lastTokenId; // Move the last token to the slot of the to-delete token\n            _bearedTokensIndex[lastTokenId] = tokenIndex; // Update the moved token's index\n        }\n\n        // This also deletes the contents at the last position of the array\n        _bearedTokens[from].length--;\n    }\n\n\n    /**\n     * @dev Transfers the bearing of a given token ID to another address.\n     * Requires the from to be the bearer\n     * @param tokenId uint256 ID of the token to be borrowed\n     */\n    function borrow(uint256 tokenId) public {\n        //TODO require process\n        //require(bearerOf(tokenId) == from, \"Things: transfer of token that is not beared\");\n        _borrowFrom(bearerOf(tokenId), msg.sender, tokenId);\n    }\n\n    event Debug(uint256 requiredDeposit, uint256 currentBalance, uint256 currentRequiredBalance, uint256 newRequiredBalance);\n\n    /**\n     * @dev Internal function to borrow a given token ID.\n     * As opposed to borrowFrom, this imposes no restrictions on msg.sender.\n     * @param from current bearer of the token\n     * @param to receipient\n     * @param tokenId uint256 ID of the token to be transferred\n     */\n    function _borrowFrom(address from, address to, uint256 tokenId) internal {\n        require(_exists(tokenId), \"Thing: token dont exist\");\n        require(to != address(0), \"Thing: transfer to the zero address\");\n        require(to != bearerOf(tokenId), \"Thing: you already bear that object\");\n        require(!isLocked(tokenId), \"Thing: token is locked, cant borrow it\");\n        //require(!paused());//, \"Paused\");\n\n        address owner = ownerOf(tokenId);\n\n        // FEATURE 6 : deposit\n        uint256 requiredDeposit = metadatas[tokenId].deposit;\n\n        // TODO We have to manage the fact that the owner do not need a deposit\n        if(requiredDeposit > 0) {\n          //check user current balance\n\n          //uint256 currentFromBalance = balances[from];\n          uint256 currentFromRequiredBalance = requiredBalances[from];\n          uint256 newFromRequiredBalance;\n          if(from == owner) {\n            newFromRequiredBalance = currentFromRequiredBalance;\n          } else {\n            newFromRequiredBalance = currentFromRequiredBalance.sub(requiredDeposit);\n          }\n\n          uint256 currentToBalance = balances[to];\n          uint256 currentToRequiredBalance = requiredBalances[to];\n          uint256 newToRequiredBalance;\n          if(to == owner) {\n            newToRequiredBalance = currentToRequiredBalance;\n          } else {\n            newToRequiredBalance = currentToRequiredBalance.add(requiredDeposit);\n          }\n\n          emit Debug(requiredDeposit, currentToBalance, currentToRequiredBalance, newToRequiredBalance);\n\n          // we want that the cuurent balance of the receipient (to) to be enought\n          require(currentToBalance >= newToRequiredBalance, \"Thing: deposit is not enough to borrow this object\");\n\n          // we need to update the required balance for both from and to, taking into account that from or to can be the owner\n          requiredBalances[from] = newFromRequiredBalance;\n          requiredBalances[to] = newToRequiredBalance;\n\n\n        }\n        // /END FEATURE 6 : deposit\n\n\n        if(owner != from) {\n            _removeTokenFromBearerEnumeration(from, tokenId);\n            _borrowedTokensCount[from].decrement();\n        }\n        if(owner != to)   {\n            _addTokenToBearerEnumeration(to, tokenId);\n            _borrowedTokensCount[to].increment();\n        }\n\n        _tokenBearer[tokenId] = to;\n\n    }\n\n\n\n\n    // FEATURE 5 : locking of token borrowing\n    function lockToken(uint256 tokenId) public {\n      require(_exists(tokenId), \"Thing: token dont exist\");\n      require(ownerOf(tokenId) == msg.sender, \"Thing: only the owner of a token can lock it\");\n\n      locked[tokenId] = true;\n    }\n\n    function isLocked(uint256 tokenId) public view returns (bool) {\n        return locked[tokenId];\n    }\n\n    /*modifier onlyUnlocked(uint256 tokenId) {\n        require(isLocked(tokenId), \"Thing: the token is locked\");\n        _;\n    }*/\n\n    // FEATURE 6 : deposit\n    function getDepositBalance() public view returns (uint) {\n      return balances[msg.sender];\n    }\n\n    function fundDeposit() public payable returns (uint256) {\n      require(msg.value > 0, \"Thing: Sent value <= 0\");\n\n      //FIXME there is probably a security problem here\n      uint256 newBalance = balances[msg.sender].add(msg.value);\n      balances[msg.sender] = newBalance;\n\n      //emit DepositMade(msg.sender, msg.value);\n\n      return balances[msg.sender];\n    }\n\n    /**\n     * @dev withdraw the max fund authorized, meaning requiredBalance\n     */\n    function withdrawDeposit() public payable nonReentrant() returns (uint256) {\n      uint256 currentBalance = balances[msg.sender];\n      uint256 requiredBalance = requiredBalances[msg.sender];\n      //require(currentBalance > requiredBalance, \"not enough\");\n      uint256 withdrawAmount = currentBalance.sub(requiredBalance);\n\n      // FIXME security, starts from https://forum.openzeppelin.com/t/openzeppelin-contracts-v2-4/1665\n      msg.sender.sendValue(withdrawAmount);\n      balances[msg.sender] = balances[msg.sender].sub(withdrawAmount);\n\n      uint256 newBalance = balances[msg.sender];\n\n      //emit LogWithdrawal(msg.sender, withdrawAmount, newBalance);\n\n      return newBalance;\n    }\n\n\n\n    //////////////////////////\n    // Client / UI functions\n    //////////////////////////\n\n    function getTokensOfBearer() public view returns (uint256[] memory) {\n        return _bearedTokens[msg.sender];\n    }\n\n    function getTokensOfOwner() public view returns (uint256[] memory) {\n      return _tokensOfOwner(msg.sender);\n    }\n\n  function getTokenMetadata(uint256 tokenId) public view\n    returns (uint256 id,\n             string memory name,\n             string memory picture,\n             uint256 deposit,\n             address owner,\n             address bearer,\n             bool lock\n             ) {\n\n            Metadata memory metadata = metadatas[tokenId];\n\n            id = tokenId;\n            //name = metadata[tokenId];\n            //description = _description[tokenId];\n            //picture = _picture[tokenId];\n            name = metadata.name;\n            picture = metadata.picture;\n            deposit = metadata.deposit;\n            owner = ownerOf(tokenId);\n            bearer = bearerOf(tokenId);\n            lock = isLocked(tokenId);\n    }\n\n}",
  "sourcePath": "contracts/Thing1.sol",
  "abi": [
    {
      "constant": true,
      "inputs": [
        {
          "internalType": "bytes4",
          "name": "interfaceId",
          "type": "bytes4"
        }
      ],
      "name": "supportsInterface",
      "outputs": [
        {
          "internalType": "bool",
          "name": "",
          "type": "bool"
        }
      ],
      "payable": false,
      "stateMutability": "view",
      "type": "function"
    },
    {
      "constant": true,
      "inputs": [],
      "name": "getDepositBalance",
      "outputs": [
        {
          "internalType": "uint256",
          "name": "",
          "type": "uint256"
        }
      ],
      "payable": false,
      "stateMutability": "view",
      "type": "function"
    },
    {
      "constant": true,
      "inputs": [
        {
          "internalType": "uint256",
          "name": "tokenId",
          "type": "uint256"
        }
      ],
      "name": "getApproved",
      "outputs": [
        {
          "internalType": "address",
          "name": "",
          "type": "address"
        }
      ],
      "payable": false,
      "stateMutability": "view",
      "type": "function"
    },
    {
      "constant": false,
      "inputs": [
        {
          "internalType": "address",
          "name": "to",
          "type": "address"
        },
        {
          "internalType": "uint256",
          "name": "tokenId",
          "type": "uint256"
        }
      ],
      "name": "approve",
      "outputs": [],
      "payable": false,
      "stateMutability": "nonpayable",
      "type": "function"
    },
    {
      "constant": false,
      "inputs": [],
      "name": "withdrawDeposit",
      "outputs": [
        {
          "internalType": "uint256",
          "name": "",
          "type": "uint256"
        }
      ],
      "payable": true,
      "stateMutability": "payable",
      "type": "function"
    },
    {
      "constant": false,
      "inputs": [],
      "name": "mint",
      "outputs": [
        {
          "internalType": "uint256",
          "name": "",
          "type": "uint256"
        }
      ],
      "payable": false,
      "stateMutability": "nonpayable",
      "type": "function"
    },
    {
      "constant": true,
      "inputs": [],
      "name": "totalSupply",
      "outputs": [
        {
          "internalType": "uint256",
          "name": "",
          "type": "uint256"
        }
      ],
      "payable": false,
      "stateMutability": "view",
      "type": "function"
    },
    {
      "constant": true,
      "inputs": [],
      "name": "getTokensOfBearer",
      "outputs": [
        {
          "internalType": "uint256[]",
          "name": "",
          "type": "uint256[]"
        }
      ],
      "payable": false,
      "stateMutability": "view",
      "type": "function"
    },
    {
      "constant": false,
      "inputs": [
        {
          "internalType": "address",
          "name": "from",
          "type": "address"
        },
        {
          "internalType": "address",
          "name": "to",
          "type": "address"
        },
        {
          "internalType": "uint256",
          "name": "tokenId",
          "type": "uint256"
        }
      ],
      "name": "transferFrom",
      "outputs": [],
      "payable": false,
      "stateMutability": "nonpayable",
      "type": "function"
    },
    {
      "constant": true,
      "inputs": [
        {
          "internalType": "address",
          "name": "owner",
          "type": "address"
        },
        {
          "internalType": "uint256",
          "name": "index",
          "type": "uint256"
        }
      ],
      "name": "tokenOfOwnerByIndex",
      "outputs": [
        {
          "internalType": "uint256",
          "name": "",
          "type": "uint256"
        }
      ],
      "payable": false,
      "stateMutability": "view",
      "type": "function"
    },
    {
      "constant": false,
      "inputs": [],
      "name": "unpause",
      "outputs": [],
      "payable": false,
      "stateMutability": "nonpayable",
      "type": "function"
    },
    {
      "constant": false,
      "inputs": [
        {
          "internalType": "address",
          "name": "to",
          "type": "address"
        },
        {
          "internalType": "uint256",
          "name": "tokenId",
          "type": "uint256"
        }
      ],
      "name": "mint",
      "outputs": [
        {
          "internalType": "bool",
          "name": "",
          "type": "bool"
        }
      ],
      "payable": false,
      "stateMutability": "nonpayable",
      "type": "function"
    },
    {
      "constant": false,
      "inputs": [
        {
          "internalType": "address",
          "name": "from",
          "type": "address"
        },
        {
          "internalType": "address",
          "name": "to",
          "type": "address"
        },
        {
          "internalType": "uint256",
          "name": "tokenId",
          "type": "uint256"
        }
      ],
      "name": "safeTransferFrom",
      "outputs": [],
      "payable": false,
      "stateMutability": "nonpayable",
      "type": "function"
    },
    {
      "constant": true,
      "inputs": [
        {
          "internalType": "address",
          "name": "account",
          "type": "address"
        }
      ],
      "name": "isPauser",
      "outputs": [
        {
          "internalType": "bool",
          "name": "",
          "type": "bool"
        }
      ],
      "payable": false,
      "stateMutability": "view",
      "type": "function"
    },
    {
      "constant": true,
      "inputs": [
        {
          "internalType": "uint256",
          "name": "index",
          "type": "uint256"
        }
      ],
      "name": "tokenByIndex",
      "outputs": [
        {
          "internalType": "uint256",
          "name": "",
          "type": "uint256"
        }
      ],
      "payable": false,
      "stateMutability": "view",
      "type": "function"
    },
    {
      "constant": true,
      "inputs": [],
      "name": "paused",
      "outputs": [
        {
          "internalType": "bool",
          "name": "",
          "type": "bool"
        }
      ],
      "payable": false,
      "stateMutability": "view",
      "type": "function"
    },
    {
      "constant": true,
      "inputs": [
        {
          "internalType": "uint256",
          "name": "tokenId",
          "type": "uint256"
        }
      ],
      "name": "getTokenMetadata",
      "outputs": [
        {
          "internalType": "uint256",
          "name": "id",
          "type": "uint256"
        },
        {
          "internalType": "string",
          "name": "name",
          "type": "string"
        },
        {
          "internalType": "string",
          "name": "picture",
          "type": "string"
        },
        {
          "internalType": "uint256",
          "name": "deposit",
          "type": "uint256"
        },
        {
          "internalType": "address",
          "name": "owner",
          "type": "address"
        },
        {
          "internalType": "address",
          "name": "bearer",
          "type": "address"
        },
        {
          "internalType": "bool",
          "name": "lock",
          "type": "bool"
        }
      ],
      "payable": false,
      "stateMutability": "view",
      "type": "function"
    },
    {
      "constant": true,
      "inputs": [
        {
          "internalType": "uint256",
          "name": "tokenId",
          "type": "uint256"
        }
      ],
      "name": "ownerOf",
      "outputs": [
        {
          "internalType": "address",
          "name": "",
          "type": "address"
        }
      ],
      "payable": false,
      "stateMutability": "view",
      "type": "function"
    },
    {
      "constant": false,
      "inputs": [],
      "name": "fundDeposit",
      "outputs": [
        {
          "internalType": "uint256",
          "name": "",
          "type": "uint256"
        }
      ],
      "payable": true,
      "stateMutability": "payable",
      "type": "function"
    },
    {
      "constant": false,
      "inputs": [],
      "name": "renouncePauser",
      "outputs": [],
      "payable": false,
      "stateMutability": "nonpayable",
      "type": "function"
    },
    {
      "constant": true,
      "inputs": [
        {
          "internalType": "address",
          "name": "owner",
          "type": "address"
        }
      ],
      "name": "balanceOf",
      "outputs": [
        {
          "internalType": "uint256",
          "name": "",
          "type": "uint256"
        }
      ],
      "payable": false,
      "stateMutability": "view",
      "type": "function"
    },
    {
      "constant": false,
      "inputs": [],
      "name": "renounceOwnership",
      "outputs": [],
      "payable": false,
      "stateMutability": "nonpayable",
      "type": "function"
    },
    {
      "constant": false,
      "inputs": [
        {
          "internalType": "uint256",
          "name": "tokenId",
          "type": "uint256"
        }
      ],
      "name": "lockToken",
      "outputs": [],
      "payable": false,
      "stateMutability": "nonpayable",
      "type": "function"
    },
    {
      "constant": false,
      "inputs": [],
      "name": "initialize",
      "outputs": [],
      "payable": false,
      "stateMutability": "nonpayable",
      "type": "function"
    },
    {
      "constant": false,
      "inputs": [
        {
          "internalType": "address",
          "name": "account",
          "type": "address"
        }
      ],
      "name": "addPauser",
      "outputs": [],
      "payable": false,
      "stateMutability": "nonpayable",
      "type": "function"
    },
    {
      "constant": false,
      "inputs": [],
      "name": "pause",
      "outputs": [],
      "payable": false,
      "stateMutability": "nonpayable",
      "type": "function"
    },
    {
      "constant": false,
      "inputs": [
        {
          "internalType": "address",
          "name": "to",
          "type": "address"
        },
        {
          "internalType": "uint256",
          "name": "tokenId",
          "type": "uint256"
        },
        {
          "internalType": "bytes",
          "name": "_data",
          "type": "bytes"
        }
      ],
      "name": "safeMint",
      "outputs": [
        {
          "internalType": "bool",
          "name": "",
          "type": "bool"
        }
      ],
      "payable": false,
      "stateMutability": "nonpayable",
      "type": "function"
    },
    {
      "constant": true,
      "inputs": [],
      "name": "owner",
      "outputs": [
        {
          "internalType": "address",
          "name": "",
          "type": "address"
        }
      ],
      "payable": false,
      "stateMutability": "view",
      "type": "function"
    },
    {
      "constant": true,
      "inputs": [],
      "name": "isOwner",
      "outputs": [
        {
          "internalType": "bool",
          "name": "",
          "type": "bool"
        }
      ],
      "payable": false,
      "stateMutability": "view",
      "type": "function"
    },
    {
      "constant": false,
      "inputs": [
        {
          "internalType": "address",
          "name": "account",
          "type": "address"
        }
      ],
      "name": "addMinter",
      "outputs": [],
      "payable": false,
      "stateMutability": "nonpayable",
      "type": "function"
    },
    {
      "constant": false,
      "inputs": [],
      "name": "renounceMinter",
      "outputs": [],
      "payable": false,
      "stateMutability": "nonpayable",
      "type": "function"
    },
    {
      "constant": false,
      "inputs": [
        {
          "internalType": "address",
          "name": "to",
          "type": "address"
        },
        {
          "internalType": "uint256",
          "name": "tokenId",
          "type": "uint256"
        }
      ],
      "name": "safeMint",
      "outputs": [
        {
          "internalType": "bool",
          "name": "",
          "type": "bool"
        }
      ],
      "payable": false,
      "stateMutability": "nonpayable",
      "type": "function"
    },
    {
      "constant": false,
      "inputs": [
        {
          "internalType": "address",
          "name": "to",
          "type": "address"
        },
        {
          "internalType": "bool",
          "name": "approved",
          "type": "bool"
        }
      ],
      "name": "setApprovalForAll",
      "outputs": [],
      "payable": false,
      "stateMutability": "nonpayable",
      "type": "function"
    },
    {
      "constant": true,
      "inputs": [
        {
          "internalType": "address",
          "name": "account",
          "type": "address"
        }
      ],
      "name": "isMinter",
      "outputs": [
        {
          "internalType": "bool",
          "name": "",
          "type": "bool"
        }
      ],
      "payable": false,
      "stateMutability": "view",
      "type": "function"
    },
    {
      "constant": true,
      "inputs": [],
      "name": "getTokensOfOwner",
      "outputs": [
        {
          "internalType": "uint256[]",
          "name": "",
          "type": "uint256[]"
        }
      ],
      "payable": false,
      "stateMutability": "view",
      "type": "function"
    },
    {
      "constant": false,
      "inputs": [
        {
          "internalType": "address",
          "name": "from",
          "type": "address"
        },
        {
          "internalType": "address",
          "name": "to",
          "type": "address"
        },
        {
          "internalType": "uint256",
          "name": "tokenId",
          "type": "uint256"
        },
        {
          "internalType": "bytes",
          "name": "_data",
          "type": "bytes"
        }
      ],
      "name": "safeTransferFrom",
      "outputs": [],
      "payable": false,
      "stateMutability": "nonpayable",
      "type": "function"
    },
    {
      "constant": false,
      "inputs": [
        {
          "internalType": "address",
          "name": "sender",
          "type": "address"
        }
      ],
      "name": "initialize",
      "outputs": [],
      "payable": false,
      "stateMutability": "nonpayable",
      "type": "function"
    },
    {
      "constant": false,
      "inputs": [
        {
          "internalType": "uint256",
          "name": "tokenId",
          "type": "uint256"
        }
      ],
      "name": "borrow",
      "outputs": [],
      "payable": false,
      "stateMutability": "nonpayable",
      "type": "function"
    },
    {
      "constant": false,
      "inputs": [
        {
          "internalType": "string",
          "name": "name",
          "type": "string"
        },
        {
          "internalType": "string",
          "name": "picture",
          "type": "string"
        },
        {
          "internalType": "uint256",
          "name": "deposit",
          "type": "uint256"
        }
      ],
      "name": "mint",
      "outputs": [
        {
          "internalType": "uint256",
          "name": "",
          "type": "uint256"
        }
      ],
      "payable": false,
      "stateMutability": "nonpayable",
      "type": "function"
    },
    {
      "constant": true,
      "inputs": [
        {
          "internalType": "address",
          "name": "owner",
          "type": "address"
        },
        {
          "internalType": "address",
          "name": "operator",
          "type": "address"
        }
      ],
      "name": "isApprovedForAll",
      "outputs": [
        {
          "internalType": "bool",
          "name": "",
          "type": "bool"
        }
      ],
      "payable": false,
      "stateMutability": "view",
      "type": "function"
    },
    {
      "constant": true,
      "inputs": [
        {
          "internalType": "uint256",
          "name": "tokenId",
          "type": "uint256"
        }
      ],
      "name": "bearerOf",
      "outputs": [
        {
          "internalType": "address",
          "name": "",
          "type": "address"
        }
      ],
      "payable": false,
      "stateMutability": "view",
      "type": "function"
    },
    {
      "constant": false,
      "inputs": [
        {
          "internalType": "address",
          "name": "newOwner",
          "type": "address"
        }
      ],
      "name": "transferOwnership",
      "outputs": [],
      "payable": false,
      "stateMutability": "nonpayable",
      "type": "function"
    },
    {
      "constant": true,
      "inputs": [
        {
          "internalType": "uint256",
          "name": "tokenId",
          "type": "uint256"
        }
      ],
      "name": "isLocked",
      "outputs": [
        {
          "internalType": "bool",
          "name": "",
          "type": "bool"
        }
      ],
      "payable": false,
      "stateMutability": "view",
      "type": "function"
    },
    {
      "anonymous": false,
      "inputs": [
        {
          "indexed": false,
          "internalType": "uint256",
          "name": "requiredDeposit",
          "type": "uint256"
        },
        {
          "indexed": false,
          "internalType": "uint256",
          "name": "currentBalance",
          "type": "uint256"
        },
        {
          "indexed": false,
          "internalType": "uint256",
          "name": "currentRequiredBalance",
          "type": "uint256"
        },
        {
          "indexed": false,
          "internalType": "uint256",
          "name": "newRequiredBalance",
          "type": "uint256"
        }
      ],
      "name": "Debug",
      "type": "event"
    },
    {
      "anonymous": false,
      "inputs": [
        {
          "indexed": false,
          "internalType": "address",
          "name": "account",
          "type": "address"
        }
      ],
      "name": "Paused",
      "type": "event"
    },
    {
      "anonymous": false,
      "inputs": [
        {
          "indexed": false,
          "internalType": "address",
          "name": "account",
          "type": "address"
        }
      ],
      "name": "Unpaused",
      "type": "event"
    },
    {
      "anonymous": false,
      "inputs": [
        {
          "indexed": true,
          "internalType": "address",
          "name": "account",
          "type": "address"
        }
      ],
      "name": "PauserAdded",
      "type": "event"
    },
    {
      "anonymous": false,
      "inputs": [
        {
          "indexed": true,
          "internalType": "address",
          "name": "account",
          "type": "address"
        }
      ],
      "name": "PauserRemoved",
      "type": "event"
    },
    {
      "anonymous": false,
      "inputs": [
        {
          "indexed": true,
          "internalType": "address",
          "name": "previousOwner",
          "type": "address"
        },
        {
          "indexed": true,
          "internalType": "address",
          "name": "newOwner",
          "type": "address"
        }
      ],
      "name": "OwnershipTransferred",
      "type": "event"
    },
    {
      "anonymous": false,
      "inputs": [
        {
          "indexed": true,
          "internalType": "address",
          "name": "account",
          "type": "address"
        }
      ],
      "name": "MinterAdded",
      "type": "event"
    },
    {
      "anonymous": false,
      "inputs": [
        {
          "indexed": true,
          "internalType": "address",
          "name": "account",
          "type": "address"
        }
      ],
      "name": "MinterRemoved",
      "type": "event"
    },
    {
      "anonymous": false,
      "inputs": [
        {
          "indexed": true,
          "internalType": "address",
          "name": "from",
          "type": "address"
        },
        {
          "indexed": true,
          "internalType": "address",
          "name": "to",
          "type": "address"
        },
        {
          "indexed": true,
          "internalType": "uint256",
          "name": "tokenId",
          "type": "uint256"
        }
      ],
      "name": "Transfer",
      "type": "event"
    },
    {
      "anonymous": false,
      "inputs": [
        {
          "indexed": true,
          "internalType": "address",
          "name": "owner",
          "type": "address"
        },
        {
          "indexed": true,
          "internalType": "address",
          "name": "approved",
          "type": "address"
        },
        {
          "indexed": true,
          "internalType": "uint256",
          "name": "tokenId",
          "type": "uint256"
        }
      ],
      "name": "Approval",
      "type": "event"
    },
    {
      "anonymous": false,
      "inputs": [
        {
          "indexed": true,
          "internalType": "address",
          "name": "owner",
          "type": "address"
        },
        {
          "indexed": true,
          "internalType": "address",
          "name": "operator",
          "type": "address"
        },
        {
          "indexed": false,
          "internalType": "bool",
          "name": "approved",
          "type": "bool"
        }
      ],
      "name": "ApprovalForAll",
      "type": "event"
    }
  ],
  "bytecode": "0x6080604052615e09806100136000396000f3fe60806040526004361061025c5760003560e01c8063715018a611610144578063a22cb465116100b6578063c5ebeaec1161007a578063c5ebeaec1461100f578063d41d9a271461104a578063e985e9c5146111c7578063ecedbf5214611250578063f2fde38b146112cb578063f6aacfb11461131c5761025c565b8063a22cb46514610d7a578063aa271e1a14610dd7578063b68ceeaf14610e40578063b88d4fde14610eac578063c4d66de814610fbe5761025c565b80638832e6e3116101085780638832e6e314610b0f5780638da5cb5b14610c195780638f32d59b14610c70578063983b2d5614610c9f5780639865027514610cf0578063a144819414610d075761025c565b8063715018a614610a3e57806380f2036314610a555780638129fc1c14610a9057806382dc1ec414610aa75780638456cb5914610af85761025c565b80633f4ba83a116101dd5780635c975abb116101a15780635c975abb1461075b578063603168011461078a5780636352211e146109295780636caa736b146109a45780636ef8d66d146109c257806370a08231146109d95761025c565b80633f4ba83a1461059e57806340c10f19146105b557806342842e0e1461062857806346fbf68e146106a35780634f6ccce71461070c5761025c565b80631249c58b116102245780631249c58b146103f257806318160ddd1461041d5780631b80ad781461044857806323b872dd146104b45780632f745c591461052f5761025c565b806301ffc9a7146102615780630497de4a146102d3578063081812fc146102fe578063095ea7b314610379578063117df088146103d4575b600080fd5b34801561026d57600080fd5b506102b96004803603602081101561028457600080fd5b8101908080357bffffffffffffffffffffffffffffffffffffffffffffffffffffffff1916906020019092919050505061136f565b604051808215151515815260200191505060405180910390f35b3480156102df57600080fd5b506102e86113d7565b6040518082815260200191505060405180910390f35b34801561030a57600080fd5b506103376004803603602081101561032157600080fd5b810190808035906020019092919050505061141f565b604051808273ffffffffffffffffffffffffffffffffffffffff1673ffffffffffffffffffffffffffffffffffffffff16815260200191505060405180910390f35b34801561038557600080fd5b506103d26004803603604081101561039c57600080fd5b81019080803573ffffffffffffffffffffffffffffffffffffffff169060200190929190803590602001909291905050506114ba565b005b6103dc6116a1565b6040518082815260200191505060405180910390f35b3480156103fe57600080fd5b506104076118e6565b6040518082815260200191505060405180910390f35b34801561042957600080fd5b50610432611946565b6040518082815260200191505060405180910390f35b34801561045457600080fd5b5061045d611953565b6040518080602001828103825283818151815260200191508051906020019060200280838360005b838110156104a0578082015181840152602081019050610485565b505050509050019250505060405180910390f35b3480156104c057600080fd5b5061052d600480360360608110156104d757600080fd5b81019080803573ffffffffffffffffffffffffffffffffffffffff169060200190929190803573ffffffffffffffffffffffffffffffffffffffff169060200190929190803590602001909291905050506119e9565b005b34801561053b57600080fd5b506105886004803603604081101561055257600080fd5b81019080803573ffffffffffffffffffffffffffffffffffffffff16906020019092919080359060200190929190505050611a5f565b6040518082815260200191505060405180910390f35b3480156105aa57600080fd5b506105b3611b1e565b005b3480156105c157600080fd5b5061060e600480360360408110156105d857600080fd5b81019080803573ffffffffffffffffffffffffffffffffffffffff16906020019092919080359060200190929190505050611c8e565b604051808215151515815260200191505060405180910390f35b34801561063457600080fd5b506106a16004803603606081101561064b57600080fd5b81019080803573ffffffffffffffffffffffffffffffffffffffff169060200190929190803573ffffffffffffffffffffffffffffffffffffffff16906020019092919080359060200190929190505050611d09565b005b3480156106af57600080fd5b506106f2600480360360208110156106c657600080fd5b81019080803573ffffffffffffffffffffffffffffffffffffffff169060200190929190505050611d29565b604051808215151515815260200191505060405180910390f35b34801561071857600080fd5b506107456004803603602081101561072f57600080fd5b8101908080359060200190929190505050611d47565b6040518082815260200191505060405180910390f35b34801561076757600080fd5b50610770611dc7565b604051808215151515815260200191505060405180910390f35b34801561079657600080fd5b506107c3600480360360208110156107ad57600080fd5b8101908080359060200190929190505050611ddf565b6040518088815260200180602001806020018781526020018673ffffffffffffffffffffffffffffffffffffffff1673ffffffffffffffffffffffffffffffffffffffff1681526020018573ffffffffffffffffffffffffffffffffffffffff1673ffffffffffffffffffffffffffffffffffffffff16815260200184151515158152602001838103835289818151815260200191508051906020019080838360005b83811015610881578082015181840152602081019050610866565b50505050905090810190601f1680156108ae5780820380516001836020036101000a031916815260200191505b50838103825288818151815260200191508051906020019080838360005b838110156108e75780820151818401526020810190506108cc565b50505050905090810190601f1680156109145780820380516001836020036101000a031916815260200191505b50995050505050505050505060405180910390f35b34801561093557600080fd5b506109626004803603602081101561094c57600080fd5b8101908080359060200190929190505050611fa6565b604051808273ffffffffffffffffffffffffffffffffffffffff1673ffffffffffffffffffffffffffffffffffffffff16815260200191505060405180910390f35b6109ac61206e565b6040518082815260200191505060405180910390f35b3480156109ce57600080fd5b506109d76121c8565b005b3480156109e557600080fd5b50610a28600480360360208110156109fc57600080fd5b81019080803573ffffffffffffffffffffffffffffffffffffffff1690602001909291905050506121da565b6040518082815260200191505060405180910390f35b348015610a4a57600080fd5b50610a536122af565b005b348015610a6157600080fd5b50610a8e60048036036020811015610a7857600080fd5b81019080803590602001909291905050506123ec565b005b348015610a9c57600080fd5b50610aa5612523565b005b348015610ab357600080fd5b50610af660048036036020811015610aca57600080fd5b81019080803573ffffffffffffffffffffffffffffffffffffffff169060200190929190505050612643565b005b348015610b0457600080fd5b50610b0d6126b4565b005b348015610b1b57600080fd5b50610bff60048036036060811015610b3257600080fd5b81019080803573ffffffffffffffffffffffffffffffffffffffff1690602001909291908035906020019092919080359060200190640100000000811115610b7957600080fd5b820183602082011115610b8b57600080fd5b80359060200191846001830284011164010000000083111715610bad57600080fd5b91908080601f016020809104026020016040519081016040528093929190818152602001838380828437600081840152601f19601f820116905080830192505050505050509192919290505050612825565b604051808215151515815260200191505060405180910390f35b348015610c2557600080fd5b50610c2e6128a2565b604051808273ffffffffffffffffffffffffffffffffffffffff1673ffffffffffffffffffffffffffffffffffffffff16815260200191505060405180910390f35b348015610c7c57600080fd5b50610c856128cd565b604051808215151515815260200191505060405180910390f35b348015610cab57600080fd5b50610cee60048036036020811015610cc257600080fd5b81019080803573ffffffffffffffffffffffffffffffffffffffff16906020019092919050505061292d565b005b348015610cfc57600080fd5b50610d0561299e565b005b348015610d1357600080fd5b50610d6060048036036040811015610d2a57600080fd5b81019080803573ffffffffffffffffffffffffffffffffffffffff169060200190929190803590602001909291905050506129b0565b604051808215151515815260200191505060405180910390f35b348015610d8657600080fd5b50610dd560048036036040811015610d9d57600080fd5b81019080803573ffffffffffffffffffffffffffffffffffffffff169060200190929190803515159060200190929190505050612a2b565b005b348015610de357600080fd5b50610e2660048036036020811015610dfa57600080fd5b81019080803573ffffffffffffffffffffffffffffffffffffffff169060200190929190505050612be3565b604051808215151515815260200191505060405180910390f35b348015610e4c57600080fd5b50610e55612c00565b6040518080602001828103825283818151815260200191508051906020019060200280838360005b83811015610e98578082015181840152602081019050610e7d565b505050509050019250505060405180910390f35b348015610eb857600080fd5b50610fbc60048036036080811015610ecf57600080fd5b81019080803573ffffffffffffffffffffffffffffffffffffffff169060200190929190803573ffffffffffffffffffffffffffffffffffffffff1690602001909291908035906020019092919080359060200190640100000000811115610f3657600080fd5b820183602082011115610f4857600080fd5b80359060200191846001830284011164010000000083111715610f6a57600080fd5b91908080601f016020809104026020016040519081016040528093929190818152602001838380828437600081840152601f19601f820116905080830192505050505050509192919290505050612c5f565b005b348015610fca57600080fd5b5061100d60048036036020811015610fe157600080fd5b81019080803573ffffffffffffffffffffffffffffffffffffffff169060200190929190505050612cd7565b005b34801561101b57600080fd5b506110486004803603602081101561103257600080fd5b8101908080359060200190929190505050612dfc565b005b34801561105657600080fd5b506111b16004803603606081101561106d57600080fd5b810190808035906020019064010000000081111561108a57600080fd5b82018360208201111561109c57600080fd5b803590602001918460018302840111640100000000831117156110be57600080fd5b91908080601f016020809104026020016040519081016040528093929190818152602001838380828437600081840152601f19601f8201169050808301925050505050505091929192908035906020019064010000000081111561112157600080fd5b82018360208201111561113357600080fd5b8035906020019184600183028401116401000000008311171561115557600080fd5b91908080601f016020809104026020016040519081016040528093929190818152602001838380828437600081840152601f19601f82011690508083019250505050505050919291929080359060200190929190505050612e12565b6040518082815260200191505060405180910390f35b3480156111d357600080fd5b50611236600480360360408110156111ea57600080fd5b81019080803573ffffffffffffffffffffffffffffffffffffffff169060200190929190803573ffffffffffffffffffffffffffffffffffffffff169060200190929190505050612f2a565b604051808215151515815260200191505060405180910390f35b34801561125c57600080fd5b506112896004803603602081101561127357600080fd5b8101908080359060200190929190505050612fbe565b604051808273ffffffffffffffffffffffffffffffffffffffff1673ffffffffffffffffffffffffffffffffffffffff16815260200191505060405180910390f35b3480156112d757600080fd5b5061131a600480360360208110156112ee57600080fd5b81019080803573ffffffffffffffffffffffffffffffffffffffff169060200190929190505050613101565b005b34801561132857600080fd5b506113556004803603602081101561133f57600080fd5b8101908080359060200190929190505050613187565b604051808215151515815260200191505060405180910390f35b600060336000837bffffffffffffffffffffffffffffffffffffffffffffffffffffffff19167bffffffffffffffffffffffffffffffffffffffffffffffffffffffff1916815260200190815260200160002060009054906101000a900460ff169050919050565b600061020a60003373ffffffffffffffffffffffffffffffffffffffff1673ffffffffffffffffffffffffffffffffffffffff16815260200190815260200160002054905090565b600061142a826131b2565b61147f576040517f08c379a000000000000000000000000000000000000000000000000000000000815260040180806020018281038252602c815260200180615c52602c913960400191505060405180910390fd5b6067600083815260200190815260200160002060009054906101000a900473ffffffffffffffffffffffffffffffffffffffff169050919050565b60006114c582611fa6565b90508073ffffffffffffffffffffffffffffffffffffffff168373ffffffffffffffffffffffffffffffffffffffff16141561154c576040517f08c379a0000000000000000000000000000000000000000000000000000000008152600401808060200182810382526021815260200180615d296021913960400191505060405180910390fd5b8073ffffffffffffffffffffffffffffffffffffffff1661156b613224565b73ffffffffffffffffffffffffffffffffffffffff16148061159a575061159981611594613224565b612f2a565b5b6115ef576040517f08c379a0000000000000000000000000000000000000000000000000000000008152600401808060200182810382526038815260200180615b536038913960400191505060405180910390fd5b826067600084815260200190815260200160002060006101000a81548173ffffffffffffffffffffffffffffffffffffffff021916908373ffffffffffffffffffffffffffffffffffffffff160217905550818373ffffffffffffffffffffffffffffffffffffffff168273ffffffffffffffffffffffffffffffffffffffff167f8c5be1e5ebec7d5bd14f71427d1e84f3dd0314c0f7b2291e5b200ac8c7c3b92560405160405180910390a4505050565b600060016101d06000828254019250508190555060006101d0549050600061020a60003373ffffffffffffffffffffffffffffffffffffffff1673ffffffffffffffffffffffffffffffffffffffff168152602001908152602001600020549050600061020b60003373ffffffffffffffffffffffffffffffffffffffff1673ffffffffffffffffffffffffffffffffffffffff168152602001908152602001600020549050600061175c828461322c90919063ffffffff16565b9050611787813373ffffffffffffffffffffffffffffffffffffffff1661327690919063ffffffff16565b6117da8161020a60003373ffffffffffffffffffffffffffffffffffffffff1673ffffffffffffffffffffffffffffffffffffffff1681526020019081526020016000205461322c90919063ffffffff16565b61020a60003373ffffffffffffffffffffffffffffffffffffffff1673ffffffffffffffffffffffffffffffffffffffff16815260200190815260200160002081905550600061020a60003373ffffffffffffffffffffffffffffffffffffffff1673ffffffffffffffffffffffffffffffffffffffff168152602001908152602001600020549050809550505050506101d05481146118e2576040517f08c379a000000000000000000000000000000000000000000000000000000000815260040180806020018281038252601f8152602001807f5265656e7472616e637947756172643a207265656e7472616e742063616c6c0081525060200191505060405180910390fd5b5090565b60006119416040518060400160405280600481526020017f54657374000000000000000000000000000000000000000000000000000000008152506040518060600160405280602e8152602001615da7602e91396001612e12565b905090565b6000609e80549050905090565b606061020760003373ffffffffffffffffffffffffffffffffffffffff1673ffffffffffffffffffffffffffffffffffffffff1681526020019081526020016000208054806020026020016040519081016040528092919081815260200182805480156119df57602002820191906000526020600020905b8154815260200190600101908083116119cb575b5050505050905090565b6119fa6119f4613224565b826133c7565b611a4f576040517f08c379a0000000000000000000000000000000000000000000000000000000008152600401808060200182810382526031815260200180615d4a6031913960400191505060405180910390fd5b611a5a8383836134bb565b505050565b6000611a6a836121da565b8210611ac1576040517f08c379a000000000000000000000000000000000000000000000000000000000815260040180806020018281038252602b8152602001806159c7602b913960400191505060405180910390fd5b609c60008473ffffffffffffffffffffffffffffffffffffffff1673ffffffffffffffffffffffffffffffffffffffff1681526020019081526020016000208281548110611b0b57fe5b9060005260206000200154905092915050565b611b2e611b29613224565b611d29565b611b83576040517f08c379a0000000000000000000000000000000000000000000000000000000008152600401808060200182810382526030815260200180615a246030913960400191505060405180910390fd5b61019d60009054906101000a900460ff16611c06576040517f08c379a00000000000000000000000000000000000000000000000000000000081526004018080602001828103825260148152602001807f5061757361626c653a206e6f742070617573656400000000000000000000000081525060200191505060405180910390fd5b600061019d60006101000a81548160ff0219169083151502179055507f5db9ee0a495bf2e6ff9c91a7834c1ba4fdd244a5e8aa4e537bd38aeae4b073aa611c4b613224565b604051808273ffffffffffffffffffffffffffffffffffffffff1673ffffffffffffffffffffffffffffffffffffffff16815260200191505060405180910390a1565b6000611ca0611c9b613224565b612be3565b611cf5576040517f08c379a0000000000000000000000000000000000000000000000000000000008152600401808060200182810382526030815260200180615bde6030913960400191505060405180910390fd5b611cff83836134df565b6001905092915050565b611d2483838360405180602001604052806000815250612c5f565b505050565b6000611d408261016a61350090919063ffffffff16565b9050919050565b6000611d51611946565b8210611da8576040517f08c379a000000000000000000000000000000000000000000000000000000000815260040180806020018281038252602c815260200180615d7b602c913960400191505060405180910390fd5b609e8281548110611db557fe5b90600052602060002001549050919050565b600061019d60009054906101000a900460ff16905090565b6000606080600080600080611df2615886565b61020360008a8152602001908152602001600020604051806060016040529081600082018054600181600116156101000203166002900480601f016020809104026020016040519081016040528092919081815260200182805460018160011615610100020316600290048015611eaa5780601f10611e7f57610100808354040283529160200191611eaa565b820191906000526020600020905b815481529060010190602001808311611e8d57829003601f168201915b50505050508152602001600182018054600181600116156101000203166002900480601f016020809104026020016040519081016040528092919081815260200182805460018160011615610100020316600290048015611f4c5780601f10611f2157610100808354040283529160200191611f4c565b820191906000526020600020905b815481529060010190602001808311611f2f57829003601f168201915b505050505081526020016002820154815250509050889750806000015196508060200151955080604001519450611f8289611fa6565b9350611f8d89612fbe565b9250611f9889613187565b915050919395979092949650565b6000806066600084815260200190815260200160002060009054906101000a900473ffffffffffffffffffffffffffffffffffffffff169050600073ffffffffffffffffffffffffffffffffffffffff168173ffffffffffffffffffffffffffffffffffffffff161415612065576040517f08c379a0000000000000000000000000000000000000000000000000000000008152600401808060200182810382526029815260200180615bb56029913960400191505060405180910390fd5b80915050919050565b60008034116120e5576040517f08c379a00000000000000000000000000000000000000000000000000000000081526004018080602001828103825260168152602001807f5468696e673a2053656e742076616c7565203c3d20300000000000000000000081525060200191505060405180910390fd5b600061213a3461020a60003373ffffffffffffffffffffffffffffffffffffffff1673ffffffffffffffffffffffffffffffffffffffff168152602001908152602001600020546135de90919063ffffffff16565b90508061020a60003373ffffffffffffffffffffffffffffffffffffffff1673ffffffffffffffffffffffffffffffffffffffff1681526020019081526020016000208190555061020a60003373ffffffffffffffffffffffffffffffffffffffff1673ffffffffffffffffffffffffffffffffffffffff1681526020019081526020016000205491505090565b6121d86121d3613224565b613666565b565b60008073ffffffffffffffffffffffffffffffffffffffff168273ffffffffffffffffffffffffffffffffffffffff161415612261576040517f08c379a000000000000000000000000000000000000000000000000000000000815260040180806020018281038252602a815260200180615b8b602a913960400191505060405180910390fd5b6122a8606860008473ffffffffffffffffffffffffffffffffffffffff1673ffffffffffffffffffffffffffffffffffffffff1681526020019081526020016000206136c1565b9050919050565b6122b76128cd565b612329576040517f08c379a00000000000000000000000000000000000000000000000000000000081526004018080602001828103825260208152602001807f4f776e61626c653a2063616c6c6572206973206e6f7420746865206f776e657281525060200191505060405180910390fd5b600073ffffffffffffffffffffffffffffffffffffffff1661013760009054906101000a900473ffffffffffffffffffffffffffffffffffffffff1673ffffffffffffffffffffffffffffffffffffffff167f8be0079c531659141344cd1fd0a4f28419497f9722a3daafe3b4186f6b6457e060405160405180910390a3600061013760006101000a81548173ffffffffffffffffffffffffffffffffffffffff021916908373ffffffffffffffffffffffffffffffffffffffff160217905550565b6123f5816131b2565b612467576040517f08c379a00000000000000000000000000000000000000000000000000000000081526004018080602001828103825260178152602001807f5468696e673a20746f6b656e20646f6e7420657869737400000000000000000081525060200191505060405180910390fd5b3373ffffffffffffffffffffffffffffffffffffffff1661248782611fa6565b73ffffffffffffffffffffffffffffffffffffffff16146124f3576040517f08c379a000000000000000000000000000000000000000000000000000000000815260040180806020018281038252602c815260200180615a7a602c913960400191505060405180910390fd5b6001610209600083815260200190815260200160002060006101000a81548160ff02191690831515021790555050565b600060019054906101000a900460ff168061254257506125416136cf565b5b8061255957506000809054906101000a900460ff16155b6125ae576040517f08c379a000000000000000000000000000000000000000000000000000000000815260040180806020018281038252602e815260200180615cd2602e913960400191505060405180910390fd5b60008060019054906101000a900460ff1615905080156125fe576001600060016101000a81548160ff02191690831515021790555060016000806101000a81548160ff0219169083151502179055505b6126066136e0565b61260e6137f7565b61261733613917565b61261f613a31565b80156126405760008060016101000a81548160ff0219169083151502179055505b50565b61265361264e613224565b611d29565b6126a8576040517f08c379a0000000000000000000000000000000000000000000000000000000008152600401808060200182810382526030815260200180615a246030913960400191505060405180910390fd5b6126b181613b39565b50565b6126c46126bf613224565b611d29565b612719576040517f08c379a0000000000000000000000000000000000000000000000000000000008152600401808060200182810382526030815260200180615a246030913960400191505060405180910390fd5b61019d60009054906101000a900460ff161561279d576040517f08c379a00000000000000000000000000000000000000000000000000000000081526004018080602001828103825260108152602001807f5061757361626c653a207061757365640000000000000000000000000000000081525060200191505060405180910390fd5b600161019d60006101000a81548160ff0219169083151502179055507f62e78cea01bee320cd4e420270b5ea74000d11b0c9f74754ebdbfc544b05a2586127e2613224565b604051808273ffffffffffffffffffffffffffffffffffffffff1673ffffffffffffffffffffffffffffffffffffffff16815260200191505060405180910390a1565b6000612837612832613224565b612be3565b61288c576040517f08c379a0000000000000000000000000000000000000000000000000000000008152600401808060200182810382526030815260200180615bde6030913960400191505060405180910390fd5b612897848484613b94565b600190509392505050565b600061013760009054906101000a900473ffffffffffffffffffffffffffffffffffffffff16905090565b600061013760009054906101000a900473ffffffffffffffffffffffffffffffffffffffff1673ffffffffffffffffffffffffffffffffffffffff16612911613224565b73ffffffffffffffffffffffffffffffffffffffff1614905090565b61293d612938613224565b612be3565b612992576040517f08c379a0000000000000000000000000000000000000000000000000000000008152600401808060200182810382526030815260200180615bde6030913960400191505060405180910390fd5b61299b81613c05565b50565b6129ae6129a9613224565b613c5f565b565b60006129c26129bd613224565b612be3565b612a17576040517f08c379a0000000000000000000000000000000000000000000000000000000008152600401808060200182810382526030815260200180615bde6030913960400191505060405180910390fd5b612a218383613cb9565b6001905092915050565b612a33613224565b73ffffffffffffffffffffffffffffffffffffffff168273ffffffffffffffffffffffffffffffffffffffff161415612ad4576040517f08c379a00000000000000000000000000000000000000000000000000000000081526004018080602001828103825260198152602001807f4552433732313a20617070726f766520746f2063616c6c65720000000000000081525060200191505060405180910390fd5b8060696000612ae1613224565b73ffffffffffffffffffffffffffffffffffffffff1673ffffffffffffffffffffffffffffffffffffffff16815260200190815260200160002060008473ffffffffffffffffffffffffffffffffffffffff1673ffffffffffffffffffffffffffffffffffffffff16815260200190815260200160002060006101000a81548160ff0219169083151502179055508173ffffffffffffffffffffffffffffffffffffffff16612b8e613224565b73ffffffffffffffffffffffffffffffffffffffff167f17307eab39ab6107e8899845ad3d59bd9653f200f220920489ca2b5937696c3183604051808215151515815260200191505060405180910390a35050565b6000612bf98260d261350090919063ffffffff16565b9050919050565b6060612c0b33613cd7565b805480602002602001604051908101604052809291908181526020018280548015612c5557602002820191906000526020600020905b815481526020019060010190808311612c41575b5050505050905090565b612c70612c6a613224565b836133c7565b612cc5576040517f08c379a0000000000000000000000000000000000000000000000000000000008152600401808060200182810382526031815260200180615d4a6031913960400191505060405180910390fd5b612cd184848484613d1f565b50505050565b600060019054906101000a900460ff1680612cf65750612cf56136cf565b5b80612d0d57506000809054906101000a900460ff16155b612d62576040517f08c379a000000000000000000000000000000000000000000000000000000000815260040180806020018281038252602e815260200180615cd2602e913960400191505060405180910390fd5b60008060019054906101000a900460ff161590508015612db2576001600060016101000a81548160ff02191690831515021790555060016000806101000a81548160ff0219169083151502179055505b612dbb82613d91565b600061019d60006101000a81548160ff0219169083151502179055508015612df85760008060016101000a81548160ff0219169083151502179055505b5050565b612e0f612e0882612fbe565b3383613ea8565b50565b6000612e24612e1f613224565b612be3565b612e79576040517f08c379a0000000000000000000000000000000000000000000000000000000008152600401808060200182810382526030815260200180615bde6030913960400191505060405180910390fd5b612e846102046144dc565b6000612e916102046136c1565b9050612e9b615886565b60405180606001604052808781526020018681526020018581525090508061020360008481526020019081526020016000206000820151816000019080519060200190612ee99291906158a7565b506020820151816001019080519060200190612f069291906158a7565b5060408201518160020155905050612f1e33836134df565b81925050509392505050565b6000606960008473ffffffffffffffffffffffffffffffffffffffff1673ffffffffffffffffffffffffffffffffffffffff16815260200190815260200160002060008373ffffffffffffffffffffffffffffffffffffffff1673ffffffffffffffffffffffffffffffffffffffff16815260200190815260200160002060009054906101000a900460ff16905092915050565b600080612fca83611fa6565b9050600073ffffffffffffffffffffffffffffffffffffffff168173ffffffffffffffffffffffffffffffffffffffff161415613052576040517f08c379a00000000000000000000000000000000000000000000000000000000081526004018080602001828103825260288152602001806159796028913960400191505060405180910390fd5b600073ffffffffffffffffffffffffffffffffffffffff16610205600085815260200190815260200160002060009054906101000a900473ffffffffffffffffffffffffffffffffffffffff1673ffffffffffffffffffffffffffffffffffffffff16146130f757610205600084815260200190815260200160002060009054906101000a900473ffffffffffffffffffffffffffffffffffffffff169150506130fc565b809150505b919050565b6131096128cd565b61317b576040517f08c379a00000000000000000000000000000000000000000000000000000000081526004018080602001828103825260208152602001807f4f776e61626c653a2063616c6c6572206973206e6f7420746865206f776e657281525060200191505060405180910390fd5b613184816144f2565b50565b6000610209600083815260200190815260200160002060009054906101000a900460ff169050919050565b6000806066600084815260200190815260200160002060009054906101000a900473ffffffffffffffffffffffffffffffffffffffff169050600073ffffffffffffffffffffffffffffffffffffffff168173ffffffffffffffffffffffffffffffffffffffff161415915050919050565b600033905090565b600061326e83836040518060400160405280601e81526020017f536166654d6174683a207375627472616374696f6e206f766572666c6f77000081525061463a565b905092915050565b803073ffffffffffffffffffffffffffffffffffffffff16311015613303576040517f08c379a000000000000000000000000000000000000000000000000000000000815260040180806020018281038252601d8152602001807f416464726573733a20696e73756666696369656e742062616c616e636500000081525060200191505060405180910390fd5b60008273ffffffffffffffffffffffffffffffffffffffff168260405180600001905060006040518083038185875af1925050503d8060008114613363576040519150601f19603f3d011682016040523d82523d6000602084013e613368565b606091505b50509050806133c2576040517f08c379a000000000000000000000000000000000000000000000000000000000815260040180806020018281038252603a815260200180615aed603a913960400191505060405180910390fd5b505050565b60006133d2826131b2565b613427576040517f08c379a000000000000000000000000000000000000000000000000000000000815260040180806020018281038252602c815260200180615b27602c913960400191505060405180910390fd5b600061343283611fa6565b90508073ffffffffffffffffffffffffffffffffffffffff168473ffffffffffffffffffffffffffffffffffffffff1614806134a157508373ffffffffffffffffffffffffffffffffffffffff166134898461141f565b73ffffffffffffffffffffffffffffffffffffffff16145b806134b257506134b18185612f2a565b5b91505092915050565b6134c68383836146fa565b6134d08382614955565b6134da8282614af3565b505050565b6134e98282614bba565b6134f38282614af3565b6134fc81614dd2565b5050565b60008073ffffffffffffffffffffffffffffffffffffffff168273ffffffffffffffffffffffffffffffffffffffff161415613587576040517f08c379a0000000000000000000000000000000000000000000000000000000008152600401808060200182810382526022815260200180615cb06022913960400191505060405180910390fd5b8260000160008373ffffffffffffffffffffffffffffffffffffffff1673ffffffffffffffffffffffffffffffffffffffff16815260200190815260200160002060009054906101000a900460ff16905092915050565b60008082840190508381101561365c576040517f08c379a000000000000000000000000000000000000000000000000000000000815260040180806020018281038252601b8152602001807f536166654d6174683a206164646974696f6e206f766572666c6f77000000000081525060200191505060405180910390fd5b8091505092915050565b61367b8161016a614e1e90919063ffffffff16565b8073ffffffffffffffffffffffffffffffffffffffff167fcd265ebaf09df2871cc7bd4133404a235ba12eff2041bb89d9c714a2621c7c7e60405160405180910390a250565b600081600001549050919050565b600080303b90506000811491505090565b600060019054906101000a900460ff16806136ff57506136fe6136cf565b5b8061371657506000809054906101000a900460ff16155b61376b576040517f08c379a000000000000000000000000000000000000000000000000000000000815260040180806020018281038252602e815260200180615cd2602e913960400191505060405180910390fd5b60008060019054906101000a900460ff1615905080156137bb576001600060016101000a81548160ff02191690831515021790555060016000806101000a81548160ff0219169083151502179055505b6137c3614edb565b6137d36380ac58cd60e01b614fea565b80156137f45760008060016101000a81548160ff0219169083151502179055505b50565b600060019054906101000a900460ff168061381657506138156136cf565b5b8061382d57506000809054906101000a900460ff16155b613882576040517f08c379a000000000000000000000000000000000000000000000000000000000815260040180806020018281038252602e815260200180615cd2602e913960400191505060405180910390fd5b60008060019054906101000a900460ff1615905080156138d2576001600060016101000a81548160ff02191690831515021790555060016000806101000a81548160ff0219169083151502179055505b6138da6150f3565b6138e357600080fd5b6138f363780e9d6360e01b614fea565b80156139145760008060016101000a81548160ff0219169083151502179055505b50565b600060019054906101000a900460ff168061393657506139356136cf565b5b8061394d57506000809054906101000a900460ff16155b6139a2576040517f08c379a000000000000000000000000000000000000000000000000000000000815260040180806020018281038252602e815260200180615cd2602e913960400191505060405180910390fd5b60008060019054906101000a900460ff1615905080156139f2576001600060016101000a81548160ff02191690831515021790555060016000806101000a81548160ff0219169083151502179055505b6139fa6150f3565b613a0357600080fd5b613a0c8261510a565b8015613a2d5760008060016101000a81548160ff0219169083151502179055505b5050565b600060019054906101000a900460ff1680613a505750613a4f6136cf565b5b80613a6757506000809054906101000a900460ff16155b613abc576040517f08c379a000000000000000000000000000000000000000000000000000000000815260040180806020018281038252602e815260200180615cd2602e913960400191505060405180910390fd5b60008060019054906101000a900460ff161590508015613b0c576001600060016101000a81548160ff02191690831515021790555060016000806101000a81548160ff0219169083151502179055505b60016101d0819055508015613b365760008060016101000a81548160ff0219169083151502179055505b50565b613b4e8161016a61522190919063ffffffff16565b8073ffffffffffffffffffffffffffffffffffffffff167f6719d08c1888103bea251a4ed56406bd0c3e69723c8a1686e017e7bbe159b6f860405160405180910390a250565b613b9e83836134df565b613bab60008484846152fc565b613c00576040517f08c379a00000000000000000000000000000000000000000000000000000000081526004018080602001828103825260328152602001806159f26032913960400191505060405180910390fd5b505050565b613c198160d261522190919063ffffffff16565b8073ffffffffffffffffffffffffffffffffffffffff167f6ae172837ea30b801fbfcdd4108aa1d5bf8ff775444fd70256b44e6bf3dfc3f660405160405180910390a250565b613c738160d2614e1e90919063ffffffff16565b8073ffffffffffffffffffffffffffffffffffffffff167fe94479a9f7e1952cc78f2d6baab678adc1b772d936c6583def489e524cb6669260405160405180910390a250565b613cd3828260405180602001604052806000815250613b94565b5050565b6000609c60008373ffffffffffffffffffffffffffffffffffffffff1673ffffffffffffffffffffffffffffffffffffffff1681526020019081526020016000209050919050565b613d2a8484846134bb565b613d36848484846152fc565b613d8b576040517f08c379a00000000000000000000000000000000000000000000000000000000081526004018080602001828103825260328152602001806159f26032913960400191505060405180910390fd5b50505050565b600060019054906101000a900460ff1680613db05750613daf6136cf565b5b80613dc757506000809054906101000a900460ff16155b613e1c576040517f08c379a000000000000000000000000000000000000000000000000000000000815260040180806020018281038252602e815260200180615cd2602e913960400191505060405180910390fd5b60008060019054906101000a900460ff161590508015613e6c576001600060016101000a81548160ff02191690831515021790555060016000806101000a81548160ff0219169083151502179055505b613e7582611d29565b613e8357613e8282613b39565b5b8015613ea45760008060016101000a81548160ff0219169083151502179055505b5050565b613eb1816131b2565b613f23576040517f08c379a00000000000000000000000000000000000000000000000000000000081526004018080602001828103825260178152602001807f5468696e673a20746f6b656e20646f6e7420657869737400000000000000000081525060200191505060405180910390fd5b600073ffffffffffffffffffffffffffffffffffffffff168273ffffffffffffffffffffffffffffffffffffffff161415613fa9576040517f08c379a0000000000000000000000000000000000000000000000000000000008152600401808060200182810382526023815260200180615c2f6023913960400191505060405180910390fd5b613fb281612fbe565b73ffffffffffffffffffffffffffffffffffffffff168273ffffffffffffffffffffffffffffffffffffffff161415614036576040517f08c379a0000000000000000000000000000000000000000000000000000000008152600401808060200182810382526023815260200180615aa66023913960400191505060405180910390fd5b61403f81613187565b15614095576040517f08c379a00000000000000000000000000000000000000000000000000000000081526004018080602001828103825260268152602001806159a16026913960400191505060405180910390fd5b60006140a082611fa6565b905060006102036000848152602001908152602001600020600201549050600081111561437657600061020b60008773ffffffffffffffffffffffffffffffffffffffff1673ffffffffffffffffffffffffffffffffffffffff16815260200190815260200160002054905060008373ffffffffffffffffffffffffffffffffffffffff168773ffffffffffffffffffffffffffffffffffffffff16141561414a57819050614160565b61415d838361322c90919063ffffffff16565b90505b600061020a60008873ffffffffffffffffffffffffffffffffffffffff1673ffffffffffffffffffffffffffffffffffffffff168152602001908152602001600020549050600061020b60008973ffffffffffffffffffffffffffffffffffffffff1673ffffffffffffffffffffffffffffffffffffffff16815260200190815260200160002054905060008673ffffffffffffffffffffffffffffffffffffffff168973ffffffffffffffffffffffffffffffffffffffff1614156142285781905061423e565b61423b86836135de90919063ffffffff16565b90505b7ff3ee2bbb0b9b66cf7c48e59107dadde90e37dd99b20f2fcc50b1a8929b659910868484846040518085815260200184815260200183815260200182815260200194505050505060405180910390a1808310156142e6576040517f08c379a0000000000000000000000000000000000000000000000000000000008152600401808060200182810382526032815260200180615c7e6032913960400191505060405180910390fd5b8361020b60008c73ffffffffffffffffffffffffffffffffffffffff1673ffffffffffffffffffffffffffffffffffffffff168152602001908152602001600020819055508061020b60008b73ffffffffffffffffffffffffffffffffffffffff1673ffffffffffffffffffffffffffffffffffffffff1681526020019081526020016000208190555050505050505b8473ffffffffffffffffffffffffffffffffffffffff168273ffffffffffffffffffffffffffffffffffffffff16146143fc576143b385846154ec565b6143fb61020660008773ffffffffffffffffffffffffffffffffffffffff1673ffffffffffffffffffffffffffffffffffffffff168152602001908152602001600020615690565b5b8373ffffffffffffffffffffffffffffffffffffffff168273ffffffffffffffffffffffffffffffffffffffff16146144825761443984846156b3565b61448161020660008673ffffffffffffffffffffffffffffffffffffffff1673ffffffffffffffffffffffffffffffffffffffff1681526020019081526020016000206144dc565b5b83610205600085815260200190815260200160002060006101000a81548173ffffffffffffffffffffffffffffffffffffffff021916908373ffffffffffffffffffffffffffffffffffffffff1602179055505050505050565b6001816000016000828254019250508190555050565b600073ffffffffffffffffffffffffffffffffffffffff168173ffffffffffffffffffffffffffffffffffffffff161415614578576040517f08c379a0000000000000000000000000000000000000000000000000000000008152600401808060200182810382526026815260200180615a546026913960400191505060405180910390fd5b8073ffffffffffffffffffffffffffffffffffffffff1661013760009054906101000a900473ffffffffffffffffffffffffffffffffffffffff1673ffffffffffffffffffffffffffffffffffffffff167f8be0079c531659141344cd1fd0a4f28419497f9722a3daafe3b4186f6b6457e060405160405180910390a38061013760006101000a81548173ffffffffffffffffffffffffffffffffffffffff021916908373ffffffffffffffffffffffffffffffffffffffff16021790555050565b60008383111582906146e7576040517f08c379a00000000000000000000000000000000000000000000000000000000081526004018080602001828103825283818151815260200191508051906020019080838360005b838110156146ac578082015181840152602081019050614691565b50505050905090810190601f1680156146d95780820380516001836020036101000a031916815260200191505b509250505060405180910390fd5b5060008385039050809150509392505050565b8273ffffffffffffffffffffffffffffffffffffffff1661471a82611fa6565b73ffffffffffffffffffffffffffffffffffffffff1614614786576040517f08c379a0000000000000000000000000000000000000000000000000000000008152600401808060200182810382526029815260200180615d006029913960400191505060405180910390fd5b600073ffffffffffffffffffffffffffffffffffffffff168273ffffffffffffffffffffffffffffffffffffffff16141561480c576040517f08c379a0000000000000000000000000000000000000000000000000000000008152600401808060200182810382526024815260200180615ac96024913960400191505060405180910390fd5b6148158161577d565b61485c606860008573ffffffffffffffffffffffffffffffffffffffff1673ffffffffffffffffffffffffffffffffffffffff168152602001908152602001600020615690565b6148a3606860008473ffffffffffffffffffffffffffffffffffffffff1673ffffffffffffffffffffffffffffffffffffffff1681526020019081526020016000206144dc565b816066600083815260200190815260200160002060006101000a81548173ffffffffffffffffffffffffffffffffffffffff021916908373ffffffffffffffffffffffffffffffffffffffff160217905550808273ffffffffffffffffffffffffffffffffffffffff168473ffffffffffffffffffffffffffffffffffffffff167fddf252ad1be2c89b69c2b068fc378daa952ba7f163c4a11628f55a4df523b3ef60405160405180910390a4505050565b60006149ad6001609c60008673ffffffffffffffffffffffffffffffffffffffff1673ffffffffffffffffffffffffffffffffffffffff1681526020019081526020016000208054905061322c90919063ffffffff16565b90506000609d6000848152602001908152602001600020549050818114614a9a576000609c60008673ffffffffffffffffffffffffffffffffffffffff1673ffffffffffffffffffffffffffffffffffffffff1681526020019081526020016000208381548110614a1a57fe5b9060005260206000200154905080609c60008773ffffffffffffffffffffffffffffffffffffffff1673ffffffffffffffffffffffffffffffffffffffff1681526020019081526020016000208381548110614a7257fe5b906000526020600020018190555081609d600083815260200190815260200160002081905550505b609c60008573ffffffffffffffffffffffffffffffffffffffff1673ffffffffffffffffffffffffffffffffffffffff168152602001908152602001600020805480919060019003614aec9190615927565b5050505050565b609c60008373ffffffffffffffffffffffffffffffffffffffff1673ffffffffffffffffffffffffffffffffffffffff16815260200190815260200160002080549050609d600083815260200190815260200160002081905550609c60008373ffffffffffffffffffffffffffffffffffffffff1673ffffffffffffffffffffffffffffffffffffffff1681526020019081526020016000208190806001815401808255809150509060018203906000526020600020016000909192909190915055505050565b600073ffffffffffffffffffffffffffffffffffffffff168273ffffffffffffffffffffffffffffffffffffffff161415614c5d576040517f08c379a00000000000000000000000000000000000000000000000000000000081526004018080602001828103825260208152602001807f4552433732313a206d696e7420746f20746865207a65726f206164647265737381525060200191505060405180910390fd5b614c66816131b2565b15614cd9576040517f08c379a000000000000000000000000000000000000000000000000000000000815260040180806020018281038252601c8152602001807f4552433732313a20746f6b656e20616c7265616479206d696e7465640000000081525060200191505060405180910390fd5b816066600083815260200190815260200160002060006101000a81548173ffffffffffffffffffffffffffffffffffffffff021916908373ffffffffffffffffffffffffffffffffffffffff160217905550614d72606860008473ffffffffffffffffffffffffffffffffffffffff1673ffffffffffffffffffffffffffffffffffffffff1681526020019081526020016000206144dc565b808273ffffffffffffffffffffffffffffffffffffffff16600073ffffffffffffffffffffffffffffffffffffffff167fddf252ad1be2c89b69c2b068fc378daa952ba7f163c4a11628f55a4df523b3ef60405160405180910390a45050565b609e80549050609f600083815260200190815260200160002081905550609e81908060018154018082558091505090600182039060005260206000200160009091929091909150555050565b614e288282613500565b614e7d576040517f08c379a0000000000000000000000000000000000000000000000000000000008152600401808060200182810382526021815260200180615c0e6021913960400191505060405180910390fd5b60008260000160008373ffffffffffffffffffffffffffffffffffffffff1673ffffffffffffffffffffffffffffffffffffffff16815260200190815260200160002060006101000a81548160ff0219169083151502179055505050565b600060019054906101000a900460ff1680614efa5750614ef96136cf565b5b80614f1157506000809054906101000a900460ff16155b614f66576040517f08c379a000000000000000000000000000000000000000000000000000000000815260040180806020018281038252602e815260200180615cd2602e913960400191505060405180910390fd5b60008060019054906101000a900460ff161590508015614fb6576001600060016101000a81548160ff02191690831515021790555060016000806101000a81548160ff0219169083151502179055505b614fc66301ffc9a760e01b614fea565b8015614fe75760008060016101000a81548160ff0219169083151502179055505b50565b63ffffffff60e01b817bffffffffffffffffffffffffffffffffffffffffffffffffffffffff19161415615086576040517f08c379a000000000000000000000000000000000000000000000000000000000815260040180806020018281038252601c8152602001807f4552433136353a20696e76616c696420696e746572666163652069640000000081525060200191505060405180910390fd5b600160336000837bffffffffffffffffffffffffffffffffffffffffffffffffffffffff19167bffffffffffffffffffffffffffffffffffffffffffffffffffffffff1916815260200190815260200160002060006101000a81548160ff02191690831515021790555050565b60006151056380ac58cd60e01b61136f565b905090565b600060019054906101000a900460ff168061512957506151286136cf565b5b8061514057506000809054906101000a900460ff16155b615195576040517f08c379a000000000000000000000000000000000000000000000000000000000815260040180806020018281038252602e815260200180615cd2602e913960400191505060405180910390fd5b60008060019054906101000a900460ff1615905080156151e5576001600060016101000a81548160ff02191690831515021790555060016000806101000a81548160ff0219169083151502179055505b6151ee82612be3565b6151fc576151fb82613c05565b5b801561521d5760008060016101000a81548160ff0219169083151502179055505b5050565b61522b8282613500565b1561529e576040517f08c379a000000000000000000000000000000000000000000000000000000000815260040180806020018281038252601f8152602001807f526f6c65733a206163636f756e7420616c72656164792068617320726f6c650081525060200191505060405180910390fd5b60018260000160008373ffffffffffffffffffffffffffffffffffffffff1673ffffffffffffffffffffffffffffffffffffffff16815260200190815260200160002060006101000a81548160ff0219169083151502179055505050565b600061531d8473ffffffffffffffffffffffffffffffffffffffff1661583b565b61532a57600190506154e4565b60008473ffffffffffffffffffffffffffffffffffffffff1663150b7a02615350613224565b8887876040518563ffffffff1660e01b8152600401808573ffffffffffffffffffffffffffffffffffffffff1673ffffffffffffffffffffffffffffffffffffffff1681526020018473ffffffffffffffffffffffffffffffffffffffff1673ffffffffffffffffffffffffffffffffffffffff16815260200183815260200180602001828103825283818151815260200191508051906020019080838360005b8381101561540c5780820151818401526020810190506153f1565b50505050905090810190601f1680156154395780820380516001836020036101000a031916815260200191505b5095505050505050602060405180830381600087803b15801561545b57600080fd5b505af115801561546f573d6000803e3d6000fd5b505050506040513d602081101561548557600080fd5b8101908080519060200190929190505050905063150b7a0260e01b7bffffffffffffffffffffffffffffffffffffffffffffffffffffffff1916817bffffffffffffffffffffffffffffffffffffffffffffffffffffffff1916149150505b949350505050565b6000615545600161020760008673ffffffffffffffffffffffffffffffffffffffff1673ffffffffffffffffffffffffffffffffffffffff1681526020019081526020016000208054905061322c90919063ffffffff16565b90506000610208600084815260200190815260200160002054905081811461563657600061020760008673ffffffffffffffffffffffffffffffffffffffff1673ffffffffffffffffffffffffffffffffffffffff16815260200190815260200160002083815481106155b457fe5b906000526020600020015490508061020760008773ffffffffffffffffffffffffffffffffffffffff1673ffffffffffffffffffffffffffffffffffffffff168152602001908152602001600020838154811061560d57fe5b906000526020600020018190555081610208600083815260200190815260200160002081905550505b61020760008573ffffffffffffffffffffffffffffffffffffffff1673ffffffffffffffffffffffffffffffffffffffff1681526020019081526020016000208054809190600190036156899190615927565b5050505050565b6156a86001826000015461322c90919063ffffffff16565b816000018190555050565b61020760008373ffffffffffffffffffffffffffffffffffffffff1673ffffffffffffffffffffffffffffffffffffffff1681526020019081526020016000208054905061020860008381526020019081526020016000208190555061020760008373ffffffffffffffffffffffffffffffffffffffff1673ffffffffffffffffffffffffffffffffffffffff1681526020019081526020016000208190806001815401808255809150509060018203906000526020600020016000909192909190915055505050565b600073ffffffffffffffffffffffffffffffffffffffff166067600083815260200190815260200160002060009054906101000a900473ffffffffffffffffffffffffffffffffffffffff1673ffffffffffffffffffffffffffffffffffffffff16146158385760006067600083815260200190815260200160002060006101000a81548173ffffffffffffffffffffffffffffffffffffffff021916908373ffffffffffffffffffffffffffffffffffffffff1602179055505b50565b60008060007fc5d2460186f7233c927e7db2dcc703c0e500b653ca82273b7bfad8045d85a47060001b9050833f91506000801b821415801561587d5750808214155b92505050919050565b60405180606001604052806060815260200160608152602001600081525090565b828054600181600116156101000203166002900490600052602060002090601f016020900481019282601f106158e857805160ff1916838001178555615916565b82800160010185558215615916579182015b828111156159155782518255916020019190600101906158fa565b5b5090506159239190615953565b5090565b81548183558181111561594e5781836000526020600020918201910161594d9190615953565b5b505050565b61597591905b80821115615971576000816000905550600101615959565b5090565b9056fe5468696e673a206f776e657220717565727920666f72206e6f6e6578697374656e7420746f6b656e5468696e673a20746f6b656e206973206c6f636b65642c2063616e7420626f72726f77206974455243373231456e756d657261626c653a206f776e657220696e646578206f7574206f6620626f756e64734552433732313a207472616e7366657220746f206e6f6e20455243373231526563656976657220696d706c656d656e746572506175736572526f6c653a2063616c6c657220646f6573206e6f742068617665207468652050617573657220726f6c654f776e61626c653a206e6577206f776e657220697320746865207a65726f20616464726573735468696e673a206f6e6c7920746865206f776e6572206f66206120746f6b656e2063616e206c6f636b2069745468696e673a20796f7520616c726561647920626561722074686174206f626a6563744552433732313a207472616e7366657220746f20746865207a65726f2061646472657373416464726573733a20756e61626c6520746f2073656e642076616c75652c20726563697069656e74206d617920686176652072657665727465644552433732313a206f70657261746f7220717565727920666f72206e6f6e6578697374656e7420746f6b656e4552433732313a20617070726f76652063616c6c6572206973206e6f74206f776e6572206e6f7220617070726f76656420666f7220616c6c4552433732313a2062616c616e636520717565727920666f7220746865207a65726f20616464726573734552433732313a206f776e657220717565727920666f72206e6f6e6578697374656e7420746f6b656e4d696e746572526f6c653a2063616c6c657220646f6573206e6f74206861766520746865204d696e74657220726f6c65526f6c65733a206163636f756e7420646f6573206e6f74206861766520726f6c655468696e673a207472616e7366657220746f20746865207a65726f20616464726573734552433732313a20617070726f76656420717565727920666f72206e6f6e6578697374656e7420746f6b656e5468696e673a206465706f736974206973206e6f7420656e6f75676820746f20626f72726f772074686973206f626a656374526f6c65733a206163636f756e7420697320746865207a65726f2061646472657373436f6e747261637420696e7374616e63652068617320616c7265616479206265656e20696e697469616c697a65644552433732313a207472616e73666572206f6620746f6b656e2074686174206973206e6f74206f776e4552433732313a20617070726f76616c20746f2063757272656e74206f776e65724552433732313a207472616e736665722063616c6c6572206973206e6f74206f776e6572206e6f7220617070726f766564455243373231456e756d657261626c653a20676c6f62616c20696e646578206f7574206f6620626f756e6473516d577a71334b6a786f337a536553334b5278543673757071396b375a42526356474778416b4a6d7059744d4e43a265627a7a72315820aeb2aa0731fcbc810bebe27d2f11a65595b975e6c47740b10456486a48068ca664736f6c634300050b0032",
  "compiler": {
    "name": "solc",
    "version": "0.5.11+commit.c082d0b4.Emscripten.clang",
    "optimizer": {
      "enabled": false,
      "runs": 200
    },
    "evmVersion": "constantinople"
  }
}